{
  "contractName": "IkonDAOTimelock",
  "abi": [
    {
      "anonymous": false,
      "inputs": [
        {
          "indexed": true,
          "internalType": "bytes32",
          "name": "id",
          "type": "bytes32"
        },
        {
          "indexed": true,
          "internalType": "uint256",
          "name": "index",
          "type": "uint256"
        },
        {
          "indexed": false,
          "internalType": "address",
          "name": "target",
          "type": "address"
        },
        {
          "indexed": false,
          "internalType": "uint256",
          "name": "value",
          "type": "uint256"
        },
        {
          "indexed": false,
          "internalType": "bytes",
          "name": "data",
          "type": "bytes"
        }
      ],
      "name": "CallExecuted",
      "type": "event"
    },
    {
      "anonymous": false,
      "inputs": [
        {
          "indexed": true,
          "internalType": "bytes32",
          "name": "id",
          "type": "bytes32"
        },
        {
          "indexed": true,
          "internalType": "uint256",
          "name": "index",
          "type": "uint256"
        },
        {
          "indexed": false,
          "internalType": "address",
          "name": "target",
          "type": "address"
        },
        {
          "indexed": false,
          "internalType": "uint256",
          "name": "value",
          "type": "uint256"
        },
        {
          "indexed": false,
          "internalType": "bytes",
          "name": "data",
          "type": "bytes"
        },
        {
          "indexed": false,
          "internalType": "bytes32",
          "name": "predecessor",
          "type": "bytes32"
        },
        {
          "indexed": false,
          "internalType": "uint256",
          "name": "delay",
          "type": "uint256"
        }
      ],
      "name": "CallScheduled",
      "type": "event"
    },
    {
      "anonymous": false,
      "inputs": [
        {
          "indexed": true,
          "internalType": "bytes32",
          "name": "id",
          "type": "bytes32"
        }
      ],
      "name": "Cancelled",
      "type": "event"
    },
    {
      "anonymous": false,
      "inputs": [
        {
          "indexed": false,
          "internalType": "uint256",
          "name": "oldDuration",
          "type": "uint256"
        },
        {
          "indexed": false,
          "internalType": "uint256",
          "name": "newDuration",
          "type": "uint256"
        }
      ],
      "name": "MinDelayChange",
      "type": "event"
    },
    {
      "anonymous": false,
      "inputs": [
        {
          "indexed": true,
          "internalType": "address",
          "name": "previousOwner",
          "type": "address"
        },
        {
          "indexed": true,
          "internalType": "address",
          "name": "newOwner",
          "type": "address"
        }
      ],
      "name": "OwnershipTransferred",
      "type": "event"
    },
    {
      "anonymous": false,
      "inputs": [
        {
          "indexed": true,
          "internalType": "bytes32",
          "name": "role",
          "type": "bytes32"
        },
        {
          "indexed": true,
          "internalType": "bytes32",
          "name": "previousAdminRole",
          "type": "bytes32"
        },
        {
          "indexed": true,
          "internalType": "bytes32",
          "name": "newAdminRole",
          "type": "bytes32"
        }
      ],
      "name": "RoleAdminChanged",
      "type": "event"
    },
    {
      "anonymous": false,
      "inputs": [
        {
          "indexed": true,
          "internalType": "bytes32",
          "name": "role",
          "type": "bytes32"
        },
        {
          "indexed": true,
          "internalType": "address",
          "name": "account",
          "type": "address"
        },
        {
          "indexed": true,
          "internalType": "address",
          "name": "sender",
          "type": "address"
        }
      ],
      "name": "RoleGranted",
      "type": "event"
    },
    {
      "anonymous": false,
      "inputs": [
        {
          "indexed": true,
          "internalType": "bytes32",
          "name": "role",
          "type": "bytes32"
        },
        {
          "indexed": true,
          "internalType": "address",
          "name": "account",
          "type": "address"
        },
        {
          "indexed": true,
          "internalType": "address",
          "name": "sender",
          "type": "address"
        }
      ],
      "name": "RoleRevoked",
      "type": "event"
    },
    {
      "inputs": [],
      "name": "DEFAULT_ADMIN_ROLE",
      "outputs": [
        {
          "internalType": "bytes32",
          "name": "",
          "type": "bytes32"
        }
      ],
      "stateMutability": "view",
      "type": "function"
    },
    {
      "inputs": [],
      "name": "EXECUTOR_ROLE",
      "outputs": [
        {
          "internalType": "bytes32",
          "name": "",
          "type": "bytes32"
        }
      ],
      "stateMutability": "view",
      "type": "function"
    },
    {
      "inputs": [],
      "name": "PROPOSER_ROLE",
      "outputs": [
        {
          "internalType": "bytes32",
          "name": "",
          "type": "bytes32"
        }
      ],
      "stateMutability": "view",
      "type": "function"
    },
    {
      "inputs": [],
      "name": "TIMELOCK_ADMIN_ROLE",
      "outputs": [
        {
          "internalType": "bytes32",
          "name": "",
          "type": "bytes32"
        }
      ],
      "stateMutability": "view",
      "type": "function"
    },
    {
      "inputs": [
        {
          "internalType": "bytes32",
          "name": "id",
          "type": "bytes32"
        }
      ],
      "name": "cancel",
      "outputs": [],
      "stateMutability": "nonpayable",
      "type": "function"
    },
    {
      "inputs": [
        {
          "internalType": "address",
          "name": "target",
          "type": "address"
        },
        {
          "internalType": "uint256",
          "name": "value",
          "type": "uint256"
        },
        {
          "internalType": "bytes",
          "name": "data",
          "type": "bytes"
        },
        {
          "internalType": "bytes32",
          "name": "predecessor",
          "type": "bytes32"
        },
        {
          "internalType": "bytes32",
          "name": "salt",
          "type": "bytes32"
        }
      ],
      "name": "execute",
      "outputs": [],
      "stateMutability": "payable",
      "type": "function"
    },
    {
      "inputs": [
        {
          "internalType": "address[]",
          "name": "targets",
          "type": "address[]"
        },
        {
          "internalType": "uint256[]",
          "name": "values",
          "type": "uint256[]"
        },
        {
          "internalType": "bytes[]",
          "name": "datas",
          "type": "bytes[]"
        },
        {
          "internalType": "bytes32",
          "name": "predecessor",
          "type": "bytes32"
        },
        {
          "internalType": "bytes32",
          "name": "salt",
          "type": "bytes32"
        }
      ],
      "name": "executeBatch",
      "outputs": [],
      "stateMutability": "payable",
      "type": "function"
    },
    {
      "inputs": [],
      "name": "getMinDelay",
      "outputs": [
        {
          "internalType": "uint256",
          "name": "duration",
          "type": "uint256"
        }
      ],
      "stateMutability": "view",
      "type": "function"
    },
    {
      "inputs": [
        {
          "internalType": "bytes32",
          "name": "role",
          "type": "bytes32"
        }
      ],
      "name": "getRoleAdmin",
      "outputs": [
        {
          "internalType": "bytes32",
          "name": "",
          "type": "bytes32"
        }
      ],
      "stateMutability": "view",
      "type": "function"
    },
    {
      "inputs": [
        {
          "internalType": "bytes32",
          "name": "id",
          "type": "bytes32"
        }
      ],
      "name": "getTimestamp",
      "outputs": [
        {
          "internalType": "uint256",
          "name": "timestamp",
          "type": "uint256"
        }
      ],
      "stateMutability": "view",
      "type": "function"
    },
    {
      "inputs": [
        {
          "internalType": "bytes32",
          "name": "role",
          "type": "bytes32"
        },
        {
          "internalType": "address",
          "name": "account",
          "type": "address"
        }
      ],
      "name": "grantRole",
      "outputs": [],
      "stateMutability": "nonpayable",
      "type": "function"
    },
    {
      "inputs": [
        {
          "internalType": "bytes32",
          "name": "role",
          "type": "bytes32"
        },
        {
          "internalType": "address",
          "name": "account",
          "type": "address"
        }
      ],
      "name": "hasRole",
      "outputs": [
        {
          "internalType": "bool",
          "name": "",
          "type": "bool"
        }
      ],
      "stateMutability": "view",
      "type": "function"
    },
    {
      "inputs": [
        {
          "internalType": "address",
          "name": "target",
          "type": "address"
        },
        {
          "internalType": "uint256",
          "name": "value",
          "type": "uint256"
        },
        {
          "internalType": "bytes",
          "name": "data",
          "type": "bytes"
        },
        {
          "internalType": "bytes32",
          "name": "predecessor",
          "type": "bytes32"
        },
        {
          "internalType": "bytes32",
          "name": "salt",
          "type": "bytes32"
        }
      ],
      "name": "hashOperation",
      "outputs": [
        {
          "internalType": "bytes32",
          "name": "hash",
          "type": "bytes32"
        }
      ],
      "stateMutability": "pure",
      "type": "function"
    },
    {
      "inputs": [
        {
          "internalType": "address[]",
          "name": "targets",
          "type": "address[]"
        },
        {
          "internalType": "uint256[]",
          "name": "values",
          "type": "uint256[]"
        },
        {
          "internalType": "bytes[]",
          "name": "datas",
          "type": "bytes[]"
        },
        {
          "internalType": "bytes32",
          "name": "predecessor",
          "type": "bytes32"
        },
        {
          "internalType": "bytes32",
          "name": "salt",
          "type": "bytes32"
        }
      ],
      "name": "hashOperationBatch",
      "outputs": [
        {
          "internalType": "bytes32",
          "name": "hash",
          "type": "bytes32"
        }
      ],
      "stateMutability": "pure",
      "type": "function"
    },
    {
      "inputs": [
        {
          "internalType": "bytes32",
          "name": "id",
          "type": "bytes32"
        }
      ],
      "name": "isOperation",
      "outputs": [
        {
          "internalType": "bool",
          "name": "pending",
          "type": "bool"
        }
      ],
      "stateMutability": "view",
      "type": "function"
    },
    {
      "inputs": [
        {
          "internalType": "bytes32",
          "name": "id",
          "type": "bytes32"
        }
      ],
      "name": "isOperationDone",
      "outputs": [
        {
          "internalType": "bool",
          "name": "done",
          "type": "bool"
        }
      ],
      "stateMutability": "view",
      "type": "function"
    },
    {
      "inputs": [
        {
          "internalType": "bytes32",
          "name": "id",
          "type": "bytes32"
        }
      ],
      "name": "isOperationPending",
      "outputs": [
        {
          "internalType": "bool",
          "name": "pending",
          "type": "bool"
        }
      ],
      "stateMutability": "view",
      "type": "function"
    },
    {
      "inputs": [
        {
          "internalType": "bytes32",
          "name": "id",
          "type": "bytes32"
        }
      ],
      "name": "isOperationReady",
      "outputs": [
        {
          "internalType": "bool",
          "name": "ready",
          "type": "bool"
        }
      ],
      "stateMutability": "view",
      "type": "function"
    },
    {
      "inputs": [],
      "name": "owner",
      "outputs": [
        {
          "internalType": "address",
          "name": "",
          "type": "address"
        }
      ],
      "stateMutability": "view",
      "type": "function"
    },
    {
      "inputs": [],
      "name": "renounceOwnership",
      "outputs": [],
      "stateMutability": "nonpayable",
      "type": "function"
    },
    {
      "inputs": [
        {
          "internalType": "bytes32",
          "name": "role",
          "type": "bytes32"
        },
        {
          "internalType": "address",
          "name": "account",
          "type": "address"
        }
      ],
      "name": "renounceRole",
      "outputs": [],
      "stateMutability": "nonpayable",
      "type": "function"
    },
    {
      "inputs": [
        {
          "internalType": "bytes32",
          "name": "role",
          "type": "bytes32"
        },
        {
          "internalType": "address",
          "name": "account",
          "type": "address"
        }
      ],
      "name": "revokeRole",
      "outputs": [],
      "stateMutability": "nonpayable",
      "type": "function"
    },
    {
      "inputs": [
        {
          "internalType": "address",
          "name": "target",
          "type": "address"
        },
        {
          "internalType": "uint256",
          "name": "value",
          "type": "uint256"
        },
        {
          "internalType": "bytes",
          "name": "data",
          "type": "bytes"
        },
        {
          "internalType": "bytes32",
          "name": "predecessor",
          "type": "bytes32"
        },
        {
          "internalType": "bytes32",
          "name": "salt",
          "type": "bytes32"
        },
        {
          "internalType": "uint256",
          "name": "delay",
          "type": "uint256"
        }
      ],
      "name": "schedule",
      "outputs": [],
      "stateMutability": "nonpayable",
      "type": "function"
    },
    {
      "inputs": [
        {
          "internalType": "address[]",
          "name": "targets",
          "type": "address[]"
        },
        {
          "internalType": "uint256[]",
          "name": "values",
          "type": "uint256[]"
        },
        {
          "internalType": "bytes[]",
          "name": "datas",
          "type": "bytes[]"
        },
        {
          "internalType": "bytes32",
          "name": "predecessor",
          "type": "bytes32"
        },
        {
          "internalType": "bytes32",
          "name": "salt",
          "type": "bytes32"
        },
        {
          "internalType": "uint256",
          "name": "delay",
          "type": "uint256"
        }
      ],
      "name": "scheduleBatch",
      "outputs": [],
      "stateMutability": "nonpayable",
      "type": "function"
    },
    {
      "inputs": [
        {
          "internalType": "bytes4",
          "name": "interfaceId",
          "type": "bytes4"
        }
      ],
      "name": "supportsInterface",
      "outputs": [
        {
          "internalType": "bool",
          "name": "",
          "type": "bool"
        }
      ],
      "stateMutability": "view",
      "type": "function"
    },
    {
      "inputs": [
        {
          "internalType": "address",
          "name": "newOwner",
          "type": "address"
        }
      ],
      "name": "transferOwnership",
      "outputs": [],
      "stateMutability": "nonpayable",
      "type": "function"
    },
    {
      "inputs": [
        {
          "internalType": "uint256",
          "name": "newDelay",
          "type": "uint256"
        }
      ],
      "name": "updateDelay",
      "outputs": [],
      "stateMutability": "nonpayable",
      "type": "function"
    },
    {
      "stateMutability": "payable",
      "type": "receive"
    },
    {
      "inputs": [
        {
          "internalType": "uint256",
          "name": "delay",
          "type": "uint256"
        },
        {
          "internalType": "address[]",
          "name": "proposers",
          "type": "address[]"
        },
        {
          "internalType": "address[]",
          "name": "executors",
          "type": "address[]"
        }
      ],
      "name": "__IkonDAOTimelock_init",
      "outputs": [],
      "stateMutability": "nonpayable",
      "type": "function"
    }
  ],
  "bytecode": "0x608060405234801561001057600080fd5b50613b8a806100206000396000f3fe6080604052600436106101bb5760003560e01c80638065657f116100ec578063b1c5f4271161008a578063d547741f11610064578063d547741f14610652578063e38335e51461067b578063f27a0c9214610697578063f2fde38b146106c2576101c2565b8063b1c5f427146105af578063c4d252f5146105ec578063d45c443514610615576101c2565b80638f61f4f5116100c65780638f61f4f5146104f357806391d148541461051e578063a217fddf1461055b578063b1133e0c14610586576101c2565b80638065657f146104625780638da5cb5b1461049f5780638f2a0bb0146104ca576101c2565b80632ab0f5291161015957806336568abe1161013357806336568abe146103bc578063584b153e146103e557806364d6235314610422578063715018a61461044b576101c2565b80632ab0f529146103195780632f2ff15d1461035657806331d507501461037f576101c2565b80630d3cf6fc116101955780630d3cf6fc14610258578063134008d31461028357806313bc9f201461029f578063248a9ca3146102dc576101c2565b806301d5062a146101c757806301ffc9a7146101f057806307bd02651461022d576101c2565b366101c257005b600080fd5b3480156101d357600080fd5b506101ee60048036038101906101e9919061236f565b6106eb565b005b3480156101fc57600080fd5b5061021760048036038101906102129190612476565b610788565b60405161022491906124be565b60405180910390f35b34801561023957600080fd5b50610242610802565b60405161024f91906124e8565b60405180910390f35b34801561026457600080fd5b5061026d610826565b60405161027a91906124e8565b60405180910390f35b61029d60048036038101906102989190612503565b61084a565b005b3480156102ab57600080fd5b506102c660048036038101906102c1919061259d565b6108ca565b6040516102d391906124be565b60405180910390f35b3480156102e857600080fd5b5061030360048036038101906102fe919061259d565b6108f0565b60405161031091906124e8565b60405180910390f35b34801561032557600080fd5b50610340600480360381019061033b919061259d565b610910565b60405161034d91906124be565b60405180910390f35b34801561036257600080fd5b5061037d600480360381019061037891906125ca565b610925565b005b34801561038b57600080fd5b506103a660048036038101906103a1919061259d565b61094e565b6040516103b391906124be565b60405180910390f35b3480156103c857600080fd5b506103e360048036038101906103de91906125ca565b610962565b005b3480156103f157600080fd5b5061040c6004803603810190610407919061259d565b6109e5565b60405161041991906124be565b60405180910390f35b34801561042e57600080fd5b506104496004803603810190610444919061260a565b6109fa565b005b34801561045757600080fd5b50610460610aad565b005b34801561046e57600080fd5b5061048960048036038101906104849190612503565b610b35565b60405161049691906124e8565b60405180910390f35b3480156104ab57600080fd5b506104b4610b74565b6040516104c19190612646565b60405180910390f35b3480156104d657600080fd5b506104f160048036038101906104ec9190612763565b610b9e565b005b3480156104ff57600080fd5b50610508610d51565b60405161051591906124e8565b60405180910390f35b34801561052a57600080fd5b50610545600480360381019061054091906125ca565b610d75565b60405161055291906124be565b60405180910390f35b34801561056757600080fd5b50610570610de0565b60405161057d91906124e8565b60405180910390f35b34801561059257600080fd5b506105ad60048036038101906105a891906129a1565b610de7565b005b3480156105bb57600080fd5b506105d660048036038101906105d19190612a2c565b610ece565b6040516105e391906124e8565b60405180910390f35b3480156105f857600080fd5b50610613600480360381019061060e919061259d565b610f13565b005b34801561062157600080fd5b5061063c6004803603810190610637919061259d565b610fd5565b6040516106499190612b17565b60405180910390f35b34801561065e57600080fd5b50610679600480360381019061067491906125ca565b610ff2565b005b61069560048036038101906106909190612a2c565b61101b565b005b3480156106a357600080fd5b506106ac6111b1565b6040516106b99190612b17565b60405180910390f35b3480156106ce57600080fd5b506106e960048036038101906106e49190612b32565b6111bb565b005b7fb09aa5aeb3702cfd50b6b62bc4532604938f21248a27a1d5ca736082b6819cc161071d816107186112b3565b6112bb565b600061072d898989898989610b35565b90506107398184611358565b6000817f4cf4410cc57040e44862ef0f45f3dd5a5e02db8eb8add648d4b0e236f1d07dca8b8b8b8b8b8a60405161077596959493929190612bac565b60405180910390a3505050505050505050565b60007f7965db0b000000000000000000000000000000000000000000000000000000007bffffffffffffffffffffffffffffffffffffffffffffffffffffffff1916827bffffffffffffffffffffffffffffffffffffffffffffffffffffffff191614806107fb57506107fa82611412565b5b9050919050565b7fd8aa0f3194971a2a116679f7c2090f6939c8d4e01a2a8d7e41d55e5351469e6381565b7f5f58e3a2316349923ce3780f8d587db2d72378aed66a8261c916544fa6846ca581565b7fd8aa0f3194971a2a116679f7c2090f6939c8d4e01a2a8d7e41d55e5351469e63610876816000610d75565b61088c5761088b816108866112b3565b6112bb565b5b600061089c888888888888610b35565b90506108a8818561147c565b6108b78160008a8a8a8a61151d565b6108c081611615565b5050505050505050565b6000806108d683610fd5565b90506001811180156108e85750428111155b915050919050565b600060976000838152602001908152602001600020600101549050919050565b6000600161091d83610fd5565b149050919050565b61092e826108f0565b61093f8161093a6112b3565b6112bb565b6109498383611679565b505050565b60008061095a83610fd5565b119050919050565b61096a6112b3565b73ffffffffffffffffffffffffffffffffffffffff168173ffffffffffffffffffffffffffffffffffffffff16146109d7576040517f08c379a00000000000000000000000000000000000000000000000000000000081526004016109ce90612c8b565b60405180910390fd5b6109e1828261175a565b5050565b600060016109f283610fd5565b119050919050565b3073ffffffffffffffffffffffffffffffffffffffff163373ffffffffffffffffffffffffffffffffffffffff1614610a68576040517f08c379a0000000000000000000000000000000000000000000000000000000008152600401610a5f90612d1d565b60405180910390fd5b7f11c24f4ead16507c69ac467fbd5e4eed5fb5c699626d2cc6d66421df253886d560ca5482604051610a9b929190612d3d565b60405180910390a18060ca8190555050565b610ab56112b3565b73ffffffffffffffffffffffffffffffffffffffff16610ad3610b74565b73ffffffffffffffffffffffffffffffffffffffff1614610b29576040517f08c379a0000000000000000000000000000000000000000000000000000000008152600401610b2090612db2565b60405180910390fd5b610b33600061183c565b565b6000868686868686604051602001610b5296959493929190612dd2565b6040516020818303038152906040528051906020012090509695505050505050565b6000603360009054906101000a900473ffffffffffffffffffffffffffffffffffffffff16905090565b7fb09aa5aeb3702cfd50b6b62bc4532604938f21248a27a1d5ca736082b6819cc1610bd081610bcb6112b3565b6112bb565b878790508a8a905014610c18576040517f08c379a0000000000000000000000000000000000000000000000000000000008152600401610c0f90612ea0565b60405180910390fd5b858590508a8a905014610c60576040517f08c379a0000000000000000000000000000000000000000000000000000000008152600401610c5790612ea0565b60405180910390fd5b6000610c728b8b8b8b8b8b8b8b610ece565b9050610c7e8184611358565b60005b8b8b9050811015610d435780827f4cf4410cc57040e44862ef0f45f3dd5a5e02db8eb8add648d4b0e236f1d07dca8e8e85818110610cc257610cc1612ec0565b5b9050602002016020810190610cd79190612b32565b8d8d86818110610cea57610ce9612ec0565b5b905060200201358c8c87818110610d0457610d03612ec0565b5b9050602002810190610d169190612efe565b8c8b604051610d2a96959493929190612bac565b60405180910390a380610d3c90612f90565b9050610c81565b505050505050505050505050565b7fb09aa5aeb3702cfd50b6b62bc4532604938f21248a27a1d5ca736082b6819cc181565b60006097600084815260200190815260200160002060000160008373ffffffffffffffffffffffffffffffffffffffff1673ffffffffffffffffffffffffffffffffffffffff16815260200190815260200160002060009054906101000a900460ff16905092915050565b6000801b81565b600060019054906101000a900460ff1680610e0d575060008054906101000a900460ff16155b610e4c576040517f08c379a0000000000000000000000000000000000000000000000000000000008152600401610e439061304b565b60405180910390fd5b60008060019054906101000a900460ff161590508015610e9c576001600060016101000a81548160ff02191690831515021790555060016000806101000a81548160ff0219169083151502179055505b610ea7848484611902565b8015610ec85760008060016101000a81548160ff0219169083151502179055505b50505050565b60008888888888888888604051602001610eef989796959493929190613304565b60405160208183030381529060405280519060200120905098975050505050505050565b7fb09aa5aeb3702cfd50b6b62bc4532604938f21248a27a1d5ca736082b6819cc1610f4581610f406112b3565b6112bb565b610f4e826109e5565b610f8d576040517f08c379a0000000000000000000000000000000000000000000000000000000008152600401610f84906133e4565b60405180910390fd5b60c9600083815260200190815260200160002060009055817fbaa1eb22f2a492ba1a5fea61b8df4d27c6c8b5f3971e63bb58fa14ff72eedb7060405160405180910390a25050565b600060c96000838152602001908152602001600020549050919050565b610ffb826108f0565b61100c816110076112b3565b6112bb565b611016838361175a565b505050565b7fd8aa0f3194971a2a116679f7c2090f6939c8d4e01a2a8d7e41d55e5351469e63611047816000610d75565b61105d5761105c816110576112b3565b6112bb565b5b8686905089899050146110a5576040517f08c379a000000000000000000000000000000000000000000000000000000000815260040161109c90612ea0565b60405180910390fd5b8484905089899050146110ed576040517f08c379a00000000000000000000000000000000000000000000000000000000081526004016110e490612ea0565b60405180910390fd5b60006110ff8a8a8a8a8a8a8a8a610ece565b905061110b818561147c565b60005b8a8a905081101561119b5761118a82828d8d8581811061113157611130612ec0565b5b90506020020160208101906111469190612b32565b8c8c8681811061115957611158612ec0565b5b905060200201358b8b8781811061117357611172612ec0565b5b90506020028101906111859190612efe565b61151d565b8061119490612f90565b905061110e565b506111a581611615565b50505050505050505050565b600060ca54905090565b6111c36112b3565b73ffffffffffffffffffffffffffffffffffffffff166111e1610b74565b73ffffffffffffffffffffffffffffffffffffffff1614611237576040517f08c379a000000000000000000000000000000000000000000000000000000000815260040161122e90612db2565b60405180910390fd5b600073ffffffffffffffffffffffffffffffffffffffff168173ffffffffffffffffffffffffffffffffffffffff1614156112a7576040517f08c379a000000000000000000000000000000000000000000000000000000000815260040161129e90613476565b60405180910390fd5b6112b08161183c565b50565b600033905090565b6112c58282610d75565b611354576112ea8173ffffffffffffffffffffffffffffffffffffffff166014611a01565b6112f88360001c6020611a01565b6040516020016113099291906135a8565b6040516020818303038152906040526040517f08c379a000000000000000000000000000000000000000000000000000000000815260040161134b919061361b565b60405180910390fd5b5050565b6113618261094e565b156113a1576040517f08c379a0000000000000000000000000000000000000000000000000000000008152600401611398906136af565b60405180910390fd5b6113a96111b1565b8110156113eb576040517f08c379a00000000000000000000000000000000000000000000000000000000081526004016113e290613741565b60405180910390fd5b80426113f79190613761565b60c96000848152602001908152602001600020819055505050565b60007f01ffc9a7000000000000000000000000000000000000000000000000000000007bffffffffffffffffffffffffffffffffffffffffffffffffffffffff1916827bffffffffffffffffffffffffffffffffffffffffffffffffffffffff1916149050919050565b611485826108ca565b6114c4576040517f08c379a00000000000000000000000000000000000000000000000000000000081526004016114bb90613829565b60405180910390fd5b6000801b8114806114da57506114d981610910565b5b611519576040517f08c379a0000000000000000000000000000000000000000000000000000000008152600401611510906138bb565b60405180910390fd5b5050565b60008473ffffffffffffffffffffffffffffffffffffffff1684848460405161154792919061390b565b60006040518083038185875af1925050503d8060008114611584576040519150601f19603f3d011682016040523d82523d6000602084013e611589565b606091505b50509050806115cd576040517f08c379a00000000000000000000000000000000000000000000000000000000081526004016115c490613996565b60405180910390fd5b85877fc2617efa69bab66782fa219543714338489c4e9e178271560a91b82c3f612b588787878760405161160494939291906139b6565b60405180910390a350505050505050565b61161e816108ca565b61165d576040517f08c379a000000000000000000000000000000000000000000000000000000000815260040161165490613829565b60405180910390fd5b600160c960008381526020019081526020016000208190555050565b6116838282610d75565b6117565760016097600084815260200190815260200160002060000160008373ffffffffffffffffffffffffffffffffffffffff1673ffffffffffffffffffffffffffffffffffffffff16815260200190815260200160002060006101000a81548160ff0219169083151502179055506116fb6112b3565b73ffffffffffffffffffffffffffffffffffffffff168173ffffffffffffffffffffffffffffffffffffffff16837f2f8788117e7eff1d82e926ec794901d17c78024a50270940304540a733656f0d60405160405180910390a45b5050565b6117648282610d75565b156118385760006097600084815260200190815260200160002060000160008373ffffffffffffffffffffffffffffffffffffffff1673ffffffffffffffffffffffffffffffffffffffff16815260200190815260200160002060006101000a81548160ff0219169083151502179055506117dd6112b3565b73ffffffffffffffffffffffffffffffffffffffff168173ffffffffffffffffffffffffffffffffffffffff16837ff6391f5c32d9c69d2a47ea670b442974b53935d1edc7fd64eb21e047a839171b60405160405180910390a45b5050565b6000603360009054906101000a900473ffffffffffffffffffffffffffffffffffffffff16905081603360006101000a81548173ffffffffffffffffffffffffffffffffffffffff021916908373ffffffffffffffffffffffffffffffffffffffff1602179055508173ffffffffffffffffffffffffffffffffffffffff168173ffffffffffffffffffffffffffffffffffffffff167f8be0079c531659141344cd1fd0a4f28419497f9722a3daafe3b4186f6b6457e060405160405180910390a35050565b600060019054906101000a900460ff1680611928575060008054906101000a900460ff16155b611967576040517f08c379a000000000000000000000000000000000000000000000000000000000815260040161195e9061304b565b60405180910390fd5b60008060019054906101000a900460ff1615905080156119b7576001600060016101000a81548160ff02191690831515021790555060016000806101000a81548160ff0219169083151502179055505b6119bf611c3d565b6119c7611d16565b6119cf611def565b6119da848484611ec8565b80156119fb5760008060016101000a81548160ff0219169083151502179055505b50505050565b606060006002836002611a1491906139f6565b611a1e9190613761565b67ffffffffffffffff811115611a3757611a36612863565b5b6040519080825280601f01601f191660200182016040528015611a695781602001600182028036833780820191505090505b5090507f300000000000000000000000000000000000000000000000000000000000000081600081518110611aa157611aa0612ec0565b5b60200101907effffffffffffffffffffffffffffffffffffffffffffffffffffffffffffff1916908160001a9053507f780000000000000000000000000000000000000000000000000000000000000081600181518110611b0557611b04612ec0565b5b60200101907effffffffffffffffffffffffffffffffffffffffffffffffffffffffffffff1916908160001a90535060006001846002611b4591906139f6565b611b4f9190613761565b90505b6001811115611bef577f3031323334353637383961626364656600000000000000000000000000000000600f861660108110611b9157611b90612ec0565b5b1a60f81b828281518110611ba857611ba7612ec0565b5b60200101907effffffffffffffffffffffffffffffffffffffffffffffffffffffffffffff1916908160001a905350600485901c945080611be890613a50565b9050611b52565b5060008414611c33576040517f08c379a0000000000000000000000000000000000000000000000000000000008152600401611c2a90613ac6565b60405180910390fd5b8091505092915050565b600060019054906101000a900460ff1680611c63575060008054906101000a900460ff16155b611ca2576040517f08c379a0000000000000000000000000000000000000000000000000000000008152600401611c999061304b565b60405180910390fd5b60008060019054906101000a900460ff161590508015611cf2576001600060016101000a81548160ff02191690831515021790555060016000806101000a81548160ff0219169083151502179055505b8015611d135760008060016101000a81548160ff0219169083151502179055505b50565b600060019054906101000a900460ff1680611d3c575060008054906101000a900460ff16155b611d7b576040517f08c379a0000000000000000000000000000000000000000000000000000000008152600401611d729061304b565b60405180910390fd5b60008060019054906101000a900460ff161590508015611dcb576001600060016101000a81548160ff02191690831515021790555060016000806101000a81548160ff0219169083151502179055505b8015611dec5760008060016101000a81548160ff0219169083151502179055505b50565b600060019054906101000a900460ff1680611e15575060008054906101000a900460ff16155b611e54576040517f08c379a0000000000000000000000000000000000000000000000000000000008152600401611e4b9061304b565b60405180910390fd5b60008060019054906101000a900460ff161590508015611ea4576001600060016101000a81548160ff02191690831515021790555060016000806101000a81548160ff0219169083151502179055505b8015611ec55760008060016101000a81548160ff0219169083151502179055505b50565b600060019054906101000a900460ff1680611eee575060008054906101000a900460ff16155b611f2d576040517f08c379a0000000000000000000000000000000000000000000000000000000008152600401611f249061304b565b60405180910390fd5b60008060019054906101000a900460ff161590508015611f7d576001600060016101000a81548160ff02191690831515021790555060016000806101000a81548160ff0219169083151502179055505b611fa77f5f58e3a2316349923ce3780f8d587db2d72378aed66a8261c916544fa6846ca5806121c2565b611ff17fb09aa5aeb3702cfd50b6b62bc4532604938f21248a27a1d5ca736082b6819cc17f5f58e3a2316349923ce3780f8d587db2d72378aed66a8261c916544fa6846ca56121c2565b61203b7fd8aa0f3194971a2a116679f7c2090f6939c8d4e01a2a8d7e41d55e5351469e637f5f58e3a2316349923ce3780f8d587db2d72378aed66a8261c916544fa6846ca56121c2565b61206c7f5f58e3a2316349923ce3780f8d587db2d72378aed66a8261c916544fa6846ca56120676112b3565b61221e565b6120967f5f58e3a2316349923ce3780f8d587db2d72378aed66a8261c916544fa6846ca53061221e565b60005b83518110156120f7576120e67fb09aa5aeb3702cfd50b6b62bc4532604938f21248a27a1d5ca736082b6819cc18583815181106120d9576120d8612ec0565b5b602002602001015161221e565b806120f090612f90565b9050612099565b5060005b8251811015612159576121487fd8aa0f3194971a2a116679f7c2090f6939c8d4e01a2a8d7e41d55e5351469e6384838151811061213b5761213a612ec0565b5b602002602001015161221e565b8061215290612f90565b90506120fb565b508360ca819055507f11c24f4ead16507c69ac467fbd5e4eed5fb5c699626d2cc6d66421df253886d5600085604051612193929190613b2b565b60405180910390a180156121bc5760008060016101000a81548160ff0219169083151502179055505b50505050565b60006121cd836108f0565b90508160976000858152602001908152602001600020600101819055508181847fbd79b86ffe0ab8e8776151514217cd7cacd52c909f66475c3af44e129f0b00ff60405160405180910390a4505050565b6122288282611679565b5050565b6000604051905090565b600080fd5b600080fd5b600073ffffffffffffffffffffffffffffffffffffffff82169050919050565b600061226b82612240565b9050919050565b61227b81612260565b811461228657600080fd5b50565b60008135905061229881612272565b92915050565b6000819050919050565b6122b18161229e565b81146122bc57600080fd5b50565b6000813590506122ce816122a8565b92915050565b600080fd5b600080fd5b600080fd5b60008083601f8401126122f9576122f86122d4565b5b8235905067ffffffffffffffff811115612316576123156122d9565b5b602083019150836001820283011115612332576123316122de565b5b9250929050565b6000819050919050565b61234c81612339565b811461235757600080fd5b50565b60008135905061236981612343565b92915050565b600080600080600080600060c0888a03121561238e5761238d612236565b5b600061239c8a828b01612289565b97505060206123ad8a828b016122bf565b965050604088013567ffffffffffffffff8111156123ce576123cd61223b565b5b6123da8a828b016122e3565b955095505060606123ed8a828b0161235a565b93505060806123fe8a828b0161235a565b92505060a061240f8a828b016122bf565b91505092959891949750929550565b60007fffffffff0000000000000000000000000000000000000000000000000000000082169050919050565b6124538161241e565b811461245e57600080fd5b50565b6000813590506124708161244a565b92915050565b60006020828403121561248c5761248b612236565b5b600061249a84828501612461565b91505092915050565b60008115159050919050565b6124b8816124a3565b82525050565b60006020820190506124d360008301846124af565b92915050565b6124e281612339565b82525050565b60006020820190506124fd60008301846124d9565b92915050565b60008060008060008060a087890312156125205761251f612236565b5b600061252e89828a01612289565b965050602061253f89828a016122bf565b955050604087013567ffffffffffffffff8111156125605761255f61223b565b5b61256c89828a016122e3565b9450945050606061257f89828a0161235a565b925050608061259089828a0161235a565b9150509295509295509295565b6000602082840312156125b3576125b2612236565b5b60006125c18482850161235a565b91505092915050565b600080604083850312156125e1576125e0612236565b5b60006125ef8582860161235a565b925050602061260085828601612289565b9150509250929050565b6000602082840312156126205761261f612236565b5b600061262e848285016122bf565b91505092915050565b61264081612260565b82525050565b600060208201905061265b6000830184612637565b92915050565b60008083601f840112612677576126766122d4565b5b8235905067ffffffffffffffff811115612694576126936122d9565b5b6020830191508360208202830111156126b0576126af6122de565b5b9250929050565b60008083601f8401126126cd576126cc6122d4565b5b8235905067ffffffffffffffff8111156126ea576126e96122d9565b5b602083019150836020820283011115612706576127056122de565b5b9250929050565b60008083601f840112612723576127226122d4565b5b8235905067ffffffffffffffff8111156127405761273f6122d9565b5b60208301915083602082028301111561275c5761275b6122de565b5b9250929050565b600080600080600080600080600060c08a8c03121561278557612784612236565b5b60008a013567ffffffffffffffff8111156127a3576127a261223b565b5b6127af8c828d01612661565b995099505060208a013567ffffffffffffffff8111156127d2576127d161223b565b5b6127de8c828d016126b7565b975097505060408a013567ffffffffffffffff8111156128015761280061223b565b5b61280d8c828d0161270d565b955095505060606128208c828d0161235a565b93505060806128318c828d0161235a565b92505060a06128428c828d016122bf565b9150509295985092959850929598565b6000601f19601f8301169050919050565b7f4e487b7100000000000000000000000000000000000000000000000000000000600052604160045260246000fd5b61289b82612852565b810181811067ffffffffffffffff821117156128ba576128b9612863565b5b80604052505050565b60006128cd61222c565b90506128d98282612892565b919050565b600067ffffffffffffffff8211156128f9576128f8612863565b5b602082029050602081019050919050565b600061291d612918846128de565b6128c3565b905080838252602082019050602084028301858111156129405761293f6122de565b5b835b8181101561296957806129558882612289565b845260208401935050602081019050612942565b5050509392505050565b600082601f830112612988576129876122d4565b5b813561299884826020860161290a565b91505092915050565b6000806000606084860312156129ba576129b9612236565b5b60006129c8868287016122bf565b935050602084013567ffffffffffffffff8111156129e9576129e861223b565b5b6129f586828701612973565b925050604084013567ffffffffffffffff811115612a1657612a1561223b565b5b612a2286828701612973565b9150509250925092565b60008060008060008060008060a0898b031215612a4c57612a4b612236565b5b600089013567ffffffffffffffff811115612a6a57612a6961223b565b5b612a768b828c01612661565b9850985050602089013567ffffffffffffffff811115612a9957612a9861223b565b5b612aa58b828c016126b7565b9650965050604089013567ffffffffffffffff811115612ac857612ac761223b565b5b612ad48b828c0161270d565b94509450506060612ae78b828c0161235a565b9250506080612af88b828c0161235a565b9150509295985092959890939650565b612b118161229e565b82525050565b6000602082019050612b2c6000830184612b08565b92915050565b600060208284031215612b4857612b47612236565b5b6000612b5684828501612289565b91505092915050565b600082825260208201905092915050565b82818337600083830152505050565b6000612b8b8385612b5f565b9350612b98838584612b70565b612ba183612852565b840190509392505050565b600060a082019050612bc16000830189612637565b612bce6020830188612b08565b8181036040830152612be1818688612b7f565b9050612bf060608301856124d9565b612bfd6080830184612b08565b979650505050505050565b600082825260208201905092915050565b7f416363657373436f6e74726f6c3a2063616e206f6e6c792072656e6f756e636560008201527f20726f6c657320666f722073656c660000000000000000000000000000000000602082015250565b6000612c75602f83612c08565b9150612c8082612c19565b604082019050919050565b60006020820190508181036000830152612ca481612c68565b9050919050565b7f54696d656c6f636b436f6e74726f6c6c65723a2063616c6c6572206d7573742060008201527f62652074696d656c6f636b000000000000000000000000000000000000000000602082015250565b6000612d07602b83612c08565b9150612d1282612cab565b604082019050919050565b60006020820190508181036000830152612d3681612cfa565b9050919050565b6000604082019050612d526000830185612b08565b612d5f6020830184612b08565b9392505050565b7f4f776e61626c653a2063616c6c6572206973206e6f7420746865206f776e6572600082015250565b6000612d9c602083612c08565b9150612da782612d66565b602082019050919050565b60006020820190508181036000830152612dcb81612d8f565b9050919050565b600060a082019050612de76000830189612637565b612df46020830188612b08565b8181036040830152612e07818688612b7f565b9050612e1660608301856124d9565b612e2360808301846124d9565b979650505050505050565b7f54696d656c6f636b436f6e74726f6c6c65723a206c656e677468206d69736d6160008201527f7463680000000000000000000000000000000000000000000000000000000000602082015250565b6000612e8a602383612c08565b9150612e9582612e2e565b604082019050919050565b60006020820190508181036000830152612eb981612e7d565b9050919050565b7f4e487b7100000000000000000000000000000000000000000000000000000000600052603260045260246000fd5b600080fd5b600080fd5b600080fd5b60008083356001602003843603038112612f1b57612f1a612eef565b5b80840192508235915067ffffffffffffffff821115612f3d57612f3c612ef4565b5b602083019250600182023603831315612f5957612f58612ef9565b5b509250929050565b7f4e487b7100000000000000000000000000000000000000000000000000000000600052601160045260246000fd5b6000612f9b8261229e565b91507fffffffffffffffffffffffffffffffffffffffffffffffffffffffffffffffff821415612fce57612fcd612f61565b5b600182019050919050565b7f496e697469616c697a61626c653a20636f6e747261637420697320616c72656160008201527f647920696e697469616c697a6564000000000000000000000000000000000000602082015250565b6000613035602e83612c08565b915061304082612fd9565b604082019050919050565b6000602082019050818103600083015261306481613028565b9050919050565b600082825260208201905092915050565b6000819050919050565b61308f81612260565b82525050565b60006130a18383613086565b60208301905092915050565b60006130bc6020840184612289565b905092915050565b6000602082019050919050565b60006130dd838561306b565b93506130e88261307c565b8060005b85811015613121576130fe82846130ad565b6131088882613095565b9750613113836130c4565b9250506001810190506130ec565b5085925050509392505050565b600082825260208201905092915050565b600080fd5b6000613150838561312e565b93507f07ffffffffffffffffffffffffffffffffffffffffffffffffffffffffffffff8311156131835761318261313f565b5b602083029250613194838584612b70565b82840190509392505050565b600082825260208201905092915050565b6000819050919050565b600082825260208201905092915050565b60006131d883856131bb565b93506131e5838584612b70565b6131ee83612852565b840190509392505050565b60006132068484846131cc565b90509392505050565b600080fd5b600080fd5b600080fd5b6000808335600160200384360303811261323b5761323a613219565b5b83810192508235915060208301925067ffffffffffffffff8211156132635761326261320f565b5b60018202360384131561327957613278613214565b5b509250929050565b6000602082019050919050565b600061329a83856131a0565b9350836020840285016132ac846131b1565b8060005b878110156132f25784840389526132c7828461321e565b6132d28682846131f9565b95506132dd84613281565b935060208b019a5050506001810190506132b0565b50829750879450505050509392505050565b600060a082019050818103600083015261331f818a8c6130d1565b9050818103602083015261333481888a613144565b9050818103604083015261334981868861328e565b905061335860608301856124d9565b61336560808301846124d9565b9998505050505050505050565b7f54696d656c6f636b436f6e74726f6c6c65723a206f7065726174696f6e20636160008201527f6e6e6f742062652063616e63656c6c6564000000000000000000000000000000602082015250565b60006133ce603183612c08565b91506133d982613372565b604082019050919050565b600060208201905081810360008301526133fd816133c1565b9050919050565b7f4f776e61626c653a206e6577206f776e657220697320746865207a65726f206160008201527f6464726573730000000000000000000000000000000000000000000000000000602082015250565b6000613460602683612c08565b915061346b82613404565b604082019050919050565b6000602082019050818103600083015261348f81613453565b9050919050565b600081905092915050565b7f416363657373436f6e74726f6c3a206163636f756e7420000000000000000000600082015250565b60006134d7601783613496565b91506134e2826134a1565b601782019050919050565b600081519050919050565b60005b838110156135165780820151818401526020810190506134fb565b83811115613525576000848401525b50505050565b6000613536826134ed565b6135408185613496565b93506135508185602086016134f8565b80840191505092915050565b7f206973206d697373696e6720726f6c6520000000000000000000000000000000600082015250565b6000613592601183613496565b915061359d8261355c565b601182019050919050565b60006135b3826134ca565b91506135bf828561352b565b91506135ca82613585565b91506135d6828461352b565b91508190509392505050565b60006135ed826134ed565b6135f78185612c08565b93506136078185602086016134f8565b61361081612852565b840191505092915050565b6000602082019050818103600083015261363581846135e2565b905092915050565b7f54696d656c6f636b436f6e74726f6c6c65723a206f7065726174696f6e20616c60008201527f7265616479207363686564756c65640000000000000000000000000000000000602082015250565b6000613699602f83612c08565b91506136a48261363d565b604082019050919050565b600060208201905081810360008301526136c88161368c565b9050919050565b7f54696d656c6f636b436f6e74726f6c6c65723a20696e73756666696369656e7460008201527f2064656c61790000000000000000000000000000000000000000000000000000602082015250565b600061372b602683612c08565b9150613736826136cf565b604082019050919050565b6000602082019050818103600083015261375a8161371e565b9050919050565b600061376c8261229e565b91506137778361229e565b9250827fffffffffffffffffffffffffffffffffffffffffffffffffffffffffffffffff038211156137ac576137ab612f61565b5b828201905092915050565b7f54696d656c6f636b436f6e74726f6c6c65723a206f7065726174696f6e20697360008201527f206e6f7420726561647900000000000000000000000000000000000000000000602082015250565b6000613813602a83612c08565b915061381e826137b7565b604082019050919050565b6000602082019050818103600083015261384281613806565b9050919050565b7f54696d656c6f636b436f6e74726f6c6c65723a206d697373696e67206465706560008201527f6e64656e63790000000000000000000000000000000000000000000000000000602082015250565b60006138a5602683612c08565b91506138b082613849565b604082019050919050565b600060208201905081810360008301526138d481613898565b9050919050565b600081905092915050565b60006138f283856138db565b93506138ff838584612b70565b82840190509392505050565b60006139188284866138e6565b91508190509392505050565b7f54696d656c6f636b436f6e74726f6c6c65723a20756e6465726c79696e67207460008201527f72616e73616374696f6e20726576657274656400000000000000000000000000602082015250565b6000613980603383612c08565b915061398b82613924565b604082019050919050565b600060208201905081810360008301526139af81613973565b9050919050565b60006060820190506139cb6000830187612637565b6139d86020830186612b08565b81810360408301526139eb818486612b7f565b905095945050505050565b6000613a018261229e565b9150613a0c8361229e565b9250817fffffffffffffffffffffffffffffffffffffffffffffffffffffffffffffffff0483118215151615613a4557613a44612f61565b5b828202905092915050565b6000613a5b8261229e565b91506000821415613a6f57613a6e612f61565b5b600182039050919050565b7f537472696e67733a20686578206c656e67746820696e73756666696369656e74600082015250565b6000613ab0602083612c08565b9150613abb82613a7a565b602082019050919050565b60006020820190508181036000830152613adf81613aa3565b9050919050565b6000819050919050565b6000819050919050565b6000613b15613b10613b0b84613ae6565b613af0565b61229e565b9050919050565b613b2581613afa565b82525050565b6000604082019050613b406000830185613b1c565b613b4d6020830184612b08565b939250505056fea264697066735822122061066889b6d81650c9488312f68327e5ffe010a248011753b6afde307fc497b964736f6c63430008090033",
  "immutableReferences": {},
  "source": "// SPDX-License-Identifier: MIT\npragma solidity ^0.8.0;\n\n/// @title The IKON DAO timelock controller - timelocker for the IKONDAO \n/// @author Fernando M. Trouw\n/// @notice this contract should be used for basic simulation purposes only \n/// @notice this contract is an experimental contract and should not be used to initiate project that will hold real value\n/// @dev functions currently implemented could contain side-effects\n\n// import \"@openzeppelin/contracts-upgradeable/proxy/utils/Initializable.sol\";\nimport \"@openzeppelin/contracts-upgradeable/access/OwnableUpgradeable.sol\";\nimport \"@openzeppelin/contracts-upgradeable/governance/TimelockControllerUpgradeable.sol\";\n\n\ncontract IkonDAOTimelock is OwnableUpgradeable, TimelockControllerUpgradeable {\n\n        /// @notice creates instance of daoTimelockController\n        /// @param delay minimum execution delay of successfull proposals\n        /// @param proposers list of addresses that will be allowed to make proposals\n        /// @param executors list of addresses this will be allowed to execute succeeded proposals          \n        function    __IkonDAOTimelock_init(uint256 delay, address[] memory proposers, address[] memory executors) external initializer {\n            __TimelockController_init(delay, proposers, executors);\n        }\n\n}",
  "sourcePath": "/run/media/rasguy92/SDD (windows)/projectIdeas/iconify/contracts/IkonDAOTimelock.sol",
  "compiler": {
    "name": "solc",
    "version": "0.8.9+commit.e5eed63a.Emscripten.clang"
  },
  "schemaVersion": "3.4.3",
  "updatedAt": "2021-10-23T06:30:17.667Z",
  "devdoc": {
    "kind": "dev",
    "methods": {
      "__IkonDAOTimelock_init(uint256,address[],address[])": {
        "params": {
          "delay": "minimum execution delay of successfull proposals",
          "executors": "list of addresses this will be allowed to execute succeeded proposals          ",
          "proposers": "list of addresses that will be allowed to make proposals"
        }
      },
      "cancel(bytes32)": {
        "details": "Cancel an operation. Requirements: - the caller must have the 'proposer' role."
      },
      "execute(address,uint256,bytes,bytes32,bytes32)": {
        "details": "Execute an (ready) operation containing a single transaction. Emits a {CallExecuted} event. Requirements: - the caller must have the 'executor' role."
      },
      "executeBatch(address[],uint256[],bytes[],bytes32,bytes32)": {
        "details": "Execute an (ready) operation containing a batch of transactions. Emits one {CallExecuted} event per transaction in the batch. Requirements: - the caller must have the 'executor' role."
      },
      "getMinDelay()": {
        "details": "Returns the minimum delay for an operation to become valid. This value can be changed by executing an operation that calls `updateDelay`."
      },
      "getRoleAdmin(bytes32)": {
        "details": "Returns the admin role that controls `role`. See {grantRole} and {revokeRole}. To change a role's admin, use {_setRoleAdmin}."
      },
      "getTimestamp(bytes32)": {
        "details": "Returns the timestamp at with an operation becomes ready (0 for unset operations, 1 for done operations)."
      },
      "grantRole(bytes32,address)": {
        "details": "Grants `role` to `account`. If `account` had not been already granted `role`, emits a {RoleGranted} event. Requirements: - the caller must have ``role``'s admin role."
      },
      "hasRole(bytes32,address)": {
        "details": "Returns `true` if `account` has been granted `role`."
      },
      "hashOperation(address,uint256,bytes,bytes32,bytes32)": {
        "details": "Returns the identifier of an operation containing a single transaction."
      },
      "hashOperationBatch(address[],uint256[],bytes[],bytes32,bytes32)": {
        "details": "Returns the identifier of an operation containing a batch of transactions."
      },
      "isOperation(bytes32)": {
        "details": "Returns whether an id correspond to a registered operation. This includes both Pending, Ready and Done operations."
      },
      "isOperationDone(bytes32)": {
        "details": "Returns whether an operation is done or not."
      },
      "isOperationPending(bytes32)": {
        "details": "Returns whether an operation is pending or not."
      },
      "isOperationReady(bytes32)": {
        "details": "Returns whether an operation is ready or not."
      },
      "owner()": {
        "details": "Returns the address of the current owner."
      },
      "renounceOwnership()": {
        "details": "Leaves the contract without owner. It will not be possible to call `onlyOwner` functions anymore. Can only be called by the current owner. NOTE: Renouncing ownership will leave the contract without an owner, thereby removing any functionality that is only available to the owner."
      },
      "renounceRole(bytes32,address)": {
        "details": "Revokes `role` from the calling account. Roles are often managed via {grantRole} and {revokeRole}: this function's purpose is to provide a mechanism for accounts to lose their privileges if they are compromised (such as when a trusted device is misplaced). If the calling account had been granted `role`, emits a {RoleRevoked} event. Requirements: - the caller must be `account`."
      },
      "revokeRole(bytes32,address)": {
        "details": "Revokes `role` from `account`. If `account` had been granted `role`, emits a {RoleRevoked} event. Requirements: - the caller must have ``role``'s admin role."
      },
      "schedule(address,uint256,bytes,bytes32,bytes32,uint256)": {
        "details": "Schedule an operation containing a single transaction. Emits a {CallScheduled} event. Requirements: - the caller must have the 'proposer' role."
      },
      "scheduleBatch(address[],uint256[],bytes[],bytes32,bytes32,uint256)": {
        "details": "Schedule an operation containing a batch of transactions. Emits one {CallScheduled} event per transaction in the batch. Requirements: - the caller must have the 'proposer' role."
      },
      "supportsInterface(bytes4)": {
        "details": "See {IERC165-supportsInterface}."
      },
      "transferOwnership(address)": {
        "details": "Transfers ownership of the contract to a new account (`newOwner`). Can only be called by the current owner."
      },
      "updateDelay(uint256)": {
        "details": "Changes the minimum timelock duration for future operations. Emits a {MinDelayChange} event. Requirements: - the caller must be the timelock itself. This can only be achieved by scheduling and later executing an operation where the timelock is the target and the data is the ABI-encoded call to this function."
      }
    },
    "version": 1
  },
  "userdoc": {
    "kind": "user",
    "methods": {
      "__IkonDAOTimelock_init(uint256,address[],address[])": {
        "notice": "creates instance of daoTimelockController"
      }
    },
    "version": 1
  }
}