{
  "contractName": "IkonDAOGovernor",
  "abi": [
    {
      "inputs": [
        {
          "internalType": "contract ERC20Votes",
          "name": "_token",
          "type": "address"
        },
        {
          "internalType": "contract TimelockController",
          "name": "_timelock",
          "type": "address"
        },
        {
          "internalType": "string",
          "name": "_govName",
          "type": "string"
        },
        {
          "internalType": "uint256",
          "name": "_delay",
          "type": "uint256"
        },
        {
          "internalType": "uint256",
          "name": "_period",
          "type": "uint256"
        }
      ],
      "stateMutability": "nonpayable",
      "type": "constructor"
    },
    {
      "anonymous": false,
      "inputs": [
        {
          "indexed": true,
          "internalType": "address",
          "name": "previousOwner",
          "type": "address"
        },
        {
          "indexed": true,
          "internalType": "address",
          "name": "newOwner",
          "type": "address"
        }
      ],
      "name": "OwnershipTransferred",
      "type": "event"
    },
    {
      "anonymous": false,
      "inputs": [
        {
          "indexed": false,
          "internalType": "uint256",
          "name": "proposalId",
          "type": "uint256"
        }
      ],
      "name": "ProposalCanceled",
      "type": "event"
    },
    {
      "anonymous": false,
      "inputs": [
        {
          "indexed": false,
          "internalType": "uint256",
          "name": "proposalId",
          "type": "uint256"
        },
        {
          "indexed": false,
          "internalType": "address",
          "name": "proposer",
          "type": "address"
        },
        {
          "indexed": false,
          "internalType": "address[]",
          "name": "targets",
          "type": "address[]"
        },
        {
          "indexed": false,
          "internalType": "uint256[]",
          "name": "values",
          "type": "uint256[]"
        },
        {
          "indexed": false,
          "internalType": "string[]",
          "name": "signatures",
          "type": "string[]"
        },
        {
          "indexed": false,
          "internalType": "bytes[]",
          "name": "calldatas",
          "type": "bytes[]"
        },
        {
          "indexed": false,
          "internalType": "uint256",
          "name": "startBlock",
          "type": "uint256"
        },
        {
          "indexed": false,
          "internalType": "uint256",
          "name": "endBlock",
          "type": "uint256"
        },
        {
          "indexed": false,
          "internalType": "string",
          "name": "description",
          "type": "string"
        }
      ],
      "name": "ProposalCreated",
      "type": "event"
    },
    {
      "anonymous": false,
      "inputs": [
        {
          "indexed": false,
          "internalType": "uint256",
          "name": "proposalId",
          "type": "uint256"
        }
      ],
      "name": "ProposalExecuted",
      "type": "event"
    },
    {
      "anonymous": false,
      "inputs": [
        {
          "indexed": false,
          "internalType": "uint256",
          "name": "proposalId",
          "type": "uint256"
        },
        {
          "indexed": false,
          "internalType": "uint256",
          "name": "eta",
          "type": "uint256"
        }
      ],
      "name": "ProposalQueued",
      "type": "event"
    },
    {
      "anonymous": false,
      "inputs": [
        {
          "indexed": false,
          "internalType": "uint256",
          "name": "oldQuorumNumerator",
          "type": "uint256"
        },
        {
          "indexed": false,
          "internalType": "uint256",
          "name": "newQuorumNumerator",
          "type": "uint256"
        }
      ],
      "name": "QuorumNumeratorUpdated",
      "type": "event"
    },
    {
      "anonymous": false,
      "inputs": [
        {
          "indexed": false,
          "internalType": "address",
          "name": "oldTimelock",
          "type": "address"
        },
        {
          "indexed": false,
          "internalType": "address",
          "name": "newTimelock",
          "type": "address"
        }
      ],
      "name": "TimelockChange",
      "type": "event"
    },
    {
      "anonymous": false,
      "inputs": [
        {
          "indexed": true,
          "internalType": "address",
          "name": "voter",
          "type": "address"
        },
        {
          "indexed": false,
          "internalType": "uint256",
          "name": "proposalId",
          "type": "uint256"
        },
        {
          "indexed": false,
          "internalType": "uint8",
          "name": "support",
          "type": "uint8"
        },
        {
          "indexed": false,
          "internalType": "uint256",
          "name": "weight",
          "type": "uint256"
        },
        {
          "indexed": false,
          "internalType": "string",
          "name": "reason",
          "type": "string"
        }
      ],
      "name": "VoteCast",
      "type": "event"
    },
    {
      "inputs": [],
      "name": "BALLOT_TYPEHASH",
      "outputs": [
        {
          "internalType": "bytes32",
          "name": "",
          "type": "bytes32"
        }
      ],
      "stateMutability": "view",
      "type": "function"
    },
    {
      "inputs": [],
      "name": "COUNTING_MODE",
      "outputs": [
        {
          "internalType": "string",
          "name": "",
          "type": "string"
        }
      ],
      "stateMutability": "pure",
      "type": "function"
    },
    {
      "inputs": [
        {
          "internalType": "uint256",
          "name": "proposalId",
          "type": "uint256"
        },
        {
          "internalType": "uint8",
          "name": "support",
          "type": "uint8"
        }
      ],
      "name": "castVote",
      "outputs": [
        {
          "internalType": "uint256",
          "name": "",
          "type": "uint256"
        }
      ],
      "stateMutability": "nonpayable",
      "type": "function"
    },
    {
      "inputs": [
        {
          "internalType": "uint256",
          "name": "proposalId",
          "type": "uint256"
        },
        {
          "internalType": "uint8",
          "name": "support",
          "type": "uint8"
        },
        {
          "internalType": "uint8",
          "name": "v",
          "type": "uint8"
        },
        {
          "internalType": "bytes32",
          "name": "r",
          "type": "bytes32"
        },
        {
          "internalType": "bytes32",
          "name": "s",
          "type": "bytes32"
        }
      ],
      "name": "castVoteBySig",
      "outputs": [
        {
          "internalType": "uint256",
          "name": "",
          "type": "uint256"
        }
      ],
      "stateMutability": "nonpayable",
      "type": "function"
    },
    {
      "inputs": [
        {
          "internalType": "uint256",
          "name": "proposalId",
          "type": "uint256"
        },
        {
          "internalType": "uint8",
          "name": "support",
          "type": "uint8"
        },
        {
          "internalType": "string",
          "name": "reason",
          "type": "string"
        }
      ],
      "name": "castVoteWithReason",
      "outputs": [
        {
          "internalType": "uint256",
          "name": "",
          "type": "uint256"
        }
      ],
      "stateMutability": "nonpayable",
      "type": "function"
    },
    {
      "inputs": [
        {
          "internalType": "address[]",
          "name": "targets",
          "type": "address[]"
        },
        {
          "internalType": "uint256[]",
          "name": "values",
          "type": "uint256[]"
        },
        {
          "internalType": "bytes[]",
          "name": "calldatas",
          "type": "bytes[]"
        },
        {
          "internalType": "bytes32",
          "name": "descriptionHash",
          "type": "bytes32"
        }
      ],
      "name": "execute",
      "outputs": [
        {
          "internalType": "uint256",
          "name": "",
          "type": "uint256"
        }
      ],
      "stateMutability": "payable",
      "type": "function"
    },
    {
      "inputs": [
        {
          "internalType": "uint256",
          "name": "proposalId",
          "type": "uint256"
        },
        {
          "internalType": "address",
          "name": "account",
          "type": "address"
        }
      ],
      "name": "hasVoted",
      "outputs": [
        {
          "internalType": "bool",
          "name": "",
          "type": "bool"
        }
      ],
      "stateMutability": "view",
      "type": "function"
    },
    {
      "inputs": [
        {
          "internalType": "address[]",
          "name": "targets",
          "type": "address[]"
        },
        {
          "internalType": "uint256[]",
          "name": "values",
          "type": "uint256[]"
        },
        {
          "internalType": "bytes[]",
          "name": "calldatas",
          "type": "bytes[]"
        },
        {
          "internalType": "bytes32",
          "name": "descriptionHash",
          "type": "bytes32"
        }
      ],
      "name": "hashProposal",
      "outputs": [
        {
          "internalType": "uint256",
          "name": "",
          "type": "uint256"
        }
      ],
      "stateMutability": "pure",
      "type": "function"
    },
    {
      "inputs": [],
      "name": "name",
      "outputs": [
        {
          "internalType": "string",
          "name": "",
          "type": "string"
        }
      ],
      "stateMutability": "view",
      "type": "function"
    },
    {
      "inputs": [],
      "name": "owner",
      "outputs": [
        {
          "internalType": "address",
          "name": "",
          "type": "address"
        }
      ],
      "stateMutability": "view",
      "type": "function"
    },
    {
      "inputs": [
        {
          "internalType": "uint256",
          "name": "proposalId",
          "type": "uint256"
        }
      ],
      "name": "proposalDeadline",
      "outputs": [
        {
          "internalType": "uint256",
          "name": "",
          "type": "uint256"
        }
      ],
      "stateMutability": "view",
      "type": "function"
    },
    {
      "inputs": [
        {
          "internalType": "uint256",
          "name": "proposalId",
          "type": "uint256"
        }
      ],
      "name": "proposalEta",
      "outputs": [
        {
          "internalType": "uint256",
          "name": "",
          "type": "uint256"
        }
      ],
      "stateMutability": "view",
      "type": "function"
    },
    {
      "inputs": [
        {
          "internalType": "uint256",
          "name": "proposalId",
          "type": "uint256"
        }
      ],
      "name": "proposalSnapshot",
      "outputs": [
        {
          "internalType": "uint256",
          "name": "",
          "type": "uint256"
        }
      ],
      "stateMutability": "view",
      "type": "function"
    },
    {
      "inputs": [
        {
          "internalType": "uint256",
          "name": "proposalId",
          "type": "uint256"
        }
      ],
      "name": "proposalVotes",
      "outputs": [
        {
          "internalType": "uint256",
          "name": "againstVotes",
          "type": "uint256"
        },
        {
          "internalType": "uint256",
          "name": "forVotes",
          "type": "uint256"
        },
        {
          "internalType": "uint256",
          "name": "abstainVotes",
          "type": "uint256"
        }
      ],
      "stateMutability": "view",
      "type": "function"
    },
    {
      "inputs": [
        {
          "internalType": "address[]",
          "name": "targets",
          "type": "address[]"
        },
        {
          "internalType": "uint256[]",
          "name": "values",
          "type": "uint256[]"
        },
        {
          "internalType": "bytes[]",
          "name": "calldatas",
          "type": "bytes[]"
        },
        {
          "internalType": "bytes32",
          "name": "descriptionHash",
          "type": "bytes32"
        }
      ],
      "name": "queue",
      "outputs": [
        {
          "internalType": "uint256",
          "name": "",
          "type": "uint256"
        }
      ],
      "stateMutability": "nonpayable",
      "type": "function"
    },
    {
      "inputs": [],
      "name": "quorumDenominator",
      "outputs": [
        {
          "internalType": "uint256",
          "name": "",
          "type": "uint256"
        }
      ],
      "stateMutability": "view",
      "type": "function"
    },
    {
      "inputs": [],
      "name": "quorumNumerator",
      "outputs": [
        {
          "internalType": "uint256",
          "name": "",
          "type": "uint256"
        }
      ],
      "stateMutability": "view",
      "type": "function"
    },
    {
      "inputs": [],
      "name": "renounceOwnership",
      "outputs": [],
      "stateMutability": "nonpayable",
      "type": "function"
    },
    {
      "inputs": [],
      "name": "timelock",
      "outputs": [
        {
          "internalType": "address",
          "name": "",
          "type": "address"
        }
      ],
      "stateMutability": "view",
      "type": "function"
    },
    {
      "inputs": [],
      "name": "token",
      "outputs": [
        {
          "internalType": "contract ERC20Votes",
          "name": "",
          "type": "address"
        }
      ],
      "stateMutability": "view",
      "type": "function"
    },
    {
      "inputs": [
        {
          "internalType": "address",
          "name": "newOwner",
          "type": "address"
        }
      ],
      "name": "transferOwnership",
      "outputs": [],
      "stateMutability": "nonpayable",
      "type": "function"
    },
    {
      "inputs": [
        {
          "internalType": "uint256",
          "name": "newQuorumNumerator",
          "type": "uint256"
        }
      ],
      "name": "updateQuorumNumerator",
      "outputs": [],
      "stateMutability": "nonpayable",
      "type": "function"
    },
    {
      "inputs": [
        {
          "internalType": "contract TimelockController",
          "name": "newTimelock",
          "type": "address"
        }
      ],
      "name": "updateTimelock",
      "outputs": [],
      "stateMutability": "nonpayable",
      "type": "function"
    },
    {
      "inputs": [],
      "name": "version",
      "outputs": [
        {
          "internalType": "string",
          "name": "",
          "type": "string"
        }
      ],
      "stateMutability": "view",
      "type": "function"
    },
    {
      "inputs": [],
      "name": "votingDelay",
      "outputs": [
        {
          "internalType": "uint256",
          "name": "",
          "type": "uint256"
        }
      ],
      "stateMutability": "view",
      "type": "function"
    },
    {
      "inputs": [],
      "name": "votingPeriod",
      "outputs": [
        {
          "internalType": "uint256",
          "name": "",
          "type": "uint256"
        }
      ],
      "stateMutability": "view",
      "type": "function"
    },
    {
      "inputs": [
        {
          "internalType": "uint256",
          "name": "_period",
          "type": "uint256"
        }
      ],
      "name": "setVotingPeriod",
      "outputs": [],
      "stateMutability": "nonpayable",
      "type": "function"
    },
    {
      "inputs": [
        {
          "internalType": "uint256",
          "name": "_delay",
          "type": "uint256"
        }
      ],
      "name": "setVotingDelay",
      "outputs": [],
      "stateMutability": "nonpayable",
      "type": "function"
    },
    {
      "inputs": [
        {
          "internalType": "uint256",
          "name": "blockNumber",
          "type": "uint256"
        }
      ],
      "name": "quorum",
      "outputs": [
        {
          "internalType": "uint256",
          "name": "",
          "type": "uint256"
        }
      ],
      "stateMutability": "view",
      "type": "function"
    },
    {
      "inputs": [
        {
          "internalType": "address",
          "name": "account",
          "type": "address"
        },
        {
          "internalType": "uint256",
          "name": "blockNumber",
          "type": "uint256"
        }
      ],
      "name": "getVotes",
      "outputs": [
        {
          "internalType": "uint256",
          "name": "",
          "type": "uint256"
        }
      ],
      "stateMutability": "view",
      "type": "function"
    },
    {
      "inputs": [
        {
          "internalType": "uint256",
          "name": "proposalId",
          "type": "uint256"
        }
      ],
      "name": "state",
      "outputs": [
        {
          "internalType": "enum IGovernor.ProposalState",
          "name": "",
          "type": "uint8"
        }
      ],
      "stateMutability": "view",
      "type": "function"
    },
    {
      "inputs": [
        {
          "internalType": "address[]",
          "name": "targets",
          "type": "address[]"
        },
        {
          "internalType": "uint256[]",
          "name": "values",
          "type": "uint256[]"
        },
        {
          "internalType": "bytes[]",
          "name": "calldatas",
          "type": "bytes[]"
        },
        {
          "internalType": "string",
          "name": "description",
          "type": "string"
        }
      ],
      "name": "propose",
      "outputs": [
        {
          "internalType": "uint256",
          "name": "",
          "type": "uint256"
        }
      ],
      "stateMutability": "nonpayable",
      "type": "function"
    },
    {
      "inputs": [
        {
          "internalType": "bytes4",
          "name": "interfaceId",
          "type": "bytes4"
        }
      ],
      "name": "supportsInterface",
      "outputs": [
        {
          "internalType": "bool",
          "name": "",
          "type": "bool"
        }
      ],
      "stateMutability": "view",
      "type": "function"
    }
  ],
  "bytecode": "0x6101406040523480156200001257600080fd5b50604051620056f4380380620056f48339818101604052810190620000389190620007b3565b8360048685806200004e620001c660201b60201c565b60008280519060200120905060008280519060200120905060007f8b73c3c69bb8fe3d512ecc4cf759cc79239f7b179b0ffacaa9a75d522b39400f90508260c081815250508160e081815250504660a08181525050620000b68184846200020360201b60201c565b6080818152505080610100818152505050505050508060009080519060200190620000e392919062000459565b505062000105620000f96200023f60201b60201c565b6200024760201b60201c565b8073ffffffffffffffffffffffffffffffffffffffff166101208173ffffffffffffffffffffffffffffffffffffffff1681525050506200014c816200030d60201b60201c565b506200015e81620003af60201b60201c565b508160098190555080600a819055506040518060400160405280600581526020017f312e302e3000000000000000000000000000000000000000000000000000000081525060089080519060200190620001ba92919062000459565b50505050505062000a82565b60606040518060400160405280600181526020017f3100000000000000000000000000000000000000000000000000000000000000815250905090565b600083838346306040516020016200022095949392919062000897565b6040516020818303038152906040528051906020012090509392505050565b600033905090565b6000600260009054906101000a900473ffffffffffffffffffffffffffffffffffffffff16905081600260006101000a81548173ffffffffffffffffffffffffffffffffffffffff021916908373ffffffffffffffffffffffffffffffffffffffff1602179055508173ffffffffffffffffffffffffffffffffffffffff168173ffffffffffffffffffffffffffffffffffffffff167f8be0079c531659141344cd1fd0a4f28419497f9722a3daafe3b4186f6b6457e060405160405180910390a35050565b6200031d6200045060201b60201c565b81111562000362576040517f08c379a00000000000000000000000000000000000000000000000000000000081526004016200035990620009a1565b60405180910390fd5b60006004549050816004819055507f0553476bf02ef2726e8ce5ced78d63e26e602e4a2257b1f559418e24b46339978183604051620003a3929190620009c3565b60405180910390a15050565b7f08f74ea46ef7894f65eabfb5e6e695de773a000b47c529ab559178069b226401600560009054906101000a900473ffffffffffffffffffffffffffffffffffffffff168260405162000404929190620009f0565b60405180910390a180600560006101000a81548173ffffffffffffffffffffffffffffffffffffffff021916908373ffffffffffffffffffffffffffffffffffffffff16021790555050565b60006064905090565b828054620004679062000a4c565b90600052602060002090601f0160209004810192826200048b5760008555620004d7565b82601f10620004a657805160ff1916838001178555620004d7565b82800160010185558215620004d7579182015b82811115620004d6578251825591602001919060010190620004b9565b5b509050620004e69190620004ea565b5090565b5b8082111562000505576000816000905550600101620004eb565b5090565b6000604051905090565b600080fd5b600080fd5b600073ffffffffffffffffffffffffffffffffffffffff82169050919050565b60006200054a826200051d565b9050919050565b60006200055e826200053d565b9050919050565b620005708162000551565b81146200057c57600080fd5b50565b600081519050620005908162000565565b92915050565b6000620005a3826200051d565b9050919050565b6000620005b78262000596565b9050919050565b620005c981620005aa565b8114620005d557600080fd5b50565b600081519050620005e981620005be565b92915050565b600080fd5b600080fd5b6000601f19601f8301169050919050565b7f4e487b7100000000000000000000000000000000000000000000000000000000600052604160045260246000fd5b6200064482620005f9565b810181811067ffffffffffffffff821117156200066657620006656200060a565b5b80604052505050565b60006200067b62000509565b905062000689828262000639565b919050565b600067ffffffffffffffff821115620006ac57620006ab6200060a565b5b620006b782620005f9565b9050602081019050919050565b60005b83811015620006e4578082015181840152602081019050620006c7565b83811115620006f4576000848401525b50505050565b6000620007116200070b846200068e565b6200066f565b90508281526020810184848401111562000730576200072f620005f4565b5b6200073d848285620006c4565b509392505050565b600082601f8301126200075d576200075c620005ef565b5b81516200076f848260208601620006fa565b91505092915050565b6000819050919050565b6200078d8162000778565b81146200079957600080fd5b50565b600081519050620007ad8162000782565b92915050565b600080600080600060a08688031215620007d257620007d162000513565b5b6000620007e2888289016200057f565b9550506020620007f588828901620005d8565b945050604086015167ffffffffffffffff81111562000819576200081862000518565b5b620008278882890162000745565b93505060606200083a888289016200079c565b92505060806200084d888289016200079c565b9150509295509295909350565b6000819050919050565b6200086f816200085a565b82525050565b620008808162000778565b82525050565b62000891816200053d565b82525050565b600060a082019050620008ae600083018862000864565b620008bd602083018762000864565b620008cc604083018662000864565b620008db606083018562000875565b620008ea608083018462000886565b9695505050505050565b600082825260208201905092915050565b7f476f7665726e6f72566f74657351756f72756d4672616374696f6e3a2071756f60008201527f72756d4e756d657261746f72206f7665722071756f72756d44656e6f6d696e6160208201527f746f720000000000000000000000000000000000000000000000000000000000604082015250565b600062000989604383620008f4565b9150620009968262000905565b606082019050919050565b60006020820190508181036000830152620009bc816200097a565b9050919050565b6000604082019050620009da600083018562000875565b620009e9602083018462000875565b9392505050565b600060408201905062000a07600083018562000886565b62000a16602083018462000886565b9392505050565b7f4e487b7100000000000000000000000000000000000000000000000000000000600052602260045260246000fd5b6000600282049050600182168062000a6557607f821691505b6020821081141562000a7c5762000a7b62000a1d565b5b50919050565b60805160a05160c05160e0516101005161012051614c1462000ae0600039600081816115e901528181611e400152611f0501526000612160015260006121a2015260006121810152600061210d015260006121350152614c146000f3fe6080604052600436106101ee5760003560e01c80637b3c71d31161010d578063c59057e4116100a0578063ea0217cf1161006f578063ea0217cf1461077e578063eb9019d4146107a7578063f2fde38b146107e4578063f8ce560a1461080d578063fc0c546a1461084a576101ee565b8063c59057e4146106c0578063d33219b4146106fd578063dd4e2ba514610728578063deaaa7cc14610753576101ee565b8063a7713a70116100dc578063a7713a70146105f2578063a890c9101461061d578063ab58fb8e14610646578063c01f9e3714610683576101ee565b80637b3c71d3146105225780637d5e81e21461055f5780638da5cb5b1461059c57806397c3d334146105c7576101ee565b80633bccf4fd1161018557806354fd4d501161015457806354fd4d501461047a57806356781388146104a557806370b0f660146104e2578063715018a61461050b576101ee565b80633bccf4fd146103845780633e4f49e6146103c157806343859632146103fe578063544ffc9c1461043b576101ee565b8063160cbed7116101c1578063160cbed7146102af5780632656227d146102ec5780632d63f6931461031c5780633932abb114610359576101ee565b806301ffc9a7146101f357806302a251a31461023057806306f3f9e61461025b57806306fdde0314610284575b600080fd5b3480156101ff57600080fd5b5061021a60048036038101906102159190612b30565b610875565b6040516102279190612b78565b60405180910390f35b34801561023c57600080fd5b50610245610887565b6040516102529190612bac565b60405180910390f35b34801561026757600080fd5b50610282600480360381019061027d9190612bf3565b610891565b005b34801561029057600080fd5b50610299610919565b6040516102a69190612cb9565b60405180910390f35b3480156102bb57600080fd5b506102d660048036038101906102d19190613110565b6109ab565b6040516102e39190612bac565b60405180910390f35b61030660048036038101906103019190613110565b610c83565b6040516103139190612bac565b60405180910390f35b34801561032857600080fd5b50610343600480360381019061033e9190612bf3565b610db6565b6040516103509190612bac565b60405180910390f35b34801561036557600080fd5b5061036e610e24565b60405161037b9190612bac565b60405180910390f35b34801561039057600080fd5b506103ab60048036038101906103a69190613204565b610e2e565b6040516103b89190612bac565b60405180910390f35b3480156103cd57600080fd5b506103e860048036038101906103e39190612bf3565b610eb8565b6040516103f591906132f6565b60405180910390f35b34801561040a57600080fd5b5061042560048036038101906104209190613311565b610eca565b6040516104329190612b78565b60405180910390f35b34801561044757600080fd5b50610462600480360381019061045d9190612bf3565b610f35565b60405161047193929190613351565b60405180910390f35b34801561048657600080fd5b5061048f610f6d565b60405161049c9190612cb9565b60405180910390f35b3480156104b157600080fd5b506104cc60048036038101906104c79190613388565b610faa565b6040516104d99190612bac565b60405180910390f35b3480156104ee57600080fd5b5061050960048036038101906105049190612bf3565b610fdb565b005b34801561051757600080fd5b50610520611063565b005b34801561052e57600080fd5b5061054960048036038101906105449190613423565b6110eb565b6040516105569190612bac565b60405180910390f35b34801561056b57600080fd5b5061058660048036038101906105819190613538565b611153565b6040516105939190612bac565b60405180910390f35b3480156105a857600080fd5b506105b161116b565b6040516105be919061361e565b60405180910390f35b3480156105d357600080fd5b506105dc611195565b6040516105e99190612bac565b60405180910390f35b3480156105fe57600080fd5b5061060761119e565b6040516106149190612bac565b60405180910390f35b34801561062957600080fd5b50610644600480360381019061063f9190613689565b6111a8565b005b34801561065257600080fd5b5061066d60048036038101906106689190612bf3565b611230565b60405161067a9190612bac565b60405180910390f35b34801561068f57600080fd5b506106aa60048036038101906106a59190612bf3565b61130c565b6040516106b79190612bac565b60405180910390f35b3480156106cc57600080fd5b506106e760048036038101906106e29190613110565b61137a565b6040516106f49190612bac565b60405180910390f35b34801561070957600080fd5b506107126113b6565b60405161071f919061361e565b60405180910390f35b34801561073457600080fd5b5061073d6113e0565b60405161074a9190612cb9565b60405180910390f35b34801561075f57600080fd5b5061076861141d565b60405161077591906136c5565b60405180910390f35b34801561078a57600080fd5b506107a560048036038101906107a09190612bf3565b611441565b005b3480156107b357600080fd5b506107ce60048036038101906107c991906136e0565b6114c9565b6040516107db9190612bac565b60405180910390f35b3480156107f057600080fd5b5061080b60048036038101906108069190613720565b6114dd565b005b34801561081957600080fd5b50610834600480360381019061082f9190612bf3565b6115d5565b6040516108419190612bac565b60405180910390f35b34801561085657600080fd5b5061085f6115e7565b60405161086c91906137ac565b60405180910390f35b60006108808261160b565b9050919050565b6000600a54905090565b610899611685565b73ffffffffffffffffffffffffffffffffffffffff166108b7611694565b73ffffffffffffffffffffffffffffffffffffffff161461090d576040517f08c379a000000000000000000000000000000000000000000000000000000000815260040161090490613813565b60405180910390fd5b6109168161169c565b50565b60606000805461092890613862565b80601f016020809104026020016040519081016040528092919081815260200182805461095490613862565b80156109a15780601f10610976576101008083540402835291602001916109a1565b820191906000526020600020905b81548152906001019060200180831161098457829003601f168201915b5050505050905090565b6000806109ba8686868661137a565b9050600460078111156109d0576109cf61327f565b5b6109d982610eb8565b60078111156109eb576109ea61327f565b5b14610a2b576040517f08c379a0000000000000000000000000000000000000000000000000000000008152600401610a2290613906565b60405180910390fd5b6000600560009054906101000a900473ffffffffffffffffffffffffffffffffffffffff1673ffffffffffffffffffffffffffffffffffffffff1663f27a0c926040518163ffffffff1660e01b815260040160206040518083038186803b158015610a9557600080fd5b505afa158015610aa9573d6000803e3d6000fd5b505050506040513d601f19601f82011682018060405250810190610acd919061393b565b9050600560009054906101000a900473ffffffffffffffffffffffffffffffffffffffff1673ffffffffffffffffffffffffffffffffffffffff1663b1c5f4278888886000896040518663ffffffff1660e01b8152600401610b33959493929190613c43565b60206040518083038186803b158015610b4b57600080fd5b505afa158015610b5f573d6000803e3d6000fd5b505050506040513d601f19601f82011682018060405250810190610b839190613cc0565b6006600084815260200190815260200160002081905550600560009054906101000a900473ffffffffffffffffffffffffffffffffffffffff1673ffffffffffffffffffffffffffffffffffffffff16638f2a0bb0888888600089876040518763ffffffff1660e01b8152600401610c0096959493929190613ced565b600060405180830381600087803b158015610c1a57600080fd5b505af1158015610c2e573d6000803e3d6000fd5b505050507f9a2e42fd6722813d69113e7d0079d3d940171428df7373df9c7f7617cfda2892828242610c609190613d92565b604051610c6e929190613de8565b60405180910390a18192505050949350505050565b600080610c928686868661137a565b90506000610c9f82610eb8565b905060046007811115610cb557610cb461327f565b5b816007811115610cc857610cc761327f565b5b1480610cf8575060056007811115610ce357610ce261327f565b5b816007811115610cf657610cf561327f565b5b145b610d37576040517f08c379a0000000000000000000000000000000000000000000000000000000008152600401610d2e90613906565b60405180910390fd5b600180600084815260200190815260200160002060020160006101000a81548160ff0219169083151502179055507f712ae1383f79ac853f8d882153778e0260ef8f03b504e2866e0593e04d2b291f82604051610d949190612bac565b60405180910390a1610da98288888888611731565b8192505050949350505050565b6000610e13600160008481526020019081526020016000206000016040518060200160405290816000820160009054906101000a900467ffffffffffffffff1667ffffffffffffffff1667ffffffffffffffff1681525050611745565b67ffffffffffffffff169050919050565b6000600954905090565b600080610e8f610e877f150214d74d59b7d1e90c73fc22ef3d991dd0a76b046543d4d80ab92d2a50328f8989604051602001610e6c93929190613e20565b60405160208183030381529060405280519060200120611753565b86868661176d565b9050610eac87828860405180602001604052806000815250611798565b91505095945050505050565b6000610ec3826118ec565b9050919050565b60006003600084815260200190815260200160002060030160008373ffffffffffffffffffffffffffffffffffffffff1673ffffffffffffffffffffffffffffffffffffffff16815260200190815260200160002060009054906101000a900460ff16905092915050565b600080600080600360008681526020019081526020016000209050806000015481600101548260020154935093509350509193909250565b60606040518060400160405280600181526020017f3100000000000000000000000000000000000000000000000000000000000000815250905090565b600080610fb5611694565b9050610fd284828560405180602001604052806000815250611798565b91505092915050565b610fe3611694565b73ffffffffffffffffffffffffffffffffffffffff1661100161116b565b73ffffffffffffffffffffffffffffffffffffffff1614611057576040517f08c379a000000000000000000000000000000000000000000000000000000000815260040161104e90613ea3565b60405180910390fd5b61106081611a23565b50565b61106b611694565b73ffffffffffffffffffffffffffffffffffffffff1661108961116b565b73ffffffffffffffffffffffffffffffffffffffff16146110df576040517f08c379a00000000000000000000000000000000000000000000000000000000081526004016110d690613ea3565b60405180910390fd5b6110e96000611a2d565b565b6000806110f6611694565b905061114886828787878080601f016020809104026020016040519081016040528093929190818152602001838380828437600081840152601f19601f82011690508083019250505050505050611798565b915050949350505050565b600061116185858585611af3565b9050949350505050565b6000600260009054906101000a900473ffffffffffffffffffffffffffffffffffffffff16905090565b60006064905090565b6000600454905090565b6111b0611685565b73ffffffffffffffffffffffffffffffffffffffff166111ce611694565b73ffffffffffffffffffffffffffffffffffffffff1614611224576040517f08c379a000000000000000000000000000000000000000000000000000000000815260040161121b90613813565b60405180910390fd5b61122d81611d93565b50565b600080600560009054906101000a900473ffffffffffffffffffffffffffffffffffffffff1673ffffffffffffffffffffffffffffffffffffffff1663d45c443560066000868152602001908152602001600020546040518263ffffffff1660e01b81526004016112a191906136c5565b60206040518083038186803b1580156112b957600080fd5b505afa1580156112cd573d6000803e3d6000fd5b505050506040513d601f19601f820116820180604052508101906112f1919061393b565b9050600181146113015780611304565b60005b915050919050565b6000611369600160008481526020019081526020016000206001016040518060200160405290816000820160009054906101000a900467ffffffffffffffff1667ffffffffffffffff1667ffffffffffffffff1681525050611745565b67ffffffffffffffff169050919050565b6000848484846040516020016113939493929190613ec3565b6040516020818303038152906040528051906020012060001c9050949350505050565b6000600560009054906101000a900473ffffffffffffffffffffffffffffffffffffffff16905090565b60606040518060400160405280602081526020017f737570706f72743d627261766f2671756f72756d3d666f722c6162737461696e815250905090565b7f150214d74d59b7d1e90c73fc22ef3d991dd0a76b046543d4d80ab92d2a50328f81565b611449611694565b73ffffffffffffffffffffffffffffffffffffffff1661146761116b565b73ffffffffffffffffffffffffffffffffffffffff16146114bd576040517f08c379a00000000000000000000000000000000000000000000000000000000081526004016114b490613ea3565b60405180910390fd5b6114c681611e32565b50565b60006114d58383611e3c565b905092915050565b6114e5611694565b73ffffffffffffffffffffffffffffffffffffffff1661150361116b565b73ffffffffffffffffffffffffffffffffffffffff1614611559576040517f08c379a000000000000000000000000000000000000000000000000000000000815260040161155090613ea3565b60405180910390fd5b600073ffffffffffffffffffffffffffffffffffffffff168173ffffffffffffffffffffffffffffffffffffffff1614156115c9576040517f08c379a00000000000000000000000000000000000000000000000000000000081526004016115c090613f8f565b60405180910390fd5b6115d281611a2d565b50565b60006115e082611ef1565b9050919050565b7f000000000000000000000000000000000000000000000000000000000000000081565b60007f6e665ced000000000000000000000000000000000000000000000000000000007bffffffffffffffffffffffffffffffffffffffffffffffffffffffff1916827bffffffffffffffffffffffffffffffffffffffffffffffffffffffff1916148061167e575061167d82611fc7565b5b9050919050565b600061168f612041565b905090565b600033905090565b6116a4611195565b8111156116e6576040517f08c379a00000000000000000000000000000000000000000000000000000000081526004016116dd90614047565b60405180910390fd5b60006004549050816004819055507f0553476bf02ef2726e8ce5ced78d63e26e602e4a2257b1f559418e24b46339978183604051611725929190613de8565b60405180910390a15050565b61173e858585858561206b565b5050505050565b600081600001519050919050565b6000611766611760612109565b836121cc565b9050919050565b600080600061177e878787876121ff565b9150915061178b8161230c565b8192505050949350505050565b600080600160008781526020019081526020016000209050600160078111156117c4576117c361327f565b5b6117cd87610eb8565b60078111156117df576117de61327f565b5b1461181f576040517f08c379a0000000000000000000000000000000000000000000000000000000008152600401611816906140d9565b60405180910390fd5b600061187d8661186e846000016040518060200160405290816000820160009054906101000a900467ffffffffffffffff1667ffffffffffffffff1667ffffffffffffffff1681525050611745565b67ffffffffffffffff166114c9565b905061188b878787846124e1565b8573ffffffffffffffffffffffffffffffffffffffff167fb8e138887d0aa13bab447e82de9d5c1777041ecd21ca36ba824ff1e6c07ddda4888784886040516118d794939291906140f9565b60405180910390a28092505050949350505050565b6000806118f8836126e7565b90506004600781111561190e5761190d61327f565b5b8160078111156119215761192061327f565b5b1461192f5780915050611a1e565b6000600660008581526020019081526020016000205490506000801b81141561195c578192505050611a1e565b600560009054906101000a900473ffffffffffffffffffffffffffffffffffffffff1673ffffffffffffffffffffffffffffffffffffffff16632ab0f529826040518263ffffffff1660e01b81526004016119b791906136c5565b60206040518083038186803b1580156119cf57600080fd5b505afa1580156119e3573d6000803e3d6000fd5b505050506040513d601f19601f82011682018060405250810190611a079190614171565b15611a1757600792505050611a1e565b6005925050505b919050565b8060098190555050565b6000600260009054906101000a900473ffffffffffffffffffffffffffffffffffffffff16905081600260006101000a81548173ffffffffffffffffffffffffffffffffffffffff021916908373ffffffffffffffffffffffffffffffffffffffff1602179055508173ffffffffffffffffffffffffffffffffffffffff168173ffffffffffffffffffffffffffffffffffffffff167f8be0079c531659141344cd1fd0a4f28419497f9722a3daafe3b4186f6b6457e060405160405180910390a35050565b600080611b09868686868051906020012061137a565b90508451865114611b4f576040517f08c379a0000000000000000000000000000000000000000000000000000000008152600401611b4690614210565b60405180910390fd5b8351865114611b93576040517f08c379a0000000000000000000000000000000000000000000000000000000008152600401611b8a90614210565b60405180910390fd5b6000865111611bd7576040517f08c379a0000000000000000000000000000000000000000000000000000000008152600401611bce9061427c565b60405180910390fd5b6000600160008381526020019081526020016000209050611c37816000016040518060200160405290816000820160009054906101000a900467ffffffffffffffff1667ffffffffffffffff1667ffffffffffffffff16815250506128ae565b611c76576040517f08c379a0000000000000000000000000000000000000000000000000000000008152600401611c6d9061430e565b60405180910390fd5b6000611c88611c83610e24565b6128c8565b611c91436128c8565b611c9b9190614342565b90506000611caf611caa610887565b6128c8565b82611cba9190614342565b9050611cd2828460000161291f90919063ffffffff16565b611ce8818460010161291f90919063ffffffff16565b7f7d84a6263ae0d98d3329bd7b46bb4e8d6f98cd35a7adb45c274c8b7fd5ebd5e084611d12611694565b8b8b8d5167ffffffffffffffff811115611d2f57611d2e612ce0565b5b604051908082528060200260200182016040528015611d6257816020015b6060815260200190600190039081611d4d5790505b508c88888e604051611d7c999897969594939291906144bd565b60405180910390a183945050505050949350505050565b7f08f74ea46ef7894f65eabfb5e6e695de773a000b47c529ab559178069b226401600560009054906101000a900473ffffffffffffffffffffffffffffffffffffffff1682604051611de692919061456d565b60405180910390a180600560006101000a81548173ffffffffffffffffffffffffffffffffffffffff021916908373ffffffffffffffffffffffffffffffffffffffff16021790555050565b80600a8190555050565b60007f000000000000000000000000000000000000000000000000000000000000000073ffffffffffffffffffffffffffffffffffffffff16633a46b1a884846040518363ffffffff1660e01b8152600401611e99929190614596565b60206040518083038186803b158015611eb157600080fd5b505afa158015611ec5573d6000803e3d6000fd5b505050506040513d601f19601f82011682018060405250810190611ee9919061393b565b905092915050565b6000611efb611195565b611f0361119e565b7f000000000000000000000000000000000000000000000000000000000000000073ffffffffffffffffffffffffffffffffffffffff16638e539e8c856040518263ffffffff1660e01b8152600401611f5c9190612bac565b60206040518083038186803b158015611f7457600080fd5b505afa158015611f88573d6000803e3d6000fd5b505050506040513d601f19601f82011682018060405250810190611fac919061393b565b611fb691906145bf565b611fc09190614648565b9050919050565b60007fbf26d897000000000000000000000000000000000000000000000000000000007bffffffffffffffffffffffffffffffffffffffffffffffffffffffff1916827bffffffffffffffffffffffffffffffffffffffffffffffffffffffff1916148061203a57506120398261294e565b5b9050919050565b6000600560009054906101000a900473ffffffffffffffffffffffffffffffffffffffff16905090565b600560009054906101000a900473ffffffffffffffffffffffffffffffffffffffff1673ffffffffffffffffffffffffffffffffffffffff1663e38335e5348686866000876040518763ffffffff1660e01b81526004016120d0959493929190613c43565b6000604051808303818588803b1580156120e957600080fd5b505af11580156120fd573d6000803e3d6000fd5b50505050505050505050565b60007f000000000000000000000000000000000000000000000000000000000000000046141561215b577f000000000000000000000000000000000000000000000000000000000000000090506121c9565b6121c67f00000000000000000000000000000000000000000000000000000000000000007f00000000000000000000000000000000000000000000000000000000000000007f00000000000000000000000000000000000000000000000000000000000000006129b8565b90505b90565b600082826040516020016121e19291906146f1565b60405160208183030381529060405280519060200120905092915050565b6000807f7fffffffffffffffffffffffffffffff5d576e7357a4501ddfe92f46681b20a08360001c111561223a576000600391509150612303565b601b8560ff16141580156122525750601c8560ff1614155b15612264576000600491509150612303565b6000600187878787604051600081526020016040526040516122899493929190614728565b6020604051602081039080840390855afa1580156122ab573d6000803e3d6000fd5b505050602060405103519050600073ffffffffffffffffffffffffffffffffffffffff168173ffffffffffffffffffffffffffffffffffffffff1614156122fa57600060019250925050612303565b80600092509250505b94509492505050565b600060048111156123205761231f61327f565b5b8160048111156123335761233261327f565b5b141561233e576124de565b600160048111156123525761235161327f565b5b8160048111156123655761236461327f565b5b14156123a6576040517f08c379a000000000000000000000000000000000000000000000000000000000815260040161239d906147b9565b60405180910390fd5b600260048111156123ba576123b961327f565b5b8160048111156123cd576123cc61327f565b5b141561240e576040517f08c379a000000000000000000000000000000000000000000000000000000000815260040161240590614825565b60405180910390fd5b600360048111156124225761242161327f565b5b8160048111156124355761243461327f565b5b1415612476576040517f08c379a000000000000000000000000000000000000000000000000000000000815260040161246d906148b7565b60405180910390fd5b6004808111156124895761248861327f565b5b81600481111561249c5761249b61327f565b5b14156124dd576040517f08c379a00000000000000000000000000000000000000000000000000000000081526004016124d490614949565b60405180910390fd5b5b50565b60006003600086815260200190815260200160002090508060030160008573ffffffffffffffffffffffffffffffffffffffff1673ffffffffffffffffffffffffffffffffffffffff16815260200190815260200160002060009054906101000a900460ff1615612587576040517f08c379a000000000000000000000000000000000000000000000000000000000815260040161257e906149db565b60405180910390fd5b60018160030160008673ffffffffffffffffffffffffffffffffffffffff1673ffffffffffffffffffffffffffffffffffffffff16815260200190815260200160002060006101000a81548160ff021916908315150217905550600060028111156125f5576125f461327f565b5b60ff168360ff16141561262257818160000160008282546126169190613d92565b925050819055506126e0565b600160028111156126365761263561327f565b5b60ff168360ff16141561266357818160010160008282546126579190613d92565b925050819055506126df565b6002808111156126765761267561327f565b5b60ff168360ff1614156126a357818160020160008282546126979190613d92565b925050819055506126de565b6040517f08c379a00000000000000000000000000000000000000000000000000000000081526004016126d590614a6d565b60405180910390fd5b5b5b5050505050565b60008060016000848152602001908152602001600020604051806080016040529081600082016040518060200160405290816000820160009054906101000a900467ffffffffffffffff1667ffffffffffffffff1667ffffffffffffffff16815250508152602001600182016040518060200160405290816000820160009054906101000a900467ffffffffffffffff1667ffffffffffffffff1667ffffffffffffffff168152505081526020016002820160009054906101000a900460ff161515151581526020016002820160019054906101000a900460ff16151515158152505090508060400151156127e05760079150506128a9565b8060600151156127f45760029150506128a9565b61280181600001516129f2565b156128105760009150506128a9565b61281d81602001516129f2565b1561282c5760019150506128a9565b6128398160200151612a0c565b1561286e5761284783612a38565b8015612858575061285783612a7f565b5b612863576003612866565b60045b9150506128a9565b6040517f08c379a00000000000000000000000000000000000000000000000000000000081526004016128a090614ad9565b60405180910390fd5b919050565b600080826000015167ffffffffffffffff16149050919050565b600067ffffffffffffffff8016821115612917576040517f08c379a000000000000000000000000000000000000000000000000000000000815260040161290e90614b6b565b60405180910390fd5b819050919050565b808260000160006101000a81548167ffffffffffffffff021916908367ffffffffffffffff1602179055505050565b60007f01ffc9a7000000000000000000000000000000000000000000000000000000007bffffffffffffffffffffffffffffffffffffffffffffffffffffffff1916827bffffffffffffffffffffffffffffffffffffffffffffffffffffffff1916149050919050565b600083838346306040516020016129d3959493929190614b8b565b6040516020818303038152906040528051906020012090509392505050565b600043826000015167ffffffffffffffff16119050919050565b6000612a1782612aaa565b8015612a31575043826000015167ffffffffffffffff1611155b9050919050565b60008060036000848152602001908152602001600020905080600201548160010154612a649190613d92565b612a75612a7085610db6565b6115d5565b1115915050919050565b6000806003600084815260200190815260200160002090508060000154816001015411915050919050565b600080826000015167ffffffffffffffff16119050919050565b6000604051905090565b600080fd5b600080fd5b60007fffffffff0000000000000000000000000000000000000000000000000000000082169050919050565b612b0d81612ad8565b8114612b1857600080fd5b50565b600081359050612b2a81612b04565b92915050565b600060208284031215612b4657612b45612ace565b5b6000612b5484828501612b1b565b91505092915050565b60008115159050919050565b612b7281612b5d565b82525050565b6000602082019050612b8d6000830184612b69565b92915050565b6000819050919050565b612ba681612b93565b82525050565b6000602082019050612bc16000830184612b9d565b92915050565b612bd081612b93565b8114612bdb57600080fd5b50565b600081359050612bed81612bc7565b92915050565b600060208284031215612c0957612c08612ace565b5b6000612c1784828501612bde565b91505092915050565b600081519050919050565b600082825260208201905092915050565b60005b83811015612c5a578082015181840152602081019050612c3f565b83811115612c69576000848401525b50505050565b6000601f19601f8301169050919050565b6000612c8b82612c20565b612c958185612c2b565b9350612ca5818560208601612c3c565b612cae81612c6f565b840191505092915050565b60006020820190508181036000830152612cd38184612c80565b905092915050565b600080fd5b7f4e487b7100000000000000000000000000000000000000000000000000000000600052604160045260246000fd5b612d1882612c6f565b810181811067ffffffffffffffff82111715612d3757612d36612ce0565b5b80604052505050565b6000612d4a612ac4565b9050612d568282612d0f565b919050565b600067ffffffffffffffff821115612d7657612d75612ce0565b5b602082029050602081019050919050565b600080fd5b600073ffffffffffffffffffffffffffffffffffffffff82169050919050565b6000612db782612d8c565b9050919050565b612dc781612dac565b8114612dd257600080fd5b50565b600081359050612de481612dbe565b92915050565b6000612dfd612df884612d5b565b612d40565b90508083825260208201905060208402830185811115612e2057612e1f612d87565b5b835b81811015612e495780612e358882612dd5565b845260208401935050602081019050612e22565b5050509392505050565b600082601f830112612e6857612e67612cdb565b5b8135612e78848260208601612dea565b91505092915050565b600067ffffffffffffffff821115612e9c57612e9b612ce0565b5b602082029050602081019050919050565b6000612ec0612ebb84612e81565b612d40565b90508083825260208201905060208402830185811115612ee357612ee2612d87565b5b835b81811015612f0c5780612ef88882612bde565b845260208401935050602081019050612ee5565b5050509392505050565b600082601f830112612f2b57612f2a612cdb565b5b8135612f3b848260208601612ead565b91505092915050565b600067ffffffffffffffff821115612f5f57612f5e612ce0565b5b602082029050602081019050919050565b600080fd5b600067ffffffffffffffff821115612f9057612f8f612ce0565b5b612f9982612c6f565b9050602081019050919050565b82818337600083830152505050565b6000612fc8612fc384612f75565b612d40565b905082815260208101848484011115612fe457612fe3612f70565b5b612fef848285612fa6565b509392505050565b600082601f83011261300c5761300b612cdb565b5b813561301c848260208601612fb5565b91505092915050565b600061303861303384612f44565b612d40565b9050808382526020820190506020840283018581111561305b5761305a612d87565b5b835b818110156130a257803567ffffffffffffffff8111156130805761307f612cdb565b5b80860161308d8982612ff7565b8552602085019450505060208101905061305d565b5050509392505050565b600082601f8301126130c1576130c0612cdb565b5b81356130d1848260208601613025565b91505092915050565b6000819050919050565b6130ed816130da565b81146130f857600080fd5b50565b60008135905061310a816130e4565b92915050565b6000806000806080858703121561312a57613129612ace565b5b600085013567ffffffffffffffff81111561314857613147612ad3565b5b61315487828801612e53565b945050602085013567ffffffffffffffff81111561317557613174612ad3565b5b61318187828801612f16565b935050604085013567ffffffffffffffff8111156131a2576131a1612ad3565b5b6131ae878288016130ac565b92505060606131bf878288016130fb565b91505092959194509250565b600060ff82169050919050565b6131e1816131cb565b81146131ec57600080fd5b50565b6000813590506131fe816131d8565b92915050565b600080600080600060a086880312156132205761321f612ace565b5b600061322e88828901612bde565b955050602061323f888289016131ef565b9450506040613250888289016131ef565b9350506060613261888289016130fb565b9250506080613272888289016130fb565b9150509295509295909350565b7f4e487b7100000000000000000000000000000000000000000000000000000000600052602160045260246000fd5b600881106132bf576132be61327f565b5b50565b60008190506132d0826132ae565b919050565b60006132e0826132c2565b9050919050565b6132f0816132d5565b82525050565b600060208201905061330b60008301846132e7565b92915050565b6000806040838503121561332857613327612ace565b5b600061333685828601612bde565b925050602061334785828601612dd5565b9150509250929050565b60006060820190506133666000830186612b9d565b6133736020830185612b9d565b6133806040830184612b9d565b949350505050565b6000806040838503121561339f5761339e612ace565b5b60006133ad85828601612bde565b92505060206133be858286016131ef565b9150509250929050565b600080fd5b60008083601f8401126133e3576133e2612cdb565b5b8235905067ffffffffffffffff811115613400576133ff6133c8565b5b60208301915083600182028301111561341c5761341b612d87565b5b9250929050565b6000806000806060858703121561343d5761343c612ace565b5b600061344b87828801612bde565b945050602061345c878288016131ef565b935050604085013567ffffffffffffffff81111561347d5761347c612ad3565b5b613489878288016133cd565b925092505092959194509250565b600067ffffffffffffffff8211156134b2576134b1612ce0565b5b6134bb82612c6f565b9050602081019050919050565b60006134db6134d684613497565b612d40565b9050828152602081018484840111156134f7576134f6612f70565b5b613502848285612fa6565b509392505050565b600082601f83011261351f5761351e612cdb565b5b813561352f8482602086016134c8565b91505092915050565b6000806000806080858703121561355257613551612ace565b5b600085013567ffffffffffffffff8111156135705761356f612ad3565b5b61357c87828801612e53565b945050602085013567ffffffffffffffff81111561359d5761359c612ad3565b5b6135a987828801612f16565b935050604085013567ffffffffffffffff8111156135ca576135c9612ad3565b5b6135d6878288016130ac565b925050606085013567ffffffffffffffff8111156135f7576135f6612ad3565b5b6136038782880161350a565b91505092959194509250565b61361881612dac565b82525050565b6000602082019050613633600083018461360f565b92915050565b600061364482612d8c565b9050919050565b600061365682613639565b9050919050565b6136668161364b565b811461367157600080fd5b50565b6000813590506136838161365d565b92915050565b60006020828403121561369f5761369e612ace565b5b60006136ad84828501613674565b91505092915050565b6136bf816130da565b82525050565b60006020820190506136da60008301846136b6565b92915050565b600080604083850312156136f7576136f6612ace565b5b600061370585828601612dd5565b925050602061371685828601612bde565b9150509250929050565b60006020828403121561373657613735612ace565b5b600061374484828501612dd5565b91505092915050565b6000819050919050565b600061377261376d61376884612d8c565b61374d565b612d8c565b9050919050565b600061378482613757565b9050919050565b600061379682613779565b9050919050565b6137a68161378b565b82525050565b60006020820190506137c1600083018461379d565b92915050565b7f476f7665726e6f723a206f6e6c79476f7665726e616e63650000000000000000600082015250565b60006137fd601883612c2b565b9150613808826137c7565b602082019050919050565b6000602082019050818103600083015261382c816137f0565b9050919050565b7f4e487b7100000000000000000000000000000000000000000000000000000000600052602260045260246000fd5b6000600282049050600182168061387a57607f821691505b6020821081141561388e5761388d613833565b5b50919050565b7f476f7665726e6f723a2070726f706f73616c206e6f742073756363657373667560008201527f6c00000000000000000000000000000000000000000000000000000000000000602082015250565b60006138f0602183612c2b565b91506138fb82613894565b604082019050919050565b6000602082019050818103600083015261391f816138e3565b9050919050565b60008151905061393581612bc7565b92915050565b60006020828403121561395157613950612ace565b5b600061395f84828501613926565b91505092915050565b600081519050919050565b600082825260208201905092915050565b6000819050602082019050919050565b61399d81612dac565b82525050565b60006139af8383613994565b60208301905092915050565b6000602082019050919050565b60006139d382613968565b6139dd8185613973565b93506139e883613984565b8060005b83811015613a19578151613a0088826139a3565b9750613a0b836139bb565b9250506001810190506139ec565b5085935050505092915050565b600081519050919050565b600082825260208201905092915050565b6000819050602082019050919050565b613a5b81612b93565b82525050565b6000613a6d8383613a52565b60208301905092915050565b6000602082019050919050565b6000613a9182613a26565b613a9b8185613a31565b9350613aa683613a42565b8060005b83811015613ad7578151613abe8882613a61565b9750613ac983613a79565b925050600181019050613aaa565b5085935050505092915050565b600081519050919050565b600082825260208201905092915050565b6000819050602082019050919050565b600081519050919050565b600082825260208201905092915050565b6000613b3782613b10565b613b418185613b1b565b9350613b51818560208601612c3c565b613b5a81612c6f565b840191505092915050565b6000613b718383613b2c565b905092915050565b6000602082019050919050565b6000613b9182613ae4565b613b9b8185613aef565b935083602082028501613bad85613b00565b8060005b85811015613be95784840389528151613bca8582613b65565b9450613bd583613b79565b925060208a01995050600181019050613bb1565b50829750879550505050505092915050565b6000819050919050565b60008160001b9050919050565b6000613c2d613c28613c2384613bfb565b613c05565b6130da565b9050919050565b613c3d81613c12565b82525050565b600060a0820190508181036000830152613c5d81886139c8565b90508181036020830152613c718187613a86565b90508181036040830152613c858186613b86565b9050613c946060830185613c34565b613ca160808301846136b6565b9695505050505050565b600081519050613cba816130e4565b92915050565b600060208284031215613cd657613cd5612ace565b5b6000613ce484828501613cab565b91505092915050565b600060c0820190508181036000830152613d0781896139c8565b90508181036020830152613d1b8188613a86565b90508181036040830152613d2f8187613b86565b9050613d3e6060830186613c34565b613d4b60808301856136b6565b613d5860a0830184612b9d565b979650505050505050565b7f4e487b7100000000000000000000000000000000000000000000000000000000600052601160045260246000fd5b6000613d9d82612b93565b9150613da883612b93565b9250827fffffffffffffffffffffffffffffffffffffffffffffffffffffffffffffffff03821115613ddd57613ddc613d63565b5b828201905092915050565b6000604082019050613dfd6000830185612b9d565b613e0a6020830184612b9d565b9392505050565b613e1a816131cb565b82525050565b6000606082019050613e3560008301866136b6565b613e426020830185612b9d565b613e4f6040830184613e11565b949350505050565b7f4f776e61626c653a2063616c6c6572206973206e6f7420746865206f776e6572600082015250565b6000613e8d602083612c2b565b9150613e9882613e57565b602082019050919050565b60006020820190508181036000830152613ebc81613e80565b9050919050565b60006080820190508181036000830152613edd81876139c8565b90508181036020830152613ef18186613a86565b90508181036040830152613f058185613b86565b9050613f1460608301846136b6565b95945050505050565b7f4f776e61626c653a206e6577206f776e657220697320746865207a65726f206160008201527f6464726573730000000000000000000000000000000000000000000000000000602082015250565b6000613f79602683612c2b565b9150613f8482613f1d565b604082019050919050565b60006020820190508181036000830152613fa881613f6c565b9050919050565b7f476f7665726e6f72566f74657351756f72756d4672616374696f6e3a2071756f60008201527f72756d4e756d657261746f72206f7665722071756f72756d44656e6f6d696e6160208201527f746f720000000000000000000000000000000000000000000000000000000000604082015250565b6000614031604383612c2b565b915061403c82613faf565b606082019050919050565b6000602082019050818103600083015261406081614024565b9050919050565b7f476f7665726e6f723a20766f7465206e6f742063757272656e746c792061637460008201527f6976650000000000000000000000000000000000000000000000000000000000602082015250565b60006140c3602383612c2b565b91506140ce82614067565b604082019050919050565b600060208201905081810360008301526140f2816140b6565b9050919050565b600060808201905061410e6000830187612b9d565b61411b6020830186613e11565b6141286040830185612b9d565b818103606083015261413a8184612c80565b905095945050505050565b61414e81612b5d565b811461415957600080fd5b50565b60008151905061416b81614145565b92915050565b60006020828403121561418757614186612ace565b5b60006141958482850161415c565b91505092915050565b7f476f7665726e6f723a20696e76616c69642070726f706f73616c206c656e677460008201527f6800000000000000000000000000000000000000000000000000000000000000602082015250565b60006141fa602183612c2b565b91506142058261419e565b604082019050919050565b60006020820190508181036000830152614229816141ed565b9050919050565b7f476f7665726e6f723a20656d7074792070726f706f73616c0000000000000000600082015250565b6000614266601883612c2b565b915061427182614230565b602082019050919050565b6000602082019050818103600083015261429581614259565b9050919050565b7f476f7665726e6f723a2070726f706f73616c20616c726561647920657869737460008201527f7300000000000000000000000000000000000000000000000000000000000000602082015250565b60006142f8602183612c2b565b91506143038261429c565b604082019050919050565b60006020820190508181036000830152614327816142eb565b9050919050565b600067ffffffffffffffff82169050919050565b600061434d8261432e565b91506143588361432e565b92508267ffffffffffffffff0382111561437557614374613d63565b5b828201905092915050565b600081519050919050565b600082825260208201905092915050565b6000819050602082019050919050565b600082825260208201905092915050565b60006143c882612c20565b6143d281856143ac565b93506143e2818560208601612c3c565b6143eb81612c6f565b840191505092915050565b600061440283836143bd565b905092915050565b6000602082019050919050565b600061442282614380565b61442c818561438b565b93508360208202850161443e8561439c565b8060005b8581101561447a578484038952815161445b85826143f6565b94506144668361440a565b925060208a01995050600181019050614442565b50829750879550505050505092915050565b60006144a76144a261449d8461432e565b61374d565b612b93565b9050919050565b6144b78161448c565b82525050565b6000610120820190506144d3600083018c612b9d565b6144e0602083018b61360f565b81810360408301526144f2818a6139c8565b905081810360608301526145068189613a86565b9050818103608083015261451a8188614417565b905081810360a083015261452e8187613b86565b905061453d60c08301866144ae565b61454a60e08301856144ae565b81810361010083015261455d8184612c80565b90509a9950505050505050505050565b6000604082019050614582600083018561360f565b61458f602083018461360f565b9392505050565b60006040820190506145ab600083018561360f565b6145b86020830184612b9d565b9392505050565b60006145ca82612b93565b91506145d583612b93565b9250817fffffffffffffffffffffffffffffffffffffffffffffffffffffffffffffffff048311821515161561460e5761460d613d63565b5b828202905092915050565b7f4e487b7100000000000000000000000000000000000000000000000000000000600052601260045260246000fd5b600061465382612b93565b915061465e83612b93565b92508261466e5761466d614619565b5b828204905092915050565b600081905092915050565b7f1901000000000000000000000000000000000000000000000000000000000000600082015250565b60006146ba600283614679565b91506146c582614684565b600282019050919050565b6000819050919050565b6146eb6146e6826130da565b6146d0565b82525050565b60006146fc826146ad565b915061470882856146da565b60208201915061471882846146da565b6020820191508190509392505050565b600060808201905061473d60008301876136b6565b61474a6020830186613e11565b61475760408301856136b6565b61476460608301846136b6565b95945050505050565b7f45434453413a20696e76616c6964207369676e61747572650000000000000000600082015250565b60006147a3601883612c2b565b91506147ae8261476d565b602082019050919050565b600060208201905081810360008301526147d281614796565b9050919050565b7f45434453413a20696e76616c6964207369676e6174757265206c656e67746800600082015250565b600061480f601f83612c2b565b915061481a826147d9565b602082019050919050565b6000602082019050818103600083015261483e81614802565b9050919050565b7f45434453413a20696e76616c6964207369676e6174757265202773272076616c60008201527f7565000000000000000000000000000000000000000000000000000000000000602082015250565b60006148a1602283612c2b565b91506148ac82614845565b604082019050919050565b600060208201905081810360008301526148d081614894565b9050919050565b7f45434453413a20696e76616c6964207369676e6174757265202776272076616c60008201527f7565000000000000000000000000000000000000000000000000000000000000602082015250565b6000614933602283612c2b565b915061493e826148d7565b604082019050919050565b6000602082019050818103600083015261496281614926565b9050919050565b7f476f7665726e6f72566f74696e6753696d706c653a20766f746520616c72656160008201527f6479206361737400000000000000000000000000000000000000000000000000602082015250565b60006149c5602783612c2b565b91506149d082614969565b604082019050919050565b600060208201905081810360008301526149f4816149b8565b9050919050565b7f476f7665726e6f72566f74696e6753696d706c653a20696e76616c696420766160008201527f6c756520666f7220656e756d20566f7465547970650000000000000000000000602082015250565b6000614a57603583612c2b565b9150614a62826149fb565b604082019050919050565b60006020820190508181036000830152614a8681614a4a565b9050919050565b7f476f7665726e6f723a20756e6b6e6f776e2070726f706f73616c206964000000600082015250565b6000614ac3601d83612c2b565b9150614ace82614a8d565b602082019050919050565b60006020820190508181036000830152614af281614ab6565b9050919050565b7f53616665436173743a2076616c756520646f65736e27742066697420696e203660008201527f3420626974730000000000000000000000000000000000000000000000000000602082015250565b6000614b55602683612c2b565b9150614b6082614af9565b604082019050919050565b60006020820190508181036000830152614b8481614b48565b9050919050565b600060a082019050614ba060008301886136b6565b614bad60208301876136b6565b614bba60408301866136b6565b614bc76060830185612b9d565b614bd4608083018461360f565b969550505050505056fea2646970667358221220d0b7c03d95f55ac455d168cab2103d9c05cfbbe7893d87da33aedabe617a23e664736f6c63430008090033",
  "immutableReferences": {
    "3098": [
      {
        "length": 32,
        "start": 5609
      },
      {
        "length": 32,
        "start": 7744
      },
      {
        "length": 32,
        "start": 7941
      }
    ],
    "6963": [
      {
        "length": 32,
        "start": 8501
      }
    ],
    "6965": [
      {
        "length": 32,
        "start": 8461
      }
    ],
    "6967": [
      {
        "length": 32,
        "start": 8577
      }
    ],
    "6969": [
      {
        "length": 32,
        "start": 8610
      }
    ],
    "6971": [
      {
        "length": 32,
        "start": 8544
      }
    ]
  },
  "source": "// SPDX-License-Identifier: MIT\npragma solidity ^0.8.2;\n\nimport \"@openzeppelin/contracts/governance/Governor.sol\";\nimport \"@openzeppelin/contracts/governance/extensions/GovernorCountingSimple.sol\";\nimport \"@openzeppelin/contracts/governance/extensions/GovernorVotes.sol\";\nimport \"@openzeppelin/contracts/governance/extensions/GovernorVotesQuorumFraction.sol\";\nimport \"@openzeppelin/contracts/governance/extensions/GovernorTimelockControl.sol\";\nimport \"@openzeppelin/contracts/access/Ownable.sol\";\n\nimport \"./Constants.sol\"; \n\n/// @title Governor module for the IkonDAO\n/// @author Fernando M. Trouw\n/// @notice this contract experimental \n/// @notice this contract is an experimental contract and should not be used to initiate project that will hold real value\n\n/// @custom:security-contact ftrouw@protonmail.com\ncontract IkonDAOGovernor is Governor, Ownable, GovernorCountingSimple, GovernorVotes, GovernorVotesQuorumFraction, GovernorTimelockControl, Constants {\n    string private _name; \n    string private _version;\n    uint256 private _votingDelay; \n    uint256 private _votingPeriod;\n    uint256 private _owner;  \n\n    constructor(ERC20Votes _token, TimelockController _timelock, string memory _govName, uint256 _delay, uint256 _period)\n        Governor(_govName)\n        GovernorVotes(_token)\n        GovernorVotesQuorumFraction(4)\n        GovernorTimelockControl(_timelock) \n    {\n        _votingDelay = _delay;\n        _votingPeriod = _period;\n        _version = \"1.0.0\";\n    }\n    \n    function votingDelay() public view override returns (uint256) {\n        return _votingDelay; // 1 block\n    }\n\n    function votingPeriod() public view override returns (uint256) {\n        return _votingPeriod; // 1 minutes \n    }\n\n    function setVotingPeriod(uint256 _period) external onlyOwner {\n        _setVotingPeriod(_period);\n    }\n\n    function _setVotingPeriod(uint256 _period) private {\n        _votingPeriod = _period; \n    }\n\n    function setVotingDelay(uint256 _delay) public onlyOwner {\n        _setVotingDelay(_delay); \n        \n    } \n\n    function _setVotingDelay(uint256 _delay) private {\n        _votingDelay = _delay;\n    } \n\n    // The following functions are overrides required by Solidity.\n    function quorum(uint256 blockNumber)\n        public\n        view\n        override(IGovernor, GovernorVotesQuorumFraction)\n        returns (uint256)\n    {\n        return super.quorum(blockNumber);\n    }\n\n    function getVotes(address account, uint256 blockNumber)\n        public\n        view\n        override(IGovernor, GovernorVotes)\n        returns (uint256)\n    {\n        return super.getVotes(account, blockNumber);\n    }\n\n    function state(uint256 proposalId)\n        public\n        view\n        override(Governor, GovernorTimelockControl)\n        returns (ProposalState)\n    {\n        return super.state(proposalId);\n    }\n\n    function propose(address[] memory targets, uint256[] memory values, bytes[] memory calldatas, string memory description)\n        public\n        override(Governor, IGovernor)\n        returns (uint256)\n    {\n        return super.propose(targets, values, calldatas, description);\n    }\n\n    function _execute(uint256 proposalId, address[] memory targets, uint256[] memory values, bytes[] memory calldatas, bytes32 descriptionHash)\n        internal\n        override(Governor, GovernorTimelockControl)\n    {\n        super._execute(proposalId, targets, values, calldatas, descriptionHash);\n    }\n\n    function _cancel(address[] memory targets, uint256[] memory values, bytes[] memory calldatas, bytes32 descriptionHash)\n        internal\n        override(Governor, GovernorTimelockControl)\n        returns (uint256)\n    {\n        return super._cancel(targets, values, calldatas, descriptionHash);\n    }\n\n    function _executor()\n        internal\n        view\n        override(Governor, GovernorTimelockControl)\n        returns (address)\n    {\n        return super._executor();\n    }\n\n    function supportsInterface(bytes4 interfaceId)\n        public\n        view\n        override(Governor, GovernorTimelockControl)\n        returns (bool)\n    {\n        return super.supportsInterface(interfaceId);\n    }\n}\n",
  "sourcePath": "/run/media/rasguy92/SDD (windows)/projectIdeas/iconify/contracts/IkonDAOGovernor.sol",
  "compiler": {
    "name": "solc",
    "version": "0.8.9+commit.e5eed63a.Emscripten.clang"
  },
  "schemaVersion": "3.4.3",
  "updatedAt": "2021-10-25T10:34:19.400Z",
  "devdoc": {
    "custom:security-contact": "ftrouw@protonmail.com",
    "kind": "dev",
    "methods": {
      "COUNTING_MODE()": {
        "details": "See {IGovernor-COUNTING_MODE}."
      },
      "castVote(uint256,uint8)": {
        "details": "See {IGovernor-castVote}."
      },
      "castVoteBySig(uint256,uint8,uint8,bytes32,bytes32)": {
        "details": "See {IGovernor-castVoteBySig}."
      },
      "castVoteWithReason(uint256,uint8,string)": {
        "details": "See {IGovernor-castVoteWithReason}."
      },
      "execute(address[],uint256[],bytes[],bytes32)": {
        "details": "See {IGovernor-execute}."
      },
      "hasVoted(uint256,address)": {
        "details": "See {IGovernor-hasVoted}."
      },
      "hashProposal(address[],uint256[],bytes[],bytes32)": {
        "details": "See {IGovernor-hashProposal}. The proposal id is produced by hashing the RLC encoded `targets` array, the `values` array, the `calldatas` array and the descriptionHash (bytes32 which itself is the keccak256 hash of the description string). This proposal id can be produced from the proposal data which is part of the {ProposalCreated} event. It can even be computed in advance, before the proposal is submitted. Note that the chainId and the governor address are not part of the proposal id computation. Consequently, the same proposal (with same operation and same description) will have the same id if submitted on multiple governors accross multiple networks. This also means that in order to execute the same operation twice (on the same governor) the proposer will have to change the description in order to avoid proposal id conflicts."
      },
      "name()": {
        "details": "See {IGovernor-name}."
      },
      "owner()": {
        "details": "Returns the address of the current owner."
      },
      "proposalDeadline(uint256)": {
        "details": "See {IGovernor-proposalDeadline}."
      },
      "proposalEta(uint256)": {
        "details": "Public accessor to check the eta of a queued proposal"
      },
      "proposalSnapshot(uint256)": {
        "details": "See {IGovernor-proposalSnapshot}."
      },
      "proposalVotes(uint256)": {
        "details": "Accessor to the internal vote counts."
      },
      "queue(address[],uint256[],bytes[],bytes32)": {
        "details": "Function to queue a proposal to the timelock."
      },
      "renounceOwnership()": {
        "details": "Leaves the contract without owner. It will not be possible to call `onlyOwner` functions anymore. Can only be called by the current owner. NOTE: Renouncing ownership will leave the contract without an owner, thereby removing any functionality that is only available to the owner."
      },
      "timelock()": {
        "details": "Public accessor to check the address of the timelock"
      },
      "transferOwnership(address)": {
        "details": "Transfers ownership of the contract to a new account (`newOwner`). Can only be called by the current owner."
      },
      "updateTimelock(address)": {
        "details": "Public endpoint to update the underlying timelock instance. Restricted to the timelock itself, so updates must be proposed, scheduled and executed using the {Governor} workflow."
      },
      "version()": {
        "details": "See {IGovernor-version}."
      },
      "votingDelay()": {
        "details": "delay, in number of block, between the proposal is created and the vote starts. This can be increassed to leave time for users to buy voting power, of delegate it, before the voting of a proposal starts."
      },
      "votingPeriod()": {
        "details": "delay, in number of blocks, between the vote start and vote ends. Note: the {votingDelay} can delay the start of the vote. This must be considered when setting the voting duration compared to the voting delay."
      }
    },
    "version": 1
  },
  "userdoc": {
    "kind": "user",
    "methods": {
      "votingDelay()": {
        "notice": "module:user-config"
      },
      "votingPeriod()": {
        "notice": "module:user-config"
      }
    },
    "version": 1
  }
}