{
  "contractName": "IkonDAOToken",
  "abi": [
    {
      "inputs": [],
      "stateMutability": "nonpayable",
      "type": "constructor"
    },
    {
      "anonymous": false,
      "inputs": [
        {
          "indexed": true,
          "internalType": "address",
          "name": "owner",
          "type": "address"
        },
        {
          "indexed": true,
          "internalType": "address",
          "name": "spender",
          "type": "address"
        },
        {
          "indexed": false,
          "internalType": "uint256",
          "name": "value",
          "type": "uint256"
        }
      ],
      "name": "Approval",
      "type": "event"
    },
    {
      "anonymous": false,
      "inputs": [
        {
          "indexed": true,
          "internalType": "bytes32",
          "name": "role",
          "type": "bytes32"
        },
        {
          "indexed": true,
          "internalType": "bytes32",
          "name": "previousAdminRole",
          "type": "bytes32"
        },
        {
          "indexed": true,
          "internalType": "bytes32",
          "name": "newAdminRole",
          "type": "bytes32"
        }
      ],
      "name": "RoleAdminChanged",
      "type": "event"
    },
    {
      "anonymous": false,
      "inputs": [
        {
          "indexed": true,
          "internalType": "bytes32",
          "name": "role",
          "type": "bytes32"
        },
        {
          "indexed": true,
          "internalType": "address",
          "name": "account",
          "type": "address"
        },
        {
          "indexed": true,
          "internalType": "address",
          "name": "sender",
          "type": "address"
        }
      ],
      "name": "RoleGranted",
      "type": "event"
    },
    {
      "anonymous": false,
      "inputs": [
        {
          "indexed": true,
          "internalType": "bytes32",
          "name": "role",
          "type": "bytes32"
        },
        {
          "indexed": true,
          "internalType": "address",
          "name": "account",
          "type": "address"
        },
        {
          "indexed": true,
          "internalType": "address",
          "name": "sender",
          "type": "address"
        }
      ],
      "name": "RoleRevoked",
      "type": "event"
    },
    {
      "anonymous": false,
      "inputs": [
        {
          "indexed": false,
          "internalType": "uint256",
          "name": "id",
          "type": "uint256"
        }
      ],
      "name": "Snapshot",
      "type": "event"
    },
    {
      "anonymous": false,
      "inputs": [
        {
          "indexed": true,
          "internalType": "address",
          "name": "from",
          "type": "address"
        },
        {
          "indexed": true,
          "internalType": "address",
          "name": "to",
          "type": "address"
        },
        {
          "indexed": false,
          "internalType": "uint256",
          "name": "value",
          "type": "uint256"
        }
      ],
      "name": "Transfer",
      "type": "event"
    },
    {
      "inputs": [],
      "name": "DEFAULT_ADMIN_ROLE",
      "outputs": [
        {
          "internalType": "bytes32",
          "name": "",
          "type": "bytes32"
        }
      ],
      "stateMutability": "view",
      "type": "function"
    },
    {
      "inputs": [],
      "name": "DOMAIN_SEPARATOR",
      "outputs": [
        {
          "internalType": "bytes32",
          "name": "",
          "type": "bytes32"
        }
      ],
      "stateMutability": "view",
      "type": "function"
    },
    {
      "inputs": [],
      "name": "MINTER_ROLE",
      "outputs": [
        {
          "internalType": "bytes32",
          "name": "",
          "type": "bytes32"
        }
      ],
      "stateMutability": "view",
      "type": "function"
    },
    {
      "inputs": [],
      "name": "SNAPSHOT_ROLE",
      "outputs": [
        {
          "internalType": "bytes32",
          "name": "",
          "type": "bytes32"
        }
      ],
      "stateMutability": "view",
      "type": "function"
    },
    {
      "inputs": [
        {
          "internalType": "address",
          "name": "owner",
          "type": "address"
        },
        {
          "internalType": "address",
          "name": "spender",
          "type": "address"
        }
      ],
      "name": "allowance",
      "outputs": [
        {
          "internalType": "uint256",
          "name": "",
          "type": "uint256"
        }
      ],
      "stateMutability": "view",
      "type": "function"
    },
    {
      "inputs": [
        {
          "internalType": "address",
          "name": "spender",
          "type": "address"
        },
        {
          "internalType": "uint256",
          "name": "amount",
          "type": "uint256"
        }
      ],
      "name": "approve",
      "outputs": [
        {
          "internalType": "bool",
          "name": "",
          "type": "bool"
        }
      ],
      "stateMutability": "nonpayable",
      "type": "function"
    },
    {
      "inputs": [
        {
          "internalType": "address",
          "name": "account",
          "type": "address"
        }
      ],
      "name": "balanceOf",
      "outputs": [
        {
          "internalType": "uint256",
          "name": "",
          "type": "uint256"
        }
      ],
      "stateMutability": "view",
      "type": "function"
    },
    {
      "inputs": [
        {
          "internalType": "address",
          "name": "account",
          "type": "address"
        },
        {
          "internalType": "uint256",
          "name": "snapshotId",
          "type": "uint256"
        }
      ],
      "name": "balanceOfAt",
      "outputs": [
        {
          "internalType": "uint256",
          "name": "",
          "type": "uint256"
        }
      ],
      "stateMutability": "view",
      "type": "function"
    },
    {
      "inputs": [
        {
          "internalType": "uint256",
          "name": "amount",
          "type": "uint256"
        }
      ],
      "name": "burn",
      "outputs": [],
      "stateMutability": "nonpayable",
      "type": "function"
    },
    {
      "inputs": [
        {
          "internalType": "address",
          "name": "account",
          "type": "address"
        },
        {
          "internalType": "uint256",
          "name": "amount",
          "type": "uint256"
        }
      ],
      "name": "burnFrom",
      "outputs": [],
      "stateMutability": "nonpayable",
      "type": "function"
    },
    {
      "inputs": [],
      "name": "decimals",
      "outputs": [
        {
          "internalType": "uint8",
          "name": "",
          "type": "uint8"
        }
      ],
      "stateMutability": "view",
      "type": "function"
    },
    {
      "inputs": [
        {
          "internalType": "address",
          "name": "spender",
          "type": "address"
        },
        {
          "internalType": "uint256",
          "name": "subtractedValue",
          "type": "uint256"
        }
      ],
      "name": "decreaseAllowance",
      "outputs": [
        {
          "internalType": "bool",
          "name": "",
          "type": "bool"
        }
      ],
      "stateMutability": "nonpayable",
      "type": "function"
    },
    {
      "inputs": [
        {
          "internalType": "bytes32",
          "name": "role",
          "type": "bytes32"
        }
      ],
      "name": "getRoleAdmin",
      "outputs": [
        {
          "internalType": "bytes32",
          "name": "",
          "type": "bytes32"
        }
      ],
      "stateMutability": "view",
      "type": "function"
    },
    {
      "inputs": [
        {
          "internalType": "bytes32",
          "name": "role",
          "type": "bytes32"
        },
        {
          "internalType": "address",
          "name": "account",
          "type": "address"
        }
      ],
      "name": "grantRole",
      "outputs": [],
      "stateMutability": "nonpayable",
      "type": "function"
    },
    {
      "inputs": [
        {
          "internalType": "bytes32",
          "name": "role",
          "type": "bytes32"
        },
        {
          "internalType": "address",
          "name": "account",
          "type": "address"
        }
      ],
      "name": "hasRole",
      "outputs": [
        {
          "internalType": "bool",
          "name": "",
          "type": "bool"
        }
      ],
      "stateMutability": "view",
      "type": "function"
    },
    {
      "inputs": [
        {
          "internalType": "address",
          "name": "spender",
          "type": "address"
        },
        {
          "internalType": "uint256",
          "name": "addedValue",
          "type": "uint256"
        }
      ],
      "name": "increaseAllowance",
      "outputs": [
        {
          "internalType": "bool",
          "name": "",
          "type": "bool"
        }
      ],
      "stateMutability": "nonpayable",
      "type": "function"
    },
    {
      "inputs": [],
      "name": "name",
      "outputs": [
        {
          "internalType": "string",
          "name": "",
          "type": "string"
        }
      ],
      "stateMutability": "view",
      "type": "function"
    },
    {
      "inputs": [
        {
          "internalType": "address",
          "name": "owner",
          "type": "address"
        }
      ],
      "name": "nonces",
      "outputs": [
        {
          "internalType": "uint256",
          "name": "",
          "type": "uint256"
        }
      ],
      "stateMutability": "view",
      "type": "function"
    },
    {
      "inputs": [
        {
          "internalType": "address",
          "name": "owner",
          "type": "address"
        },
        {
          "internalType": "address",
          "name": "spender",
          "type": "address"
        },
        {
          "internalType": "uint256",
          "name": "value",
          "type": "uint256"
        },
        {
          "internalType": "uint256",
          "name": "deadline",
          "type": "uint256"
        },
        {
          "internalType": "uint8",
          "name": "v",
          "type": "uint8"
        },
        {
          "internalType": "bytes32",
          "name": "r",
          "type": "bytes32"
        },
        {
          "internalType": "bytes32",
          "name": "s",
          "type": "bytes32"
        }
      ],
      "name": "permit",
      "outputs": [],
      "stateMutability": "nonpayable",
      "type": "function"
    },
    {
      "inputs": [
        {
          "internalType": "bytes32",
          "name": "role",
          "type": "bytes32"
        },
        {
          "internalType": "address",
          "name": "account",
          "type": "address"
        }
      ],
      "name": "renounceRole",
      "outputs": [],
      "stateMutability": "nonpayable",
      "type": "function"
    },
    {
      "inputs": [
        {
          "internalType": "bytes32",
          "name": "role",
          "type": "bytes32"
        },
        {
          "internalType": "address",
          "name": "account",
          "type": "address"
        }
      ],
      "name": "revokeRole",
      "outputs": [],
      "stateMutability": "nonpayable",
      "type": "function"
    },
    {
      "inputs": [
        {
          "internalType": "bytes4",
          "name": "interfaceId",
          "type": "bytes4"
        }
      ],
      "name": "supportsInterface",
      "outputs": [
        {
          "internalType": "bool",
          "name": "",
          "type": "bool"
        }
      ],
      "stateMutability": "view",
      "type": "function"
    },
    {
      "inputs": [],
      "name": "symbol",
      "outputs": [
        {
          "internalType": "string",
          "name": "",
          "type": "string"
        }
      ],
      "stateMutability": "view",
      "type": "function"
    },
    {
      "inputs": [],
      "name": "totalSupply",
      "outputs": [
        {
          "internalType": "uint256",
          "name": "",
          "type": "uint256"
        }
      ],
      "stateMutability": "view",
      "type": "function"
    },
    {
      "inputs": [
        {
          "internalType": "uint256",
          "name": "snapshotId",
          "type": "uint256"
        }
      ],
      "name": "totalSupplyAt",
      "outputs": [
        {
          "internalType": "uint256",
          "name": "",
          "type": "uint256"
        }
      ],
      "stateMutability": "view",
      "type": "function"
    },
    {
      "inputs": [
        {
          "internalType": "address",
          "name": "recipient",
          "type": "address"
        },
        {
          "internalType": "uint256",
          "name": "amount",
          "type": "uint256"
        }
      ],
      "name": "transfer",
      "outputs": [
        {
          "internalType": "bool",
          "name": "",
          "type": "bool"
        }
      ],
      "stateMutability": "nonpayable",
      "type": "function"
    },
    {
      "inputs": [
        {
          "internalType": "address",
          "name": "sender",
          "type": "address"
        },
        {
          "internalType": "address",
          "name": "recipient",
          "type": "address"
        },
        {
          "internalType": "uint256",
          "name": "amount",
          "type": "uint256"
        }
      ],
      "name": "transferFrom",
      "outputs": [
        {
          "internalType": "bool",
          "name": "",
          "type": "bool"
        }
      ],
      "stateMutability": "nonpayable",
      "type": "function"
    },
    {
      "inputs": [],
      "name": "snapshot",
      "outputs": [],
      "stateMutability": "nonpayable",
      "type": "function"
    },
    {
      "inputs": [
        {
          "internalType": "address",
          "name": "to",
          "type": "address"
        },
        {
          "internalType": "uint256",
          "name": "amount",
          "type": "uint256"
        }
      ],
      "name": "mint",
      "outputs": [],
      "stateMutability": "nonpayable",
      "type": "function"
    }
  ],
  "bytecode": "0x6101406040527f6e71edae12b1b97f4d1f60370fef10105fa2faae0126114a169c64845d6126c9610120908152503480156200003a57600080fd5b506040518060400160405280600d81526020017f496b6f6e44414f20546f6b656e00000000000000000000000000000000000000815250806040518060400160405280600181526020017f31000000000000000000000000000000000000000000000000000000000000008152506040518060400160405280600d81526020017f496b6f6e44414f20546f6b656e000000000000000000000000000000000000008152506040518060400160405280600381526020017f494b44000000000000000000000000000000000000000000000000000000000081525081600390805190602001906200012c929190620008c4565b50806004908051906020019062000145929190620008c4565b50505060008280519060200120905060008280519060200120905060007f8b73c3c69bb8fe3d512ecc4cf759cc79239f7b179b0ffacaa9a75d522b39400f90508260c081815250508160e081815250504660a08181525050620001b08184846200028460201b60201c565b60808181525050806101008181525050505050505050620001db6000801b33620002c060201b60201c565b6200020d7f5fdbd35e8da83ee755d5e62a539e5ed7f47126abede0b8b10f9ea43dc6eed07f33620002c060201b60201c565b6200024c3362000222620002d660201b60201c565b600a62000230919062000b0e565b620f424062000240919062000b5f565b620002df60201b60201c565b6200027e7f9f2df0fed2c77648de5860a4cc508cd0818c85b8b8a1ab4ceeef8d981c8956a633620002c060201b60201c565b62000e5a565b60008383834630604051602001620002a195949392919062000c31565b6040516020818303038152906040528051906020012090509392505050565b620002d282826200045860201b60201c565b5050565b60006012905090565b600073ffffffffffffffffffffffffffffffffffffffff168273ffffffffffffffffffffffffffffffffffffffff16141562000352576040517f08c379a0000000000000000000000000000000000000000000000000000000008152600401620003499062000cef565b60405180910390fd5b62000366600083836200054a60201b60201c565b80600260008282546200037a919062000d11565b92505081905550806000808473ffffffffffffffffffffffffffffffffffffffff1673ffffffffffffffffffffffffffffffffffffffff1681526020019081526020016000206000828254620003d1919062000d11565b925050819055508173ffffffffffffffffffffffffffffffffffffffff16600073ffffffffffffffffffffffffffffffffffffffff167fddf252ad1be2c89b69c2b068fc378daa952ba7f163c4a11628f55a4df523b3ef8360405162000438919062000d6e565b60405180910390a362000454600083836200056760201b60201c565b5050565b6200046a82826200056c60201b60201c565b620005465760016009600084815260200190815260200160002060000160008373ffffffffffffffffffffffffffffffffffffffff1673ffffffffffffffffffffffffffffffffffffffff16815260200190815260200160002060006101000a81548160ff021916908315150217905550620004eb620005d760201b60201c565b73ffffffffffffffffffffffffffffffffffffffff168173ffffffffffffffffffffffffffffffffffffffff16837f2f8788117e7eff1d82e926ec794901d17c78024a50270940304540a733656f0d60405160405180910390a45b5050565b62000562838383620005df60201b6200104c1760201c565b505050565b505050565b60006009600084815260200190815260200160002060000160008373ffffffffffffffffffffffffffffffffffffffff1673ffffffffffffffffffffffffffffffffffffffff16815260200190815260200160002060009054906101000a900460ff16905092915050565b600033905090565b620005f7838383620006da60201b620011061760201c565b600073ffffffffffffffffffffffffffffffffffffffff168373ffffffffffffffffffffffffffffffffffffffff16141562000654576200063e82620006df60201b60201c565b6200064e6200074260201b60201c565b620006d5565b600073ffffffffffffffffffffffffffffffffffffffff168273ffffffffffffffffffffffffffffffffffffffff161415620006b1576200069b83620006df60201b60201c565b620006ab6200074260201b60201c565b620006d4565b620006c283620006df60201b60201c565b620006d382620006df60201b60201c565b5b5b505050565b505050565b6200073f600560008373ffffffffffffffffffffffffffffffffffffffff1673ffffffffffffffffffffffffffffffffffffffff16815260200190815260200160002062000733836200076660201b60201c565b620007ae60201b60201c565b50565b620007646006620007586200083a60201b60201c565b620007ae60201b60201c565b565b60008060008373ffffffffffffffffffffffffffffffffffffffff1673ffffffffffffffffffffffffffffffffffffffff168152602001908152602001600020549050919050565b6000620007c06200084460201b60201c565b905080620007d7846000016200086260201b60201c565b1015620008355782600001819080600181540180825580915050600190039060005260206000200160009091909190915055826001018290806001815401808255809150506001900390600052602060002001600090919091909150555b505050565b6000600254905090565b60006200085d6008620008b660201b6200110b1760201c565b905090565b600080828054905014156200087b5760009050620008b1565b81600183805490506200088f919062000d8b565b81548110620008a357620008a262000dc6565b5b906000526020600020015490505b919050565b600081600001549050919050565b828054620008d29062000e24565b90600052602060002090601f016020900481019282620008f6576000855562000942565b82601f106200091157805160ff191683800117855562000942565b8280016001018555821562000942579182015b828111156200094157825182559160200191906001019062000924565b5b50905062000951919062000955565b5090565b5b808211156200097057600081600090555060010162000956565b5090565b7f4e487b7100000000000000000000000000000000000000000000000000000000600052601160045260246000fd5b60008160011c9050919050565b6000808291508390505b600185111562000a0257808604811115620009da57620009d962000974565b5b6001851615620009ea5780820291505b8081029050620009fa85620009a3565b9450620009ba565b94509492505050565b60008262000a1d576001905062000af0565b8162000a2d576000905062000af0565b816001811462000a46576002811462000a515762000a87565b600191505062000af0565b60ff84111562000a665762000a6562000974565b5b8360020a91508482111562000a805762000a7f62000974565b5b5062000af0565b5060208310610133831016604e8410600b841016171562000ac15782820a90508381111562000abb5762000aba62000974565b5b62000af0565b62000ad08484846001620009b0565b9250905081840481111562000aea5762000ae962000974565b5b81810290505b9392505050565b6000819050919050565b600060ff82169050919050565b600062000b1b8262000af7565b915062000b288362000b01565b925062000b577fffffffffffffffffffffffffffffffffffffffffffffffffffffffffffffffff848462000a0b565b905092915050565b600062000b6c8262000af7565b915062000b798362000af7565b9250817fffffffffffffffffffffffffffffffffffffffffffffffffffffffffffffffff048311821515161562000bb55762000bb462000974565b5b828202905092915050565b6000819050919050565b62000bd58162000bc0565b82525050565b62000be68162000af7565b82525050565b600073ffffffffffffffffffffffffffffffffffffffff82169050919050565b600062000c198262000bec565b9050919050565b62000c2b8162000c0c565b82525050565b600060a08201905062000c48600083018862000bca565b62000c57602083018762000bca565b62000c66604083018662000bca565b62000c75606083018562000bdb565b62000c84608083018462000c20565b9695505050505050565b600082825260208201905092915050565b7f45524332303a206d696e7420746f20746865207a65726f206164647265737300600082015250565b600062000cd7601f8362000c8e565b915062000ce48262000c9f565b602082019050919050565b6000602082019050818103600083015262000d0a8162000cc8565b9050919050565b600062000d1e8262000af7565b915062000d2b8362000af7565b9250827fffffffffffffffffffffffffffffffffffffffffffffffffffffffffffffffff0382111562000d635762000d6262000974565b5b828201905092915050565b600060208201905062000d85600083018462000bdb565b92915050565b600062000d988262000af7565b915062000da58362000af7565b92508282101562000dbb5762000dba62000974565b5b828203905092915050565b7f4e487b7100000000000000000000000000000000000000000000000000000000600052603260045260246000fd5b7f4e487b7100000000000000000000000000000000000000000000000000000000600052602260045260246000fd5b6000600282049050600182168062000e3d57607f821691505b6020821081141562000e545762000e5362000df5565b5b50919050565b60805160a05160c05160e0516101005161012051613b9362000eaa6000396000610e7d015260006117ac015260006117ee015260006117cd01526000611759015260006117810152613b936000f3fe608060405234801561001057600080fd5b50600436106101cf5760003560e01c80637028e2cd11610104578063981b24d0116100a2578063d505accf11610071578063d505accf1461057c578063d539139314610598578063d547741f146105b6578063dd62ed3e146105d2576101cf565b8063981b24d0146104ce578063a217fddf146104fe578063a457c2d71461051c578063a9059cbb1461054c576101cf565b80637ecebe00116100de5780637ecebe001461044657806391d148541461047657806395d89b41146104a65780639711715a146104c4576101cf565b80637028e2cd146103dc57806370a08231146103fa57806379cc67901461042a576101cf565b8063313ce56711610171578063395093511161014b578063395093511461034457806340c10f191461037457806342966c68146103905780634ee2cd7e146103ac576101cf565b8063313ce567146102ec5780633644e5151461030a57806336568abe14610328576101cf565b806318160ddd116101ad57806318160ddd1461025257806323b872dd14610270578063248a9ca3146102a05780632f2ff15d146102d0576101cf565b806301ffc9a7146101d457806306fdde0314610204578063095ea7b314610222575b600080fd5b6101ee60048036038101906101e99190612673565b610602565b6040516101fb91906126bb565b60405180910390f35b61020c61067c565b604051610219919061276f565b60405180910390f35b61023c60048036038101906102379190612825565b61070e565b60405161024991906126bb565b60405180910390f35b61025a61072c565b6040516102679190612874565b60405180910390f35b61028a6004803603810190610285919061288f565b610736565b60405161029791906126bb565b60405180910390f35b6102ba60048036038101906102b59190612918565b61082e565b6040516102c79190612954565b60405180910390f35b6102ea60048036038101906102e5919061296f565b61084e565b005b6102f4610877565b60405161030191906129cb565b60405180910390f35b610312610880565b60405161031f9190612954565b60405180910390f35b610342600480360381019061033d919061296f565b61088f565b005b61035e60048036038101906103599190612825565b610912565b60405161036b91906126bb565b60405180910390f35b61038e60048036038101906103899190612825565b6109be565b005b6103aa60048036038101906103a591906129e6565b6109ff565b005b6103c660048036038101906103c19190612825565b610a13565b6040516103d39190612874565b60405180910390f35b6103e4610a83565b6040516103f19190612954565b60405180910390f35b610414600480360381019061040f9190612a13565b610aa7565b6040516104219190612874565b60405180910390f35b610444600480360381019061043f9190612825565b610aef565b005b610460600480360381019061045b9190612a13565b610b6a565b60405161046d9190612874565b60405180910390f35b610490600480360381019061048b919061296f565b610bba565b60405161049d91906126bb565b60405180910390f35b6104ae610c25565b6040516104bb919061276f565b60405180910390f35b6104cc610cb7565b005b6104e860048036038101906104e391906129e6565b610cf5565b6040516104f59190612874565b60405180910390f35b610506610d26565b6040516105139190612954565b60405180910390f35b61053660048036038101906105319190612825565b610d2d565b60405161054391906126bb565b60405180910390f35b61056660048036038101906105619190612825565b610e18565b60405161057391906126bb565b60405180910390f35b61059660048036038101906105919190612a6c565b610e36565b005b6105a0610f78565b6040516105ad9190612954565b60405180910390f35b6105d060048036038101906105cb919061296f565b610f9c565b005b6105ec60048036038101906105e79190612b0e565b610fc5565b6040516105f99190612874565b60405180910390f35b60007f7965db0b000000000000000000000000000000000000000000000000000000007bffffffffffffffffffffffffffffffffffffffffffffffffffffffff1916827bffffffffffffffffffffffffffffffffffffffffffffffffffffffff19161480610675575061067482611119565b5b9050919050565b60606003805461068b90612b7d565b80601f01602080910402602001604051908101604052809291908181526020018280546106b790612b7d565b80156107045780601f106106d957610100808354040283529160200191610704565b820191906000526020600020905b8154815290600101906020018083116106e757829003601f168201915b5050505050905090565b600061072261071b611183565b848461118b565b6001905092915050565b6000600254905090565b6000610743848484611356565b6000600160008673ffffffffffffffffffffffffffffffffffffffff1673ffffffffffffffffffffffffffffffffffffffff168152602001908152602001600020600061078e611183565b73ffffffffffffffffffffffffffffffffffffffff1673ffffffffffffffffffffffffffffffffffffffff1681526020019081526020016000205490508281101561080e576040517f08c379a000000000000000000000000000000000000000000000000000000000815260040161080590612c21565b60405180910390fd5b6108228561081a611183565b85840361118b565b60019150509392505050565b600060096000838152602001908152602001600020600101549050919050565b6108578261082e565b61086881610863611183565b6115d7565b6108728383611674565b505050565b60006012905090565b600061088a611755565b905090565b610897611183565b73ffffffffffffffffffffffffffffffffffffffff168173ffffffffffffffffffffffffffffffffffffffff1614610904576040517f08c379a00000000000000000000000000000000000000000000000000000000081526004016108fb90612cb3565b60405180910390fd5b61090e8282611818565b5050565b60006109b461091f611183565b84846001600061092d611183565b73ffffffffffffffffffffffffffffffffffffffff1673ffffffffffffffffffffffffffffffffffffffff16815260200190815260200160002060008873ffffffffffffffffffffffffffffffffffffffff1673ffffffffffffffffffffffffffffffffffffffff168152602001908152602001600020546109af9190612d02565b61118b565b6001905092915050565b7f9f2df0fed2c77648de5860a4cc508cd0818c85b8b8a1ab4ceeef8d981c8956a66109f0816109eb611183565b6115d7565b6109fa83836118fa565b505050565b610a10610a0a611183565b82611a5a565b50565b6000806000610a6084600560008873ffffffffffffffffffffffffffffffffffffffff1673ffffffffffffffffffffffffffffffffffffffff168152602001908152602001600020611c31565b9150915081610a7757610a7285610aa7565b610a79565b805b9250505092915050565b7f5fdbd35e8da83ee755d5e62a539e5ed7f47126abede0b8b10f9ea43dc6eed07f81565b60008060008373ffffffffffffffffffffffffffffffffffffffff1673ffffffffffffffffffffffffffffffffffffffff168152602001908152602001600020549050919050565b6000610b0283610afd611183565b610fc5565b905081811015610b47576040517f08c379a0000000000000000000000000000000000000000000000000000000008152600401610b3e90612dca565b60405180910390fd5b610b5b83610b53611183565b84840361118b565b610b658383611a5a565b505050565b6000610bb3600a60008473ffffffffffffffffffffffffffffffffffffffff1673ffffffffffffffffffffffffffffffffffffffff16815260200190815260200160002061110b565b9050919050565b60006009600084815260200190815260200160002060000160008373ffffffffffffffffffffffffffffffffffffffff1673ffffffffffffffffffffffffffffffffffffffff16815260200190815260200160002060009054906101000a900460ff16905092915050565b606060048054610c3490612b7d565b80601f0160208091040260200160405190810160405280929190818152602001828054610c6090612b7d565b8015610cad5780601f10610c8257610100808354040283529160200191610cad565b820191906000526020600020905b815481529060010190602001808311610c9057829003601f168201915b5050505050905090565b7f5fdbd35e8da83ee755d5e62a539e5ed7f47126abede0b8b10f9ea43dc6eed07f610ce981610ce4611183565b6115d7565b610cf1611d27565b5050565b6000806000610d05846006611c31565b9150915081610d1b57610d1661072c565b610d1d565b805b92505050919050565b6000801b81565b60008060016000610d3c611183565b73ffffffffffffffffffffffffffffffffffffffff1673ffffffffffffffffffffffffffffffffffffffff16815260200190815260200160002060008573ffffffffffffffffffffffffffffffffffffffff1673ffffffffffffffffffffffffffffffffffffffff16815260200190815260200160002054905082811015610df9576040517f08c379a0000000000000000000000000000000000000000000000000000000008152600401610df090612e5c565b60405180910390fd5b610e0d610e04611183565b8585840361118b565b600191505092915050565b6000610e2c610e25611183565b8484611356565b6001905092915050565b83421115610e79576040517f08c379a0000000000000000000000000000000000000000000000000000000008152600401610e7090612ec8565b60405180910390fd5b60007f0000000000000000000000000000000000000000000000000000000000000000888888610ea88c611d7d565b89604051602001610ebe96959493929190612ef7565b6040516020818303038152906040528051906020012090506000610ee182611ddb565b90506000610ef182878787611df5565b90508973ffffffffffffffffffffffffffffffffffffffff168173ffffffffffffffffffffffffffffffffffffffff1614610f61576040517f08c379a0000000000000000000000000000000000000000000000000000000008152600401610f5890612fa4565b60405180910390fd5b610f6c8a8a8a61118b565b50505050505050505050565b7f9f2df0fed2c77648de5860a4cc508cd0818c85b8b8a1ab4ceeef8d981c8956a681565b610fa58261082e565b610fb681610fb1611183565b6115d7565b610fc08383611818565b505050565b6000600160008473ffffffffffffffffffffffffffffffffffffffff1673ffffffffffffffffffffffffffffffffffffffff16815260200190815260200160002060008373ffffffffffffffffffffffffffffffffffffffff1673ffffffffffffffffffffffffffffffffffffffff16815260200190815260200160002054905092915050565b611057838383611106565b600073ffffffffffffffffffffffffffffffffffffffff168373ffffffffffffffffffffffffffffffffffffffff1614156110a25761109582611e20565b61109d611e73565b611101565b600073ffffffffffffffffffffffffffffffffffffffff168273ffffffffffffffffffffffffffffffffffffffff1614156110ed576110e083611e20565b6110e8611e73565b611100565b6110f683611e20565b6110ff82611e20565b5b5b505050565b505050565b600081600001549050919050565b60007f01ffc9a7000000000000000000000000000000000000000000000000000000007bffffffffffffffffffffffffffffffffffffffffffffffffffffffff1916827bffffffffffffffffffffffffffffffffffffffffffffffffffffffff1916149050919050565b600033905090565b600073ffffffffffffffffffffffffffffffffffffffff168373ffffffffffffffffffffffffffffffffffffffff1614156111fb576040517f08c379a00000000000000000000000000000000000000000000000000000000081526004016111f290613036565b60405180910390fd5b600073ffffffffffffffffffffffffffffffffffffffff168273ffffffffffffffffffffffffffffffffffffffff16141561126b576040517f08c379a0000000000000000000000000000000000000000000000000000000008152600401611262906130c8565b60405180910390fd5b80600160008573ffffffffffffffffffffffffffffffffffffffff1673ffffffffffffffffffffffffffffffffffffffff16815260200190815260200160002060008473ffffffffffffffffffffffffffffffffffffffff1673ffffffffffffffffffffffffffffffffffffffff168152602001908152602001600020819055508173ffffffffffffffffffffffffffffffffffffffff168373ffffffffffffffffffffffffffffffffffffffff167f8c5be1e5ebec7d5bd14f71427d1e84f3dd0314c0f7b2291e5b200ac8c7c3b925836040516113499190612874565b60405180910390a3505050565b600073ffffffffffffffffffffffffffffffffffffffff168373ffffffffffffffffffffffffffffffffffffffff1614156113c6576040517f08c379a00000000000000000000000000000000000000000000000000000000081526004016113bd9061315a565b60405180910390fd5b600073ffffffffffffffffffffffffffffffffffffffff168273ffffffffffffffffffffffffffffffffffffffff161415611436576040517f08c379a000000000000000000000000000000000000000000000000000000000815260040161142d906131ec565b60405180910390fd5b611441838383611e87565b60008060008573ffffffffffffffffffffffffffffffffffffffff1673ffffffffffffffffffffffffffffffffffffffff168152602001908152602001600020549050818110156114c7576040517f08c379a00000000000000000000000000000000000000000000000000000000081526004016114be9061327e565b60405180910390fd5b8181036000808673ffffffffffffffffffffffffffffffffffffffff1673ffffffffffffffffffffffffffffffffffffffff16815260200190815260200160002081905550816000808573ffffffffffffffffffffffffffffffffffffffff1673ffffffffffffffffffffffffffffffffffffffff168152602001908152602001600020600082825461155a9190612d02565b925050819055508273ffffffffffffffffffffffffffffffffffffffff168473ffffffffffffffffffffffffffffffffffffffff167fddf252ad1be2c89b69c2b068fc378daa952ba7f163c4a11628f55a4df523b3ef846040516115be9190612874565b60405180910390a36115d1848484611e97565b50505050565b6115e18282610bba565b611670576116068173ffffffffffffffffffffffffffffffffffffffff166014611e9c565b6116148360001c6020611e9c565b604051602001611625929190613372565b6040516020818303038152906040526040517f08c379a0000000000000000000000000000000000000000000000000000000008152600401611667919061276f565b60405180910390fd5b5050565b61167e8282610bba565b6117515760016009600084815260200190815260200160002060000160008373ffffffffffffffffffffffffffffffffffffffff1673ffffffffffffffffffffffffffffffffffffffff16815260200190815260200160002060006101000a81548160ff0219169083151502179055506116f6611183565b73ffffffffffffffffffffffffffffffffffffffff168173ffffffffffffffffffffffffffffffffffffffff16837f2f8788117e7eff1d82e926ec794901d17c78024a50270940304540a733656f0d60405160405180910390a45b5050565b60007f00000000000000000000000000000000000000000000000000000000000000004614156117a7577f00000000000000000000000000000000000000000000000000000000000000009050611815565b6118127f00000000000000000000000000000000000000000000000000000000000000007f00000000000000000000000000000000000000000000000000000000000000007f00000000000000000000000000000000000000000000000000000000000000006120d8565b90505b90565b6118228282610bba565b156118f65760006009600084815260200190815260200160002060000160008373ffffffffffffffffffffffffffffffffffffffff1673ffffffffffffffffffffffffffffffffffffffff16815260200190815260200160002060006101000a81548160ff02191690831515021790555061189b611183565b73ffffffffffffffffffffffffffffffffffffffff168173ffffffffffffffffffffffffffffffffffffffff16837ff6391f5c32d9c69d2a47ea670b442974b53935d1edc7fd64eb21e047a839171b60405160405180910390a45b5050565b600073ffffffffffffffffffffffffffffffffffffffff168273ffffffffffffffffffffffffffffffffffffffff16141561196a576040517f08c379a0000000000000000000000000000000000000000000000000000000008152600401611961906133f8565b60405180910390fd5b61197660008383611e87565b80600260008282546119889190612d02565b92505081905550806000808473ffffffffffffffffffffffffffffffffffffffff1673ffffffffffffffffffffffffffffffffffffffff16815260200190815260200160002060008282546119dd9190612d02565b925050819055508173ffffffffffffffffffffffffffffffffffffffff16600073ffffffffffffffffffffffffffffffffffffffff167fddf252ad1be2c89b69c2b068fc378daa952ba7f163c4a11628f55a4df523b3ef83604051611a429190612874565b60405180910390a3611a5660008383611e97565b5050565b600073ffffffffffffffffffffffffffffffffffffffff168273ffffffffffffffffffffffffffffffffffffffff161415611aca576040517f08c379a0000000000000000000000000000000000000000000000000000000008152600401611ac19061348a565b60405180910390fd5b611ad682600083611e87565b60008060008473ffffffffffffffffffffffffffffffffffffffff1673ffffffffffffffffffffffffffffffffffffffff16815260200190815260200160002054905081811015611b5c576040517f08c379a0000000000000000000000000000000000000000000000000000000008152600401611b539061351c565b60405180910390fd5b8181036000808573ffffffffffffffffffffffffffffffffffffffff1673ffffffffffffffffffffffffffffffffffffffff168152602001908152602001600020819055508160026000828254611bb3919061353c565b92505081905550600073ffffffffffffffffffffffffffffffffffffffff168373ffffffffffffffffffffffffffffffffffffffff167fddf252ad1be2c89b69c2b068fc378daa952ba7f163c4a11628f55a4df523b3ef84604051611c189190612874565b60405180910390a3611c2c83600084611e97565b505050565b60008060008411611c77576040517f08c379a0000000000000000000000000000000000000000000000000000000008152600401611c6e906135bc565b60405180910390fd5b611c7f612112565b841115611cc1576040517f08c379a0000000000000000000000000000000000000000000000000000000008152600401611cb890613628565b60405180910390fd5b6000611cd9858560000161212390919063ffffffff16565b90508360000180549050811415611cf7576000809250925050611d20565b6001846001018281548110611d0f57611d0e613648565b5b906000526020600020015492509250505b9250929050565b6000611d3360086121fd565b6000611d3d612112565b90507f8030e83b04d87bef53480e26263266d6ca66863aa8506aca6f2559d18aa1cb6781604051611d6e9190612874565b60405180910390a18091505090565b600080600a60008473ffffffffffffffffffffffffffffffffffffffff1673ffffffffffffffffffffffffffffffffffffffff1681526020019081526020016000209050611dca8161110b565b9150611dd5816121fd565b50919050565b6000611dee611de8611755565b83612213565b9050919050565b6000806000611e0687878787612246565b91509150611e1381612353565b8192505050949350505050565b611e70600560008373ffffffffffffffffffffffffffffffffffffffff1673ffffffffffffffffffffffffffffffffffffffff168152602001908152602001600020611e6b83610aa7565b612528565b50565b611e856006611e8061072c565b612528565b565b611e9283838361104c565b505050565b505050565b606060006002836002611eaf9190613677565b611eb99190612d02565b67ffffffffffffffff811115611ed257611ed16136d1565b5b6040519080825280601f01601f191660200182016040528015611f045781602001600182028036833780820191505090505b5090507f300000000000000000000000000000000000000000000000000000000000000081600081518110611f3c57611f3b613648565b5b60200101907effffffffffffffffffffffffffffffffffffffffffffffffffffffffffffff1916908160001a9053507f780000000000000000000000000000000000000000000000000000000000000081600181518110611fa057611f9f613648565b5b60200101907effffffffffffffffffffffffffffffffffffffffffffffffffffffffffffff1916908160001a90535060006001846002611fe09190613677565b611fea9190612d02565b90505b600181111561208a577f3031323334353637383961626364656600000000000000000000000000000000600f86166010811061202c5761202b613648565b5b1a60f81b82828151811061204357612042613648565b5b60200101907effffffffffffffffffffffffffffffffffffffffffffffffffffffffffffff1916908160001a905350600485901c94508061208390613700565b9050611fed565b50600084146120ce576040517f08c379a00000000000000000000000000000000000000000000000000000000081526004016120c590613776565b60405180910390fd5b8091505092915050565b600083838346306040516020016120f3959493929190613796565b6040516020818303038152906040528051906020012090509392505050565b600061211e600861110b565b905090565b6000808380549050141561213a57600090506121f7565b600080848054905090505b8082101561219e57600061215983836125a3565b90508486828154811061216f5761216e613648565b5b9060005260206000200154111561218857809150612198565b6001816121959190612d02565b92505b50612145565b6000821180156121d6575083856001846121b8919061353c565b815481106121c9576121c8613648565b5b9060005260206000200154145b156121f1576001826121e8919061353c565b925050506121f7565b81925050505b92915050565b6001816000016000828254019250508190555050565b60008282604051602001612228929190613856565b60405160208183030381529060405280519060200120905092915050565b6000807f7fffffffffffffffffffffffffffffff5d576e7357a4501ddfe92f46681b20a08360001c111561228157600060039150915061234a565b601b8560ff16141580156122995750601c8560ff1614155b156122ab57600060049150915061234a565b6000600187878787604051600081526020016040526040516122d0949392919061388d565b6020604051602081039080840390855afa1580156122f2573d6000803e3d6000fd5b505050602060405103519050600073ffffffffffffffffffffffffffffffffffffffff168173ffffffffffffffffffffffffffffffffffffffff1614156123415760006001925092505061234a565b80600092509250505b94509492505050565b60006004811115612367576123666138d2565b5b81600481111561237a576123796138d2565b5b141561238557612525565b60016004811115612399576123986138d2565b5b8160048111156123ac576123ab6138d2565b5b14156123ed576040517f08c379a00000000000000000000000000000000000000000000000000000000081526004016123e49061394d565b60405180910390fd5b60026004811115612401576124006138d2565b5b816004811115612414576124136138d2565b5b1415612455576040517f08c379a000000000000000000000000000000000000000000000000000000000815260040161244c906139b9565b60405180910390fd5b60036004811115612469576124686138d2565b5b81600481111561247c5761247b6138d2565b5b14156124bd576040517f08c379a00000000000000000000000000000000000000000000000000000000081526004016124b490613a4b565b60405180910390fd5b6004808111156124d0576124cf6138d2565b5b8160048111156124e3576124e26138d2565b5b1415612524576040517f08c379a000000000000000000000000000000000000000000000000000000000815260040161251b90613add565b60405180910390fd5b5b50565b6000612532612112565b905080612541846000016125c9565b101561259e5782600001819080600181540180825580915050600190039060005260206000200160009091909190915055826001018290806001815401808255809150506001900390600052602060002001600090919091909150555b505050565b600060028284186125b49190613b2c565b8284166125c19190612d02565b905092915050565b600080828054905014156125e05760009050612611565b81600183805490506125f2919061353c565b8154811061260357612602613648565b5b906000526020600020015490505b919050565b600080fd5b60007fffffffff0000000000000000000000000000000000000000000000000000000082169050919050565b6126508161261b565b811461265b57600080fd5b50565b60008135905061266d81612647565b92915050565b60006020828403121561268957612688612616565b5b60006126978482850161265e565b91505092915050565b60008115159050919050565b6126b5816126a0565b82525050565b60006020820190506126d060008301846126ac565b92915050565b600081519050919050565b600082825260208201905092915050565b60005b838110156127105780820151818401526020810190506126f5565b8381111561271f576000848401525b50505050565b6000601f19601f8301169050919050565b6000612741826126d6565b61274b81856126e1565b935061275b8185602086016126f2565b61276481612725565b840191505092915050565b600060208201905081810360008301526127898184612736565b905092915050565b600073ffffffffffffffffffffffffffffffffffffffff82169050919050565b60006127bc82612791565b9050919050565b6127cc816127b1565b81146127d757600080fd5b50565b6000813590506127e9816127c3565b92915050565b6000819050919050565b612802816127ef565b811461280d57600080fd5b50565b60008135905061281f816127f9565b92915050565b6000806040838503121561283c5761283b612616565b5b600061284a858286016127da565b925050602061285b85828601612810565b9150509250929050565b61286e816127ef565b82525050565b60006020820190506128896000830184612865565b92915050565b6000806000606084860312156128a8576128a7612616565b5b60006128b6868287016127da565b93505060206128c7868287016127da565b92505060406128d886828701612810565b9150509250925092565b6000819050919050565b6128f5816128e2565b811461290057600080fd5b50565b600081359050612912816128ec565b92915050565b60006020828403121561292e5761292d612616565b5b600061293c84828501612903565b91505092915050565b61294e816128e2565b82525050565b60006020820190506129696000830184612945565b92915050565b6000806040838503121561298657612985612616565b5b600061299485828601612903565b92505060206129a5858286016127da565b9150509250929050565b600060ff82169050919050565b6129c5816129af565b82525050565b60006020820190506129e060008301846129bc565b92915050565b6000602082840312156129fc576129fb612616565b5b6000612a0a84828501612810565b91505092915050565b600060208284031215612a2957612a28612616565b5b6000612a37848285016127da565b91505092915050565b612a49816129af565b8114612a5457600080fd5b50565b600081359050612a6681612a40565b92915050565b600080600080600080600060e0888a031215612a8b57612a8a612616565b5b6000612a998a828b016127da565b9750506020612aaa8a828b016127da565b9650506040612abb8a828b01612810565b9550506060612acc8a828b01612810565b9450506080612add8a828b01612a57565b93505060a0612aee8a828b01612903565b92505060c0612aff8a828b01612903565b91505092959891949750929550565b60008060408385031215612b2557612b24612616565b5b6000612b33858286016127da565b9250506020612b44858286016127da565b9150509250929050565b7f4e487b7100000000000000000000000000000000000000000000000000000000600052602260045260246000fd5b60006002820490506001821680612b9557607f821691505b60208210811415612ba957612ba8612b4e565b5b50919050565b7f45524332303a207472616e7366657220616d6f756e742065786365656473206160008201527f6c6c6f77616e6365000000000000000000000000000000000000000000000000602082015250565b6000612c0b6028836126e1565b9150612c1682612baf565b604082019050919050565b60006020820190508181036000830152612c3a81612bfe565b9050919050565b7f416363657373436f6e74726f6c3a2063616e206f6e6c792072656e6f756e636560008201527f20726f6c657320666f722073656c660000000000000000000000000000000000602082015250565b6000612c9d602f836126e1565b9150612ca882612c41565b604082019050919050565b60006020820190508181036000830152612ccc81612c90565b9050919050565b7f4e487b7100000000000000000000000000000000000000000000000000000000600052601160045260246000fd5b6000612d0d826127ef565b9150612d18836127ef565b9250827fffffffffffffffffffffffffffffffffffffffffffffffffffffffffffffffff03821115612d4d57612d4c612cd3565b5b828201905092915050565b7f45524332303a206275726e20616d6f756e74206578636565647320616c6c6f7760008201527f616e636500000000000000000000000000000000000000000000000000000000602082015250565b6000612db46024836126e1565b9150612dbf82612d58565b604082019050919050565b60006020820190508181036000830152612de381612da7565b9050919050565b7f45524332303a2064656372656173656420616c6c6f77616e63652062656c6f7760008201527f207a65726f000000000000000000000000000000000000000000000000000000602082015250565b6000612e466025836126e1565b9150612e5182612dea565b604082019050919050565b60006020820190508181036000830152612e7581612e39565b9050919050565b7f45524332305065726d69743a206578706972656420646561646c696e65000000600082015250565b6000612eb2601d836126e1565b9150612ebd82612e7c565b602082019050919050565b60006020820190508181036000830152612ee181612ea5565b9050919050565b612ef1816127b1565b82525050565b600060c082019050612f0c6000830189612945565b612f196020830188612ee8565b612f266040830187612ee8565b612f336060830186612865565b612f406080830185612865565b612f4d60a0830184612865565b979650505050505050565b7f45524332305065726d69743a20696e76616c6964207369676e61747572650000600082015250565b6000612f8e601e836126e1565b9150612f9982612f58565b602082019050919050565b60006020820190508181036000830152612fbd81612f81565b9050919050565b7f45524332303a20617070726f76652066726f6d20746865207a65726f2061646460008201527f7265737300000000000000000000000000000000000000000000000000000000602082015250565b60006130206024836126e1565b915061302b82612fc4565b604082019050919050565b6000602082019050818103600083015261304f81613013565b9050919050565b7f45524332303a20617070726f766520746f20746865207a65726f20616464726560008201527f7373000000000000000000000000000000000000000000000000000000000000602082015250565b60006130b26022836126e1565b91506130bd82613056565b604082019050919050565b600060208201905081810360008301526130e1816130a5565b9050919050565b7f45524332303a207472616e736665722066726f6d20746865207a65726f20616460008201527f6472657373000000000000000000000000000000000000000000000000000000602082015250565b60006131446025836126e1565b915061314f826130e8565b604082019050919050565b6000602082019050818103600083015261317381613137565b9050919050565b7f45524332303a207472616e7366657220746f20746865207a65726f206164647260008201527f6573730000000000000000000000000000000000000000000000000000000000602082015250565b60006131d66023836126e1565b91506131e18261317a565b604082019050919050565b60006020820190508181036000830152613205816131c9565b9050919050565b7f45524332303a207472616e7366657220616d6f756e742065786365656473206260008201527f616c616e63650000000000000000000000000000000000000000000000000000602082015250565b60006132686026836126e1565b91506132738261320c565b604082019050919050565b600060208201905081810360008301526132978161325b565b9050919050565b600081905092915050565b7f416363657373436f6e74726f6c3a206163636f756e7420000000000000000000600082015250565b60006132df60178361329e565b91506132ea826132a9565b601782019050919050565b6000613300826126d6565b61330a818561329e565b935061331a8185602086016126f2565b80840191505092915050565b7f206973206d697373696e6720726f6c6520000000000000000000000000000000600082015250565b600061335c60118361329e565b915061336782613326565b601182019050919050565b600061337d826132d2565b915061338982856132f5565b91506133948261334f565b91506133a082846132f5565b91508190509392505050565b7f45524332303a206d696e7420746f20746865207a65726f206164647265737300600082015250565b60006133e2601f836126e1565b91506133ed826133ac565b602082019050919050565b60006020820190508181036000830152613411816133d5565b9050919050565b7f45524332303a206275726e2066726f6d20746865207a65726f2061646472657360008201527f7300000000000000000000000000000000000000000000000000000000000000602082015250565b60006134746021836126e1565b915061347f82613418565b604082019050919050565b600060208201905081810360008301526134a381613467565b9050919050565b7f45524332303a206275726e20616d6f756e7420657863656564732062616c616e60008201527f6365000000000000000000000000000000000000000000000000000000000000602082015250565b60006135066022836126e1565b9150613511826134aa565b604082019050919050565b60006020820190508181036000830152613535816134f9565b9050919050565b6000613547826127ef565b9150613552836127ef565b92508282101561356557613564612cd3565b5b828203905092915050565b7f4552433230536e617073686f743a206964206973203000000000000000000000600082015250565b60006135a66016836126e1565b91506135b182613570565b602082019050919050565b600060208201905081810360008301526135d581613599565b9050919050565b7f4552433230536e617073686f743a206e6f6e6578697374656e74206964000000600082015250565b6000613612601d836126e1565b915061361d826135dc565b602082019050919050565b6000602082019050818103600083015261364181613605565b9050919050565b7f4e487b7100000000000000000000000000000000000000000000000000000000600052603260045260246000fd5b6000613682826127ef565b915061368d836127ef565b9250817fffffffffffffffffffffffffffffffffffffffffffffffffffffffffffffffff04831182151516156136c6576136c5612cd3565b5b828202905092915050565b7f4e487b7100000000000000000000000000000000000000000000000000000000600052604160045260246000fd5b600061370b826127ef565b9150600082141561371f5761371e612cd3565b5b600182039050919050565b7f537472696e67733a20686578206c656e67746820696e73756666696369656e74600082015250565b60006137606020836126e1565b915061376b8261372a565b602082019050919050565b6000602082019050818103600083015261378f81613753565b9050919050565b600060a0820190506137ab6000830188612945565b6137b86020830187612945565b6137c56040830186612945565b6137d26060830185612865565b6137df6080830184612ee8565b9695505050505050565b7f1901000000000000000000000000000000000000000000000000000000000000600082015250565b600061381f60028361329e565b915061382a826137e9565b600282019050919050565b6000819050919050565b61385061384b826128e2565b613835565b82525050565b600061386182613812565b915061386d828561383f565b60208201915061387d828461383f565b6020820191508190509392505050565b60006080820190506138a26000830187612945565b6138af60208301866129bc565b6138bc6040830185612945565b6138c96060830184612945565b95945050505050565b7f4e487b7100000000000000000000000000000000000000000000000000000000600052602160045260246000fd5b7f45434453413a20696e76616c6964207369676e61747572650000000000000000600082015250565b60006139376018836126e1565b915061394282613901565b602082019050919050565b600060208201905081810360008301526139668161392a565b9050919050565b7f45434453413a20696e76616c6964207369676e6174757265206c656e67746800600082015250565b60006139a3601f836126e1565b91506139ae8261396d565b602082019050919050565b600060208201905081810360008301526139d281613996565b9050919050565b7f45434453413a20696e76616c6964207369676e6174757265202773272076616c60008201527f7565000000000000000000000000000000000000000000000000000000000000602082015250565b6000613a356022836126e1565b9150613a40826139d9565b604082019050919050565b60006020820190508181036000830152613a6481613a28565b9050919050565b7f45434453413a20696e76616c6964207369676e6174757265202776272076616c60008201527f7565000000000000000000000000000000000000000000000000000000000000602082015250565b6000613ac76022836126e1565b9150613ad282613a6b565b604082019050919050565b60006020820190508181036000830152613af681613aba565b9050919050565b7f4e487b7100000000000000000000000000000000000000000000000000000000600052601260045260246000fd5b6000613b37826127ef565b9150613b42836127ef565b925082613b5257613b51613afd565b5b82820490509291505056fea26469706673582212209c7b6f9ec38c54158ec7aedc5a81d7ba1aced8bf7accee51b042dbbc7a17d61e64736f6c63430008090033",
  "immutableReferences": {
    "10497": [
      {
        "length": 32,
        "start": 3709
      }
    ],
    "11431": [
      {
        "length": 32,
        "start": 6017
      }
    ],
    "11433": [
      {
        "length": 32,
        "start": 5977
      }
    ],
    "11435": [
      {
        "length": 32,
        "start": 6093
      }
    ],
    "11437": [
      {
        "length": 32,
        "start": 6126
      }
    ],
    "11439": [
      {
        "length": 32,
        "start": 6060
      }
    ]
  },
  "source": "// SPDX-License-Identifier: MIT\npragma solidity ^0.8.2;\n\n/// @title The IkonDAO Token - fungible token that powers the IkonDAO ecosystem \n/// @author Fernando M. Trouw\n/// @notice this contract should be used for basic simulation purposes only \n/// @notice this contract is an experimental contract and should not be used to initiate project that will hold real value\n/// @dev functions currently implemented (other then imported library) functions could contain side-effects\n\nimport \"@openzeppelin/contracts/token/ERC20/ERC20.sol\";\nimport \"@openzeppelin/contracts/token/ERC20/extensions/ERC20Burnable.sol\";\nimport \"@openzeppelin/contracts/token/ERC20/extensions/ERC20Snapshot.sol\";\nimport \"@openzeppelin/contracts/access/AccessControl.sol\";\nimport \"@openzeppelin/contracts/token/ERC20/extensions/draft-ERC20Permit.sol\";\n\n/// @custom:security-contact ftrouw@protonmail.com\ncontract IkonDAOToken is ERC20, ERC20Burnable, ERC20Snapshot, AccessControl, ERC20Permit {\n    bytes32 public constant SNAPSHOT_ROLE = keccak256(\"SNAPSHOT_ROLE\");\n    bytes32 public constant MINTER_ROLE = keccak256(\"MINTER_ROLE\");\n\n    constructor() ERC20(\"IkonDAO Token\", \"IKD\") ERC20Permit(\"IkonDAO Token\") {\n        _setupRole(DEFAULT_ADMIN_ROLE, msg.sender);\n        _setupRole(SNAPSHOT_ROLE, msg.sender);\n        _mint(msg.sender, 1000000 * 10 ** decimals());\n        _setupRole(MINTER_ROLE, msg.sender);\n    }\n\n    function snapshot() public onlyRole(SNAPSHOT_ROLE) {\n        _snapshot();\n    }\n\n    function mint(address to, uint256 amount) public onlyRole(MINTER_ROLE) {\n        _mint(to, amount);\n    }\n\n    // The following functions are overrides required by Solidity.\n    function _beforeTokenTransfer(address from, address to, uint256 amount)\n        internal\n        override(ERC20, ERC20Snapshot)\n    {\n        super._beforeTokenTransfer(from, to, amount);\n    }\n}\n",
  "sourcePath": "/run/media/rasguy92/SDD (windows)/projectIdeas/iconify/contracts/IkonDAOToken.sol",
  "compiler": {
    "name": "solc",
    "version": "0.8.9+commit.e5eed63a.Emscripten.clang"
  },
  "schemaVersion": "3.4.3",
  "updatedAt": "2021-10-23T06:30:17.691Z",
  "devdoc": {
    "custom:security-contact": "ftrouw@protonmail.com",
    "kind": "dev",
    "methods": {
      "DOMAIN_SEPARATOR()": {
        "details": "See {IERC20Permit-DOMAIN_SEPARATOR}."
      },
      "allowance(address,address)": {
        "details": "See {IERC20-allowance}."
      },
      "approve(address,uint256)": {
        "details": "See {IERC20-approve}. Requirements: - `spender` cannot be the zero address."
      },
      "balanceOf(address)": {
        "details": "See {IERC20-balanceOf}."
      },
      "balanceOfAt(address,uint256)": {
        "details": "Retrieves the balance of `account` at the time `snapshotId` was created."
      },
      "burn(uint256)": {
        "details": "Destroys `amount` tokens from the caller. See {ERC20-_burn}."
      },
      "burnFrom(address,uint256)": {
        "details": "Destroys `amount` tokens from `account`, deducting from the caller's allowance. See {ERC20-_burn} and {ERC20-allowance}. Requirements: - the caller must have allowance for ``accounts``'s tokens of at least `amount`."
      },
      "decimals()": {
        "details": "Returns the number of decimals used to get its user representation. For example, if `decimals` equals `2`, a balance of `505` tokens should be displayed to a user as `5.05` (`505 / 10 ** 2`). Tokens usually opt for a value of 18, imitating the relationship between Ether and Wei. This is the value {ERC20} uses, unless this function is overridden; NOTE: This information is only used for _display_ purposes: it in no way affects any of the arithmetic of the contract, including {IERC20-balanceOf} and {IERC20-transfer}."
      },
      "decreaseAllowance(address,uint256)": {
        "details": "Atomically decreases the allowance granted to `spender` by the caller. This is an alternative to {approve} that can be used as a mitigation for problems described in {IERC20-approve}. Emits an {Approval} event indicating the updated allowance. Requirements: - `spender` cannot be the zero address. - `spender` must have allowance for the caller of at least `subtractedValue`."
      },
      "getRoleAdmin(bytes32)": {
        "details": "Returns the admin role that controls `role`. See {grantRole} and {revokeRole}. To change a role's admin, use {_setRoleAdmin}."
      },
      "grantRole(bytes32,address)": {
        "details": "Grants `role` to `account`. If `account` had not been already granted `role`, emits a {RoleGranted} event. Requirements: - the caller must have ``role``'s admin role."
      },
      "hasRole(bytes32,address)": {
        "details": "Returns `true` if `account` has been granted `role`."
      },
      "increaseAllowance(address,uint256)": {
        "details": "Atomically increases the allowance granted to `spender` by the caller. This is an alternative to {approve} that can be used as a mitigation for problems described in {IERC20-approve}. Emits an {Approval} event indicating the updated allowance. Requirements: - `spender` cannot be the zero address."
      },
      "name()": {
        "details": "Returns the name of the token."
      },
      "nonces(address)": {
        "details": "See {IERC20Permit-nonces}."
      },
      "permit(address,address,uint256,uint256,uint8,bytes32,bytes32)": {
        "details": "See {IERC20Permit-permit}."
      },
      "renounceRole(bytes32,address)": {
        "details": "Revokes `role` from the calling account. Roles are often managed via {grantRole} and {revokeRole}: this function's purpose is to provide a mechanism for accounts to lose their privileges if they are compromised (such as when a trusted device is misplaced). If the calling account had been granted `role`, emits a {RoleRevoked} event. Requirements: - the caller must be `account`."
      },
      "revokeRole(bytes32,address)": {
        "details": "Revokes `role` from `account`. If `account` had been granted `role`, emits a {RoleRevoked} event. Requirements: - the caller must have ``role``'s admin role."
      },
      "supportsInterface(bytes4)": {
        "details": "See {IERC165-supportsInterface}."
      },
      "symbol()": {
        "details": "Returns the symbol of the token, usually a shorter version of the name."
      },
      "totalSupply()": {
        "details": "See {IERC20-totalSupply}."
      },
      "totalSupplyAt(uint256)": {
        "details": "Retrieves the total supply at the time `snapshotId` was created."
      },
      "transfer(address,uint256)": {
        "details": "See {IERC20-transfer}. Requirements: - `recipient` cannot be the zero address. - the caller must have a balance of at least `amount`."
      },
      "transferFrom(address,address,uint256)": {
        "details": "See {IERC20-transferFrom}. Emits an {Approval} event indicating the updated allowance. This is not required by the EIP. See the note at the beginning of {ERC20}. Requirements: - `sender` and `recipient` cannot be the zero address. - `sender` must have a balance of at least `amount`. - the caller must have allowance for ``sender``'s tokens of at least `amount`."
      }
    },
    "version": 1
  },
  "userdoc": {
    "kind": "user",
    "methods": {},
    "version": 1
  }
}