{
  "contractName": "IkonDAO",
  "abi": [
    {
      "inputs": [],
      "stateMutability": "nonpayable",
      "type": "constructor"
    },
    {
      "anonymous": false,
      "inputs": [
        {
          "indexed": false,
          "internalType": "address",
          "name": "previousAdmin",
          "type": "address"
        },
        {
          "indexed": false,
          "internalType": "address",
          "name": "newAdmin",
          "type": "address"
        }
      ],
      "name": "AdminChanged",
      "type": "event"
    },
    {
      "anonymous": false,
      "inputs": [
        {
          "indexed": true,
          "internalType": "address",
          "name": "beacon",
          "type": "address"
        }
      ],
      "name": "BeaconUpgraded",
      "type": "event"
    },
    {
      "anonymous": false,
      "inputs": [
        {
          "indexed": false,
          "internalType": "address",
          "name": "_applicant",
          "type": "address"
        }
      ],
      "name": "MemberCreated",
      "type": "event"
    },
    {
      "anonymous": false,
      "inputs": [
        {
          "indexed": false,
          "internalType": "address",
          "name": "_member",
          "type": "address"
        }
      ],
      "name": "MemberRemoved",
      "type": "event"
    },
    {
      "anonymous": false,
      "inputs": [
        {
          "indexed": true,
          "internalType": "address",
          "name": "previousOwner",
          "type": "address"
        },
        {
          "indexed": true,
          "internalType": "address",
          "name": "newOwner",
          "type": "address"
        }
      ],
      "name": "OwnershipTransferred",
      "type": "event"
    },
    {
      "anonymous": false,
      "inputs": [
        {
          "indexed": false,
          "internalType": "uint256",
          "name": "proposalId",
          "type": "uint256"
        }
      ],
      "name": "ProposalCanceled",
      "type": "event"
    },
    {
      "anonymous": false,
      "inputs": [
        {
          "indexed": false,
          "internalType": "uint256",
          "name": "proposalId",
          "type": "uint256"
        },
        {
          "indexed": false,
          "internalType": "address",
          "name": "proposer",
          "type": "address"
        },
        {
          "indexed": false,
          "internalType": "address[]",
          "name": "targets",
          "type": "address[]"
        },
        {
          "indexed": false,
          "internalType": "uint256[]",
          "name": "values",
          "type": "uint256[]"
        },
        {
          "indexed": false,
          "internalType": "string[]",
          "name": "signatures",
          "type": "string[]"
        },
        {
          "indexed": false,
          "internalType": "bytes[]",
          "name": "calldatas",
          "type": "bytes[]"
        },
        {
          "indexed": false,
          "internalType": "uint256",
          "name": "startBlock",
          "type": "uint256"
        },
        {
          "indexed": false,
          "internalType": "uint256",
          "name": "endBlock",
          "type": "uint256"
        },
        {
          "indexed": false,
          "internalType": "string",
          "name": "description",
          "type": "string"
        }
      ],
      "name": "ProposalCreated",
      "type": "event"
    },
    {
      "anonymous": false,
      "inputs": [
        {
          "indexed": false,
          "internalType": "uint256",
          "name": "proposalId",
          "type": "uint256"
        }
      ],
      "name": "ProposalExecuted",
      "type": "event"
    },
    {
      "anonymous": false,
      "inputs": [
        {
          "indexed": false,
          "internalType": "uint256",
          "name": "proposalId",
          "type": "uint256"
        },
        {
          "indexed": false,
          "internalType": "uint256",
          "name": "eta",
          "type": "uint256"
        }
      ],
      "name": "ProposalQueued",
      "type": "event"
    },
    {
      "anonymous": false,
      "inputs": [
        {
          "indexed": false,
          "internalType": "uint256",
          "name": "oldQuorumNumerator",
          "type": "uint256"
        },
        {
          "indexed": false,
          "internalType": "uint256",
          "name": "newQuorumNumerator",
          "type": "uint256"
        }
      ],
      "name": "QuorumNumeratorUpdated",
      "type": "event"
    },
    {
      "anonymous": false,
      "inputs": [
        {
          "indexed": true,
          "internalType": "bytes32",
          "name": "role",
          "type": "bytes32"
        },
        {
          "indexed": true,
          "internalType": "bytes32",
          "name": "previousAdminRole",
          "type": "bytes32"
        },
        {
          "indexed": true,
          "internalType": "bytes32",
          "name": "newAdminRole",
          "type": "bytes32"
        }
      ],
      "name": "RoleAdminChanged",
      "type": "event"
    },
    {
      "anonymous": false,
      "inputs": [
        {
          "indexed": true,
          "internalType": "bytes32",
          "name": "role",
          "type": "bytes32"
        },
        {
          "indexed": true,
          "internalType": "address",
          "name": "account",
          "type": "address"
        },
        {
          "indexed": true,
          "internalType": "address",
          "name": "sender",
          "type": "address"
        }
      ],
      "name": "RoleGranted",
      "type": "event"
    },
    {
      "anonymous": false,
      "inputs": [
        {
          "indexed": true,
          "internalType": "bytes32",
          "name": "role",
          "type": "bytes32"
        },
        {
          "indexed": true,
          "internalType": "address",
          "name": "account",
          "type": "address"
        },
        {
          "indexed": true,
          "internalType": "address",
          "name": "sender",
          "type": "address"
        }
      ],
      "name": "RoleRevoked",
      "type": "event"
    },
    {
      "anonymous": false,
      "inputs": [
        {
          "indexed": false,
          "internalType": "address",
          "name": "oldTimelock",
          "type": "address"
        },
        {
          "indexed": false,
          "internalType": "address",
          "name": "newTimelock",
          "type": "address"
        }
      ],
      "name": "TimelockChange",
      "type": "event"
    },
    {
      "anonymous": false,
      "inputs": [
        {
          "indexed": true,
          "internalType": "address",
          "name": "implementation",
          "type": "address"
        }
      ],
      "name": "Upgraded",
      "type": "event"
    },
    {
      "anonymous": false,
      "inputs": [
        {
          "indexed": true,
          "internalType": "address",
          "name": "voter",
          "type": "address"
        },
        {
          "indexed": false,
          "internalType": "uint256",
          "name": "proposalId",
          "type": "uint256"
        },
        {
          "indexed": false,
          "internalType": "uint8",
          "name": "support",
          "type": "uint8"
        },
        {
          "indexed": false,
          "internalType": "uint256",
          "name": "weight",
          "type": "uint256"
        },
        {
          "indexed": false,
          "internalType": "string",
          "name": "reason",
          "type": "string"
        }
      ],
      "name": "VoteCast",
      "type": "event"
    },
    {
      "inputs": [],
      "name": "BALLOT_TYPEHASH",
      "outputs": [
        {
          "internalType": "bytes32",
          "name": "",
          "type": "bytes32"
        }
      ],
      "stateMutability": "view",
      "type": "function"
    },
    {
      "inputs": [],
      "name": "COUNTING_MODE",
      "outputs": [
        {
          "internalType": "string",
          "name": "",
          "type": "string"
        }
      ],
      "stateMutability": "pure",
      "type": "function"
    },
    {
      "inputs": [],
      "name": "DEFAULT_ADMIN_ROLE",
      "outputs": [
        {
          "internalType": "bytes32",
          "name": "",
          "type": "bytes32"
        }
      ],
      "stateMutability": "view",
      "type": "function"
    },
    {
      "inputs": [],
      "name": "IKONDAO_ADMIN_ROLE",
      "outputs": [
        {
          "internalType": "bytes32",
          "name": "",
          "type": "bytes32"
        }
      ],
      "stateMutability": "view",
      "type": "function"
    },
    {
      "inputs": [],
      "name": "IKONDAO_MEMBER_ROLE",
      "outputs": [
        {
          "internalType": "bytes32",
          "name": "",
          "type": "bytes32"
        }
      ],
      "stateMutability": "view",
      "type": "function"
    },
    {
      "inputs": [
        {
          "internalType": "uint256",
          "name": "proposalId",
          "type": "uint256"
        },
        {
          "internalType": "uint8",
          "name": "support",
          "type": "uint8"
        }
      ],
      "name": "castVote",
      "outputs": [
        {
          "internalType": "uint256",
          "name": "",
          "type": "uint256"
        }
      ],
      "stateMutability": "nonpayable",
      "type": "function"
    },
    {
      "inputs": [
        {
          "internalType": "uint256",
          "name": "proposalId",
          "type": "uint256"
        },
        {
          "internalType": "uint8",
          "name": "support",
          "type": "uint8"
        },
        {
          "internalType": "uint8",
          "name": "v",
          "type": "uint8"
        },
        {
          "internalType": "bytes32",
          "name": "r",
          "type": "bytes32"
        },
        {
          "internalType": "bytes32",
          "name": "s",
          "type": "bytes32"
        }
      ],
      "name": "castVoteBySig",
      "outputs": [
        {
          "internalType": "uint256",
          "name": "",
          "type": "uint256"
        }
      ],
      "stateMutability": "nonpayable",
      "type": "function"
    },
    {
      "inputs": [
        {
          "internalType": "uint256",
          "name": "proposalId",
          "type": "uint256"
        },
        {
          "internalType": "uint8",
          "name": "support",
          "type": "uint8"
        },
        {
          "internalType": "string",
          "name": "reason",
          "type": "string"
        }
      ],
      "name": "castVoteWithReason",
      "outputs": [
        {
          "internalType": "uint256",
          "name": "",
          "type": "uint256"
        }
      ],
      "stateMutability": "nonpayable",
      "type": "function"
    },
    {
      "inputs": [
        {
          "internalType": "address[]",
          "name": "targets",
          "type": "address[]"
        },
        {
          "internalType": "uint256[]",
          "name": "values",
          "type": "uint256[]"
        },
        {
          "internalType": "bytes[]",
          "name": "calldatas",
          "type": "bytes[]"
        },
        {
          "internalType": "bytes32",
          "name": "descriptionHash",
          "type": "bytes32"
        }
      ],
      "name": "execute",
      "outputs": [
        {
          "internalType": "uint256",
          "name": "",
          "type": "uint256"
        }
      ],
      "stateMutability": "payable",
      "type": "function"
    },
    {
      "inputs": [
        {
          "internalType": "bytes32",
          "name": "role",
          "type": "bytes32"
        }
      ],
      "name": "getRoleAdmin",
      "outputs": [
        {
          "internalType": "bytes32",
          "name": "",
          "type": "bytes32"
        }
      ],
      "stateMutability": "view",
      "type": "function"
    },
    {
      "inputs": [
        {
          "internalType": "bytes32",
          "name": "role",
          "type": "bytes32"
        },
        {
          "internalType": "uint256",
          "name": "index",
          "type": "uint256"
        }
      ],
      "name": "getRoleMember",
      "outputs": [
        {
          "internalType": "address",
          "name": "",
          "type": "address"
        }
      ],
      "stateMutability": "view",
      "type": "function"
    },
    {
      "inputs": [
        {
          "internalType": "bytes32",
          "name": "role",
          "type": "bytes32"
        }
      ],
      "name": "getRoleMemberCount",
      "outputs": [
        {
          "internalType": "uint256",
          "name": "",
          "type": "uint256"
        }
      ],
      "stateMutability": "view",
      "type": "function"
    },
    {
      "inputs": [
        {
          "internalType": "bytes32",
          "name": "role",
          "type": "bytes32"
        },
        {
          "internalType": "address",
          "name": "account",
          "type": "address"
        }
      ],
      "name": "grantRole",
      "outputs": [],
      "stateMutability": "nonpayable",
      "type": "function"
    },
    {
      "inputs": [
        {
          "internalType": "bytes32",
          "name": "role",
          "type": "bytes32"
        },
        {
          "internalType": "address",
          "name": "account",
          "type": "address"
        }
      ],
      "name": "hasRole",
      "outputs": [
        {
          "internalType": "bool",
          "name": "",
          "type": "bool"
        }
      ],
      "stateMutability": "view",
      "type": "function"
    },
    {
      "inputs": [
        {
          "internalType": "uint256",
          "name": "proposalId",
          "type": "uint256"
        },
        {
          "internalType": "address",
          "name": "account",
          "type": "address"
        }
      ],
      "name": "hasVoted",
      "outputs": [
        {
          "internalType": "bool",
          "name": "",
          "type": "bool"
        }
      ],
      "stateMutability": "view",
      "type": "function"
    },
    {
      "inputs": [
        {
          "internalType": "address[]",
          "name": "targets",
          "type": "address[]"
        },
        {
          "internalType": "uint256[]",
          "name": "values",
          "type": "uint256[]"
        },
        {
          "internalType": "bytes[]",
          "name": "calldatas",
          "type": "bytes[]"
        },
        {
          "internalType": "bytes32",
          "name": "descriptionHash",
          "type": "bytes32"
        }
      ],
      "name": "hashProposal",
      "outputs": [
        {
          "internalType": "uint256",
          "name": "",
          "type": "uint256"
        }
      ],
      "stateMutability": "pure",
      "type": "function"
    },
    {
      "inputs": [],
      "name": "name",
      "outputs": [
        {
          "internalType": "string",
          "name": "",
          "type": "string"
        }
      ],
      "stateMutability": "view",
      "type": "function"
    },
    {
      "inputs": [],
      "name": "owner",
      "outputs": [
        {
          "internalType": "address",
          "name": "",
          "type": "address"
        }
      ],
      "stateMutability": "view",
      "type": "function"
    },
    {
      "inputs": [
        {
          "internalType": "uint256",
          "name": "proposalId",
          "type": "uint256"
        }
      ],
      "name": "proposalDeadline",
      "outputs": [
        {
          "internalType": "uint256",
          "name": "",
          "type": "uint256"
        }
      ],
      "stateMutability": "view",
      "type": "function"
    },
    {
      "inputs": [
        {
          "internalType": "uint256",
          "name": "proposalId",
          "type": "uint256"
        }
      ],
      "name": "proposalEta",
      "outputs": [
        {
          "internalType": "uint256",
          "name": "",
          "type": "uint256"
        }
      ],
      "stateMutability": "view",
      "type": "function"
    },
    {
      "inputs": [
        {
          "internalType": "uint256",
          "name": "proposalId",
          "type": "uint256"
        }
      ],
      "name": "proposalSnapshot",
      "outputs": [
        {
          "internalType": "uint256",
          "name": "",
          "type": "uint256"
        }
      ],
      "stateMutability": "view",
      "type": "function"
    },
    {
      "inputs": [
        {
          "internalType": "uint256",
          "name": "proposalId",
          "type": "uint256"
        }
      ],
      "name": "proposalVotes",
      "outputs": [
        {
          "internalType": "uint256",
          "name": "againstVotes",
          "type": "uint256"
        },
        {
          "internalType": "uint256",
          "name": "forVotes",
          "type": "uint256"
        },
        {
          "internalType": "uint256",
          "name": "abstainVotes",
          "type": "uint256"
        }
      ],
      "stateMutability": "view",
      "type": "function"
    },
    {
      "inputs": [
        {
          "internalType": "address[]",
          "name": "targets",
          "type": "address[]"
        },
        {
          "internalType": "uint256[]",
          "name": "values",
          "type": "uint256[]"
        },
        {
          "internalType": "bytes[]",
          "name": "calldatas",
          "type": "bytes[]"
        },
        {
          "internalType": "bytes32",
          "name": "descriptionHash",
          "type": "bytes32"
        }
      ],
      "name": "queue",
      "outputs": [
        {
          "internalType": "uint256",
          "name": "",
          "type": "uint256"
        }
      ],
      "stateMutability": "nonpayable",
      "type": "function"
    },
    {
      "inputs": [],
      "name": "quorumDenominator",
      "outputs": [
        {
          "internalType": "uint256",
          "name": "",
          "type": "uint256"
        }
      ],
      "stateMutability": "view",
      "type": "function"
    },
    {
      "inputs": [],
      "name": "quorumNumerator",
      "outputs": [
        {
          "internalType": "uint256",
          "name": "",
          "type": "uint256"
        }
      ],
      "stateMutability": "view",
      "type": "function"
    },
    {
      "inputs": [],
      "name": "renounceOwnership",
      "outputs": [],
      "stateMutability": "nonpayable",
      "type": "function"
    },
    {
      "inputs": [
        {
          "internalType": "bytes32",
          "name": "role",
          "type": "bytes32"
        },
        {
          "internalType": "address",
          "name": "account",
          "type": "address"
        }
      ],
      "name": "renounceRole",
      "outputs": [],
      "stateMutability": "nonpayable",
      "type": "function"
    },
    {
      "inputs": [
        {
          "internalType": "bytes32",
          "name": "role",
          "type": "bytes32"
        },
        {
          "internalType": "address",
          "name": "account",
          "type": "address"
        }
      ],
      "name": "revokeRole",
      "outputs": [],
      "stateMutability": "nonpayable",
      "type": "function"
    },
    {
      "inputs": [],
      "name": "timelock",
      "outputs": [
        {
          "internalType": "address",
          "name": "",
          "type": "address"
        }
      ],
      "stateMutability": "view",
      "type": "function"
    },
    {
      "inputs": [],
      "name": "token",
      "outputs": [
        {
          "internalType": "contract ERC20VotesUpgradeable",
          "name": "",
          "type": "address"
        }
      ],
      "stateMutability": "view",
      "type": "function"
    },
    {
      "inputs": [
        {
          "internalType": "address",
          "name": "newOwner",
          "type": "address"
        }
      ],
      "name": "transferOwnership",
      "outputs": [],
      "stateMutability": "nonpayable",
      "type": "function"
    },
    {
      "inputs": [
        {
          "internalType": "uint256",
          "name": "newQuorumNumerator",
          "type": "uint256"
        }
      ],
      "name": "updateQuorumNumerator",
      "outputs": [],
      "stateMutability": "nonpayable",
      "type": "function"
    },
    {
      "inputs": [
        {
          "internalType": "contract TimelockControllerUpgradeable",
          "name": "newTimelock",
          "type": "address"
        }
      ],
      "name": "updateTimelock",
      "outputs": [],
      "stateMutability": "nonpayable",
      "type": "function"
    },
    {
      "inputs": [
        {
          "internalType": "address",
          "name": "newImplementation",
          "type": "address"
        }
      ],
      "name": "upgradeTo",
      "outputs": [],
      "stateMutability": "nonpayable",
      "type": "function"
    },
    {
      "inputs": [
        {
          "internalType": "address",
          "name": "newImplementation",
          "type": "address"
        },
        {
          "internalType": "bytes",
          "name": "data",
          "type": "bytes"
        }
      ],
      "name": "upgradeToAndCall",
      "outputs": [],
      "stateMutability": "payable",
      "type": "function"
    },
    {
      "inputs": [],
      "name": "version",
      "outputs": [
        {
          "internalType": "string",
          "name": "",
          "type": "string"
        }
      ],
      "stateMutability": "view",
      "type": "function"
    },
    {
      "inputs": [
        {
          "internalType": "address",
          "name": "_applicant",
          "type": "address"
        }
      ],
      "name": "createMember",
      "outputs": [],
      "stateMutability": "nonpayable",
      "type": "function"
    },
    {
      "inputs": [
        {
          "internalType": "address",
          "name": "target",
          "type": "address"
        }
      ],
      "name": "removeMember",
      "outputs": [],
      "stateMutability": "nonpayable",
      "type": "function"
    },
    {
      "inputs": [
        {
          "internalType": "contract ERC20VotesUpgradeable",
          "name": "_govtoken",
          "type": "address"
        },
        {
          "internalType": "contract IkonDAOTimelock",
          "name": "_timelock",
          "type": "address"
        },
        {
          "internalType": "contract ERC20Upgradeable",
          "name": "_token",
          "type": "address"
        },
        {
          "internalType": "address",
          "name": "_proxy",
          "type": "address"
        }
      ],
      "name": "initialize",
      "outputs": [],
      "stateMutability": "nonpayable",
      "type": "function"
    },
    {
      "inputs": [],
      "name": "votingDelay",
      "outputs": [
        {
          "internalType": "uint256",
          "name": "",
          "type": "uint256"
        }
      ],
      "stateMutability": "pure",
      "type": "function"
    },
    {
      "inputs": [],
      "name": "votingPeriod",
      "outputs": [
        {
          "internalType": "uint256",
          "name": "",
          "type": "uint256"
        }
      ],
      "stateMutability": "pure",
      "type": "function"
    },
    {
      "inputs": [
        {
          "internalType": "uint256",
          "name": "blockNumber",
          "type": "uint256"
        }
      ],
      "name": "quorum",
      "outputs": [
        {
          "internalType": "uint256",
          "name": "",
          "type": "uint256"
        }
      ],
      "stateMutability": "view",
      "type": "function"
    },
    {
      "inputs": [
        {
          "internalType": "address",
          "name": "account",
          "type": "address"
        },
        {
          "internalType": "uint256",
          "name": "blockNumber",
          "type": "uint256"
        }
      ],
      "name": "getVotes",
      "outputs": [
        {
          "internalType": "uint256",
          "name": "",
          "type": "uint256"
        }
      ],
      "stateMutability": "view",
      "type": "function"
    },
    {
      "inputs": [
        {
          "internalType": "uint256",
          "name": "proposalId",
          "type": "uint256"
        }
      ],
      "name": "state",
      "outputs": [
        {
          "internalType": "enum IGovernorUpgradeable.ProposalState",
          "name": "",
          "type": "uint8"
        }
      ],
      "stateMutability": "view",
      "type": "function"
    },
    {
      "inputs": [
        {
          "internalType": "address[]",
          "name": "targets",
          "type": "address[]"
        },
        {
          "internalType": "uint256[]",
          "name": "values",
          "type": "uint256[]"
        },
        {
          "internalType": "bytes[]",
          "name": "calldatas",
          "type": "bytes[]"
        },
        {
          "internalType": "string",
          "name": "description",
          "type": "string"
        }
      ],
      "name": "propose",
      "outputs": [
        {
          "internalType": "uint256",
          "name": "",
          "type": "uint256"
        }
      ],
      "stateMutability": "nonpayable",
      "type": "function"
    },
    {
      "inputs": [
        {
          "internalType": "bytes4",
          "name": "interfaceId",
          "type": "bytes4"
        }
      ],
      "name": "supportsInterface",
      "outputs": [
        {
          "internalType": "bool",
          "name": "",
          "type": "bool"
        }
      ],
      "stateMutability": "view",
      "type": "function"
    }
  ],
  "bytecode": "0x60a06040523073ffffffffffffffffffffffffffffffffffffffff1660809073ffffffffffffffffffffffffffffffffffffffff168152503480156200004457600080fd5b50600060019054906101000a900460ff16806200006c575060008054906101000a900460ff16155b620000ae576040517f08c379a0000000000000000000000000000000000000000000000000000000008152600401620000a590620001af565b60405180910390fd5b60008060019054906101000a900460ff161590508015620000ff576001600060016101000a81548160ff02191690831515021790555060016000806101000a81548160ff0219169083151502179055505b8015620001215760008060016101000a81548160ff0219169083151502179055505b50620001d1565b600082825260208201905092915050565b7f496e697469616c697a61626c653a20636f6e747261637420697320616c72656160008201527f647920696e697469616c697a6564000000000000000000000000000000000000602082015250565b600062000197602e8362000128565b9150620001a48262000139565b604082019050919050565b60006020820190508181036000830152620001ca8162000188565b9050919050565b60805161872b62000202600039600081816114d1015281816115600152818161176b01526117fa015261872b6000f3fe60806040526004361061027d5760003560e01c8063715018a61161014f578063c01f9e37116100c1578063deaaa7cc1161007a578063deaaa7cc14610a40578063eb9019d414610a6b578063f2fde38b14610aa8578063f8c8765e14610ad1578063f8ce560a14610afa578063fc0c546a14610b375761027d565b8063c01f9e371461090a578063c59057e414610947578063ca15c87314610984578063d33219b4146109c1578063d547741f146109ec578063dd4e2ba514610a155761027d565b806391d148541161011357806391d14854146107e657806397c3d33414610823578063a217fddf1461084e578063a7713a7014610879578063a890c910146108a4578063ab58fb8e146108cd5761027d565b8063715018a6146106ed5780637b3c71d3146107045780637d5e81e2146107415780638da5cb5b1461077e5780639010d07c146107a95761027d565b80632f2ff15d116101f357806343859632116101ac57806343859632146105c25780634f1ef286146105ff578063544ffc9c1461061b57806354fd4d501461065a57806356781388146106855780636ffb7847146106c25761027d565b80632f2ff15d146104a257806336568abe146104cb5780633659cfe6146104f45780633932abb11461051d5780633bccf4fd146105485780633e4f49e6146105855761027d565b8063160cbed711610245578063160cbed7146103675780632124d529146103a4578063248a9ca3146103cd5780632656227d1461040a5780632cb4a6361461043a5780632d63f693146104655761027d565b806301ffc9a71461028257806302a251a3146102bf57806306f3f9e6146102ea57806306fdde03146103135780630b1ca49a1461033e575b600080fd5b34801561028e57600080fd5b506102a960048036038101906102a49190615cd1565b610b62565b6040516102b69190615d19565b60405180910390f35b3480156102cb57600080fd5b506102d4610b74565b6040516102e19190615d4d565b60405180910390f35b3480156102f657600080fd5b50610311600480360381019061030c9190615d94565b610b7e565b005b34801561031f57600080fd5b50610328610c06565b6040516103359190615e5a565b60405180910390f35b34801561034a57600080fd5b5061036560048036038101906103609190615eda565b610c98565b005b34801561037357600080fd5b5061038e600480360381019061038991906162de565b610e5b565b60405161039b9190615d4d565b60405180910390f35b3480156103b057600080fd5b506103cb60048036038101906103c69190615eda565b611137565b005b3480156103d957600080fd5b506103f460048036038101906103ef9190616399565b61127e565b60405161040191906163d5565b60405180910390f35b610424600480360381019061041f91906162de565b61129f565b6040516104319190615d4d565b60405180910390f35b34801561044657600080fd5b5061044f6113d3565b60405161045c91906163d5565b60405180910390f35b34801561047157600080fd5b5061048c60048036038101906104879190615d94565b6113f7565b6040516104999190615d4d565b60405180910390f35b3480156104ae57600080fd5b506104c960048036038101906104c491906163f0565b611465565b005b3480156104d757600080fd5b506104f260048036038101906104ed91906163f0565b61149a565b005b34801561050057600080fd5b5061051b60048036038101906105169190615eda565b6114cf565b005b34801561052957600080fd5b50610532611658565b60405161053f9190615d4d565b60405180910390f35b34801561055457600080fd5b5061056f600480360381019061056a9190616469565b611661565b60405161057c9190615d4d565b60405180910390f35b34801561059157600080fd5b506105ac60048036038101906105a79190615d94565b6116eb565b6040516105b9919061655b565b60405180910390f35b3480156105ce57600080fd5b506105e960048036038101906105e49190616576565b6116fd565b6040516105f69190615d19565b60405180910390f35b610619600480360381019061061491906165b6565b611769565b005b34801561062757600080fd5b50610642600480360381019061063d9190615d94565b6118a6565b60405161065193929190616612565b60405180910390f35b34801561066657600080fd5b5061066f6118df565b60405161067c9190615e5a565b60405180910390f35b34801561069157600080fd5b506106ac60048036038101906106a79190616649565b61191c565b6040516106b99190615d4d565b60405180910390f35b3480156106ce57600080fd5b506106d761194d565b6040516106e491906163d5565b60405180910390f35b3480156106f957600080fd5b50610702611971565b005b34801561071057600080fd5b5061072b600480360381019061072691906166e4565b6119f9565b6040516107389190615d4d565b60405180910390f35b34801561074d57600080fd5b50610768600480360381019061076391906167f9565b611a61565b6040516107759190615d4d565b60405180910390f35b34801561078a57600080fd5b50610793611a79565b6040516107a091906168df565b60405180910390f35b3480156107b557600080fd5b506107d060048036038101906107cb91906168fa565b611aa4565b6040516107dd91906168df565b60405180910390f35b3480156107f257600080fd5b5061080d600480360381019061080891906163f0565b611ad4565b60405161081a9190615d19565b60405180910390f35b34801561082f57600080fd5b50610838611b40565b6040516108459190615d4d565b60405180910390f35b34801561085a57600080fd5b50610863611b49565b60405161087091906163d5565b60405180910390f35b34801561088557600080fd5b5061088e611b50565b60405161089b9190615d4d565b60405180910390f35b3480156108b057600080fd5b506108cb60048036038101906108c6919061698a565b611b5b565b005b3480156108d957600080fd5b506108f460048036038101906108ef9190615d94565b611be3565b6040516109019190615d4d565b60405180910390f35b34801561091657600080fd5b50610931600480360381019061092c9190615d94565b611cc1565b60405161093e9190615d4d565b60405180910390f35b34801561095357600080fd5b5061096e600480360381019061096991906162de565b611d2f565b60405161097b9190615d4d565b60405180910390f35b34801561099057600080fd5b506109ab60048036038101906109a69190616399565b611d6b565b6040516109b89190615d4d565b60405180910390f35b3480156109cd57600080fd5b506109d6611d90565b6040516109e391906168df565b60405180910390f35b3480156109f857600080fd5b50610a136004803603810190610a0e91906163f0565b611dbb565b005b348015610a2157600080fd5b50610a2a611df0565b604051610a379190615e5a565b60405180910390f35b348015610a4c57600080fd5b50610a55611e2d565b604051610a6291906163d5565b60405180910390f35b348015610a7757600080fd5b50610a926004803603810190610a8d91906169b7565b611e51565b604051610a9f9190615d4d565b60405180910390f35b348015610ab457600080fd5b50610acf6004803603810190610aca9190615eda565b611e65565b005b348015610add57600080fd5b50610af86004803603810190610af39190616ab1565b611f5d565b005b348015610b0657600080fd5b50610b216004803603810190610b1c9190615d94565b61237d565b604051610b2e9190615d4d565b60405180910390f35b348015610b4357600080fd5b50610b4c61238f565b604051610b599190616b77565b60405180910390f35b6000610b6d826123b6565b9050919050565b6000614cb4905090565b610b86612430565b73ffffffffffffffffffffffffffffffffffffffff16610ba461243f565b73ffffffffffffffffffffffffffffffffffffffff1614610bfa576040517f08c379a0000000000000000000000000000000000000000000000000000000008152600401610bf190616bde565b60405180910390fd5b610c0381612447565b50565b606060fd8054610c1590616c2d565b80601f0160208091040260200160405190810160405280929190818152602001828054610c4190616c2d565b8015610c8e5780601f10610c6357610100808354040283529160200191610c8e565b820191906000526020600020905b815481529060010190602001808311610c7157829003601f168201915b5050505050905090565b7f0454d691b20de09c741657b57037379cb9a924a8d5d937a8aedf7cda4a999407610cca81610cc561243f565b6124de565b610cd261243f565b73ffffffffffffffffffffffffffffffffffffffff16610cf0611a79565b73ffffffffffffffffffffffffffffffffffffffff1614610d46576040517f08c379a0000000000000000000000000000000000000000000000000000000008152600401610d3d90616cab565b60405180910390fd5b610d707f904cf93ea7789378fd50994f44a6b8ab6b4ef94f4df88df8f6fbb0875801997283611dbb565b6102f260009054906101000a900473ffffffffffffffffffffffffffffffffffffffff1673ffffffffffffffffffffffffffffffffffffffff1663d547741f7fb09aa5aeb3702cfd50b6b62bc4532604938f21248a27a1d5ca736082b6819cc1846040518363ffffffff1660e01b8152600401610dee929190616ccb565b600060405180830381600087803b158015610e0857600080fd5b505af1158015610e1c573d6000803e3d6000fd5b505050507f6e76fb4c77256006d9c38ec7d82b45a8c8f3c27b1d6766fffc42dfb8de68449282604051610e4f91906168df565b60405180910390a15050565b600080610e6a86868686611d2f565b905060046007811115610e8057610e7f6164e4565b5b610e89826116eb565b6007811115610e9b57610e9a6164e4565b5b14610edb576040517f08c379a0000000000000000000000000000000000000000000000000000000008152600401610ed290616d66565b60405180910390fd5b60006101c660009054906101000a900473ffffffffffffffffffffffffffffffffffffffff1673ffffffffffffffffffffffffffffffffffffffff1663f27a0c926040518163ffffffff1660e01b815260040160206040518083038186803b158015610f4657600080fd5b505afa158015610f5a573d6000803e3d6000fd5b505050506040513d601f19601f82011682018060405250810190610f7e9190616d9b565b90506101c660009054906101000a900473ffffffffffffffffffffffffffffffffffffffff1673ffffffffffffffffffffffffffffffffffffffff1663b1c5f4278888886000896040518663ffffffff1660e01b8152600401610fe59594939291906170a3565b60206040518083038186803b158015610ffd57600080fd5b505afa158015611011573d6000803e3d6000fd5b505050506040513d601f19601f820116820180604052508101906110359190617120565b6101c76000848152602001908152602001600020819055506101c660009054906101000a900473ffffffffffffffffffffffffffffffffffffffff1673ffffffffffffffffffffffffffffffffffffffff16638f2a0bb0888888600089876040518763ffffffff1660e01b81526004016110b49695949392919061714d565b600060405180830381600087803b1580156110ce57600080fd5b505af11580156110e2573d6000803e3d6000fd5b505050507f9a2e42fd6722813d69113e7d0079d3d940171428df7373df9c7f7617cfda289282824261111491906171f2565b604051611122929190617248565b60405180910390a18192505050949350505050565b7f0454d691b20de09c741657b57037379cb9a924a8d5d937a8aedf7cda4a9994076111698161116461243f565b6124de565b6111937f904cf93ea7789378fd50994f44a6b8ab6b4ef94f4df88df8f6fbb0875801997283611465565b6102f260009054906101000a900473ffffffffffffffffffffffffffffffffffffffff1673ffffffffffffffffffffffffffffffffffffffff16632f2ff15d7fb09aa5aeb3702cfd50b6b62bc4532604938f21248a27a1d5ca736082b6819cc1846040518363ffffffff1660e01b8152600401611211929190616ccb565b600060405180830381600087803b15801561122b57600080fd5b505af115801561123f573d6000803e3d6000fd5b505050507feac79790ec7572f2c7ebd3d58fa84f2bb652383d683c622cb6fddbf2153d82ff8260405161127291906168df565b60405180910390a15050565b600061028e6000838152602001908152602001600020600101549050919050565b6000806112ae86868686611d2f565b905060006112bb826116eb565b9050600460078111156112d1576112d06164e4565b5b8160078111156112e4576112e36164e4565b5b14806113145750600560078111156112ff576112fe6164e4565b5b816007811115611312576113116164e4565b5b145b611353576040517f08c379a000000000000000000000000000000000000000000000000000000000815260040161134a90616d66565b60405180910390fd5b600160fe600084815260200190815260200160002060020160006101000a81548160ff0219169083151502179055507f712ae1383f79ac853f8d882153778e0260ef8f03b504e2866e0593e04d2b291f826040516113b19190615d4d565b60405180910390a16113c6828888888861257b565b8192505050949350505050565b7f904cf93ea7789378fd50994f44a6b8ab6b4ef94f4df88df8f6fbb0875801997281565b600061145460fe60008481526020019081526020016000206000016040518060200160405290816000820160009054906101000a900467ffffffffffffffff1667ffffffffffffffff1667ffffffffffffffff168152505061258f565b67ffffffffffffffff169050919050565b61146f828261259d565b611495816102c060008581526020019081526020016000206125c690919063ffffffff16565b505050565b6114a482826125f6565b6114ca816102c0600085815260200190815260200160002061267990919063ffffffff16565b505050565b7f000000000000000000000000000000000000000000000000000000000000000073ffffffffffffffffffffffffffffffffffffffff163073ffffffffffffffffffffffffffffffffffffffff16141561155e576040517f08c379a0000000000000000000000000000000000000000000000000000000008152600401611555906172e3565b60405180910390fd5b7f000000000000000000000000000000000000000000000000000000000000000073ffffffffffffffffffffffffffffffffffffffff1661159d6126a9565b73ffffffffffffffffffffffffffffffffffffffff16146115f3576040517f08c379a00000000000000000000000000000000000000000000000000000000081526004016115ea90617375565b60405180910390fd5b6115fc81612700565b61165581600067ffffffffffffffff81111561161b5761161a615f0c565b5b6040519080825280601f01601f19166020018201604052801561164d5781602001600182028036833780820191505090505b50600061277f565b50565b60006001905090565b6000806116c26116ba7f150214d74d59b7d1e90c73fc22ef3d991dd0a76b046543d4d80ab92d2a50328f898960405160200161169f939291906173a4565b60405160208183030381529060405280519060200120612950565b86868661296a565b90506116df87828860405180602001604052806000815250612995565b91505095945050505050565b60006116f682612ae9565b9050919050565b600061012f600084815260200190815260200160002060030160008373ffffffffffffffffffffffffffffffffffffffff1673ffffffffffffffffffffffffffffffffffffffff16815260200190815260200160002060009054906101000a900460ff16905092915050565b7f000000000000000000000000000000000000000000000000000000000000000073ffffffffffffffffffffffffffffffffffffffff163073ffffffffffffffffffffffffffffffffffffffff1614156117f8576040517f08c379a00000000000000000000000000000000000000000000000000000000081526004016117ef906172e3565b60405180910390fd5b7f000000000000000000000000000000000000000000000000000000000000000073ffffffffffffffffffffffffffffffffffffffff166118376126a9565b73ffffffffffffffffffffffffffffffffffffffff161461188d576040517f08c379a000000000000000000000000000000000000000000000000000000000815260040161188490617375565b60405180910390fd5b61189682612700565b6118a28282600161277f565b5050565b60008060008061012f60008681526020019081526020016000209050806000015481600101548260020154935093509350509193909250565b60606040518060400160405280600181526020017f3100000000000000000000000000000000000000000000000000000000000000815250905090565b60008061192761243f565b905061194484828560405180602001604052806000815250612995565b91505092915050565b7f0454d691b20de09c741657b57037379cb9a924a8d5d937a8aedf7cda4a99940781565b61197961243f565b73ffffffffffffffffffffffffffffffffffffffff16611997611a79565b73ffffffffffffffffffffffffffffffffffffffff16146119ed576040517f08c379a00000000000000000000000000000000000000000000000000000000081526004016119e490616cab565b60405180910390fd5b6119f76000612c22565b565b600080611a0461243f565b9050611a5686828787878080601f016020809104026020016040519081016040528093929190818152602001838380828437600081840152601f19601f82011690508083019250505050505050612995565b915050949350505050565b6000611a6f85858585612cea565b9050949350505050565b60006101f860009054906101000a900473ffffffffffffffffffffffffffffffffffffffff16905090565b6000611acc826102c06000868152602001908152602001600020612f8a90919063ffffffff16565b905092915050565b600061028e600084815260200190815260200160002060000160008373ffffffffffffffffffffffffffffffffffffffff1673ffffffffffffffffffffffffffffffffffffffff16815260200190815260200160002060009054906101000a900460ff16905092915050565b60006064905090565b6000801b81565b600061019454905090565b611b63612430565b73ffffffffffffffffffffffffffffffffffffffff16611b8161243f565b73ffffffffffffffffffffffffffffffffffffffff1614611bd7576040517f08c379a0000000000000000000000000000000000000000000000000000000008152600401611bce90616bde565b60405180910390fd5b611be081612fa4565b50565b6000806101c660009054906101000a900473ffffffffffffffffffffffffffffffffffffffff1673ffffffffffffffffffffffffffffffffffffffff1663d45c44356101c76000868152602001908152602001600020546040518263ffffffff1660e01b8152600401611c5691906163d5565b60206040518083038186803b158015611c6e57600080fd5b505afa158015611c82573d6000803e3d6000fd5b505050506040513d601f19601f82011682018060405250810190611ca69190616d9b565b905060018114611cb65780611cb9565b60005b915050919050565b6000611d1e60fe60008481526020019081526020016000206001016040518060200160405290816000820160009054906101000a900467ffffffffffffffff1667ffffffffffffffff1667ffffffffffffffff168152505061258f565b67ffffffffffffffff169050919050565b600084848484604051602001611d4894939291906173db565b6040516020818303038152906040528051906020012060001c9050949350505050565b6000611d896102c06000848152602001908152602001600020613045565b9050919050565b60006101c660009054906101000a900473ffffffffffffffffffffffffffffffffffffffff16905090565b611dc5828261305a565b611deb816102c0600085815260200190815260200160002061267990919063ffffffff16565b505050565b60606040518060400160405280602081526020017f737570706f72743d627261766f2671756f72756d3d666f722c6162737461696e815250905090565b7f150214d74d59b7d1e90c73fc22ef3d991dd0a76b046543d4d80ab92d2a50328f81565b6000611e5d8383613083565b905092915050565b611e6d61243f565b73ffffffffffffffffffffffffffffffffffffffff16611e8b611a79565b73ffffffffffffffffffffffffffffffffffffffff1614611ee1576040517f08c379a0000000000000000000000000000000000000000000000000000000008152600401611ed890616cab565b60405180910390fd5b600073ffffffffffffffffffffffffffffffffffffffff168173ffffffffffffffffffffffffffffffffffffffff161415611f51576040517f08c379a0000000000000000000000000000000000000000000000000000000008152600401611f48906174a7565b60405180910390fd5b611f5a81612c22565b50565b600060019054906101000a900460ff1680611f83575060008054906101000a900460ff16155b611fc2576040517f08c379a0000000000000000000000000000000000000000000000000000000008152600401611fb990617539565b60405180910390fd5b60008060019054906101000a900460ff161590508015612012576001600060016101000a81548160ff02191690831515021790555060016000806101000a81548160ff0219169083151502179055505b606080838260008151811061202a57612029617559565b5b602002602001019073ffffffffffffffffffffffffffffffffffffffff16908173ffffffffffffffffffffffffffffffffffffffff168152505083338260008151811061207a57612079617559565b5b602002602001018360018151811061209557612094617559565b5b602002602001018273ffffffffffffffffffffffffffffffffffffffff1673ffffffffffffffffffffffffffffffffffffffff168152508273ffffffffffffffffffffffffffffffffffffffff1673ffffffffffffffffffffffffffffffffffffffff1681525050508573ffffffffffffffffffffffffffffffffffffffff1663b1133e0c600284846040518463ffffffff1660e01b815260040161213c939291906175c3565b600060405180830381600087803b15801561215657600080fd5b505af115801561216a573d6000803e3d6000fd5b505050506121ac6040518060400160405280600781526020017f496b6f6e44414f0000000000000000000000000000000000000000000000000081525061313b565b6121b4613247565b6121bd87613340565b6121c7600461343b565b6121d086613536565b6121d8613639565b6121e0613722565b6121e861380b565b856102f260006101000a81548173ffffffffffffffffffffffffffffffffffffffff021916908373ffffffffffffffffffffffffffffffffffffffff160217905550866102f360006101000a81548173ffffffffffffffffffffffffffffffffffffffff021916908373ffffffffffffffffffffffffffffffffffffffff160217905550846102f460006101000a81548173ffffffffffffffffffffffffffffffffffffffff021916908373ffffffffffffffffffffffffffffffffffffffff1602179055506122f87f904cf93ea7789378fd50994f44a6b8ab6b4ef94f4df88df8f6fbb087580199727f0454d691b20de09c741657b57037379cb9a924a8d5d937a8aedf7cda4a999407613904565b6123297f0454d691b20de09c741657b57037379cb9a924a8d5d937a8aedf7cda4a99940761232461243f565b613961565b6123537f0454d691b20de09c741657b57037379cb9a924a8d5d937a8aedf7cda4a99940730613961565b505080156123765760008060016101000a81548160ff0219169083151502179055505b5050505050565b600061238882613996565b9050919050565b61016160009054906101000a900473ffffffffffffffffffffffffffffffffffffffff1681565b60007f5a05180f000000000000000000000000000000000000000000000000000000007bffffffffffffffffffffffffffffffffffffffffffffffffffffffff1916827bffffffffffffffffffffffffffffffffffffffffffffffffffffffff19161480612429575061242882613a6f565b5b9050919050565b600061243a613ae9565b905090565b600033905090565b61244f611b40565b811115612491576040517f08c379a0000000000000000000000000000000000000000000000000000000008152600401612488906176a0565b60405180910390fd5b600061019454905081610194819055507f0553476bf02ef2726e8ce5ced78d63e26e602e4a2257b1f559418e24b463399781836040516124d2929190617248565b60405180910390a15050565b6124e88282611ad4565b6125775761250d8173ffffffffffffffffffffffffffffffffffffffff166014613b14565b61251b8360001c6020613b14565b60405160200161252c929190617794565b6040516020818303038152906040526040517f08c379a000000000000000000000000000000000000000000000000000000000815260040161256e9190615e5a565b60405180910390fd5b5050565b6125888585858585613d50565b5050505050565b600081600001519050919050565b6125a68261127e565b6125b7816125b261243f565b6124de565b6125c18383613def565b505050565b60006125ee836000018373ffffffffffffffffffffffffffffffffffffffff1660001b613ed1565b905092915050565b6125fe61243f565b73ffffffffffffffffffffffffffffffffffffffff168173ffffffffffffffffffffffffffffffffffffffff161461266b576040517f08c379a000000000000000000000000000000000000000000000000000000000815260040161266290617840565b60405180910390fd5b6126758282613f41565b5050565b60006126a1836000018373ffffffffffffffffffffffffffffffffffffffff1660001b614024565b905092915050565b60006126d77f360894a13ba1a3210667c828492db98dca3e2076cc3735a920a3ca505d382bbc60001b614138565b60000160009054906101000a900473ffffffffffffffffffffffffffffffffffffffff16905090565b61270861243f565b73ffffffffffffffffffffffffffffffffffffffff16612726611a79565b73ffffffffffffffffffffffffffffffffffffffff161461277c576040517f08c379a000000000000000000000000000000000000000000000000000000000815260040161277390616cab565b60405180910390fd5b50565b60006127896126a9565b905061279484614142565b6000835111806127a15750815b156127b2576127b084846141fb565b505b60006127e07f4910fdfa16fed3260ed0e7147f7cc6da11a60208b5b9406d12a635614ffd914360001b6142df565b90508060000160009054906101000a900460ff166129495760018160000160006101000a81548160ff0219169083151502179055506128ac858360405160240161282a91906168df565b6040516020818303038152906040527f3659cfe6000000000000000000000000000000000000000000000000000000007bffffffffffffffffffffffffffffffffffffffffffffffffffffffff19166020820180517bffffffffffffffffffffffffffffffffffffffffffffffffffffffff83818316178352505050506141fb565b5060008160000160006101000a81548160ff0219169083151502179055506128d26126a9565b73ffffffffffffffffffffffffffffffffffffffff168273ffffffffffffffffffffffffffffffffffffffff161461293f576040517f08c379a0000000000000000000000000000000000000000000000000000000008152600401612936906178d2565b60405180910390fd5b612948856142e9565b5b5050505050565b600061296361295d614338565b83614378565b9050919050565b600080600061297b878787876143ab565b91509150612988816144b8565b8192505050949350505050565b60008060fe60008781526020019081526020016000209050600160078111156129c1576129c06164e4565b5b6129ca876116eb565b60078111156129dc576129db6164e4565b5b14612a1c576040517f08c379a0000000000000000000000000000000000000000000000000000000008152600401612a1390617964565b60405180910390fd5b6000612a7a86612a6b846000016040518060200160405290816000820160009054906101000a900467ffffffffffffffff1667ffffffffffffffff1667ffffffffffffffff168152505061258f565b67ffffffffffffffff16611e51565b9050612a888787878461468d565b8573ffffffffffffffffffffffffffffffffffffffff167fb8e138887d0aa13bab447e82de9d5c1777041ecd21ca36ba824ff1e6c07ddda488878488604051612ad49493929190617984565b60405180910390a28092505050949350505050565b600080612af583614894565b905060046007811115612b0b57612b0a6164e4565b5b816007811115612b1e57612b1d6164e4565b5b14612b2c5780915050612c1d565b60006101c760008581526020019081526020016000205490506000801b811415612b5a578192505050612c1d565b6101c660009054906101000a900473ffffffffffffffffffffffffffffffffffffffff1673ffffffffffffffffffffffffffffffffffffffff16632ab0f529826040518263ffffffff1660e01b8152600401612bb691906163d5565b60206040518083038186803b158015612bce57600080fd5b505afa158015612be2573d6000803e3d6000fd5b505050506040513d601f19601f82011682018060405250810190612c0691906179fc565b15612c1657600792505050612c1d565b6005925050505b919050565b60006101f860009054906101000a900473ffffffffffffffffffffffffffffffffffffffff169050816101f860006101000a81548173ffffffffffffffffffffffffffffffffffffffff021916908373ffffffffffffffffffffffffffffffffffffffff1602179055508173ffffffffffffffffffffffffffffffffffffffff168173ffffffffffffffffffffffffffffffffffffffff167f8be0079c531659141344cd1fd0a4f28419497f9722a3daafe3b4186f6b6457e060405160405180910390a35050565b600080612d008686868680519060200120611d2f565b90508451865114612d46576040517f08c379a0000000000000000000000000000000000000000000000000000000008152600401612d3d90617a9b565b60405180910390fd5b8351865114612d8a576040517f08c379a0000000000000000000000000000000000000000000000000000000008152600401612d8190617a9b565b60405180910390fd5b6000865111612dce576040517f08c379a0000000000000000000000000000000000000000000000000000000008152600401612dc590617b07565b60405180910390fd5b600060fe60008381526020019081526020016000209050612e2e816000016040518060200160405290816000820160009054906101000a900467ffffffffffffffff1667ffffffffffffffff1667ffffffffffffffff1681525050614a5b565b612e6d576040517f08c379a0000000000000000000000000000000000000000000000000000000008152600401612e6490617b99565b60405180910390fd5b6000612e7f612e7a611658565b614a75565b612e8843614a75565b612e929190617bcd565b90506000612ea6612ea1610b74565b614a75565b82612eb19190617bcd565b9050612ec98284600001614acc90919063ffffffff16565b612edf8184600101614acc90919063ffffffff16565b7f7d84a6263ae0d98d3329bd7b46bb4e8d6f98cd35a7adb45c274c8b7fd5ebd5e084612f0961243f565b8b8b8d5167ffffffffffffffff811115612f2657612f25615f0c565b5b604051908082528060200260200182016040528015612f5957816020015b6060815260200190600190039081612f445790505b508c88888e604051612f7399989796959493929190617d48565b60405180910390a183945050505050949350505050565b6000612f998360000183614afb565b60001c905092915050565b7f08f74ea46ef7894f65eabfb5e6e695de773a000b47c529ab559178069b2264016101c660009054906101000a900473ffffffffffffffffffffffffffffffffffffffff1682604051612ff8929190617df8565b60405180910390a1806101c660006101000a81548173ffffffffffffffffffffffffffffffffffffffff021916908373ffffffffffffffffffffffffffffffffffffffff16021790555050565b600061305382600001614b26565b9050919050565b6130638261127e565b6130748161306f61243f565b6124de565b61307e8383613f41565b505050565b600061016160009054906101000a900473ffffffffffffffffffffffffffffffffffffffff1673ffffffffffffffffffffffffffffffffffffffff16633a46b1a884846040518363ffffffff1660e01b81526004016130e3929190617e21565b60206040518083038186803b1580156130fb57600080fd5b505afa15801561310f573d6000803e3d6000fd5b505050506040513d601f19601f820116820180604052508101906131339190616d9b565b905092915050565b600060019054906101000a900460ff1680613161575060008054906101000a900460ff16155b6131a0576040517f08c379a000000000000000000000000000000000000000000000000000000000815260040161319790617539565b60405180910390fd5b60008060019054906101000a900460ff1615905080156131f0576001600060016101000a81548160ff02191690831515021790555060016000806101000a81548160ff0219169083151502179055505b6131f8614b37565b613200614c10565b6132118261320c6118df565b614ce9565b613219614dec565b61322282614ec5565b80156132435760008060016101000a81548160ff0219169083151502179055505b5050565b600060019054906101000a900460ff168061326d575060008054906101000a900460ff16155b6132ac576040517f08c379a00000000000000000000000000000000000000000000000000000000081526004016132a390617539565b60405180910390fd5b60008060019054906101000a900460ff1615905080156132fc576001600060016101000a81548160ff02191690831515021790555060016000806101000a81548160ff0219169083151502179055505b613304614b37565b61330c614c10565b613314614dec565b61331c614fb6565b801561333d5760008060016101000a81548160ff0219169083151502179055505b50565b600060019054906101000a900460ff1680613366575060008054906101000a900460ff16155b6133a5576040517f08c379a000000000000000000000000000000000000000000000000000000000815260040161339c90617539565b60405180910390fd5b60008060019054906101000a900460ff1615905080156133f5576001600060016101000a81548160ff02191690831515021790555060016000806101000a81548160ff0219169083151502179055505b6133fd614b37565b613405614c10565b61340d614dec565b6134168261508f565b80156134375760008060016101000a81548160ff0219169083151502179055505b5050565b600060019054906101000a900460ff1680613461575060008054906101000a900460ff16155b6134a0576040517f08c379a000000000000000000000000000000000000000000000000000000000815260040161349790617539565b60405180910390fd5b60008060019054906101000a900460ff1615905080156134f0576001600060016101000a81548160ff02191690831515021790555060016000806101000a81548160ff0219169083151502179055505b6134f8614b37565b613500614c10565b613508614dec565b613511826151ab565b80156135325760008060016101000a81548160ff0219169083151502179055505b5050565b600060019054906101000a900460ff168061355c575060008054906101000a900460ff16155b61359b576040517f08c379a000000000000000000000000000000000000000000000000000000000815260040161359290617539565b60405180910390fd5b60008060019054906101000a900460ff1615905080156135eb576001600060016101000a81548160ff02191690831515021790555060016000806101000a81548160ff0219169083151502179055505b6135f3614b37565b6135fb614c10565b613603614dec565b61360b61528e565b61361482615367565b80156136355760008060016101000a81548160ff0219169083151502179055505b5050565b600060019054906101000a900460ff168061365f575060008054906101000a900460ff16155b61369e576040517f08c379a000000000000000000000000000000000000000000000000000000000815260040161369590617539565b60405180910390fd5b60008060019054906101000a900460ff1615905080156136ee576001600060016101000a81548160ff02191690831515021790555060016000806101000a81548160ff0219169083151502179055505b6136f6614b37565b6136fe61544a565b801561371f5760008060016101000a81548160ff0219169083151502179055505b50565b600060019054906101000a900460ff1680613748575060008054906101000a900460ff16155b613787576040517f08c379a000000000000000000000000000000000000000000000000000000000815260040161377e90617539565b60405180910390fd5b60008060019054906101000a900460ff1615905080156137d7576001600060016101000a81548160ff02191690831515021790555060016000806101000a81548160ff0219169083151502179055505b6137df615533565b6137e761560c565b80156138085760008060016101000a81548160ff0219169083151502179055505b50565b600060019054906101000a900460ff1680613831575060008054906101000a900460ff16155b613870576040517f08c379a000000000000000000000000000000000000000000000000000000000815260040161386790617539565b60405180910390fd5b60008060019054906101000a900460ff1615905080156138c0576001600060016101000a81548160ff02191690831515021790555060016000806101000a81548160ff0219169083151502179055505b6138c8614b37565b6138d0614c10565b6138d86156e5565b6138e06157be565b80156139015760008060016101000a81548160ff0219169083151502179055505b50565b600061390f8361127e565b90508161028e6000858152602001908152602001600020600101819055508181847fbd79b86ffe0ab8e8776151514217cd7cacd52c909f66475c3af44e129f0b00ff60405160405180910390a4505050565b61396b8282615897565b613991816102c060008581526020019081526020016000206125c690919063ffffffff16565b505050565b60006139a0611b40565b6139a8611b50565b61016160009054906101000a900473ffffffffffffffffffffffffffffffffffffffff1673ffffffffffffffffffffffffffffffffffffffff16638e539e8c856040518263ffffffff1660e01b8152600401613a049190615d4d565b60206040518083038186803b158015613a1c57600080fd5b505afa158015613a30573d6000803e3d6000fd5b505050506040513d601f19601f82011682018060405250810190613a549190616d9b565b613a5e9190617e4a565b613a689190617ed3565b9050919050565b60007f7965db0b000000000000000000000000000000000000000000000000000000007bffffffffffffffffffffffffffffffffffffffffffffffffffffffff1916827bffffffffffffffffffffffffffffffffffffffffffffffffffffffff19161480613ae25750613ae1826158a5565b5b9050919050565b60006101c660009054906101000a900473ffffffffffffffffffffffffffffffffffffffff16905090565b606060006002836002613b279190617e4a565b613b3191906171f2565b67ffffffffffffffff811115613b4a57613b49615f0c565b5b6040519080825280601f01601f191660200182016040528015613b7c5781602001600182028036833780820191505090505b5090507f300000000000000000000000000000000000000000000000000000000000000081600081518110613bb457613bb3617559565b5b60200101907effffffffffffffffffffffffffffffffffffffffffffffffffffffffffffff1916908160001a9053507f780000000000000000000000000000000000000000000000000000000000000081600181518110613c1857613c17617559565b5b60200101907effffffffffffffffffffffffffffffffffffffffffffffffffffffffffffff1916908160001a90535060006001846002613c589190617e4a565b613c6291906171f2565b90505b6001811115613d02577f3031323334353637383961626364656600000000000000000000000000000000600f861660108110613ca457613ca3617559565b5b1a60f81b828281518110613cbb57613cba617559565b5b60200101907effffffffffffffffffffffffffffffffffffffffffffffffffffffffffffff1916908160001a905350600485901c945080613cfb90617f04565b9050613c65565b5060008414613d46576040517f08c379a0000000000000000000000000000000000000000000000000000000008152600401613d3d90617f7a565b60405180910390fd5b8091505092915050565b6101c660009054906101000a900473ffffffffffffffffffffffffffffffffffffffff1673ffffffffffffffffffffffffffffffffffffffff1663e38335e5348686866000876040518763ffffffff1660e01b8152600401613db69594939291906170a3565b6000604051808303818588803b158015613dcf57600080fd5b505af1158015613de3573d6000803e3d6000fd5b50505050505050505050565b613df98282611ad4565b613ecd57600161028e600084815260200190815260200160002060000160008373ffffffffffffffffffffffffffffffffffffffff1673ffffffffffffffffffffffffffffffffffffffff16815260200190815260200160002060006101000a81548160ff021916908315150217905550613e7261243f565b73ffffffffffffffffffffffffffffffffffffffff168173ffffffffffffffffffffffffffffffffffffffff16837f2f8788117e7eff1d82e926ec794901d17c78024a50270940304540a733656f0d60405160405180910390a45b5050565b6000613edd838361591f565b613f36578260000182908060018154018082558091505060019003906000526020600020016000909190919091505582600001805490508360010160008481526020019081526020016000208190555060019050613f3b565b600090505b92915050565b613f4b8282611ad4565b1561402057600061028e600084815260200190815260200160002060000160008373ffffffffffffffffffffffffffffffffffffffff1673ffffffffffffffffffffffffffffffffffffffff16815260200190815260200160002060006101000a81548160ff021916908315150217905550613fc561243f565b73ffffffffffffffffffffffffffffffffffffffff168173ffffffffffffffffffffffffffffffffffffffff16837ff6391f5c32d9c69d2a47ea670b442974b53935d1edc7fd64eb21e047a839171b60405160405180910390a45b5050565b6000808360010160008481526020019081526020016000205490506000811461412c5760006001826140569190617f9a565b905060006001866000018054905061406e9190617f9a565b90508181146140dd57600086600001828154811061408f5761408e617559565b5b90600052602060002001549050808760000184815481106140b3576140b2617559565b5b90600052602060002001819055508387600101600083815260200190815260200160002081905550505b856000018054806140f1576140f0617fce565b5b600190038181906000526020600020016000905590558560010160008681526020019081526020016000206000905560019350505050614132565b60009150505b92915050565b6000819050919050565b61414b81615942565b61418a576040517f08c379a00000000000000000000000000000000000000000000000000000000081526004016141819061806f565b60405180910390fd5b806141b77f360894a13ba1a3210667c828492db98dca3e2076cc3735a920a3ca505d382bbc60001b614138565b60000160006101000a81548173ffffffffffffffffffffffffffffffffffffffff021916908373ffffffffffffffffffffffffffffffffffffffff16021790555050565b606061420683615942565b614245576040517f08c379a000000000000000000000000000000000000000000000000000000000815260040161423c90618101565b60405180910390fd5b6000808473ffffffffffffffffffffffffffffffffffffffff168460405161426d919061815d565b600060405180830381855af49150503d80600081146142a8576040519150601f19603f3d011682016040523d82523d6000602084013e6142ad565b606091505b50915091506142d582826040518060600160405280602781526020016186cf60279139615955565b9250505092915050565b6000819050919050565b6142f281614142565b8073ffffffffffffffffffffffffffffffffffffffff167fbc7cd75a20ee27fd9adebab32041f755214dbc6bffa90cc0225b39da2e5c2d3b60405160405180910390a250565b60006143737f8b73c3c69bb8fe3d512ecc4cf759cc79239f7b179b0ffacaa9a75d522b39400f6143666159bc565b61436e6159c6565b6159d0565b905090565b6000828260405160200161438d9291906181e1565b60405160208183030381529060405280519060200120905092915050565b6000807f7fffffffffffffffffffffffffffffff5d576e7357a4501ddfe92f46681b20a08360001c11156143e65760006003915091506144af565b601b8560ff16141580156143fe5750601c8560ff1614155b156144105760006004915091506144af565b6000600187878787604051600081526020016040526040516144359493929190618218565b6020604051602081039080840390855afa158015614457573d6000803e3d6000fd5b505050602060405103519050600073ffffffffffffffffffffffffffffffffffffffff168173ffffffffffffffffffffffffffffffffffffffff1614156144a6576000600192509250506144af565b80600092509250505b94509492505050565b600060048111156144cc576144cb6164e4565b5b8160048111156144df576144de6164e4565b5b14156144ea5761468a565b600160048111156144fe576144fd6164e4565b5b816004811115614511576145106164e4565b5b1415614552576040517f08c379a0000000000000000000000000000000000000000000000000000000008152600401614549906182a9565b60405180910390fd5b60026004811115614566576145656164e4565b5b816004811115614579576145786164e4565b5b14156145ba576040517f08c379a00000000000000000000000000000000000000000000000000000000081526004016145b190618315565b60405180910390fd5b600360048111156145ce576145cd6164e4565b5b8160048111156145e1576145e06164e4565b5b1415614622576040517f08c379a0000000000000000000000000000000000000000000000000000000008152600401614619906183a7565b60405180910390fd5b600480811115614635576146346164e4565b5b816004811115614648576146476164e4565b5b1415614689576040517f08c379a000000000000000000000000000000000000000000000000000000000815260040161468090618439565b60405180910390fd5b5b50565b600061012f600086815260200190815260200160002090508060030160008573ffffffffffffffffffffffffffffffffffffffff1673ffffffffffffffffffffffffffffffffffffffff16815260200190815260200160002060009054906101000a900460ff1615614734576040517f08c379a000000000000000000000000000000000000000000000000000000000815260040161472b906184cb565b60405180910390fd5b60018160030160008673ffffffffffffffffffffffffffffffffffffffff1673ffffffffffffffffffffffffffffffffffffffff16815260200190815260200160002060006101000a81548160ff021916908315150217905550600060028111156147a2576147a16164e4565b5b60ff168360ff1614156147cf57818160000160008282546147c391906171f2565b9250508190555061488d565b600160028111156147e3576147e26164e4565b5b60ff168360ff161415614810578181600101600082825461480491906171f2565b9250508190555061488c565b600280811115614823576148226164e4565b5b60ff168360ff161415614850578181600201600082825461484491906171f2565b9250508190555061488b565b6040517f08c379a00000000000000000000000000000000000000000000000000000000081526004016148829061855d565b60405180910390fd5b5b5b5050505050565b60008060fe6000848152602001908152602001600020604051806080016040529081600082016040518060200160405290816000820160009054906101000a900467ffffffffffffffff1667ffffffffffffffff1667ffffffffffffffff16815250508152602001600182016040518060200160405290816000820160009054906101000a900467ffffffffffffffff1667ffffffffffffffff1667ffffffffffffffff168152505081526020016002820160009054906101000a900460ff161515151581526020016002820160019054906101000a900460ff161515151581525050905080604001511561498d576007915050614a56565b8060600151156149a1576002915050614a56565b6149ae8160000151615a0a565b156149bd576000915050614a56565b6149ca8160200151615a0a565b156149d9576001915050614a56565b6149e68160200151615a24565b15614a1b576149f483615a50565b8015614a055750614a0483615a98565b5b614a10576003614a13565b60045b915050614a56565b6040517f08c379a0000000000000000000000000000000000000000000000000000000008152600401614a4d906185c9565b60405180910390fd5b919050565b600080826000015167ffffffffffffffff16149050919050565b600067ffffffffffffffff8016821115614ac4576040517f08c379a0000000000000000000000000000000000000000000000000000000008152600401614abb9061865b565b60405180910390fd5b819050919050565b808260000160006101000a81548167ffffffffffffffff021916908367ffffffffffffffff1602179055505050565b6000826000018281548110614b1357614b12617559565b5b9060005260206000200154905092915050565b600081600001805490509050919050565b600060019054906101000a900460ff1680614b5d575060008054906101000a900460ff16155b614b9c576040517f08c379a0000000000000000000000000000000000000000000000000000000008152600401614b9390617539565b60405180910390fd5b60008060019054906101000a900460ff161590508015614bec576001600060016101000a81548160ff02191690831515021790555060016000806101000a81548160ff0219169083151502179055505b8015614c0d5760008060016101000a81548160ff0219169083151502179055505b50565b600060019054906101000a900460ff1680614c36575060008054906101000a900460ff16155b614c75576040517f08c379a0000000000000000000000000000000000000000000000000000000008152600401614c6c90617539565b60405180910390fd5b60008060019054906101000a900460ff161590508015614cc5576001600060016101000a81548160ff02191690831515021790555060016000806101000a81548160ff0219169083151502179055505b8015614ce65760008060016101000a81548160ff0219169083151502179055505b50565b600060019054906101000a900460ff1680614d0f575060008054906101000a900460ff16155b614d4e576040517f08c379a0000000000000000000000000000000000000000000000000000000008152600401614d4590617539565b60405180910390fd5b60008060019054906101000a900460ff161590508015614d9e576001600060016101000a81548160ff02191690831515021790555060016000806101000a81548160ff0219169083151502179055505b600083805190602001209050600083805190602001209050816065819055508060668190555050508015614de75760008060016101000a81548160ff0219169083151502179055505b505050565b600060019054906101000a900460ff1680614e12575060008054906101000a900460ff16155b614e51576040517f08c379a0000000000000000000000000000000000000000000000000000000008152600401614e4890617539565b60405180910390fd5b60008060019054906101000a900460ff161590508015614ea1576001600060016101000a81548160ff02191690831515021790555060016000806101000a81548160ff0219169083151502179055505b8015614ec25760008060016101000a81548160ff0219169083151502179055505b50565b600060019054906101000a900460ff1680614eeb575060008054906101000a900460ff16155b614f2a576040517f08c379a0000000000000000000000000000000000000000000000000000000008152600401614f2190617539565b60405180910390fd5b60008060019054906101000a900460ff161590508015614f7a576001600060016101000a81548160ff02191690831515021790555060016000806101000a81548160ff0219169083151502179055505b8160fd9080519060200190614f90929190615bc2565b508015614fb25760008060016101000a81548160ff0219169083151502179055505b5050565b600060019054906101000a900460ff1680614fdc575060008054906101000a900460ff16155b61501b576040517f08c379a000000000000000000000000000000000000000000000000000000000815260040161501290617539565b60405180910390fd5b60008060019054906101000a900460ff16159050801561506b576001600060016101000a81548160ff02191690831515021790555060016000806101000a81548160ff0219169083151502179055505b801561508c5760008060016101000a81548160ff0219169083151502179055505b50565b600060019054906101000a900460ff16806150b5575060008054906101000a900460ff16155b6150f4576040517f08c379a00000000000000000000000000000000000000000000000000000000081526004016150eb90617539565b60405180910390fd5b60008060019054906101000a900460ff161590508015615144576001600060016101000a81548160ff02191690831515021790555060016000806101000a81548160ff0219169083151502179055505b8161016160006101000a81548173ffffffffffffffffffffffffffffffffffffffff021916908373ffffffffffffffffffffffffffffffffffffffff16021790555080156151a75760008060016101000a81548160ff0219169083151502179055505b5050565b600060019054906101000a900460ff16806151d1575060008054906101000a900460ff16155b615210576040517f08c379a000000000000000000000000000000000000000000000000000000000815260040161520790617539565b60405180910390fd5b60008060019054906101000a900460ff161590508015615260576001600060016101000a81548160ff02191690831515021790555060016000806101000a81548160ff0219169083151502179055505b61526982612447565b801561528a5760008060016101000a81548160ff0219169083151502179055505b5050565b600060019054906101000a900460ff16806152b4575060008054906101000a900460ff16155b6152f3576040517f08c379a00000000000000000000000000000000000000000000000000000000081526004016152ea90617539565b60405180910390fd5b60008060019054906101000a900460ff161590508015615343576001600060016101000a81548160ff02191690831515021790555060016000806101000a81548160ff0219169083151502179055505b80156153645760008060016101000a81548160ff0219169083151502179055505b50565b600060019054906101000a900460ff168061538d575060008054906101000a900460ff16155b6153cc576040517f08c379a00000000000000000000000000000000000000000000000000000000081526004016153c390617539565b60405180910390fd5b60008060019054906101000a900460ff16159050801561541c576001600060016101000a81548160ff02191690831515021790555060016000806101000a81548160ff0219169083151502179055505b61542582612fa4565b80156154465760008060016101000a81548160ff0219169083151502179055505b5050565b600060019054906101000a900460ff1680615470575060008054906101000a900460ff16155b6154af576040517f08c379a00000000000000000000000000000000000000000000000000000000081526004016154a690617539565b60405180910390fd5b60008060019054906101000a900460ff1615905080156154ff576001600060016101000a81548160ff02191690831515021790555060016000806101000a81548160ff0219169083151502179055505b61550f61550a61243f565b612c22565b80156155305760008060016101000a81548160ff0219169083151502179055505b50565b600060019054906101000a900460ff1680615559575060008054906101000a900460ff16155b615598576040517f08c379a000000000000000000000000000000000000000000000000000000000815260040161558f90617539565b60405180910390fd5b60008060019054906101000a900460ff1615905080156155e8576001600060016101000a81548160ff02191690831515021790555060016000806101000a81548160ff0219169083151502179055505b80156156095760008060016101000a81548160ff0219169083151502179055505b50565b600060019054906101000a900460ff1680615632575060008054906101000a900460ff16155b615671576040517f08c379a000000000000000000000000000000000000000000000000000000000815260040161566890617539565b60405180910390fd5b60008060019054906101000a900460ff1615905080156156c1576001600060016101000a81548160ff02191690831515021790555060016000806101000a81548160ff0219169083151502179055505b80156156e25760008060016101000a81548160ff0219169083151502179055505b50565b600060019054906101000a900460ff168061570b575060008054906101000a900460ff16155b61574a576040517f08c379a000000000000000000000000000000000000000000000000000000000815260040161574190617539565b60405180910390fd5b60008060019054906101000a900460ff16159050801561579a576001600060016101000a81548160ff02191690831515021790555060016000806101000a81548160ff0219169083151502179055505b80156157bb5760008060016101000a81548160ff0219169083151502179055505b50565b600060019054906101000a900460ff16806157e4575060008054906101000a900460ff16155b615823576040517f08c379a000000000000000000000000000000000000000000000000000000000815260040161581a90617539565b60405180910390fd5b60008060019054906101000a900460ff161590508015615873576001600060016101000a81548160ff02191690831515021790555060016000806101000a81548160ff0219169083151502179055505b80156158945760008060016101000a81548160ff0219169083151502179055505b50565b6158a18282613def565b5050565b60007f6e665ced000000000000000000000000000000000000000000000000000000007bffffffffffffffffffffffffffffffffffffffffffffffffffffffff1916827bffffffffffffffffffffffffffffffffffffffffffffffffffffffff19161480615918575061591782615ac4565b5b9050919050565b600080836001016000848152602001908152602001600020541415905092915050565b600080823b905060008111915050919050565b60608315615965578290506159b5565b6000835111156159785782518084602001fd5b816040517f08c379a00000000000000000000000000000000000000000000000000000000081526004016159ac9190615e5a565b60405180910390fd5b9392505050565b6000606554905090565b6000606654905090565b600083838346306040516020016159eb95949392919061867b565b6040516020818303038152906040528051906020012090509392505050565b600043826000015167ffffffffffffffff16119050919050565b6000615a2f82615b3e565b8015615a49575043826000015167ffffffffffffffff1611155b9050919050565b60008061012f6000848152602001908152602001600020905080600201548160010154615a7d91906171f2565b615a8e615a89856113f7565b61237d565b1115915050919050565b60008061012f600084815260200190815260200160002090508060000154816001015411915050919050565b60007fbf26d897000000000000000000000000000000000000000000000000000000007bffffffffffffffffffffffffffffffffffffffffffffffffffffffff1916827bffffffffffffffffffffffffffffffffffffffffffffffffffffffff19161480615b375750615b3682615b58565b5b9050919050565b600080826000015167ffffffffffffffff16119050919050565b60007f01ffc9a7000000000000000000000000000000000000000000000000000000007bffffffffffffffffffffffffffffffffffffffffffffffffffffffff1916827bffffffffffffffffffffffffffffffffffffffffffffffffffffffff1916149050919050565b828054615bce90616c2d565b90600052602060002090601f016020900481019282615bf05760008555615c37565b82601f10615c0957805160ff1916838001178555615c37565b82800160010185558215615c37579182015b82811115615c36578251825591602001919060010190615c1b565b5b509050615c449190615c48565b5090565b5b80821115615c61576000816000905550600101615c49565b5090565b6000604051905090565b600080fd5b600080fd5b60007fffffffff0000000000000000000000000000000000000000000000000000000082169050919050565b615cae81615c79565b8114615cb957600080fd5b50565b600081359050615ccb81615ca5565b92915050565b600060208284031215615ce757615ce6615c6f565b5b6000615cf584828501615cbc565b91505092915050565b60008115159050919050565b615d1381615cfe565b82525050565b6000602082019050615d2e6000830184615d0a565b92915050565b6000819050919050565b615d4781615d34565b82525050565b6000602082019050615d626000830184615d3e565b92915050565b615d7181615d34565b8114615d7c57600080fd5b50565b600081359050615d8e81615d68565b92915050565b600060208284031215615daa57615da9615c6f565b5b6000615db884828501615d7f565b91505092915050565b600081519050919050565b600082825260208201905092915050565b60005b83811015615dfb578082015181840152602081019050615de0565b83811115615e0a576000848401525b50505050565b6000601f19601f8301169050919050565b6000615e2c82615dc1565b615e368185615dcc565b9350615e46818560208601615ddd565b615e4f81615e10565b840191505092915050565b60006020820190508181036000830152615e748184615e21565b905092915050565b600073ffffffffffffffffffffffffffffffffffffffff82169050919050565b6000615ea782615e7c565b9050919050565b615eb781615e9c565b8114615ec257600080fd5b50565b600081359050615ed481615eae565b92915050565b600060208284031215615ef057615eef615c6f565b5b6000615efe84828501615ec5565b91505092915050565b600080fd5b7f4e487b7100000000000000000000000000000000000000000000000000000000600052604160045260246000fd5b615f4482615e10565b810181811067ffffffffffffffff82111715615f6357615f62615f0c565b5b80604052505050565b6000615f76615c65565b9050615f828282615f3b565b919050565b600067ffffffffffffffff821115615fa257615fa1615f0c565b5b602082029050602081019050919050565b600080fd5b6000615fcb615fc684615f87565b615f6c565b90508083825260208201905060208402830185811115615fee57615fed615fb3565b5b835b8181101561601757806160038882615ec5565b845260208401935050602081019050615ff0565b5050509392505050565b600082601f83011261603657616035615f07565b5b8135616046848260208601615fb8565b91505092915050565b600067ffffffffffffffff82111561606a57616069615f0c565b5b602082029050602081019050919050565b600061608e6160898461604f565b615f6c565b905080838252602082019050602084028301858111156160b1576160b0615fb3565b5b835b818110156160da57806160c68882615d7f565b8452602084019350506020810190506160b3565b5050509392505050565b600082601f8301126160f9576160f8615f07565b5b813561610984826020860161607b565b91505092915050565b600067ffffffffffffffff82111561612d5761612c615f0c565b5b602082029050602081019050919050565b600080fd5b600067ffffffffffffffff82111561615e5761615d615f0c565b5b61616782615e10565b9050602081019050919050565b82818337600083830152505050565b600061619661619184616143565b615f6c565b9050828152602081018484840111156161b2576161b161613e565b5b6161bd848285616174565b509392505050565b600082601f8301126161da576161d9615f07565b5b81356161ea848260208601616183565b91505092915050565b600061620661620184616112565b615f6c565b9050808382526020820190506020840283018581111561622957616228615fb3565b5b835b8181101561627057803567ffffffffffffffff81111561624e5761624d615f07565b5b80860161625b89826161c5565b8552602085019450505060208101905061622b565b5050509392505050565b600082601f83011261628f5761628e615f07565b5b813561629f8482602086016161f3565b91505092915050565b6000819050919050565b6162bb816162a8565b81146162c657600080fd5b50565b6000813590506162d8816162b2565b92915050565b600080600080608085870312156162f8576162f7615c6f565b5b600085013567ffffffffffffffff81111561631657616315615c74565b5b61632287828801616021565b945050602085013567ffffffffffffffff81111561634357616342615c74565b5b61634f878288016160e4565b935050604085013567ffffffffffffffff8111156163705761636f615c74565b5b61637c8782880161627a565b925050606061638d878288016162c9565b91505092959194509250565b6000602082840312156163af576163ae615c6f565b5b60006163bd848285016162c9565b91505092915050565b6163cf816162a8565b82525050565b60006020820190506163ea60008301846163c6565b92915050565b6000806040838503121561640757616406615c6f565b5b6000616415858286016162c9565b925050602061642685828601615ec5565b9150509250929050565b600060ff82169050919050565b61644681616430565b811461645157600080fd5b50565b6000813590506164638161643d565b92915050565b600080600080600060a0868803121561648557616484615c6f565b5b600061649388828901615d7f565b95505060206164a488828901616454565b94505060406164b588828901616454565b93505060606164c6888289016162c9565b92505060806164d7888289016162c9565b9150509295509295909350565b7f4e487b7100000000000000000000000000000000000000000000000000000000600052602160045260246000fd5b60088110616524576165236164e4565b5b50565b600081905061653582616513565b919050565b600061654582616527565b9050919050565b6165558161653a565b82525050565b6000602082019050616570600083018461654c565b92915050565b6000806040838503121561658d5761658c615c6f565b5b600061659b85828601615d7f565b92505060206165ac85828601615ec5565b9150509250929050565b600080604083850312156165cd576165cc615c6f565b5b60006165db85828601615ec5565b925050602083013567ffffffffffffffff8111156165fc576165fb615c74565b5b616608858286016161c5565b9150509250929050565b60006060820190506166276000830186615d3e565b6166346020830185615d3e565b6166416040830184615d3e565b949350505050565b600080604083850312156166605761665f615c6f565b5b600061666e85828601615d7f565b925050602061667f85828601616454565b9150509250929050565b600080fd5b60008083601f8401126166a4576166a3615f07565b5b8235905067ffffffffffffffff8111156166c1576166c0616689565b5b6020830191508360018202830111156166dd576166dc615fb3565b5b9250929050565b600080600080606085870312156166fe576166fd615c6f565b5b600061670c87828801615d7f565b945050602061671d87828801616454565b935050604085013567ffffffffffffffff81111561673e5761673d615c74565b5b61674a8782880161668e565b925092505092959194509250565b600067ffffffffffffffff82111561677357616772615f0c565b5b61677c82615e10565b9050602081019050919050565b600061679c61679784616758565b615f6c565b9050828152602081018484840111156167b8576167b761613e565b5b6167c3848285616174565b509392505050565b600082601f8301126167e0576167df615f07565b5b81356167f0848260208601616789565b91505092915050565b6000806000806080858703121561681357616812615c6f565b5b600085013567ffffffffffffffff81111561683157616830615c74565b5b61683d87828801616021565b945050602085013567ffffffffffffffff81111561685e5761685d615c74565b5b61686a878288016160e4565b935050604085013567ffffffffffffffff81111561688b5761688a615c74565b5b6168978782880161627a565b925050606085013567ffffffffffffffff8111156168b8576168b7615c74565b5b6168c4878288016167cb565b91505092959194509250565b6168d981615e9c565b82525050565b60006020820190506168f460008301846168d0565b92915050565b6000806040838503121561691157616910615c6f565b5b600061691f858286016162c9565b925050602061693085828601615d7f565b9150509250929050565b600061694582615e7c565b9050919050565b60006169578261693a565b9050919050565b6169678161694c565b811461697257600080fd5b50565b6000813590506169848161695e565b92915050565b6000602082840312156169a05761699f615c6f565b5b60006169ae84828501616975565b91505092915050565b600080604083850312156169ce576169cd615c6f565b5b60006169dc85828601615ec5565b92505060206169ed85828601615d7f565b9150509250929050565b6000616a0282615e9c565b9050919050565b616a12816169f7565b8114616a1d57600080fd5b50565b600081359050616a2f81616a09565b92915050565b6000616a408261693a565b9050919050565b616a5081616a35565b8114616a5b57600080fd5b50565b600081359050616a6d81616a47565b92915050565b6000616a7e82615e9c565b9050919050565b616a8e81616a73565b8114616a9957600080fd5b50565b600081359050616aab81616a85565b92915050565b60008060008060808587031215616acb57616aca615c6f565b5b6000616ad987828801616a20565b9450506020616aea87828801616a5e565b9350506040616afb87828801616a9c565b9250506060616b0c87828801615ec5565b91505092959194509250565b6000819050919050565b6000616b3d616b38616b3384615e7c565b616b18565b615e7c565b9050919050565b6000616b4f82616b22565b9050919050565b6000616b6182616b44565b9050919050565b616b7181616b56565b82525050565b6000602082019050616b8c6000830184616b68565b92915050565b7f476f7665726e6f723a206f6e6c79476f7665726e616e63650000000000000000600082015250565b6000616bc8601883615dcc565b9150616bd382616b92565b602082019050919050565b60006020820190508181036000830152616bf781616bbb565b9050919050565b7f4e487b7100000000000000000000000000000000000000000000000000000000600052602260045260246000fd5b60006002820490506001821680616c4557607f821691505b60208210811415616c5957616c58616bfe565b5b50919050565b7f4f776e61626c653a2063616c6c6572206973206e6f7420746865206f776e6572600082015250565b6000616c95602083615dcc565b9150616ca082616c5f565b602082019050919050565b60006020820190508181036000830152616cc481616c88565b9050919050565b6000604082019050616ce060008301856163c6565b616ced60208301846168d0565b9392505050565b7f476f7665726e6f723a2070726f706f73616c206e6f742073756363657373667560008201527f6c00000000000000000000000000000000000000000000000000000000000000602082015250565b6000616d50602183615dcc565b9150616d5b82616cf4565b604082019050919050565b60006020820190508181036000830152616d7f81616d43565b9050919050565b600081519050616d9581615d68565b92915050565b600060208284031215616db157616db0615c6f565b5b6000616dbf84828501616d86565b91505092915050565b600081519050919050565b600082825260208201905092915050565b6000819050602082019050919050565b616dfd81615e9c565b82525050565b6000616e0f8383616df4565b60208301905092915050565b6000602082019050919050565b6000616e3382616dc8565b616e3d8185616dd3565b9350616e4883616de4565b8060005b83811015616e79578151616e608882616e03565b9750616e6b83616e1b565b925050600181019050616e4c565b5085935050505092915050565b600081519050919050565b600082825260208201905092915050565b6000819050602082019050919050565b616ebb81615d34565b82525050565b6000616ecd8383616eb2565b60208301905092915050565b6000602082019050919050565b6000616ef182616e86565b616efb8185616e91565b9350616f0683616ea2565b8060005b83811015616f37578151616f1e8882616ec1565b9750616f2983616ed9565b925050600181019050616f0a565b5085935050505092915050565b600081519050919050565b600082825260208201905092915050565b6000819050602082019050919050565b600081519050919050565b600082825260208201905092915050565b6000616f9782616f70565b616fa18185616f7b565b9350616fb1818560208601615ddd565b616fba81615e10565b840191505092915050565b6000616fd18383616f8c565b905092915050565b6000602082019050919050565b6000616ff182616f44565b616ffb8185616f4f565b93508360208202850161700d85616f60565b8060005b85811015617049578484038952815161702a8582616fc5565b945061703583616fd9565b925060208a01995050600181019050617011565b50829750879550505050505092915050565b6000819050919050565b60008160001b9050919050565b600061708d6170886170838461705b565b617065565b6162a8565b9050919050565b61709d81617072565b82525050565b600060a08201905081810360008301526170bd8188616e28565b905081810360208301526170d18187616ee6565b905081810360408301526170e58186616fe6565b90506170f46060830185617094565b61710160808301846163c6565b9695505050505050565b60008151905061711a816162b2565b92915050565b60006020828403121561713657617135615c6f565b5b60006171448482850161710b565b91505092915050565b600060c08201905081810360008301526171678189616e28565b9050818103602083015261717b8188616ee6565b9050818103604083015261718f8187616fe6565b905061719e6060830186617094565b6171ab60808301856163c6565b6171b860a0830184615d3e565b979650505050505050565b7f4e487b7100000000000000000000000000000000000000000000000000000000600052601160045260246000fd5b60006171fd82615d34565b915061720883615d34565b9250827fffffffffffffffffffffffffffffffffffffffffffffffffffffffffffffffff0382111561723d5761723c6171c3565b5b828201905092915050565b600060408201905061725d6000830185615d3e565b61726a6020830184615d3e565b9392505050565b7f46756e6374696f6e206d7573742062652063616c6c6564207468726f7567682060008201527f64656c656761746563616c6c0000000000000000000000000000000000000000602082015250565b60006172cd602c83615dcc565b91506172d882617271565b604082019050919050565b600060208201905081810360008301526172fc816172c0565b9050919050565b7f46756e6374696f6e206d7573742062652063616c6c6564207468726f7567682060008201527f6163746976652070726f78790000000000000000000000000000000000000000602082015250565b600061735f602c83615dcc565b915061736a82617303565b604082019050919050565b6000602082019050818103600083015261738e81617352565b9050919050565b61739e81616430565b82525050565b60006060820190506173b960008301866163c6565b6173c66020830185615d3e565b6173d36040830184617395565b949350505050565b600060808201905081810360008301526173f58187616e28565b905081810360208301526174098186616ee6565b9050818103604083015261741d8185616fe6565b905061742c60608301846163c6565b95945050505050565b7f4f776e61626c653a206e6577206f776e657220697320746865207a65726f206160008201527f6464726573730000000000000000000000000000000000000000000000000000602082015250565b6000617491602683615dcc565b915061749c82617435565b604082019050919050565b600060208201905081810360008301526174c081617484565b9050919050565b7f496e697469616c697a61626c653a20636f6e747261637420697320616c72656160008201527f647920696e697469616c697a6564000000000000000000000000000000000000602082015250565b6000617523602e83615dcc565b915061752e826174c7565b604082019050919050565b6000602082019050818103600083015261755281617516565b9050919050565b7f4e487b7100000000000000000000000000000000000000000000000000000000600052603260045260246000fd5b6000819050919050565b60006175ad6175a86175a384617588565b616b18565b615d34565b9050919050565b6175bd81617592565b82525050565b60006060820190506175d860008301866175b4565b81810360208301526175ea8185616e28565b905081810360408301526175fe8184616e28565b9050949350505050565b7f476f7665726e6f72566f74657351756f72756d4672616374696f6e3a2071756f60008201527f72756d4e756d657261746f72206f7665722071756f72756d44656e6f6d696e6160208201527f746f720000000000000000000000000000000000000000000000000000000000604082015250565b600061768a604383615dcc565b915061769582617608565b606082019050919050565b600060208201905081810360008301526176b98161767d565b9050919050565b600081905092915050565b7f416363657373436f6e74726f6c3a206163636f756e7420000000000000000000600082015250565b60006177016017836176c0565b915061770c826176cb565b601782019050919050565b600061772282615dc1565b61772c81856176c0565b935061773c818560208601615ddd565b80840191505092915050565b7f206973206d697373696e6720726f6c6520000000000000000000000000000000600082015250565b600061777e6011836176c0565b915061778982617748565b601182019050919050565b600061779f826176f4565b91506177ab8285617717565b91506177b682617771565b91506177c28284617717565b91508190509392505050565b7f416363657373436f6e74726f6c3a2063616e206f6e6c792072656e6f756e636560008201527f20726f6c657320666f722073656c660000000000000000000000000000000000602082015250565b600061782a602f83615dcc565b9150617835826177ce565b604082019050919050565b600060208201905081810360008301526178598161781d565b9050919050565b7f45524331393637557067726164653a207570677261646520627265616b73206660008201527f7572746865722075706772616465730000000000000000000000000000000000602082015250565b60006178bc602f83615dcc565b91506178c782617860565b604082019050919050565b600060208201905081810360008301526178eb816178af565b9050919050565b7f476f7665726e6f723a20766f7465206e6f742063757272656e746c792061637460008201527f6976650000000000000000000000000000000000000000000000000000000000602082015250565b600061794e602383615dcc565b9150617959826178f2565b604082019050919050565b6000602082019050818103600083015261797d81617941565b9050919050565b60006080820190506179996000830187615d3e565b6179a66020830186617395565b6179b36040830185615d3e565b81810360608301526179c58184615e21565b905095945050505050565b6179d981615cfe565b81146179e457600080fd5b50565b6000815190506179f6816179d0565b92915050565b600060208284031215617a1257617a11615c6f565b5b6000617a20848285016179e7565b91505092915050565b7f476f7665726e6f723a20696e76616c69642070726f706f73616c206c656e677460008201527f6800000000000000000000000000000000000000000000000000000000000000602082015250565b6000617a85602183615dcc565b9150617a9082617a29565b604082019050919050565b60006020820190508181036000830152617ab481617a78565b9050919050565b7f476f7665726e6f723a20656d7074792070726f706f73616c0000000000000000600082015250565b6000617af1601883615dcc565b9150617afc82617abb565b602082019050919050565b60006020820190508181036000830152617b2081617ae4565b9050919050565b7f476f7665726e6f723a2070726f706f73616c20616c726561647920657869737460008201527f7300000000000000000000000000000000000000000000000000000000000000602082015250565b6000617b83602183615dcc565b9150617b8e82617b27565b604082019050919050565b60006020820190508181036000830152617bb281617b76565b9050919050565b600067ffffffffffffffff82169050919050565b6000617bd882617bb9565b9150617be383617bb9565b92508267ffffffffffffffff03821115617c0057617bff6171c3565b5b828201905092915050565b600081519050919050565b600082825260208201905092915050565b6000819050602082019050919050565b600082825260208201905092915050565b6000617c5382615dc1565b617c5d8185617c37565b9350617c6d818560208601615ddd565b617c7681615e10565b840191505092915050565b6000617c8d8383617c48565b905092915050565b6000602082019050919050565b6000617cad82617c0b565b617cb78185617c16565b935083602082028501617cc985617c27565b8060005b85811015617d055784840389528151617ce68582617c81565b9450617cf183617c95565b925060208a01995050600181019050617ccd565b50829750879550505050505092915050565b6000617d32617d2d617d2884617bb9565b616b18565b615d34565b9050919050565b617d4281617d17565b82525050565b600061012082019050617d5e600083018c615d3e565b617d6b602083018b6168d0565b8181036040830152617d7d818a616e28565b90508181036060830152617d918189616ee6565b90508181036080830152617da58188617ca2565b905081810360a0830152617db98187616fe6565b9050617dc860c0830186617d39565b617dd560e0830185617d39565b818103610100830152617de88184615e21565b90509a9950505050505050505050565b6000604082019050617e0d60008301856168d0565b617e1a60208301846168d0565b9392505050565b6000604082019050617e3660008301856168d0565b617e436020830184615d3e565b9392505050565b6000617e5582615d34565b9150617e6083615d34565b9250817fffffffffffffffffffffffffffffffffffffffffffffffffffffffffffffffff0483118215151615617e9957617e986171c3565b5b828202905092915050565b7f4e487b7100000000000000000000000000000000000000000000000000000000600052601260045260246000fd5b6000617ede82615d34565b9150617ee983615d34565b925082617ef957617ef8617ea4565b5b828204905092915050565b6000617f0f82615d34565b91506000821415617f2357617f226171c3565b5b600182039050919050565b7f537472696e67733a20686578206c656e67746820696e73756666696369656e74600082015250565b6000617f64602083615dcc565b9150617f6f82617f2e565b602082019050919050565b60006020820190508181036000830152617f9381617f57565b9050919050565b6000617fa582615d34565b9150617fb083615d34565b925082821015617fc357617fc26171c3565b5b828203905092915050565b7f4e487b7100000000000000000000000000000000000000000000000000000000600052603160045260246000fd5b7f455243313936373a206e657720696d706c656d656e746174696f6e206973206e60008201527f6f74206120636f6e747261637400000000000000000000000000000000000000602082015250565b6000618059602d83615dcc565b915061806482617ffd565b604082019050919050565b600060208201905081810360008301526180888161804c565b9050919050565b7f416464726573733a2064656c65676174652063616c6c20746f206e6f6e2d636f60008201527f6e74726163740000000000000000000000000000000000000000000000000000602082015250565b60006180eb602683615dcc565b91506180f68261808f565b604082019050919050565b6000602082019050818103600083015261811a816180de565b9050919050565b600081905092915050565b600061813782616f70565b6181418185618121565b9350618151818560208601615ddd565b80840191505092915050565b6000618169828461812c565b915081905092915050565b7f1901000000000000000000000000000000000000000000000000000000000000600082015250565b60006181aa6002836176c0565b91506181b582618174565b600282019050919050565b6000819050919050565b6181db6181d6826162a8565b6181c0565b82525050565b60006181ec8261819d565b91506181f882856181ca565b60208201915061820882846181ca565b6020820191508190509392505050565b600060808201905061822d60008301876163c6565b61823a6020830186617395565b61824760408301856163c6565b61825460608301846163c6565b95945050505050565b7f45434453413a20696e76616c6964207369676e61747572650000000000000000600082015250565b6000618293601883615dcc565b915061829e8261825d565b602082019050919050565b600060208201905081810360008301526182c281618286565b9050919050565b7f45434453413a20696e76616c6964207369676e6174757265206c656e67746800600082015250565b60006182ff601f83615dcc565b915061830a826182c9565b602082019050919050565b6000602082019050818103600083015261832e816182f2565b9050919050565b7f45434453413a20696e76616c6964207369676e6174757265202773272076616c60008201527f7565000000000000000000000000000000000000000000000000000000000000602082015250565b6000618391602283615dcc565b915061839c82618335565b604082019050919050565b600060208201905081810360008301526183c081618384565b9050919050565b7f45434453413a20696e76616c6964207369676e6174757265202776272076616c60008201527f7565000000000000000000000000000000000000000000000000000000000000602082015250565b6000618423602283615dcc565b915061842e826183c7565b604082019050919050565b6000602082019050818103600083015261845281618416565b9050919050565b7f476f7665726e6f72566f74696e6753696d706c653a20766f746520616c72656160008201527f6479206361737400000000000000000000000000000000000000000000000000602082015250565b60006184b5602783615dcc565b91506184c082618459565b604082019050919050565b600060208201905081810360008301526184e4816184a8565b9050919050565b7f476f7665726e6f72566f74696e6753696d706c653a20696e76616c696420766160008201527f6c756520666f7220656e756d20566f7465547970650000000000000000000000602082015250565b6000618547603583615dcc565b9150618552826184eb565b604082019050919050565b600060208201905081810360008301526185768161853a565b9050919050565b7f476f7665726e6f723a20756e6b6e6f776e2070726f706f73616c206964000000600082015250565b60006185b3601d83615dcc565b91506185be8261857d565b602082019050919050565b600060208201905081810360008301526185e2816185a6565b9050919050565b7f53616665436173743a2076616c756520646f65736e27742066697420696e203660008201527f3420626974730000000000000000000000000000000000000000000000000000602082015250565b6000618645602683615dcc565b9150618650826185e9565b604082019050919050565b6000602082019050818103600083015261867481618638565b9050919050565b600060a08201905061869060008301886163c6565b61869d60208301876163c6565b6186aa60408301866163c6565b6186b76060830185615d3e565b6186c460808301846168d0565b969550505050505056fe416464726573733a206c6f772d6c6576656c2064656c65676174652063616c6c206661696c6564a2646970667358221220e3182fb2599dc8d6c181a683b9e21a68171d6cc0d2132cc1cfcd8577faacf8e464736f6c63430008090033",
  "immutableReferences": {
    "4069": [
      {
        "length": 32,
        "start": 5329
      },
      {
        "length": 32,
        "start": 5472
      },
      {
        "length": 32,
        "start": 5995
      },
      {
        "length": 32,
        "start": 6138
      }
    ]
  },
  "source": "// SPDX-License-Identifier: MIT\npragma solidity ^0.8.2;\n\n/// @title The IKONDAO - a distributed collective for icon, vector graphics, animated svg's creators and creative artists\n/// @author Fernando M. Trouw\n/// @notice this contract experimental \n\nimport \"@openzeppelin/contracts-upgradeable/governance/GovernorUpgradeable.sol\";\nimport \"@openzeppelin/contracts-upgradeable/governance/extensions/GovernorCountingSimpleUpgradeable.sol\";\nimport \"@openzeppelin/contracts-upgradeable/governance/extensions/GovernorVotesUpgradeable.sol\";\nimport \"@openzeppelin/contracts-upgradeable/governance/extensions/GovernorVotesQuorumFractionUpgradeable.sol\";\nimport \"@openzeppelin/contracts-upgradeable/governance/extensions/GovernorTimelockControlUpgradeable.sol\";\nimport \"@openzeppelin/contracts-upgradeable/proxy/utils/Initializable.sol\";\nimport \"@openzeppelin/contracts-upgradeable/access/OwnableUpgradeable.sol\";\nimport \"@openzeppelin/contracts-upgradeable/proxy/utils/UUPSUpgradeable.sol\";\nimport \"@openzeppelin/contracts-upgradeable/access/AccessControlEnumerableUpgradeable.sol\";\nimport \"@openzeppelin/contracts-upgradeable/governance/TimelockControllerUpgradeable.sol\";\nimport \"./IkonDAOGovernance.sol\";\nimport \"./IkonDAOToken.sol\";\nimport \"./IkonDAOTimelock.sol\";\n\n/// @custom:security-contact ftrouw@protonmail.com\ncontract IkonDAO is \nInitializable, \nGovernorUpgradeable, \nGovernorCountingSimpleUpgradeable, \nGovernorVotesUpgradeable, \nGovernorVotesQuorumFractionUpgradeable, \nGovernorTimelockControlUpgradeable, \nOwnableUpgradeable, \nUUPSUpgradeable, \nAccessControlEnumerableUpgradeable {\n    \n    /// @custom:oz-upgrades-unsafe-allow constructor\n    constructor() initializer {} \n    \n    bytes32 public constant IKONDAO_MEMBER_ROLE = keccak256(\"IKONDAO_MEMBER_ROLE\"); \n    bytes32 public constant IKONDAO_ADMIN_ROLE = keccak256('IKONDAO_ADMIN_ROLE');\n\n    IkonDAOTimelock private _daoTimelock;\n    IkonDAOGovernance private IKDG;\n    IkonDAOToken private IKDT;\n\n    event MemberCreated(address _applicant);\n    event MemberRemoved(address _member);\n\n    /// @notice create new dao members \n    /// @param _applicant is the address of the wallet that is appplying to become a member\n    /// @dev only the dao (proxy) can add and remove new members, timelock controller adds members as proposers\n    function createMember(address _applicant) external onlyRole(IKONDAO_ADMIN_ROLE){\n        grantRole(IKONDAO_MEMBER_ROLE, _applicant); \n        _daoTimelock.grantRole(keccak256(\"PROPOSER_ROLE\"), _applicant);\n        emit MemberCreated(_applicant);\n    }\n\n    /// @notice remove new dao members, members have to vote on role revokes\n    /// @dev removes member role from target only the timelock -> which will be the owner of the poxy can revoke roles\n    /// @param target target of whose role will be revoked\n    function removeMember(address target) external onlyRole(IKONDAO_ADMIN_ROLE) onlyOwner {\n        revokeRole(IKONDAO_MEMBER_ROLE, target);\n        _daoTimelock.revokeRole(keccak256(\"PROPOSER_ROLE\"), target);\n        emit MemberRemoved(target);\n    }\n\n    function initialize(ERC20VotesUpgradeable _govtoken, IkonDAOTimelock _timelock, ERC20Upgradeable _token, address _proxy)\n        initializer public\n    {    \n        /// @notice initialize IkonDAOTimelock\n        address[] memory proposers;\n        address[] memory executors; \n        proposers[0] =_proxy;\n        (executors[0], executors[1]) = (_proxy, msg.sender);\n        IkonDAOTimelock(payable(address(_timelock))).__IkonDAOTimelock_init(2, proposers, executors);\n\n        __Governor_init(\"IkonDAO\");\n        __GovernorCountingSimple_init();\n        __GovernorVotes_init(_govtoken); \n        __GovernorVotesQuorumFraction_init(4);\n        __GovernorTimelockControl_init(_timelock);\n        __Ownable_init();\n        __UUPSUpgradeable_init(); \n        __AccessControlEnumerable_init();\n        \n        _daoTimelock = _timelock;\n        IKDG = IkonDAOGovernance(address(_govtoken));\n        IKDT = IkonDAOToken(address(_token));\n        \n        // transferOwnership(address(_timelock));\n        _setRoleAdmin(IKONDAO_MEMBER_ROLE, IKONDAO_ADMIN_ROLE);             \n        _setupRole(IKONDAO_ADMIN_ROLE, _msgSender());\n        _setupRole(IKONDAO_ADMIN_ROLE, address(this));\n    }\n\n    function votingDelay() public pure override returns (uint256) {\n        return 1; // 1 block\n    }\n\n    function votingPeriod() public pure override returns (uint256) {\n        return 19636; // 3 days\n    }\n\n    function _authorizeUpgrade(address newImplementation)\n        internal\n        onlyOwner\n        override\n    {}\n\n    // The following functions are overrides required by Solidity.\n    function quorum(uint256 blockNumber)\n        public\n        view\n        override(IGovernorUpgradeable, GovernorVotesQuorumFractionUpgradeable)\n        returns (uint256)\n    {\n        return super.quorum(blockNumber);\n    }\n\n    function getVotes(address account, uint256 blockNumber)\n        public\n        view\n        override(IGovernorUpgradeable, GovernorVotesUpgradeable)\n        returns (uint256)\n    {\n        return super.getVotes(account, blockNumber);\n    }\n\n    function state(uint256 proposalId)\n        public\n        view\n        override(GovernorUpgradeable, GovernorTimelockControlUpgradeable)\n        returns (ProposalState)\n    {\n        return super.state(proposalId);\n    }\n\n    function propose(address[] memory targets, uint256[] memory values, bytes[] memory calldatas, string memory description)\n        public\n        override(GovernorUpgradeable, IGovernorUpgradeable)\n        returns (uint256)\n    {   \n        return super.propose(targets, values, calldatas, description);\n    }\n\n    function _execute(uint256 proposalId, address[] memory targets, uint256[] memory values, bytes[] memory calldatas, bytes32 descriptionHash)\n        internal\n        override(GovernorUpgradeable, GovernorTimelockControlUpgradeable)\n    {\n        super._execute(proposalId, targets, values, calldatas, descriptionHash);\n    }\n\n    function _cancel(address[] memory targets, uint256[] memory values, bytes[] memory calldatas, bytes32 descriptionHash)\n        internal\n        override(GovernorUpgradeable, GovernorTimelockControlUpgradeable)\n        returns (uint256)\n    {\n        return super._cancel(targets, values, calldatas, descriptionHash);\n    }\n\n    function _executor()\n        internal\n        view\n        override(GovernorUpgradeable, GovernorTimelockControlUpgradeable)\n        returns (address)\n    {\n        return super._executor();\n    }\n\n    function supportsInterface(bytes4 interfaceId)\n        public\n        view\n        override(GovernorUpgradeable, GovernorTimelockControlUpgradeable, AccessControlEnumerableUpgradeable)\n        returns (bool)\n    {\n        return super.supportsInterface(interfaceId);\n    }\n}\n",
  "sourcePath": "/run/media/rasguy92/SDD (windows)/projectIdeas/iconify/contracts/IkonDAO.sol",
  "compiler": {
    "name": "solc",
    "version": "0.8.9+commit.e5eed63a.Emscripten.clang"
  },
  "schemaVersion": "3.4.3",
  "updatedAt": "2021-10-23T06:58:22.220Z",
  "devdoc": {
    "custom:security-contact": "ftrouw@protonmail.com",
    "kind": "dev",
    "methods": {
      "COUNTING_MODE()": {
        "details": "See {IGovernor-COUNTING_MODE}."
      },
      "castVote(uint256,uint8)": {
        "details": "See {IGovernor-castVote}."
      },
      "castVoteBySig(uint256,uint8,uint8,bytes32,bytes32)": {
        "details": "See {IGovernor-castVoteBySig}."
      },
      "castVoteWithReason(uint256,uint8,string)": {
        "details": "See {IGovernor-castVoteWithReason}."
      },
      "constructor": {
        "custom:oz-upgrades-unsafe-allow": "constructor"
      },
      "createMember(address)": {
        "details": "only the dao (proxy) can add and remove new members, timelock controller adds members as proposers",
        "params": {
          "_applicant": "is the address of the wallet that is appplying to become a member"
        }
      },
      "execute(address[],uint256[],bytes[],bytes32)": {
        "details": "See {IGovernor-execute}."
      },
      "getRoleAdmin(bytes32)": {
        "details": "Returns the admin role that controls `role`. See {grantRole} and {revokeRole}. To change a role's admin, use {_setRoleAdmin}."
      },
      "getRoleMember(bytes32,uint256)": {
        "details": "Returns one of the accounts that have `role`. `index` must be a value between 0 and {getRoleMemberCount}, non-inclusive. Role bearers are not sorted in any particular way, and their ordering may change at any point. WARNING: When using {getRoleMember} and {getRoleMemberCount}, make sure you perform all queries on the same block. See the following https://forum.openzeppelin.com/t/iterating-over-elements-on-enumerableset-in-openzeppelin-contracts/2296[forum post] for more information."
      },
      "getRoleMemberCount(bytes32)": {
        "details": "Returns the number of accounts that have `role`. Can be used together with {getRoleMember} to enumerate all bearers of a role."
      },
      "grantRole(bytes32,address)": {
        "details": "Overload {grantRole} to track enumerable memberships"
      },
      "hasRole(bytes32,address)": {
        "details": "Returns `true` if `account` has been granted `role`."
      },
      "hasVoted(uint256,address)": {
        "details": "See {IGovernor-hasVoted}."
      },
      "hashProposal(address[],uint256[],bytes[],bytes32)": {
        "details": "See {IGovernor-hashProposal}. The proposal id is produced by hashing the RLC encoded `targets` array, the `values` array, the `calldatas` array and the descriptionHash (bytes32 which itself is the keccak256 hash of the description string). This proposal id can be produced from the proposal data which is part of the {ProposalCreated} event. It can even be computed in advance, before the proposal is submitted. Note that the chainId and the governor address are not part of the proposal id computation. Consequently, the same proposal (with same operation and same description) will have the same id if submitted on multiple governors accross multiple networks. This also means that in order to execute the same operation twice (on the same governor) the proposer will have to change the description in order to avoid proposal id conflicts."
      },
      "name()": {
        "details": "See {IGovernor-name}."
      },
      "owner()": {
        "details": "Returns the address of the current owner."
      },
      "proposalDeadline(uint256)": {
        "details": "See {IGovernor-proposalDeadline}."
      },
      "proposalEta(uint256)": {
        "details": "Public accessor to check the eta of a queued proposal"
      },
      "proposalSnapshot(uint256)": {
        "details": "See {IGovernor-proposalSnapshot}."
      },
      "proposalVotes(uint256)": {
        "details": "Accessor to the internal vote counts."
      },
      "queue(address[],uint256[],bytes[],bytes32)": {
        "details": "Function to queue a proposal to the timelock."
      },
      "removeMember(address)": {
        "details": "removes member role from target only the timelock -> which will be the owner of the poxy can revoke roles",
        "params": {
          "target": "target of whose role will be revoked"
        }
      },
      "renounceOwnership()": {
        "details": "Leaves the contract without owner. It will not be possible to call `onlyOwner` functions anymore. Can only be called by the current owner. NOTE: Renouncing ownership will leave the contract without an owner, thereby removing any functionality that is only available to the owner."
      },
      "renounceRole(bytes32,address)": {
        "details": "Overload {renounceRole} to track enumerable memberships"
      },
      "revokeRole(bytes32,address)": {
        "details": "Overload {revokeRole} to track enumerable memberships"
      },
      "timelock()": {
        "details": "Public accessor to check the address of the timelock"
      },
      "transferOwnership(address)": {
        "details": "Transfers ownership of the contract to a new account (`newOwner`). Can only be called by the current owner."
      },
      "updateTimelock(address)": {
        "details": "Public endpoint to update the underlying timelock instance. Restricted to the timelock itself, so updates must be proposed, scheduled and executed using the {Governor} workflow."
      },
      "upgradeTo(address)": {
        "details": "Upgrade the implementation of the proxy to `newImplementation`. Calls {_authorizeUpgrade}. Emits an {Upgraded} event."
      },
      "upgradeToAndCall(address,bytes)": {
        "details": "Upgrade the implementation of the proxy to `newImplementation`, and subsequently execute the function call encoded in `data`. Calls {_authorizeUpgrade}. Emits an {Upgraded} event."
      },
      "version()": {
        "details": "See {IGovernor-version}."
      },
      "votingDelay()": {
        "details": "delay, in number of block, between the proposal is created and the vote starts. This can be increassed to leave time for users to buy voting power, of delegate it, before the voting of a proposal starts."
      },
      "votingPeriod()": {
        "details": "delay, in number of blocks, between the vote start and vote ends. Note: the {votingDelay} can delay the start of the vote. This must be considered when setting the voting duration compared to the voting delay."
      }
    },
    "version": 1
  },
  "userdoc": {
    "kind": "user",
    "methods": {
      "createMember(address)": {
        "notice": "create new dao members "
      },
      "removeMember(address)": {
        "notice": "remove new dao members, members have to vote on role revokes"
      },
      "votingDelay()": {
        "notice": "module:user-config"
      },
      "votingPeriod()": {
        "notice": "module:user-config"
      }
    },
    "version": 1
  }
}