{
  "contractName": "IkonDAO",
  "abi": [
    {
      "inputs": [],
      "stateMutability": "nonpayable",
      "type": "constructor"
    },
    {
      "anonymous": false,
      "inputs": [
        {
          "indexed": false,
          "internalType": "address",
          "name": "previousAdmin",
          "type": "address"
        },
        {
          "indexed": false,
          "internalType": "address",
          "name": "newAdmin",
          "type": "address"
        }
      ],
      "name": "AdminChanged",
      "type": "event"
    },
    {
      "anonymous": false,
      "inputs": [
        {
          "indexed": true,
          "internalType": "address",
          "name": "beacon",
          "type": "address"
        }
      ],
      "name": "BeaconUpgraded",
      "type": "event"
    },
    {
      "anonymous": false,
      "inputs": [
        {
          "indexed": true,
          "internalType": "address",
          "name": "previousOwner",
          "type": "address"
        },
        {
          "indexed": true,
          "internalType": "address",
          "name": "newOwner",
          "type": "address"
        }
      ],
      "name": "OwnershipTransferred",
      "type": "event"
    },
    {
      "anonymous": false,
      "inputs": [
        {
          "indexed": true,
          "internalType": "bytes32",
          "name": "role",
          "type": "bytes32"
        },
        {
          "indexed": true,
          "internalType": "bytes32",
          "name": "previousAdminRole",
          "type": "bytes32"
        },
        {
          "indexed": true,
          "internalType": "bytes32",
          "name": "newAdminRole",
          "type": "bytes32"
        }
      ],
      "name": "RoleAdminChanged",
      "type": "event"
    },
    {
      "anonymous": false,
      "inputs": [
        {
          "indexed": true,
          "internalType": "bytes32",
          "name": "role",
          "type": "bytes32"
        },
        {
          "indexed": true,
          "internalType": "address",
          "name": "account",
          "type": "address"
        },
        {
          "indexed": true,
          "internalType": "address",
          "name": "sender",
          "type": "address"
        }
      ],
      "name": "RoleGranted",
      "type": "event"
    },
    {
      "anonymous": false,
      "inputs": [
        {
          "indexed": true,
          "internalType": "bytes32",
          "name": "role",
          "type": "bytes32"
        },
        {
          "indexed": true,
          "internalType": "address",
          "name": "account",
          "type": "address"
        },
        {
          "indexed": true,
          "internalType": "address",
          "name": "sender",
          "type": "address"
        }
      ],
      "name": "RoleRevoked",
      "type": "event"
    },
    {
      "anonymous": false,
      "inputs": [
        {
          "indexed": true,
          "internalType": "address",
          "name": "implementation",
          "type": "address"
        }
      ],
      "name": "Upgraded",
      "type": "event"
    },
    {
      "inputs": [],
      "name": "DEFAULT_ADMIN_ROLE",
      "outputs": [
        {
          "internalType": "bytes32",
          "name": "",
          "type": "bytes32"
        }
      ],
      "stateMutability": "view",
      "type": "function"
    },
    {
      "inputs": [
        {
          "internalType": "bytes32",
          "name": "role",
          "type": "bytes32"
        }
      ],
      "name": "getRoleAdmin",
      "outputs": [
        {
          "internalType": "bytes32",
          "name": "",
          "type": "bytes32"
        }
      ],
      "stateMutability": "view",
      "type": "function"
    },
    {
      "inputs": [
        {
          "internalType": "bytes32",
          "name": "role",
          "type": "bytes32"
        },
        {
          "internalType": "address",
          "name": "account",
          "type": "address"
        }
      ],
      "name": "grantRole",
      "outputs": [],
      "stateMutability": "nonpayable",
      "type": "function"
    },
    {
      "inputs": [
        {
          "internalType": "bytes32",
          "name": "role",
          "type": "bytes32"
        },
        {
          "internalType": "address",
          "name": "account",
          "type": "address"
        }
      ],
      "name": "hasRole",
      "outputs": [
        {
          "internalType": "bool",
          "name": "",
          "type": "bool"
        }
      ],
      "stateMutability": "view",
      "type": "function"
    },
    {
      "inputs": [],
      "name": "owner",
      "outputs": [
        {
          "internalType": "address",
          "name": "",
          "type": "address"
        }
      ],
      "stateMutability": "view",
      "type": "function"
    },
    {
      "inputs": [],
      "name": "renounceOwnership",
      "outputs": [],
      "stateMutability": "nonpayable",
      "type": "function"
    },
    {
      "inputs": [
        {
          "internalType": "bytes32",
          "name": "role",
          "type": "bytes32"
        },
        {
          "internalType": "address",
          "name": "account",
          "type": "address"
        }
      ],
      "name": "renounceRole",
      "outputs": [],
      "stateMutability": "nonpayable",
      "type": "function"
    },
    {
      "inputs": [
        {
          "internalType": "bytes32",
          "name": "role",
          "type": "bytes32"
        },
        {
          "internalType": "address",
          "name": "account",
          "type": "address"
        }
      ],
      "name": "revokeRole",
      "outputs": [],
      "stateMutability": "nonpayable",
      "type": "function"
    },
    {
      "inputs": [
        {
          "internalType": "bytes4",
          "name": "interfaceId",
          "type": "bytes4"
        }
      ],
      "name": "supportsInterface",
      "outputs": [
        {
          "internalType": "bool",
          "name": "",
          "type": "bool"
        }
      ],
      "stateMutability": "view",
      "type": "function"
    },
    {
      "inputs": [
        {
          "internalType": "address",
          "name": "newOwner",
          "type": "address"
        }
      ],
      "name": "transferOwnership",
      "outputs": [],
      "stateMutability": "nonpayable",
      "type": "function"
    },
    {
      "inputs": [
        {
          "internalType": "address",
          "name": "newImplementation",
          "type": "address"
        }
      ],
      "name": "upgradeTo",
      "outputs": [],
      "stateMutability": "nonpayable",
      "type": "function"
    },
    {
      "inputs": [
        {
          "internalType": "address",
          "name": "newImplementation",
          "type": "address"
        },
        {
          "internalType": "bytes",
          "name": "data",
          "type": "bytes"
        }
      ],
      "name": "upgradeToAndCall",
      "outputs": [],
      "stateMutability": "payable",
      "type": "function"
    },
    {
      "inputs": [
        {
          "internalType": "address",
          "name": "_govTokenAddress",
          "type": "address"
        },
        {
          "internalType": "address",
          "name": "_daoGovernor",
          "type": "address"
        },
        {
          "internalType": "address",
          "name": "_daoTimelockAddress",
          "type": "address"
        },
        {
          "internalType": "address",
          "name": "_ikonDaoToken",
          "type": "address"
        }
      ],
      "name": "__IkonDAO_init",
      "outputs": [],
      "stateMutability": "nonpayable",
      "type": "function"
    },
    {
      "inputs": [],
      "name": "getGovernorVersion",
      "outputs": [
        {
          "internalType": "string",
          "name": "",
          "type": "string"
        }
      ],
      "stateMutability": "view",
      "type": "function"
    }
  ],
  "bytecode": "0x60a06040523073ffffffffffffffffffffffffffffffffffffffff1660809073ffffffffffffffffffffffffffffffffffffffff1681525034801561004357600080fd5b506080516126536100746000396000818161048b0152818161051a0152818161061401526106a301526126536000f3fe6080604052600436106100dd5760003560e01c806372e036031161007f578063a217fddf11610059578063a217fddf1461029d578063d547741f146102c8578063f2fde38b146102f1578063fc603e2e1461031a576100dd565b806372e036031461020a5780638da5cb5b1461023557806391d1485414610260576100dd565b806336568abe116100bb57806336568abe146101855780633659cfe6146101ae5780634f1ef286146101d7578063715018a6146101f3576100dd565b806301ffc9a7146100e2578063248a9ca31461011f5780632f2ff15d1461015c575b600080fd5b3480156100ee57600080fd5b506101096004803603810190610104919061185e565b610343565b60405161011691906118a6565b60405180910390f35b34801561012b57600080fd5b50610146600480360381019061014191906118f7565b6103bd565b6040516101539190611933565b60405180910390f35b34801561016857600080fd5b50610183600480360381019061017e91906119ac565b6103dd565b005b34801561019157600080fd5b506101ac60048036038101906101a791906119ac565b610406565b005b3480156101ba57600080fd5b506101d560048036038101906101d091906119ec565b610489565b005b6101f160048036038101906101ec9190611b5f565b610612565b005b3480156101ff57600080fd5b5061020861074f565b005b34801561021657600080fd5b5061021f6107d7565b60405161022c9190611c43565b60405180910390f35b34801561024157600080fd5b5061024a610883565b6040516102579190611c74565b60405180910390f35b34801561026c57600080fd5b50610287600480360381019061028291906119ac565b6108ad565b60405161029491906118a6565b60405180910390f35b3480156102a957600080fd5b506102b2610918565b6040516102bf9190611933565b60405180910390f35b3480156102d457600080fd5b506102ef60048036038101906102ea91906119ac565b61091f565b005b3480156102fd57600080fd5b50610318600480360381019061031391906119ec565b610948565b005b34801561032657600080fd5b50610341600480360381019061033c9190611c8f565b610a40565b005b60007f7965db0b000000000000000000000000000000000000000000000000000000007bffffffffffffffffffffffffffffffffffffffffffffffffffffffff1916827bffffffffffffffffffffffffffffffffffffffffffffffffffffffff191614806103b657506103b582610cc6565b5b9050919050565b600060976000838152602001908152602001600020600101549050919050565b6103e6826103bd565b6103f7816103f2610d30565b610d38565b6104018383610dd5565b505050565b61040e610d30565b73ffffffffffffffffffffffffffffffffffffffff168173ffffffffffffffffffffffffffffffffffffffff161461047b576040517f08c379a000000000000000000000000000000000000000000000000000000000815260040161047290611d68565b60405180910390fd5b6104858282610eb6565b5050565b7f000000000000000000000000000000000000000000000000000000000000000073ffffffffffffffffffffffffffffffffffffffff163073ffffffffffffffffffffffffffffffffffffffff161415610518576040517f08c379a000000000000000000000000000000000000000000000000000000000815260040161050f90611dfa565b60405180910390fd5b7f000000000000000000000000000000000000000000000000000000000000000073ffffffffffffffffffffffffffffffffffffffff16610557610f98565b73ffffffffffffffffffffffffffffffffffffffff16146105ad576040517f08c379a00000000000000000000000000000000000000000000000000000000081526004016105a490611e8c565b60405180910390fd5b6105b681610fef565b61060f81600067ffffffffffffffff8111156105d5576105d4611a34565b5b6040519080825280601f01601f1916602001820160405280156106075781602001600182028036833780820191505090505b506000611025565b50565b7f000000000000000000000000000000000000000000000000000000000000000073ffffffffffffffffffffffffffffffffffffffff163073ffffffffffffffffffffffffffffffffffffffff1614156106a1576040517f08c379a000000000000000000000000000000000000000000000000000000000815260040161069890611dfa565b60405180910390fd5b7f000000000000000000000000000000000000000000000000000000000000000073ffffffffffffffffffffffffffffffffffffffff166106e0610f98565b73ffffffffffffffffffffffffffffffffffffffff1614610736576040517f08c379a000000000000000000000000000000000000000000000000000000000815260040161072d90611e8c565b60405180910390fd5b61073f82610fef565b61074b82826001611025565b5050565b610757610d30565b73ffffffffffffffffffffffffffffffffffffffff16610775610883565b73ffffffffffffffffffffffffffffffffffffffff16146107cb576040517f08c379a00000000000000000000000000000000000000000000000000000000081526004016107c290611ef8565b60405180910390fd5b6107d560006111f6565b565b606060c960009054906101000a900473ffffffffffffffffffffffffffffffffffffffff1673ffffffffffffffffffffffffffffffffffffffff16633e118dbe6040518163ffffffff1660e01b815260040160006040518083038186803b15801561084157600080fd5b505afa158015610855573d6000803e3d6000fd5b505050506040513d6000823e3d601f19601f8201168201806040525081019061087e9190611fb9565b905090565b6000603360009054906101000a900473ffffffffffffffffffffffffffffffffffffffff16905090565b60006097600084815260200190815260200160002060000160008373ffffffffffffffffffffffffffffffffffffffff1673ffffffffffffffffffffffffffffffffffffffff16815260200190815260200160002060009054906101000a900460ff16905092915050565b6000801b81565b610928826103bd565b61093981610934610d30565b610d38565b6109438383610eb6565b505050565b610950610d30565b73ffffffffffffffffffffffffffffffffffffffff1661096e610883565b73ffffffffffffffffffffffffffffffffffffffff16146109c4576040517f08c379a00000000000000000000000000000000000000000000000000000000081526004016109bb90611ef8565b60405180910390fd5b600073ffffffffffffffffffffffffffffffffffffffff168173ffffffffffffffffffffffffffffffffffffffff161415610a34576040517f08c379a0000000000000000000000000000000000000000000000000000000008152600401610a2b90612074565b60405180910390fd5b610a3d816111f6565b50565b600060019054906101000a900460ff1680610a66575060008054906101000a900460ff16155b610aa5576040517f08c379a0000000000000000000000000000000000000000000000000000000008152600401610a9c90612106565b60405180910390fd5b60008060019054906101000a900460ff161590508015610af5576001600060016101000a81548160ff02191690831515021790555060016000806101000a81548160ff0219169083151502179055505b8460cb60006101000a81548173ffffffffffffffffffffffffffffffffffffffff021916908373ffffffffffffffffffffffffffffffffffffffff1602179055508260cc60006101000a81548173ffffffffffffffffffffffffffffffffffffffff021916908373ffffffffffffffffffffffffffffffffffffffff1602179055508360c960006101000a81548173ffffffffffffffffffffffffffffffffffffffff021916908373ffffffffffffffffffffffffffffffffffffffff1602179055508160ca60006101000a81548173ffffffffffffffffffffffffffffffffffffffff021916908373ffffffffffffffffffffffffffffffffffffffff160217905550610c2a7f0454d691b20de09c741657b57037379cb9a924a8d5d937a8aedf7cda4a999407610c25610d30565b6112bc565b610c547f0454d691b20de09c741657b57037379cb9a924a8d5d937a8aedf7cda4a999407806112ca565b610c9e7f904cf93ea7789378fd50994f44a6b8ab6b4ef94f4df88df8f6fbb087580199727f0454d691b20de09c741657b57037379cb9a924a8d5d937a8aedf7cda4a9994076112ca565b8015610cbf5760008060016101000a81548160ff0219169083151502179055505b5050505050565b60007f01ffc9a7000000000000000000000000000000000000000000000000000000007bffffffffffffffffffffffffffffffffffffffffffffffffffffffff1916827bffffffffffffffffffffffffffffffffffffffffffffffffffffffff1916149050919050565b600033905090565b610d4282826108ad565b610dd157610d678173ffffffffffffffffffffffffffffffffffffffff166014611326565b610d758360001c6020611326565b604051602001610d869291906121fa565b6040516020818303038152906040526040517f08c379a0000000000000000000000000000000000000000000000000000000008152600401610dc89190611c43565b60405180910390fd5b5050565b610ddf82826108ad565b610eb25760016097600084815260200190815260200160002060000160008373ffffffffffffffffffffffffffffffffffffffff1673ffffffffffffffffffffffffffffffffffffffff16815260200190815260200160002060006101000a81548160ff021916908315150217905550610e57610d30565b73ffffffffffffffffffffffffffffffffffffffff168173ffffffffffffffffffffffffffffffffffffffff16837f2f8788117e7eff1d82e926ec794901d17c78024a50270940304540a733656f0d60405160405180910390a45b5050565b610ec082826108ad565b15610f945760006097600084815260200190815260200160002060000160008373ffffffffffffffffffffffffffffffffffffffff1673ffffffffffffffffffffffffffffffffffffffff16815260200190815260200160002060006101000a81548160ff021916908315150217905550610f39610d30565b73ffffffffffffffffffffffffffffffffffffffff168173ffffffffffffffffffffffffffffffffffffffff16837ff6391f5c32d9c69d2a47ea670b442974b53935d1edc7fd64eb21e047a839171b60405160405180910390a45b5050565b6000610fc67f360894a13ba1a3210667c828492db98dca3e2076cc3735a920a3ca505d382bbc60001b611562565b60000160009054906101000a900473ffffffffffffffffffffffffffffffffffffffff16905090565b7f0454d691b20de09c741657b57037379cb9a924a8d5d937a8aedf7cda4a9994076110218161101c610d30565b610d38565b5050565b600061102f610f98565b905061103a8461156c565b6000835111806110475750815b15611058576110568484611625565b505b60006110867f4910fdfa16fed3260ed0e7147f7cc6da11a60208b5b9406d12a635614ffd914360001b611652565b90508060000160009054906101000a900460ff166111ef5760018160000160006101000a81548160ff02191690831515021790555061115285836040516024016110d09190611c74565b6040516020818303038152906040527f3659cfe6000000000000000000000000000000000000000000000000000000007bffffffffffffffffffffffffffffffffffffffffffffffffffffffff19166020820180517bffffffffffffffffffffffffffffffffffffffffffffffffffffffff8381831617835250505050611625565b5060008160000160006101000a81548160ff021916908315150217905550611178610f98565b73ffffffffffffffffffffffffffffffffffffffff168273ffffffffffffffffffffffffffffffffffffffff16146111e5576040517f08c379a00000000000000000000000000000000000000000000000000000000081526004016111dc906122a6565b60405180910390fd5b6111ee8561165c565b5b5050505050565b6000603360009054906101000a900473ffffffffffffffffffffffffffffffffffffffff16905081603360006101000a81548173ffffffffffffffffffffffffffffffffffffffff021916908373ffffffffffffffffffffffffffffffffffffffff1602179055508173ffffffffffffffffffffffffffffffffffffffff168173ffffffffffffffffffffffffffffffffffffffff167f8be0079c531659141344cd1fd0a4f28419497f9722a3daafe3b4186f6b6457e060405160405180910390a35050565b6112c68282610dd5565b5050565b60006112d5836103bd565b90508160976000858152602001908152602001600020600101819055508181847fbd79b86ffe0ab8e8776151514217cd7cacd52c909f66475c3af44e129f0b00ff60405160405180910390a4505050565b60606000600283600261133991906122ff565b6113439190612359565b67ffffffffffffffff81111561135c5761135b611a34565b5b6040519080825280601f01601f19166020018201604052801561138e5781602001600182028036833780820191505090505b5090507f3000000000000000000000000000000000000000000000000000000000000000816000815181106113c6576113c56123af565b5b60200101907effffffffffffffffffffffffffffffffffffffffffffffffffffffffffffff1916908160001a9053507f78000000000000000000000000000000000000000000000000000000000000008160018151811061142a576114296123af565b5b60200101907effffffffffffffffffffffffffffffffffffffffffffffffffffffffffffff1916908160001a9053506000600184600261146a91906122ff565b6114749190612359565b90505b6001811115611514577f3031323334353637383961626364656600000000000000000000000000000000600f8616601081106114b6576114b56123af565b5b1a60f81b8282815181106114cd576114cc6123af565b5b60200101907effffffffffffffffffffffffffffffffffffffffffffffffffffffffffffff1916908160001a905350600485901c94508061150d906123de565b9050611477565b5060008414611558576040517f08c379a000000000000000000000000000000000000000000000000000000000815260040161154f90612454565b60405180910390fd5b8091505092915050565b6000819050919050565b611575816116ab565b6115b4576040517f08c379a00000000000000000000000000000000000000000000000000000000081526004016115ab906124e6565b60405180910390fd5b806115e17f360894a13ba1a3210667c828492db98dca3e2076cc3735a920a3ca505d382bbc60001b611562565b60000160006101000a81548173ffffffffffffffffffffffffffffffffffffffff021916908373ffffffffffffffffffffffffffffffffffffffff16021790555050565b606061164a83836040518060600160405280602781526020016125f7602791396116be565b905092915050565b6000819050919050565b6116658161156c565b8073ffffffffffffffffffffffffffffffffffffffff167fbc7cd75a20ee27fd9adebab32041f755214dbc6bffa90cc0225b39da2e5c2d3b60405160405180910390a250565b600080823b905060008111915050919050565b60606116c9846116ab565b611708576040517f08c379a00000000000000000000000000000000000000000000000000000000081526004016116ff90612578565b60405180910390fd5b6000808573ffffffffffffffffffffffffffffffffffffffff168560405161173091906125df565b600060405180830381855af49150503d806000811461176b576040519150601f19603f3d011682016040523d82523d6000602084013e611770565b606091505b509150915061178082828661178b565b925050509392505050565b6060831561179b578290506117eb565b6000835111156117ae5782518084602001fd5b816040517f08c379a00000000000000000000000000000000000000000000000000000000081526004016117e29190611c43565b60405180910390fd5b9392505050565b6000604051905090565b600080fd5b600080fd5b60007fffffffff0000000000000000000000000000000000000000000000000000000082169050919050565b61183b81611806565b811461184657600080fd5b50565b60008135905061185881611832565b92915050565b600060208284031215611874576118736117fc565b5b600061188284828501611849565b91505092915050565b60008115159050919050565b6118a08161188b565b82525050565b60006020820190506118bb6000830184611897565b92915050565b6000819050919050565b6118d4816118c1565b81146118df57600080fd5b50565b6000813590506118f1816118cb565b92915050565b60006020828403121561190d5761190c6117fc565b5b600061191b848285016118e2565b91505092915050565b61192d816118c1565b82525050565b60006020820190506119486000830184611924565b92915050565b600073ffffffffffffffffffffffffffffffffffffffff82169050919050565b60006119798261194e565b9050919050565b6119898161196e565b811461199457600080fd5b50565b6000813590506119a681611980565b92915050565b600080604083850312156119c3576119c26117fc565b5b60006119d1858286016118e2565b92505060206119e285828601611997565b9150509250929050565b600060208284031215611a0257611a016117fc565b5b6000611a1084828501611997565b91505092915050565b600080fd5b600080fd5b6000601f19601f8301169050919050565b7f4e487b7100000000000000000000000000000000000000000000000000000000600052604160045260246000fd5b611a6c82611a23565b810181811067ffffffffffffffff82111715611a8b57611a8a611a34565b5b80604052505050565b6000611a9e6117f2565b9050611aaa8282611a63565b919050565b600067ffffffffffffffff821115611aca57611ac9611a34565b5b611ad382611a23565b9050602081019050919050565b82818337600083830152505050565b6000611b02611afd84611aaf565b611a94565b905082815260208101848484011115611b1e57611b1d611a1e565b5b611b29848285611ae0565b509392505050565b600082601f830112611b4657611b45611a19565b5b8135611b56848260208601611aef565b91505092915050565b60008060408385031215611b7657611b756117fc565b5b6000611b8485828601611997565b925050602083013567ffffffffffffffff811115611ba557611ba4611801565b5b611bb185828601611b31565b9150509250929050565b600081519050919050565b600082825260208201905092915050565b60005b83811015611bf5578082015181840152602081019050611bda565b83811115611c04576000848401525b50505050565b6000611c1582611bbb565b611c1f8185611bc6565b9350611c2f818560208601611bd7565b611c3881611a23565b840191505092915050565b60006020820190508181036000830152611c5d8184611c0a565b905092915050565b611c6e8161196e565b82525050565b6000602082019050611c896000830184611c65565b92915050565b60008060008060808587031215611ca957611ca86117fc565b5b6000611cb787828801611997565b9450506020611cc887828801611997565b9350506040611cd987828801611997565b9250506060611cea87828801611997565b91505092959194509250565b7f416363657373436f6e74726f6c3a2063616e206f6e6c792072656e6f756e636560008201527f20726f6c657320666f722073656c660000000000000000000000000000000000602082015250565b6000611d52602f83611bc6565b9150611d5d82611cf6565b604082019050919050565b60006020820190508181036000830152611d8181611d45565b9050919050565b7f46756e6374696f6e206d7573742062652063616c6c6564207468726f7567682060008201527f64656c656761746563616c6c0000000000000000000000000000000000000000602082015250565b6000611de4602c83611bc6565b9150611def82611d88565b604082019050919050565b60006020820190508181036000830152611e1381611dd7565b9050919050565b7f46756e6374696f6e206d7573742062652063616c6c6564207468726f7567682060008201527f6163746976652070726f78790000000000000000000000000000000000000000602082015250565b6000611e76602c83611bc6565b9150611e8182611e1a565b604082019050919050565b60006020820190508181036000830152611ea581611e69565b9050919050565b7f4f776e61626c653a2063616c6c6572206973206e6f7420746865206f776e6572600082015250565b6000611ee2602083611bc6565b9150611eed82611eac565b602082019050919050565b60006020820190508181036000830152611f1181611ed5565b9050919050565b600067ffffffffffffffff821115611f3357611f32611a34565b5b611f3c82611a23565b9050602081019050919050565b6000611f5c611f5784611f18565b611a94565b905082815260208101848484011115611f7857611f77611a1e565b5b611f83848285611bd7565b509392505050565b600082601f830112611fa057611f9f611a19565b5b8151611fb0848260208601611f49565b91505092915050565b600060208284031215611fcf57611fce6117fc565b5b600082015167ffffffffffffffff811115611fed57611fec611801565b5b611ff984828501611f8b565b91505092915050565b7f4f776e61626c653a206e6577206f776e657220697320746865207a65726f206160008201527f6464726573730000000000000000000000000000000000000000000000000000602082015250565b600061205e602683611bc6565b915061206982612002565b604082019050919050565b6000602082019050818103600083015261208d81612051565b9050919050565b7f496e697469616c697a61626c653a20636f6e747261637420697320616c72656160008201527f647920696e697469616c697a6564000000000000000000000000000000000000602082015250565b60006120f0602e83611bc6565b91506120fb82612094565b604082019050919050565b6000602082019050818103600083015261211f816120e3565b9050919050565b600081905092915050565b7f416363657373436f6e74726f6c3a206163636f756e7420000000000000000000600082015250565b6000612167601783612126565b915061217282612131565b601782019050919050565b600061218882611bbb565b6121928185612126565b93506121a2818560208601611bd7565b80840191505092915050565b7f206973206d697373696e6720726f6c6520000000000000000000000000000000600082015250565b60006121e4601183612126565b91506121ef826121ae565b601182019050919050565b60006122058261215a565b9150612211828561217d565b915061221c826121d7565b9150612228828461217d565b91508190509392505050565b7f45524331393637557067726164653a207570677261646520627265616b73206660008201527f7572746865722075706772616465730000000000000000000000000000000000602082015250565b6000612290602f83611bc6565b915061229b82612234565b604082019050919050565b600060208201905081810360008301526122bf81612283565b9050919050565b6000819050919050565b7f4e487b7100000000000000000000000000000000000000000000000000000000600052601160045260246000fd5b600061230a826122c6565b9150612315836122c6565b9250817fffffffffffffffffffffffffffffffffffffffffffffffffffffffffffffffff048311821515161561234e5761234d6122d0565b5b828202905092915050565b6000612364826122c6565b915061236f836122c6565b9250827fffffffffffffffffffffffffffffffffffffffffffffffffffffffffffffffff038211156123a4576123a36122d0565b5b828201905092915050565b7f4e487b7100000000000000000000000000000000000000000000000000000000600052603260045260246000fd5b60006123e9826122c6565b915060008214156123fd576123fc6122d0565b5b600182039050919050565b7f537472696e67733a20686578206c656e67746820696e73756666696369656e74600082015250565b600061243e602083611bc6565b915061244982612408565b602082019050919050565b6000602082019050818103600083015261246d81612431565b9050919050565b7f455243313936373a206e657720696d706c656d656e746174696f6e206973206e60008201527f6f74206120636f6e747261637400000000000000000000000000000000000000602082015250565b60006124d0602d83611bc6565b91506124db82612474565b604082019050919050565b600060208201905081810360008301526124ff816124c3565b9050919050565b7f416464726573733a2064656c65676174652063616c6c20746f206e6f6e2d636f60008201527f6e74726163740000000000000000000000000000000000000000000000000000602082015250565b6000612562602683611bc6565b915061256d82612506565b604082019050919050565b6000602082019050818103600083015261259181612555565b9050919050565b600081519050919050565b600081905092915050565b60006125b982612598565b6125c381856125a3565b93506125d3818560208601611bd7565b80840191505092915050565b60006125eb82846125ae565b91508190509291505056fe416464726573733a206c6f772d6c6576656c2064656c65676174652063616c6c206661696c6564a26469706673582212202fb67cdbef1ebfd761ca267ab97c170f2e0abc73466453074a30b7aca3f2e3e464736f6c63430008090033",
  "immutableReferences": {
    "4311": [
      {
        "length": 32,
        "start": 1163
      },
      {
        "length": 32,
        "start": 1306
      },
      {
        "length": 32,
        "start": 1556
      },
      {
        "length": 32,
        "start": 1699
      }
    ]
  },
  "source": "// SPDX-License-Identifier: MIT\npragma solidity ^0.8.2;\n\n/// @title The IKONDAO - a distributed collective for icon, vector graphics, animated svg's creators and creative artists\n/// @author Fernando M. Trouw\n/// @notice this contract experimental \n/// @notice this contract is an experimental contract and should not be used to initiate project that will hold real value\n\nimport \"@openzeppelin/contracts-upgradeable/access/OwnableUpgradeable.sol\";\nimport \"@openzeppelin/contracts-upgradeable/access/AccessControlUpgradeable.sol\";\nimport \"@openzeppelin/contracts/proxy/utils/UUPSUpgradeable.sol\";\nimport \"@openzeppelin/contracts/governance/TimelockController.sol\";\n\nimport \"./IkonDAOGovernor.sol\";\nimport \"./IkonDAOGovernanceToken.sol\";\nimport \"./IkonDAOToken.sol\";\nimport \"./Constants.sol\";\n\ncontract IkonDAO is Constants, OwnableUpgradeable, AccessControlUpgradeable, UUPSUpgradeable {\n    IkonDAOGovernor private _governor;\n    IkonDAOToken private _daoToken; \n    IkonDAOGovernanceToken private _govToken;\n    TimelockController private _daoTimelock;\n\n    /// @notice unsafe allow     \n    constructor (){} \n\n    /// @notice initializes ikonDAO\n    function __IkonDAO_init(address _govTokenAddress, address _daoGovernor, address _daoTimelockAddress, address _ikonDaoToken) external initializer(){\n        _govToken = IkonDAOGovernanceToken(_govTokenAddress);\n        _daoTimelock = TimelockController(payable(_daoTimelockAddress));\n        _governor = IkonDAOGovernor(_daoGovernor);\n        _daoToken = IkonDAOToken(_ikonDaoToken);\n\n        /// @notice setRoles\n        _setupRole(ADMIN_ROLE, _msgSender());\n        _setRoleAdmin(ADMIN_ROLE, ADMIN_ROLE);\n        _setRoleAdmin(MEMBER_ROLE, ADMIN_ROLE);\n    }\n\n    /// @dev returns governor version\n    function getGovernorVersion() public view returns (string memory) {\n        return _governor._version(); \n    }\n\n    /// @notice upgrades to this contract\n    function _authorizeUpgrade(address newImplementation) internal override onlyRole(ADMIN_ROLE){}\n}",
  "sourcePath": "/run/media/rasguy92/SDD (windows)/projectIdeas/iconify/contracts/IkonDAO.sol",
  "compiler": {
    "name": "solc",
    "version": "0.8.9+commit.e5eed63a.Emscripten.clang"
  },
  "schemaVersion": "3.4.3",
  "updatedAt": "2021-10-26T02:27:18.831Z",
  "devdoc": {
    "kind": "dev",
    "methods": {
      "getGovernorVersion()": {
        "details": "returns governor version"
      },
      "getRoleAdmin(bytes32)": {
        "details": "Returns the admin role that controls `role`. See {grantRole} and {revokeRole}. To change a role's admin, use {_setRoleAdmin}."
      },
      "grantRole(bytes32,address)": {
        "details": "Grants `role` to `account`. If `account` had not been already granted `role`, emits a {RoleGranted} event. Requirements: - the caller must have ``role``'s admin role."
      },
      "hasRole(bytes32,address)": {
        "details": "Returns `true` if `account` has been granted `role`."
      },
      "owner()": {
        "details": "Returns the address of the current owner."
      },
      "renounceOwnership()": {
        "details": "Leaves the contract without owner. It will not be possible to call `onlyOwner` functions anymore. Can only be called by the current owner. NOTE: Renouncing ownership will leave the contract without an owner, thereby removing any functionality that is only available to the owner."
      },
      "renounceRole(bytes32,address)": {
        "details": "Revokes `role` from the calling account. Roles are often managed via {grantRole} and {revokeRole}: this function's purpose is to provide a mechanism for accounts to lose their privileges if they are compromised (such as when a trusted device is misplaced). If the calling account had been granted `role`, emits a {RoleRevoked} event. Requirements: - the caller must be `account`."
      },
      "revokeRole(bytes32,address)": {
        "details": "Revokes `role` from `account`. If `account` had been granted `role`, emits a {RoleRevoked} event. Requirements: - the caller must have ``role``'s admin role."
      },
      "supportsInterface(bytes4)": {
        "details": "See {IERC165-supportsInterface}."
      },
      "transferOwnership(address)": {
        "details": "Transfers ownership of the contract to a new account (`newOwner`). Can only be called by the current owner."
      },
      "upgradeTo(address)": {
        "details": "Upgrade the implementation of the proxy to `newImplementation`. Calls {_authorizeUpgrade}. Emits an {Upgraded} event."
      },
      "upgradeToAndCall(address,bytes)": {
        "details": "Upgrade the implementation of the proxy to `newImplementation`, and subsequently execute the function call encoded in `data`. Calls {_authorizeUpgrade}. Emits an {Upgraded} event."
      }
    },
    "version": 1
  },
  "userdoc": {
    "kind": "user",
    "methods": {
      "__IkonDAO_init(address,address,address,address)": {
        "notice": "initializes ikonDAO"
      },
      "constructor": {
        "notice": "unsafe allow     "
      }
    },
    "version": 1
  }
}