{
  "contractName": "IkonDAOVectorCollectible",
  "abi": [
    {
      "inputs": [
        {
          "internalType": "address",
          "name": "DAO",
          "type": "address"
        }
      ],
      "stateMutability": "nonpayable",
      "type": "constructor"
    },
    {
      "anonymous": false,
      "inputs": [
        {
          "indexed": true,
          "internalType": "address",
          "name": "owner",
          "type": "address"
        },
        {
          "indexed": true,
          "internalType": "address",
          "name": "approved",
          "type": "address"
        },
        {
          "indexed": true,
          "internalType": "uint256",
          "name": "tokenId",
          "type": "uint256"
        }
      ],
      "name": "Approval",
      "type": "event"
    },
    {
      "anonymous": false,
      "inputs": [
        {
          "indexed": true,
          "internalType": "address",
          "name": "owner",
          "type": "address"
        },
        {
          "indexed": true,
          "internalType": "address",
          "name": "operator",
          "type": "address"
        },
        {
          "indexed": false,
          "internalType": "bool",
          "name": "approved",
          "type": "bool"
        }
      ],
      "name": "ApprovalForAll",
      "type": "event"
    },
    {
      "anonymous": false,
      "inputs": [
        {
          "indexed": false,
          "internalType": "address",
          "name": "newAddress",
          "type": "address"
        }
      ],
      "name": "DaoAddressChanged",
      "type": "event"
    },
    {
      "anonymous": false,
      "inputs": [
        {
          "indexed": false,
          "internalType": "address",
          "name": "account",
          "type": "address"
        }
      ],
      "name": "Paused",
      "type": "event"
    },
    {
      "anonymous": false,
      "inputs": [
        {
          "indexed": true,
          "internalType": "bytes32",
          "name": "role",
          "type": "bytes32"
        },
        {
          "indexed": true,
          "internalType": "bytes32",
          "name": "previousAdminRole",
          "type": "bytes32"
        },
        {
          "indexed": true,
          "internalType": "bytes32",
          "name": "newAdminRole",
          "type": "bytes32"
        }
      ],
      "name": "RoleAdminChanged",
      "type": "event"
    },
    {
      "anonymous": false,
      "inputs": [
        {
          "indexed": true,
          "internalType": "bytes32",
          "name": "role",
          "type": "bytes32"
        },
        {
          "indexed": true,
          "internalType": "address",
          "name": "account",
          "type": "address"
        },
        {
          "indexed": true,
          "internalType": "address",
          "name": "sender",
          "type": "address"
        }
      ],
      "name": "RoleGranted",
      "type": "event"
    },
    {
      "anonymous": false,
      "inputs": [
        {
          "indexed": true,
          "internalType": "bytes32",
          "name": "role",
          "type": "bytes32"
        },
        {
          "indexed": true,
          "internalType": "address",
          "name": "account",
          "type": "address"
        },
        {
          "indexed": true,
          "internalType": "address",
          "name": "sender",
          "type": "address"
        }
      ],
      "name": "RoleRevoked",
      "type": "event"
    },
    {
      "anonymous": false,
      "inputs": [
        {
          "indexed": true,
          "internalType": "address",
          "name": "from",
          "type": "address"
        },
        {
          "indexed": true,
          "internalType": "address",
          "name": "to",
          "type": "address"
        },
        {
          "indexed": true,
          "internalType": "uint256",
          "name": "tokenId",
          "type": "uint256"
        }
      ],
      "name": "Transfer",
      "type": "event"
    },
    {
      "anonymous": false,
      "inputs": [
        {
          "indexed": false,
          "internalType": "address",
          "name": "account",
          "type": "address"
        }
      ],
      "name": "Unpaused",
      "type": "event"
    },
    {
      "anonymous": false,
      "inputs": [
        {
          "indexed": false,
          "internalType": "uint256",
          "name": "tokenId",
          "type": "uint256"
        },
        {
          "indexed": false,
          "internalType": "address",
          "name": "receiver",
          "type": "address"
        }
      ],
      "name": "VectorMinted",
      "type": "event"
    },
    {
      "inputs": [],
      "name": "DEFAULT_ADMIN_ROLE",
      "outputs": [
        {
          "internalType": "bytes32",
          "name": "",
          "type": "bytes32"
        }
      ],
      "stateMutability": "view",
      "type": "function"
    },
    {
      "inputs": [
        {
          "internalType": "address",
          "name": "to",
          "type": "address"
        },
        {
          "internalType": "uint256",
          "name": "tokenId",
          "type": "uint256"
        }
      ],
      "name": "approve",
      "outputs": [],
      "stateMutability": "nonpayable",
      "type": "function"
    },
    {
      "inputs": [
        {
          "internalType": "address",
          "name": "owner",
          "type": "address"
        }
      ],
      "name": "balanceOf",
      "outputs": [
        {
          "internalType": "uint256",
          "name": "",
          "type": "uint256"
        }
      ],
      "stateMutability": "view",
      "type": "function"
    },
    {
      "inputs": [
        {
          "internalType": "uint256",
          "name": "tokenId",
          "type": "uint256"
        }
      ],
      "name": "getApproved",
      "outputs": [
        {
          "internalType": "address",
          "name": "",
          "type": "address"
        }
      ],
      "stateMutability": "view",
      "type": "function"
    },
    {
      "inputs": [
        {
          "internalType": "bytes32",
          "name": "role",
          "type": "bytes32"
        }
      ],
      "name": "getRoleAdmin",
      "outputs": [
        {
          "internalType": "bytes32",
          "name": "",
          "type": "bytes32"
        }
      ],
      "stateMutability": "view",
      "type": "function"
    },
    {
      "inputs": [
        {
          "internalType": "bytes32",
          "name": "role",
          "type": "bytes32"
        },
        {
          "internalType": "address",
          "name": "account",
          "type": "address"
        }
      ],
      "name": "grantRole",
      "outputs": [],
      "stateMutability": "nonpayable",
      "type": "function"
    },
    {
      "inputs": [
        {
          "internalType": "bytes32",
          "name": "role",
          "type": "bytes32"
        },
        {
          "internalType": "address",
          "name": "account",
          "type": "address"
        }
      ],
      "name": "hasRole",
      "outputs": [
        {
          "internalType": "bool",
          "name": "",
          "type": "bool"
        }
      ],
      "stateMutability": "view",
      "type": "function"
    },
    {
      "inputs": [
        {
          "internalType": "address",
          "name": "owner",
          "type": "address"
        },
        {
          "internalType": "address",
          "name": "operator",
          "type": "address"
        }
      ],
      "name": "isApprovedForAll",
      "outputs": [
        {
          "internalType": "bool",
          "name": "",
          "type": "bool"
        }
      ],
      "stateMutability": "view",
      "type": "function"
    },
    {
      "inputs": [],
      "name": "name",
      "outputs": [
        {
          "internalType": "string",
          "name": "",
          "type": "string"
        }
      ],
      "stateMutability": "view",
      "type": "function"
    },
    {
      "inputs": [
        {
          "internalType": "uint256",
          "name": "tokenId",
          "type": "uint256"
        }
      ],
      "name": "ownerOf",
      "outputs": [
        {
          "internalType": "address",
          "name": "",
          "type": "address"
        }
      ],
      "stateMutability": "view",
      "type": "function"
    },
    {
      "inputs": [],
      "name": "paused",
      "outputs": [
        {
          "internalType": "bool",
          "name": "",
          "type": "bool"
        }
      ],
      "stateMutability": "view",
      "type": "function"
    },
    {
      "inputs": [
        {
          "internalType": "bytes32",
          "name": "role",
          "type": "bytes32"
        },
        {
          "internalType": "address",
          "name": "account",
          "type": "address"
        }
      ],
      "name": "renounceRole",
      "outputs": [],
      "stateMutability": "nonpayable",
      "type": "function"
    },
    {
      "inputs": [
        {
          "internalType": "bytes32",
          "name": "role",
          "type": "bytes32"
        },
        {
          "internalType": "address",
          "name": "account",
          "type": "address"
        }
      ],
      "name": "revokeRole",
      "outputs": [],
      "stateMutability": "nonpayable",
      "type": "function"
    },
    {
      "inputs": [
        {
          "internalType": "address",
          "name": "from",
          "type": "address"
        },
        {
          "internalType": "address",
          "name": "to",
          "type": "address"
        },
        {
          "internalType": "uint256",
          "name": "tokenId",
          "type": "uint256"
        }
      ],
      "name": "safeTransferFrom",
      "outputs": [],
      "stateMutability": "nonpayable",
      "type": "function"
    },
    {
      "inputs": [
        {
          "internalType": "address",
          "name": "from",
          "type": "address"
        },
        {
          "internalType": "address",
          "name": "to",
          "type": "address"
        },
        {
          "internalType": "uint256",
          "name": "tokenId",
          "type": "uint256"
        },
        {
          "internalType": "bytes",
          "name": "_data",
          "type": "bytes"
        }
      ],
      "name": "safeTransferFrom",
      "outputs": [],
      "stateMutability": "nonpayable",
      "type": "function"
    },
    {
      "inputs": [
        {
          "internalType": "address",
          "name": "operator",
          "type": "address"
        },
        {
          "internalType": "bool",
          "name": "approved",
          "type": "bool"
        }
      ],
      "name": "setApprovalForAll",
      "outputs": [],
      "stateMutability": "nonpayable",
      "type": "function"
    },
    {
      "inputs": [],
      "name": "symbol",
      "outputs": [
        {
          "internalType": "string",
          "name": "",
          "type": "string"
        }
      ],
      "stateMutability": "view",
      "type": "function"
    },
    {
      "inputs": [
        {
          "internalType": "uint256",
          "name": "index",
          "type": "uint256"
        }
      ],
      "name": "tokenByIndex",
      "outputs": [
        {
          "internalType": "uint256",
          "name": "",
          "type": "uint256"
        }
      ],
      "stateMutability": "view",
      "type": "function"
    },
    {
      "inputs": [
        {
          "internalType": "address",
          "name": "owner",
          "type": "address"
        },
        {
          "internalType": "uint256",
          "name": "index",
          "type": "uint256"
        }
      ],
      "name": "tokenOfOwnerByIndex",
      "outputs": [
        {
          "internalType": "uint256",
          "name": "",
          "type": "uint256"
        }
      ],
      "stateMutability": "view",
      "type": "function"
    },
    {
      "inputs": [],
      "name": "totalSupply",
      "outputs": [
        {
          "internalType": "uint256",
          "name": "",
          "type": "uint256"
        }
      ],
      "stateMutability": "view",
      "type": "function"
    },
    {
      "inputs": [
        {
          "internalType": "address",
          "name": "from",
          "type": "address"
        },
        {
          "internalType": "address",
          "name": "to",
          "type": "address"
        },
        {
          "internalType": "uint256",
          "name": "tokenId",
          "type": "uint256"
        }
      ],
      "name": "transferFrom",
      "outputs": [],
      "stateMutability": "nonpayable",
      "type": "function"
    },
    {
      "inputs": [],
      "name": "pause",
      "outputs": [],
      "stateMutability": "nonpayable",
      "type": "function"
    },
    {
      "inputs": [],
      "name": "unpause",
      "outputs": [],
      "stateMutability": "nonpayable",
      "type": "function"
    },
    {
      "inputs": [
        {
          "internalType": "bytes32",
          "name": "_name",
          "type": "bytes32"
        },
        {
          "internalType": "string",
          "name": "_description",
          "type": "string"
        },
        {
          "internalType": "bytes32",
          "name": "_externalLink",
          "type": "bytes32"
        },
        {
          "internalType": "bytes32",
          "name": "_imageHash",
          "type": "bytes32"
        },
        {
          "internalType": "bytes32",
          "name": "_category",
          "type": "bytes32"
        },
        {
          "internalType": "bytes32",
          "name": "_handle",
          "type": "bytes32"
        }
      ],
      "name": "safeMintVector",
      "outputs": [],
      "stateMutability": "nonpayable",
      "type": "function"
    },
    {
      "inputs": [],
      "name": "getCategories",
      "outputs": [
        {
          "components": [
            {
              "internalType": "bytes32",
              "name": "name",
              "type": "bytes32"
            }
          ],
          "internalType": "struct IkonDAOVectorCollectible.Category[]",
          "name": "",
          "type": "tuple[]"
        }
      ],
      "stateMutability": "view",
      "type": "function"
    },
    {
      "inputs": [
        {
          "internalType": "uint256",
          "name": "tokenId",
          "type": "uint256"
        }
      ],
      "name": "getMetadata",
      "outputs": [
        {
          "components": [
            {
              "internalType": "bytes32",
              "name": "name",
              "type": "bytes32"
            },
            {
              "internalType": "string",
              "name": "description",
              "type": "string"
            },
            {
              "internalType": "bytes32",
              "name": "externalLink",
              "type": "bytes32"
            },
            {
              "internalType": "bytes32",
              "name": "image",
              "type": "bytes32"
            },
            {
              "internalType": "bytes32",
              "name": "category",
              "type": "bytes32"
            },
            {
              "internalType": "bytes32",
              "name": "artistHandle",
              "type": "bytes32"
            }
          ],
          "internalType": "struct IkonDAOVectorCollectible.Metadata",
          "name": "",
          "type": "tuple"
        }
      ],
      "stateMutability": "view",
      "type": "function"
    },
    {
      "inputs": [],
      "name": "getDAOAddress",
      "outputs": [
        {
          "internalType": "address",
          "name": "",
          "type": "address"
        }
      ],
      "stateMutability": "view",
      "type": "function"
    },
    {
      "inputs": [
        {
          "internalType": "address",
          "name": "newAddress",
          "type": "address"
        }
      ],
      "name": "setDAOAddress",
      "outputs": [],
      "stateMutability": "nonpayable",
      "type": "function"
    },
    {
      "inputs": [
        {
          "internalType": "uint256",
          "name": "tokenId",
          "type": "uint256"
        }
      ],
      "name": "tokenURI",
      "outputs": [
        {
          "internalType": "string",
          "name": "",
          "type": "string"
        }
      ],
      "stateMutability": "view",
      "type": "function"
    },
    {
      "inputs": [
        {
          "internalType": "bytes4",
          "name": "interfaceId",
          "type": "bytes4"
        }
      ],
      "name": "supportsInterface",
      "outputs": [
        {
          "internalType": "bool",
          "name": "",
          "type": "bool"
        }
      ],
      "stateMutability": "view",
      "type": "function"
    }
  ],
  "bytecode": "0x60806040523480156200001157600080fd5b506040516200513a3803806200513a8339818101604052810190620000379190620005ec565b6040518060400160405280601a81526020017f496b6f6e44414f20566563746f7220436f6c6c65637469626c650000000000008152506040518060400160405280600581526020017f494b4456430000000000000000000000000000000000000000000000000000008152508160009080519060200190620000bb929190620004d2565b508060019080519060200190620000d4929190620004d2565b5050506000600b60006101000a81548160ff021916908315150217905550620001337f0454d691b20de09c741657b57037379cb9a924a8d5d937a8aedf7cda4a99940762000127620002d360201b60201c565b620002db60201b60201c565b620001657f0454d691b20de09c741657b57037379cb9a924a8d5d937a8aedf7cda4a99940780620002f160201b60201c565b620001a67f0364e1a0005f808428edcb763dbcd8f619cf7b20bb2b17f051a9708d326d9d7b6200019a620002d360201b60201c565b620002db60201b60201c565b620001f87f0364e1a0005f808428edcb763dbcd8f619cf7b20bb2b17f051a9708d326d9d7b7f0454d691b20de09c741657b57037379cb9a924a8d5d937a8aedf7cda4a999407620002f160201b60201c565b620002397fd797ca08f626d4faf17808f01eb5aa9d1375776546369e264714a5daf31ea9ae6200022d620002d360201b60201c565b620002db60201b60201c565b6200028b7fd797ca08f626d4faf17808f01eb5aa9d1375776546369e264714a5daf31ea9ae7f0454d691b20de09c741657b57037379cb9a924a8d5d937a8aedf7cda4a999407620002f160201b60201c565b80601160006101000a81548173ffffffffffffffffffffffffffffffffffffffff021916908373ffffffffffffffffffffffffffffffffffffffff1602179055505062000683565b600033905090565b620002ed82826200035560201b60201c565b5050565b600062000304836200044760201b60201c565b905081600c6000858152602001908152602001600020600101819055508181847fbd79b86ffe0ab8e8776151514217cd7cacd52c909f66475c3af44e129f0b00ff60405160405180910390a4505050565b6200036782826200046760201b60201c565b62000443576001600c600084815260200190815260200160002060000160008373ffffffffffffffffffffffffffffffffffffffff1673ffffffffffffffffffffffffffffffffffffffff16815260200190815260200160002060006101000a81548160ff021916908315150217905550620003e8620002d360201b60201c565b73ffffffffffffffffffffffffffffffffffffffff168173ffffffffffffffffffffffffffffffffffffffff16837f2f8788117e7eff1d82e926ec794901d17c78024a50270940304540a733656f0d60405160405180910390a45b5050565b6000600c6000838152602001908152602001600020600101549050919050565b6000600c600084815260200190815260200160002060000160008373ffffffffffffffffffffffffffffffffffffffff1673ffffffffffffffffffffffffffffffffffffffff16815260200190815260200160002060009054906101000a900460ff16905092915050565b828054620004e0906200064d565b90600052602060002090601f01602090048101928262000504576000855562000550565b82601f106200051f57805160ff191683800117855562000550565b8280016001018555821562000550579182015b828111156200054f57825182559160200191906001019062000532565b5b5090506200055f919062000563565b5090565b5b808211156200057e57600081600090555060010162000564565b5090565b600080fd5b600073ffffffffffffffffffffffffffffffffffffffff82169050919050565b6000620005b48262000587565b9050919050565b620005c681620005a7565b8114620005d257600080fd5b50565b600081519050620005e681620005bb565b92915050565b60006020828403121562000605576200060462000582565b5b60006200061584828501620005d5565b91505092915050565b7f4e487b7100000000000000000000000000000000000000000000000000000000600052602260045260246000fd5b600060028204905060018216806200066657607f821691505b602082108114156200067d576200067c6200061e565b5b50919050565b614aa780620006936000396000f3fe608060405234801561001057600080fd5b50600436106101da5760003560e01c80636352211e11610104578063a22cb465116100a2578063b88d4fde11610071578063b88d4fde14610555578063c87b56dd14610571578063d547741f146105a1578063e985e9c5146105bd576101da565b8063a22cb465146104cf578063a574cea4146104eb578063ac8a5c061461051b578063ad9b44cd14610537576101da565b806391d14854116100de57806391d148541461044757806395d89b4114610477578063965afa8914610495578063a217fddf146104b1576101da565b80636352211e146103dd57806370a082311461040d5780638456cb591461043d576101da565b80632f2ff15d1161017c57806342842e0e1161014b57806342842e0e146103555780634db0412c146103715780634f6ccce71461038f5780635c975abb146103bf576101da565b80632f2ff15d146102e35780632f745c59146102ff57806336568abe1461032f5780633f4ba83a1461034b576101da565b8063095ea7b3116101b8578063095ea7b31461025d57806318160ddd1461027957806323b872dd14610297578063248a9ca3146102b3576101da565b806301ffc9a7146101df57806306fdde031461020f578063081812fc1461022d575b600080fd5b6101f960048036038101906101f491906130b9565b6105ed565b6040516102069190613101565b60405180910390f35b6102176105ff565b60405161022491906131b5565b60405180910390f35b6102476004803603810190610242919061320d565b610691565b604051610254919061327b565b60405180910390f35b610277600480360381019061027291906132c2565b610716565b005b61028161082e565b60405161028e9190613311565b60405180910390f35b6102b160048036038101906102ac919061332c565b61083b565b005b6102cd60048036038101906102c891906133b5565b61089b565b6040516102da91906133f1565b60405180910390f35b6102fd60048036038101906102f8919061340c565b6108bb565b005b610319600480360381019061031491906132c2565b6108e4565b6040516103269190613311565b60405180910390f35b6103496004803603810190610344919061340c565b610989565b005b610353610a0c565b005b61036f600480360381019061036a919061332c565b610a49565b005b610379610a69565b6040516103869190613526565b60405180910390f35b6103a960048036038101906103a4919061320d565b610ace565b6040516103b69190613311565b60405180910390f35b6103c7610b3f565b6040516103d49190613101565b60405180910390f35b6103f760048036038101906103f2919061320d565b610b56565b604051610404919061327b565b60405180910390f35b61042760048036038101906104229190613548565b610c08565b6040516104349190613311565b60405180910390f35b610445610cc0565b005b610461600480360381019061045c919061340c565b610cfd565b60405161046e9190613101565b60405180910390f35b61047f610d68565b60405161048c91906131b5565b60405180910390f35b6104af60048036038101906104aa9190613548565b610dfa565b005b6104b9610eb8565b6040516104c691906133f1565b60405180910390f35b6104e960048036038101906104e491906135a1565b610ebf565b005b6105056004803603810190610500919061320d565b611040565b60405161051291906136b4565b60405180910390f35b6105356004803603810190610530919061380b565b611131565b005b61053f61147f565b60405161054c919061327b565b60405180910390f35b61056f600480360381019061056a9190613955565b6114a9565b005b61058b6004803603810190610586919061320d565b61150b565b60405161059891906131b5565b60405180910390f35b6105bb60048036038101906105b6919061340c565b61151d565b005b6105d760048036038101906105d291906139d8565b611546565b6040516105e49190613101565b60405180910390f35b60006105f8826115da565b9050919050565b60606000805461060e90613a47565b80601f016020809104026020016040519081016040528092919081815260200182805461063a90613a47565b80156106875780601f1061065c57610100808354040283529160200191610687565b820191906000526020600020905b81548152906001019060200180831161066a57829003601f168201915b5050505050905090565b600061069c82611654565b6106db576040517f08c379a00000000000000000000000000000000000000000000000000000000081526004016106d290613aeb565b60405180910390fd5b6004600083815260200190815260200160002060009054906101000a900473ffffffffffffffffffffffffffffffffffffffff169050919050565b600061072182610b56565b90508073ffffffffffffffffffffffffffffffffffffffff168373ffffffffffffffffffffffffffffffffffffffff161415610792576040517f08c379a000000000000000000000000000000000000000000000000000000000815260040161078990613b7d565b60405180910390fd5b8073ffffffffffffffffffffffffffffffffffffffff166107b16116c0565b73ffffffffffffffffffffffffffffffffffffffff1614806107e057506107df816107da6116c0565b611546565b5b61081f576040517f08c379a000000000000000000000000000000000000000000000000000000000815260040161081690613c0f565b60405180910390fd5b61082983836116c8565b505050565b6000600880549050905090565b61084c6108466116c0565b82611781565b61088b576040517f08c379a000000000000000000000000000000000000000000000000000000000815260040161088290613ca1565b60405180910390fd5b61089683838361185f565b505050565b6000600c6000838152602001908152602001600020600101549050919050565b6108c48261089b565b6108d5816108d06116c0565b611abb565b6108df8383611b58565b505050565b60006108ef83610c08565b8210610930576040517f08c379a000000000000000000000000000000000000000000000000000000000815260040161092790613d33565b60405180910390fd5b600660008473ffffffffffffffffffffffffffffffffffffffff1673ffffffffffffffffffffffffffffffffffffffff168152602001908152602001600020600083815260200190815260200160002054905092915050565b6109916116c0565b73ffffffffffffffffffffffffffffffffffffffff168173ffffffffffffffffffffffffffffffffffffffff16146109fe576040517f08c379a00000000000000000000000000000000000000000000000000000000081526004016109f590613dc5565b60405180910390fd5b610a088282611c39565b5050565b7f0364e1a0005f808428edcb763dbcd8f619cf7b20bb2b17f051a9708d326d9d7b610a3e81610a396116c0565b611abb565b610a46611d1b565b50565b610a64838383604051806020016040528060008152506114a9565b505050565b6060600f805480602002602001604051908101604052809291908181526020016000905b82821015610ac55783829060005260206000200160405180602001604052908160008201548152505081526020019060010190610a8d565b50505050905090565b6000610ad861082e565b8210610b19576040517f08c379a0000000000000000000000000000000000000000000000000000000008152600401610b1090613e57565b60405180910390fd5b60088281548110610b2d57610b2c613e77565b5b90600052602060002001549050919050565b6000600b60009054906101000a900460ff16905090565b6000806002600084815260200190815260200160002060009054906101000a900473ffffffffffffffffffffffffffffffffffffffff169050600073ffffffffffffffffffffffffffffffffffffffff168173ffffffffffffffffffffffffffffffffffffffff161415610bff576040517f08c379a0000000000000000000000000000000000000000000000000000000008152600401610bf690613f18565b60405180910390fd5b80915050919050565b60008073ffffffffffffffffffffffffffffffffffffffff168273ffffffffffffffffffffffffffffffffffffffff161415610c79576040517f08c379a0000000000000000000000000000000000000000000000000000000008152600401610c7090613faa565b60405180910390fd5b600360008373ffffffffffffffffffffffffffffffffffffffff1673ffffffffffffffffffffffffffffffffffffffff168152602001908152602001600020549050919050565b7f0364e1a0005f808428edcb763dbcd8f619cf7b20bb2b17f051a9708d326d9d7b610cf281610ced6116c0565b611abb565b610cfa611dbd565b50565b6000600c600084815260200190815260200160002060000160008373ffffffffffffffffffffffffffffffffffffffff1673ffffffffffffffffffffffffffffffffffffffff16815260200190815260200160002060009054906101000a900460ff16905092915050565b606060018054610d7790613a47565b80601f0160208091040260200160405190810160405280929190818152602001828054610da390613a47565b8015610df05780601f10610dc557610100808354040283529160200191610df0565b820191906000526020600020905b815481529060010190602001808311610dd357829003601f168201915b5050505050905090565b7f0454d691b20de09c741657b57037379cb9a924a8d5d937a8aedf7cda4a999407610e2c81610e276116c0565b611abb565b610e34610b3f565b15610e74576040517f08c379a0000000000000000000000000000000000000000000000000000000008152600401610e6b90614016565b60405180910390fd5b610e7d82611e60565b7fb5f93c8ed7df84870256f07ba228e09a30a9b6385a7737fe93d8cbb87e7dc77082604051610eac919061327b565b60405180910390a15050565b6000801b81565b610ec76116c0565b73ffffffffffffffffffffffffffffffffffffffff168273ffffffffffffffffffffffffffffffffffffffff161415610f35576040517f08c379a0000000000000000000000000000000000000000000000000000000008152600401610f2c90614082565b60405180910390fd5b8060056000610f426116c0565b73ffffffffffffffffffffffffffffffffffffffff1673ffffffffffffffffffffffffffffffffffffffff16815260200190815260200160002060008473ffffffffffffffffffffffffffffffffffffffff1673ffffffffffffffffffffffffffffffffffffffff16815260200190815260200160002060006101000a81548160ff0219169083151502179055508173ffffffffffffffffffffffffffffffffffffffff16610fef6116c0565b73ffffffffffffffffffffffffffffffffffffffff167f17307eab39ab6107e8899845ad3d59bd9653f200f220920489ca2b5937696c31836040516110349190613101565b60405180910390a35050565b611048612f65565b600e60008381526020019081526020016000206040518060c00160405290816000820154815260200160018201805461108090613a47565b80601f01602080910402602001604051908101604052809291908181526020018280546110ac90613a47565b80156110f95780601f106110ce576101008083540402835291602001916110f9565b820191906000526020600020905b8154815290600101906020018083116110dc57829003601f168201915b505050505081526020016002820154815260200160038201548152602001600482015481526020016005820154815250509050919050565b7fd797ca08f626d4faf17808f01eb5aa9d1375776546369e264714a5daf31ea9ae6111638161115e6116c0565b611abb565b61116b610b3f565b156111ab576040517f08c379a00000000000000000000000000000000000000000000000000000000081526004016111a290614016565b60405180910390fd5b60006111b7600d611ea4565b905060008114611227576111ca85611eb2565b156040518060600160405280602f8152602001614a43602f913990611225576040517f08c379a000000000000000000000000000000000000000000000000000000000815260040161121c91906131b5565b60405180910390fd5b505b60006040518060c001604052808a81526020018981526020018881526020018781526020018681526020018581525090506010600086815260200190815260200160002060009054906101000a900460ff16611387576112a8601160009054906101000a900473ffffffffffffffffffffffffffffffffffffffff16611f07565b60006040518060200160405280878152509050600f819080600181540180825580915050600190039060005260206000200160009091909190915060008201518160000155505060016010600088815260200190815260200160002060006101000a81548160ff02191690831515021790555081600e6000858152602001908152602001600020600082015181600001556020820151816001019080519060200190611355929190612faa565b5060408201518160020155606082015181600301556080820151816004015560a0820151816005015590505050611419565b6113b2601160009054906101000a900473ffffffffffffffffffffffffffffffffffffffff16611f07565b80600e60008481526020019081526020016000206000820151816000015560208201518160010190805190602001906113ec929190612faa565b5060408201518160020155606082015181600301556080820151816004015560a082015181600501559050505b7fd51219ac3628fd973eadcbfcacb3c009725c77bc038c6e57eb99bfdb8da8d41882601160009054906101000a900473ffffffffffffffffffffffffffffffffffffffff1660405161146c9291906140a2565b60405180910390a1505050505050505050565b6000601160009054906101000a900473ffffffffffffffffffffffffffffffffffffffff16905090565b6114ba6114b46116c0565b83611781565b6114f9576040517f08c379a00000000000000000000000000000000000000000000000000000000081526004016114f090613ca1565b60405180910390fd5b61150584848484611f27565b50505050565b606061151682611f83565b9050919050565b6115268261089b565b611537816115326116c0565b611abb565b6115418383611c39565b505050565b6000600560008473ffffffffffffffffffffffffffffffffffffffff1673ffffffffffffffffffffffffffffffffffffffff16815260200190815260200160002060008373ffffffffffffffffffffffffffffffffffffffff1673ffffffffffffffffffffffffffffffffffffffff16815260200190815260200160002060009054906101000a900460ff16905092915050565b60007f7965db0b000000000000000000000000000000000000000000000000000000007bffffffffffffffffffffffffffffffffffffffffffffffffffffffff1916827bffffffffffffffffffffffffffffffffffffffffffffffffffffffff1916148061164d575061164c826120d5565b5b9050919050565b60008073ffffffffffffffffffffffffffffffffffffffff166002600084815260200190815260200160002060009054906101000a900473ffffffffffffffffffffffffffffffffffffffff1673ffffffffffffffffffffffffffffffffffffffff1614159050919050565b600033905090565b816004600083815260200190815260200160002060006101000a81548173ffffffffffffffffffffffffffffffffffffffff021916908373ffffffffffffffffffffffffffffffffffffffff160217905550808273ffffffffffffffffffffffffffffffffffffffff1661173b83610b56565b73ffffffffffffffffffffffffffffffffffffffff167f8c5be1e5ebec7d5bd14f71427d1e84f3dd0314c0f7b2291e5b200ac8c7c3b92560405160405180910390a45050565b600061178c82611654565b6117cb576040517f08c379a00000000000000000000000000000000000000000000000000000000081526004016117c29061413d565b60405180910390fd5b60006117d683610b56565b90508073ffffffffffffffffffffffffffffffffffffffff168473ffffffffffffffffffffffffffffffffffffffff16148061184557508373ffffffffffffffffffffffffffffffffffffffff1661182d84610691565b73ffffffffffffffffffffffffffffffffffffffff16145b8061185657506118558185611546565b5b91505092915050565b8273ffffffffffffffffffffffffffffffffffffffff1661187f82610b56565b73ffffffffffffffffffffffffffffffffffffffff16146118d5576040517f08c379a00000000000000000000000000000000000000000000000000000000081526004016118cc906141cf565b60405180910390fd5b600073ffffffffffffffffffffffffffffffffffffffff168273ffffffffffffffffffffffffffffffffffffffff161415611945576040517f08c379a000000000000000000000000000000000000000000000000000000000815260040161193c90614261565b60405180910390fd5b61195083838361214f565b61195b6000826116c8565b6001600360008573ffffffffffffffffffffffffffffffffffffffff1673ffffffffffffffffffffffffffffffffffffffff16815260200190815260200160002060008282546119ab91906142b0565b925050819055506001600360008473ffffffffffffffffffffffffffffffffffffffff1673ffffffffffffffffffffffffffffffffffffffff1681526020019081526020016000206000828254611a0291906142e4565b92505081905550816002600083815260200190815260200160002060006101000a81548173ffffffffffffffffffffffffffffffffffffffff021916908373ffffffffffffffffffffffffffffffffffffffff160217905550808273ffffffffffffffffffffffffffffffffffffffff168473ffffffffffffffffffffffffffffffffffffffff167fddf252ad1be2c89b69c2b068fc378daa952ba7f163c4a11628f55a4df523b3ef60405160405180910390a4505050565b611ac58282610cfd565b611b5457611aea8173ffffffffffffffffffffffffffffffffffffffff1660146121a7565b611af88360001c60206121a7565b604051602001611b0992919061440e565b6040516020818303038152906040526040517f08c379a0000000000000000000000000000000000000000000000000000000008152600401611b4b91906131b5565b60405180910390fd5b5050565b611b628282610cfd565b611c35576001600c600084815260200190815260200160002060000160008373ffffffffffffffffffffffffffffffffffffffff1673ffffffffffffffffffffffffffffffffffffffff16815260200190815260200160002060006101000a81548160ff021916908315150217905550611bda6116c0565b73ffffffffffffffffffffffffffffffffffffffff168173ffffffffffffffffffffffffffffffffffffffff16837f2f8788117e7eff1d82e926ec794901d17c78024a50270940304540a733656f0d60405160405180910390a45b5050565b611c438282610cfd565b15611d17576000600c600084815260200190815260200160002060000160008373ffffffffffffffffffffffffffffffffffffffff1673ffffffffffffffffffffffffffffffffffffffff16815260200190815260200160002060006101000a81548160ff021916908315150217905550611cbc6116c0565b73ffffffffffffffffffffffffffffffffffffffff168173ffffffffffffffffffffffffffffffffffffffff16837ff6391f5c32d9c69d2a47ea670b442974b53935d1edc7fd64eb21e047a839171b60405160405180910390a45b5050565b611d23610b3f565b611d62576040517f08c379a0000000000000000000000000000000000000000000000000000000008152600401611d5990614494565b60405180910390fd5b6000600b60006101000a81548160ff0219169083151502179055507f5db9ee0a495bf2e6ff9c91a7834c1ba4fdd244a5e8aa4e537bd38aeae4b073aa611da66116c0565b604051611db3919061327b565b60405180910390a1565b611dc5610b3f565b15611e05576040517f08c379a0000000000000000000000000000000000000000000000000000000008152600401611dfc90614016565b60405180910390fd5b6001600b60006101000a81548160ff0219169083151502179055507f62e78cea01bee320cd4e420270b5ea74000d11b0c9f74754ebdbfc544b05a258611e496116c0565b604051611e56919061327b565b60405180910390a1565b80601160006101000a81548173ffffffffffffffffffffffffffffffffffffffff021916908373ffffffffffffffffffffffffffffffffffffffff16021790555050565b600081600001549050919050565b600080600090505b611ec4600d611ea4565b811015611f015782600e6000838152602001908152602001600020600301541415611eee57600191505b8080611ef9906144b4565b915050611eba565b50919050565b611f1a81611f15600d611ea4565b6123e3565b611f24600d612401565b50565b611f3284848461185f565b611f3e84848484612417565b611f7d576040517f08c379a0000000000000000000000000000000000000000000000000000000008152600401611f749061456f565b60405180910390fd5b50505050565b6060611f8e82611654565b611fcd576040517f08c379a0000000000000000000000000000000000000000000000000000000008152600401611fc490614601565b60405180910390fd5b6000600a60008481526020019081526020016000208054611fed90613a47565b80601f016020809104026020016040519081016040528092919081815260200182805461201990613a47565b80156120665780601f1061203b57610100808354040283529160200191612066565b820191906000526020600020905b81548152906001019060200180831161204957829003601f168201915b50505050509050600061207761259f565b905060008151141561208d5781925050506120d0565b6000825111156120c25780826040516020016120aa929190614621565b604051602081830303815290604052925050506120d0565b6120cb846125b6565b925050505b919050565b60007f780e9d63000000000000000000000000000000000000000000000000000000007bffffffffffffffffffffffffffffffffffffffffffffffffffffffff1916827bffffffffffffffffffffffffffffffffffffffffffffffffffffffff1916148061214857506121478261265d565b5b9050919050565b612157610b3f565b15612197576040517f08c379a000000000000000000000000000000000000000000000000000000000815260040161218e90614016565b60405180910390fd5b6121a283838361273f565b505050565b6060600060028360026121ba9190614645565b6121c491906142e4565b67ffffffffffffffff8111156121dd576121dc6136e0565b5b6040519080825280601f01601f19166020018201604052801561220f5781602001600182028036833780820191505090505b5090507f30000000000000000000000000000000000000000000000000000000000000008160008151811061224757612246613e77565b5b60200101907effffffffffffffffffffffffffffffffffffffffffffffffffffffffffffff1916908160001a9053507f7800000000000000000000000000000000000000000000000000000000000000816001815181106122ab576122aa613e77565b5b60200101907effffffffffffffffffffffffffffffffffffffffffffffffffffffffffffff1916908160001a905350600060018460026122eb9190614645565b6122f591906142e4565b90505b6001811115612395577f3031323334353637383961626364656600000000000000000000000000000000600f86166010811061233757612336613e77565b5b1a60f81b82828151811061234e5761234d613e77565b5b60200101907effffffffffffffffffffffffffffffffffffffffffffffffffffffffffffff1916908160001a905350600485901c94508061238e9061469f565b90506122f8565b50600084146123d9576040517f08c379a00000000000000000000000000000000000000000000000000000000081526004016123d090614715565b60405180910390fd5b8091505092915050565b6123fd828260405180602001604052806000815250612853565b5050565b6001816000016000828254019250508190555050565b60006124388473ffffffffffffffffffffffffffffffffffffffff166128ae565b15612592578373ffffffffffffffffffffffffffffffffffffffff1663150b7a026124616116c0565b8786866040518563ffffffff1660e01b8152600401612483949392919061478a565b6020604051808303816000875af19250505080156124bf57506040513d601f19601f820116820180604052508101906124bc91906147eb565b60015b612542573d80600081146124ef576040519150601f19603f3d011682016040523d82523d6000602084013e6124f4565b606091505b5060008151141561253a576040517f08c379a00000000000000000000000000000000000000000000000000000000081526004016125319061456f565b60405180910390fd5b805181602001fd5b63150b7a0260e01b7bffffffffffffffffffffffffffffffffffffffffffffffffffffffff1916817bffffffffffffffffffffffffffffffffffffffffffffffffffffffff191614915050612597565b600190505b949350505050565b606060405180602001604052806000815250905090565b60606125c182611654565b612600576040517f08c379a00000000000000000000000000000000000000000000000000000000081526004016125f79061488a565b60405180910390fd5b600061260a61259f565b9050600081511161262a5760405180602001604052806000815250612655565b80612634846128c1565b604051602001612645929190614621565b6040516020818303038152906040525b915050919050565b60007f80ac58cd000000000000000000000000000000000000000000000000000000007bffffffffffffffffffffffffffffffffffffffffffffffffffffffff1916827bffffffffffffffffffffffffffffffffffffffffffffffffffffffff1916148061272857507f5b5e139f000000000000000000000000000000000000000000000000000000007bffffffffffffffffffffffffffffffffffffffffffffffffffffffff1916827bffffffffffffffffffffffffffffffffffffffffffffffffffffffff1916145b80612738575061273782612a22565b5b9050919050565b61274a838383612a8c565b600073ffffffffffffffffffffffffffffffffffffffff168373ffffffffffffffffffffffffffffffffffffffff16141561278d5761278881612a91565b6127cc565b8173ffffffffffffffffffffffffffffffffffffffff168373ffffffffffffffffffffffffffffffffffffffff16146127cb576127ca8382612ada565b5b5b600073ffffffffffffffffffffffffffffffffffffffff168273ffffffffffffffffffffffffffffffffffffffff16141561280f5761280a81612c47565b61284e565b8273ffffffffffffffffffffffffffffffffffffffff168273ffffffffffffffffffffffffffffffffffffffff161461284d5761284c8282612d18565b5b5b505050565b61285d8383612d97565b61286a6000848484612417565b6128a9576040517f08c379a00000000000000000000000000000000000000000000000000000000081526004016128a09061456f565b60405180910390fd5b505050565b600080823b905060008111915050919050565b60606000821415612909576040518060400160405280600181526020017f30000000000000000000000000000000000000000000000000000000000000008152509050612a1d565b600082905060005b6000821461293b578080612924906144b4565b915050600a8261293491906148d9565b9150612911565b60008167ffffffffffffffff811115612957576129566136e0565b5b6040519080825280601f01601f1916602001820160405280156129895781602001600182028036833780820191505090505b5090505b60008514612a16576001826129a291906142b0565b9150600a856129b1919061490a565b60306129bd91906142e4565b60f81b8183815181106129d3576129d2613e77565b5b60200101907effffffffffffffffffffffffffffffffffffffffffffffffffffffffffffff1916908160001a905350600a85612a0f91906148d9565b945061298d565b8093505050505b919050565b60007f01ffc9a7000000000000000000000000000000000000000000000000000000007bffffffffffffffffffffffffffffffffffffffffffffffffffffffff1916827bffffffffffffffffffffffffffffffffffffffffffffffffffffffff1916149050919050565b505050565b6008805490506009600083815260200190815260200160002081905550600881908060018154018082558091505060019003906000526020600020016000909190919091505550565b60006001612ae784610c08565b612af191906142b0565b9050600060076000848152602001908152602001600020549050818114612bd6576000600660008673ffffffffffffffffffffffffffffffffffffffff1673ffffffffffffffffffffffffffffffffffffffff168152602001908152602001600020600084815260200190815260200160002054905080600660008773ffffffffffffffffffffffffffffffffffffffff1673ffffffffffffffffffffffffffffffffffffffff168152602001908152602001600020600084815260200190815260200160002081905550816007600083815260200190815260200160002081905550505b6007600084815260200190815260200160002060009055600660008573ffffffffffffffffffffffffffffffffffffffff1673ffffffffffffffffffffffffffffffffffffffff16815260200190815260200160002060008381526020019081526020016000206000905550505050565b60006001600880549050612c5b91906142b0565b9050600060096000848152602001908152602001600020549050600060088381548110612c8b57612c8a613e77565b5b906000526020600020015490508060088381548110612cad57612cac613e77565b5b906000526020600020018190555081600960008381526020019081526020016000208190555060096000858152602001908152602001600020600090556008805480612cfc57612cfb61493b565b5b6001900381819060005260206000200160009055905550505050565b6000612d2383610c08565b905081600660008573ffffffffffffffffffffffffffffffffffffffff1673ffffffffffffffffffffffffffffffffffffffff168152602001908152602001600020600083815260200190815260200160002081905550806007600084815260200190815260200160002081905550505050565b600073ffffffffffffffffffffffffffffffffffffffff168273ffffffffffffffffffffffffffffffffffffffff161415612e07576040517f08c379a0000000000000000000000000000000000000000000000000000000008152600401612dfe906149b6565b60405180910390fd5b612e1081611654565b15612e50576040517f08c379a0000000000000000000000000000000000000000000000000000000008152600401612e4790614a22565b60405180910390fd5b612e5c6000838361214f565b6001600360008473ffffffffffffffffffffffffffffffffffffffff1673ffffffffffffffffffffffffffffffffffffffff1681526020019081526020016000206000828254612eac91906142e4565b92505081905550816002600083815260200190815260200160002060006101000a81548173ffffffffffffffffffffffffffffffffffffffff021916908373ffffffffffffffffffffffffffffffffffffffff160217905550808273ffffffffffffffffffffffffffffffffffffffff16600073ffffffffffffffffffffffffffffffffffffffff167fddf252ad1be2c89b69c2b068fc378daa952ba7f163c4a11628f55a4df523b3ef60405160405180910390a45050565b6040518060c001604052806000801916815260200160608152602001600080191681526020016000801916815260200160008019168152602001600080191681525090565b828054612fb690613a47565b90600052602060002090601f016020900481019282612fd8576000855561301f565b82601f10612ff157805160ff191683800117855561301f565b8280016001018555821561301f579182015b8281111561301e578251825591602001919060010190613003565b5b50905061302c9190613030565b5090565b5b80821115613049576000816000905550600101613031565b5090565b6000604051905090565b600080fd5b600080fd5b60007fffffffff0000000000000000000000000000000000000000000000000000000082169050919050565b61309681613061565b81146130a157600080fd5b50565b6000813590506130b38161308d565b92915050565b6000602082840312156130cf576130ce613057565b5b60006130dd848285016130a4565b91505092915050565b60008115159050919050565b6130fb816130e6565b82525050565b600060208201905061311660008301846130f2565b92915050565b600081519050919050565b600082825260208201905092915050565b60005b8381101561315657808201518184015260208101905061313b565b83811115613165576000848401525b50505050565b6000601f19601f8301169050919050565b60006131878261311c565b6131918185613127565b93506131a1818560208601613138565b6131aa8161316b565b840191505092915050565b600060208201905081810360008301526131cf818461317c565b905092915050565b6000819050919050565b6131ea816131d7565b81146131f557600080fd5b50565b600081359050613207816131e1565b92915050565b60006020828403121561322357613222613057565b5b6000613231848285016131f8565b91505092915050565b600073ffffffffffffffffffffffffffffffffffffffff82169050919050565b60006132658261323a565b9050919050565b6132758161325a565b82525050565b6000602082019050613290600083018461326c565b92915050565b61329f8161325a565b81146132aa57600080fd5b50565b6000813590506132bc81613296565b92915050565b600080604083850312156132d9576132d8613057565b5b60006132e7858286016132ad565b92505060206132f8858286016131f8565b9150509250929050565b61330b816131d7565b82525050565b60006020820190506133266000830184613302565b92915050565b60008060006060848603121561334557613344613057565b5b6000613353868287016132ad565b9350506020613364868287016132ad565b9250506040613375868287016131f8565b9150509250925092565b6000819050919050565b6133928161337f565b811461339d57600080fd5b50565b6000813590506133af81613389565b92915050565b6000602082840312156133cb576133ca613057565b5b60006133d9848285016133a0565b91505092915050565b6133eb8161337f565b82525050565b600060208201905061340660008301846133e2565b92915050565b6000806040838503121561342357613422613057565b5b6000613431858286016133a0565b9250506020613442858286016132ad565b9150509250929050565b600081519050919050565b600082825260208201905092915050565b6000819050602082019050919050565b6134818161337f565b82525050565b60208201600082015161349d6000850182613478565b50505050565b60006134af8383613487565b60208301905092915050565b6000602082019050919050565b60006134d38261344c565b6134dd8185613457565b93506134e883613468565b8060005b8381101561351957815161350088826134a3565b975061350b836134bb565b9250506001810190506134ec565b5085935050505092915050565b6000602082019050818103600083015261354081846134c8565b905092915050565b60006020828403121561355e5761355d613057565b5b600061356c848285016132ad565b91505092915050565b61357e816130e6565b811461358957600080fd5b50565b60008135905061359b81613575565b92915050565b600080604083850312156135b8576135b7613057565b5b60006135c6858286016132ad565b92505060206135d78582860161358c565b9150509250929050565b600082825260208201905092915050565b60006135fd8261311c565b61360781856135e1565b9350613617818560208601613138565b6136208161316b565b840191505092915050565b600060c0830160008301516136436000860182613478565b506020830151848203602086015261365b82826135f2565b91505060408301516136706040860182613478565b5060608301516136836060860182613478565b5060808301516136966080860182613478565b5060a08301516136a960a0860182613478565b508091505092915050565b600060208201905081810360008301526136ce818461362b565b905092915050565b600080fd5b600080fd5b7f4e487b7100000000000000000000000000000000000000000000000000000000600052604160045260246000fd5b6137188261316b565b810181811067ffffffffffffffff82111715613737576137366136e0565b5b80604052505050565b600061374a61304d565b9050613756828261370f565b919050565b600067ffffffffffffffff821115613776576137756136e0565b5b61377f8261316b565b9050602081019050919050565b82818337600083830152505050565b60006137ae6137a98461375b565b613740565b9050828152602081018484840111156137ca576137c96136db565b5b6137d584828561378c565b509392505050565b600082601f8301126137f2576137f16136d6565b5b813561380284826020860161379b565b91505092915050565b60008060008060008060c0878903121561382857613827613057565b5b600061383689828a016133a0565b965050602087013567ffffffffffffffff8111156138575761385661305c565b5b61386389828a016137dd565b955050604061387489828a016133a0565b945050606061388589828a016133a0565b935050608061389689828a016133a0565b92505060a06138a789828a016133a0565b9150509295509295509295565b600067ffffffffffffffff8211156138cf576138ce6136e0565b5b6138d88261316b565b9050602081019050919050565b60006138f86138f3846138b4565b613740565b905082815260208101848484011115613914576139136136db565b5b61391f84828561378c565b509392505050565b600082601f83011261393c5761393b6136d6565b5b813561394c8482602086016138e5565b91505092915050565b6000806000806080858703121561396f5761396e613057565b5b600061397d878288016132ad565b945050602061398e878288016132ad565b935050604061399f878288016131f8565b925050606085013567ffffffffffffffff8111156139c0576139bf61305c565b5b6139cc87828801613927565b91505092959194509250565b600080604083850312156139ef576139ee613057565b5b60006139fd858286016132ad565b9250506020613a0e858286016132ad565b9150509250929050565b7f4e487b7100000000000000000000000000000000000000000000000000000000600052602260045260246000fd5b60006002820490506001821680613a5f57607f821691505b60208210811415613a7357613a72613a18565b5b50919050565b7f4552433732313a20617070726f76656420717565727920666f72206e6f6e657860008201527f697374656e7420746f6b656e0000000000000000000000000000000000000000602082015250565b6000613ad5602c83613127565b9150613ae082613a79565b604082019050919050565b60006020820190508181036000830152613b0481613ac8565b9050919050565b7f4552433732313a20617070726f76616c20746f2063757272656e74206f776e6560008201527f7200000000000000000000000000000000000000000000000000000000000000602082015250565b6000613b67602183613127565b9150613b7282613b0b565b604082019050919050565b60006020820190508181036000830152613b9681613b5a565b9050919050565b7f4552433732313a20617070726f76652063616c6c6572206973206e6f74206f7760008201527f6e6572206e6f7220617070726f76656420666f7220616c6c0000000000000000602082015250565b6000613bf9603883613127565b9150613c0482613b9d565b604082019050919050565b60006020820190508181036000830152613c2881613bec565b9050919050565b7f4552433732313a207472616e736665722063616c6c6572206973206e6f74206f60008201527f776e6572206e6f7220617070726f766564000000000000000000000000000000602082015250565b6000613c8b603183613127565b9150613c9682613c2f565b604082019050919050565b60006020820190508181036000830152613cba81613c7e565b9050919050565b7f455243373231456e756d657261626c653a206f776e657220696e646578206f7560008201527f74206f6620626f756e6473000000000000000000000000000000000000000000602082015250565b6000613d1d602b83613127565b9150613d2882613cc1565b604082019050919050565b60006020820190508181036000830152613d4c81613d10565b9050919050565b7f416363657373436f6e74726f6c3a2063616e206f6e6c792072656e6f756e636560008201527f20726f6c657320666f722073656c660000000000000000000000000000000000602082015250565b6000613daf602f83613127565b9150613dba82613d53565b604082019050919050565b60006020820190508181036000830152613dde81613da2565b9050919050565b7f455243373231456e756d657261626c653a20676c6f62616c20696e646578206f60008201527f7574206f6620626f756e64730000000000000000000000000000000000000000602082015250565b6000613e41602c83613127565b9150613e4c82613de5565b604082019050919050565b60006020820190508181036000830152613e7081613e34565b9050919050565b7f4e487b7100000000000000000000000000000000000000000000000000000000600052603260045260246000fd5b7f4552433732313a206f776e657220717565727920666f72206e6f6e657869737460008201527f656e7420746f6b656e0000000000000000000000000000000000000000000000602082015250565b6000613f02602983613127565b9150613f0d82613ea6565b604082019050919050565b60006020820190508181036000830152613f3181613ef5565b9050919050565b7f4552433732313a2062616c616e636520717565727920666f7220746865207a6560008201527f726f206164647265737300000000000000000000000000000000000000000000602082015250565b6000613f94602a83613127565b9150613f9f82613f38565b604082019050919050565b60006020820190508181036000830152613fc381613f87565b9050919050565b7f5061757361626c653a2070617573656400000000000000000000000000000000600082015250565b6000614000601083613127565b915061400b82613fca565b602082019050919050565b6000602082019050818103600083015261402f81613ff3565b9050919050565b7f4552433732313a20617070726f766520746f2063616c6c657200000000000000600082015250565b600061406c601983613127565b915061407782614036565b602082019050919050565b6000602082019050818103600083015261409b8161405f565b9050919050565b60006040820190506140b76000830185613302565b6140c4602083018461326c565b9392505050565b7f4552433732313a206f70657261746f7220717565727920666f72206e6f6e657860008201527f697374656e7420746f6b656e0000000000000000000000000000000000000000602082015250565b6000614127602c83613127565b9150614132826140cb565b604082019050919050565b600060208201905081810360008301526141568161411a565b9050919050565b7f4552433732313a207472616e73666572206f6620746f6b656e2074686174206960008201527f73206e6f74206f776e0000000000000000000000000000000000000000000000602082015250565b60006141b9602983613127565b91506141c48261415d565b604082019050919050565b600060208201905081810360008301526141e8816141ac565b9050919050565b7f4552433732313a207472616e7366657220746f20746865207a65726f2061646460008201527f7265737300000000000000000000000000000000000000000000000000000000602082015250565b600061424b602483613127565b9150614256826141ef565b604082019050919050565b6000602082019050818103600083015261427a8161423e565b9050919050565b7f4e487b7100000000000000000000000000000000000000000000000000000000600052601160045260246000fd5b60006142bb826131d7565b91506142c6836131d7565b9250828210156142d9576142d8614281565b5b828203905092915050565b60006142ef826131d7565b91506142fa836131d7565b9250827fffffffffffffffffffffffffffffffffffffffffffffffffffffffffffffffff0382111561432f5761432e614281565b5b828201905092915050565b600081905092915050565b7f416363657373436f6e74726f6c3a206163636f756e7420000000000000000000600082015250565b600061437b60178361433a565b915061438682614345565b601782019050919050565b600061439c8261311c565b6143a6818561433a565b93506143b6818560208601613138565b80840191505092915050565b7f206973206d697373696e6720726f6c6520000000000000000000000000000000600082015250565b60006143f860118361433a565b9150614403826143c2565b601182019050919050565b60006144198261436e565b91506144258285614391565b9150614430826143eb565b915061443c8284614391565b91508190509392505050565b7f5061757361626c653a206e6f7420706175736564000000000000000000000000600082015250565b600061447e601483613127565b915061448982614448565b602082019050919050565b600060208201905081810360008301526144ad81614471565b9050919050565b60006144bf826131d7565b91507fffffffffffffffffffffffffffffffffffffffffffffffffffffffffffffffff8214156144f2576144f1614281565b5b600182019050919050565b7f4552433732313a207472616e7366657220746f206e6f6e20455243373231526560008201527f63656976657220696d706c656d656e7465720000000000000000000000000000602082015250565b6000614559603283613127565b9150614564826144fd565b604082019050919050565b600060208201905081810360008301526145888161454c565b9050919050565b7f45524337323155524953746f726167653a2055524920717565727920666f722060008201527f6e6f6e6578697374656e7420746f6b656e000000000000000000000000000000602082015250565b60006145eb603183613127565b91506145f68261458f565b604082019050919050565b6000602082019050818103600083015261461a816145de565b9050919050565b600061462d8285614391565b91506146398284614391565b91508190509392505050565b6000614650826131d7565b915061465b836131d7565b9250817fffffffffffffffffffffffffffffffffffffffffffffffffffffffffffffffff048311821515161561469457614693614281565b5b828202905092915050565b60006146aa826131d7565b915060008214156146be576146bd614281565b5b600182039050919050565b7f537472696e67733a20686578206c656e67746820696e73756666696369656e74600082015250565b60006146ff602083613127565b915061470a826146c9565b602082019050919050565b6000602082019050818103600083015261472e816146f2565b9050919050565b600081519050919050565b600082825260208201905092915050565b600061475c82614735565b6147668185614740565b9350614776818560208601613138565b61477f8161316b565b840191505092915050565b600060808201905061479f600083018761326c565b6147ac602083018661326c565b6147b96040830185613302565b81810360608301526147cb8184614751565b905095945050505050565b6000815190506147e58161308d565b92915050565b60006020828403121561480157614800613057565b5b600061480f848285016147d6565b91505092915050565b7f4552433732314d657461646174613a2055524920717565727920666f72206e6f60008201527f6e6578697374656e7420746f6b656e0000000000000000000000000000000000602082015250565b6000614874602f83613127565b915061487f82614818565b604082019050919050565b600060208201905081810360008301526148a381614867565b9050919050565b7f4e487b7100000000000000000000000000000000000000000000000000000000600052601260045260246000fd5b60006148e4826131d7565b91506148ef836131d7565b9250826148ff576148fe6148aa565b5b828204905092915050565b6000614915826131d7565b9150614920836131d7565b9250826149305761492f6148aa565b5b828206905092915050565b7f4e487b7100000000000000000000000000000000000000000000000000000000600052603160045260246000fd5b7f4552433732313a206d696e7420746f20746865207a65726f2061646472657373600082015250565b60006149a0602083613127565b91506149ab8261496a565b602082019050919050565b600060208201905081810360008301526149cf81614993565b9050919050565b7f4552433732313a20746f6b656e20616c7265616479206d696e74656400000000600082015250565b6000614a0c601c83613127565b9150614a17826149d6565b602082019050919050565b60006020820190508181036000830152614a3b816149ff565b905091905056fe496b6f6e44414f20436f6c6c65637469626c653a20636f6c6c65637469626c65206d75737420626520756e69717565a264697066735822122055dd87afea9e3bbd7ee98934ca63225d1726f556dde73e87590a2cf18548a6f764736f6c634300080a0033",
  "immutableReferences": {},
  "source": "// SPDX-License-Identifier: MIT\npragma solidity ^0.8.2;\n\n/// @title The IkonDAO Vectore Collectible - fungible vector art produced by dao members \n/// @author Fernando M. Trouw\n/// @notice this contract should be used for basic simulation purposes only \n/// @notice this contract is an experimental contract and should not be used to initiate project that will hold real value\n/// @dev functions currently implemented (other then imported library) functions could contain side-effects\n\n\nimport \"@openzeppelin/contracts/token/ERC721/ERC721.sol\";\nimport \"@openzeppelin/contracts/token/ERC721/extensions/ERC721Enumerable.sol\";\nimport \"@openzeppelin/contracts/token/ERC721/extensions/ERC721URIStorage.sol\";\nimport \"@openzeppelin/contracts/security/Pausable.sol\";\nimport \"@openzeppelin/contracts/access/AccessControl.sol\";\nimport \"@openzeppelin/contracts/utils/Counters.sol\";\nimport \"./Constants.sol\";\n\n/// @custom:security-contact ftrouw@protonmail.com\ncontract IkonDAOVectorCollectible is ERC721, ERC721Enumerable, ERC721URIStorage, Pausable, AccessControl, Constants {\n    using Counters for Counters.Counter;\n\n    Counters.Counter private _tokenIdCounter;\n\n    struct Metadata {\n        bytes32 name;\n        string description;\n        bytes32 externalLink;\n        bytes32 image; \n        bytes32 category;\n        bytes32 artistHandle;\n    }\n\n    struct Category {\n        bytes32 name;\n    }\n\n    mapping(uint256 => Metadata) private tokenMetadata;\n    Category[] private categoryList;\n    mapping(bytes32 => bool) private isCategory; \n    \n\n    address _DAO;  /// maps category to list of tokens that belong to it\n\n    event DaoAddressChanged(address newAddress);\n    event VectorMinted(uint256 tokenId, address receiver);\n\n    constructor(address DAO) ERC721(\"IkonDAO Vector Collectible\", \"IKDVC\") {\n        _setupRole(ADMIN_ROLE, _msgSender());\n        _setRoleAdmin(ADMIN_ROLE, ADMIN_ROLE);\n        _setupRole(PAUSER_ROLE, _msgSender());\n        _setRoleAdmin(PAUSER_ROLE, ADMIN_ROLE);\n        _setupRole(MINTER_ROLE, _msgSender());\n        _setRoleAdmin(MINTER_ROLE, ADMIN_ROLE);\n        _DAO = DAO;\n    }\n\n    function _baseURI() internal pure override returns (string memory) {\n        return \"\";\n    }\n\n    function pause() public onlyRole(PAUSER_ROLE) {\n        _pause();\n    }\n\n    function unpause() public onlyRole(PAUSER_ROLE) {\n        _unpause();\n    }\n\n    function safeMint(address _to) private {\n        _safeMint(_to, _tokenIdCounter.current());\n        _tokenIdCounter.increment();\n    }\n\n    /// @dev mints vector token for the icon dao\n    /// @param _name of vector\n    /// @param _description description of token\n    /// @param _externalLink external link of vector\n    /// @param _imageHash of vector      \n    /// @param _category category under which the vector falls      \n    /// @param _handle artist handle to give credit to artist\n    function safeMintVector(\n        bytes32 _name, \n        string memory _description, \n        bytes32 _externalLink, \n        bytes32 _imageHash,\n        bytes32 _category, \n        bytes32 _handle\n        ) external onlyRole(MINTER_ROLE) whenNotPaused {\n        \n        uint256 tokenId = _tokenIdCounter.current();\n\n        if (tokenId != 0){ // only check after minting of the first token\n            require(!isImageTaken(_imageHash), NFT_ALREADY_EXISTS); \n        } \n        \n        /// metadata\n        Metadata memory metadata = Metadata({\n            description: _description,\n            artistHandle: _handle, \n            category: _category,\n            externalLink: _externalLink,\n            image: _imageHash,\n            name: _name\n        });\n\n        if (!isCategory[_category]){ \n            \n            safeMint(_DAO); // mint new nft \n            \n            Category memory category = Category({\n                name: _category\n            }); // create new category \n\n            categoryList.push(category);\n            isCategory[_category] = true; // validate category\n            tokenMetadata[tokenId] = metadata; // adds metadata to tokenid\n\n        }  else {\n\n            safeMint(_DAO);\n            tokenMetadata[tokenId] = metadata;\n        }\n\n        emit VectorMinted(tokenId, _DAO);\n    }\n\n    /// @dev returns true image hash of a to-be-minted nft already exists\n    /// @param imageHash ipfs hash of the image in in bytes32 format\n    /// @notice this functions acts as an extra check to make sure that only unique vectors (i.e. they must have a unique image hash) can \n    function isImageTaken(bytes32 imageHash) private view returns (bool exists) {\n        for (uint i = 0; i < _tokenIdCounter.current(); i++){\n            if (tokenMetadata[i].image == imageHash){\n                exists = true;\n            }\n        }\n    }\n    function getCategories() external view returns (Category[] memory) {\n        return(categoryList);\n    }\n\n    function getMetadata(uint256 tokenId) public view returns (Metadata memory){\n        return (tokenMetadata[tokenId]);\n    }\n    \n    /// @dev returns dao address \n    function getDAOAddress() public view returns (address){\n        return _DAO;\n    }\n\n    /// @dev see _setDaoAddress\n    function setDAOAddress(address newAddress) external onlyRole(ADMIN_ROLE) whenNotPaused {\n        _setDaoAddress(newAddress);\n        emit DaoAddressChanged(newAddress);\n    }\n\n    /// @dev sets new dao address (address to which vectors will belong)\n    /// @param _new is the new address that will own the vectors\n    function _setDaoAddress(address _new) private {\n        _DAO = _new;\n    }\n    \n    function _beforeTokenTransfer(address from, address to, uint256 tokenId)\n        internal\n        whenNotPaused\n        override(ERC721, ERC721Enumerable)\n    {\n        super._beforeTokenTransfer(from, to, tokenId);\n    }\n\n    // The following functions are overrides required by Solidity.\n    function _burn(uint256 tokenId) internal override(ERC721, ERC721URIStorage) onlyRole(ADMIN_ROLE) whenNotPaused {\n        super._burn(tokenId);\n    }\n\n    function tokenURI(uint256 tokenId)\n        public\n        view\n        override(ERC721, ERC721URIStorage)\n        returns (string memory)\n    {\n        return super.tokenURI(tokenId);\n    }\n\n    function supportsInterface(bytes4 interfaceId)\n        public\n        view\n        override(ERC721, ERC721Enumerable, AccessControl)\n        returns (bool)\n    {\n        return super.supportsInterface(interfaceId);\n    }\n}\n",
  "sourcePath": "/home/rasguy92/Documents/blockchain-developer-bootcamp-final-project/contracts/IkonDAOVectorCollectible.sol",
  "compiler": {
    "name": "solc",
    "version": "0.8.10+commit.fc410830.Emscripten.clang"
  },
  "schemaVersion": "3.4.3",
  "updatedAt": "2021-11-25T06:55:10.105Z",
  "devdoc": {
    "custom:security-contact": "ftrouw@protonmail.com",
    "kind": "dev",
    "methods": {
      "approve(address,uint256)": {
        "details": "See {IERC721-approve}."
      },
      "balanceOf(address)": {
        "details": "See {IERC721-balanceOf}."
      },
      "getApproved(uint256)": {
        "details": "See {IERC721-getApproved}."
      },
      "getDAOAddress()": {
        "details": "returns dao address "
      },
      "getRoleAdmin(bytes32)": {
        "details": "Returns the admin role that controls `role`. See {grantRole} and {revokeRole}. To change a role's admin, use {_setRoleAdmin}."
      },
      "grantRole(bytes32,address)": {
        "details": "Grants `role` to `account`. If `account` had not been already granted `role`, emits a {RoleGranted} event. Requirements: - the caller must have ``role``'s admin role."
      },
      "hasRole(bytes32,address)": {
        "details": "Returns `true` if `account` has been granted `role`."
      },
      "isApprovedForAll(address,address)": {
        "details": "See {IERC721-isApprovedForAll}."
      },
      "name()": {
        "details": "See {IERC721Metadata-name}."
      },
      "ownerOf(uint256)": {
        "details": "See {IERC721-ownerOf}."
      },
      "paused()": {
        "details": "Returns true if the contract is paused, and false otherwise."
      },
      "renounceRole(bytes32,address)": {
        "details": "Revokes `role` from the calling account. Roles are often managed via {grantRole} and {revokeRole}: this function's purpose is to provide a mechanism for accounts to lose their privileges if they are compromised (such as when a trusted device is misplaced). If the calling account had been granted `role`, emits a {RoleRevoked} event. Requirements: - the caller must be `account`."
      },
      "revokeRole(bytes32,address)": {
        "details": "Revokes `role` from `account`. If `account` had been granted `role`, emits a {RoleRevoked} event. Requirements: - the caller must have ``role``'s admin role."
      },
      "safeMintVector(bytes32,string,bytes32,bytes32,bytes32,bytes32)": {
        "details": "mints vector token for the icon dao",
        "params": {
          "_category": "category under which the vector falls      ",
          "_description": "description of token",
          "_externalLink": "external link of vector",
          "_handle": "artist handle to give credit to artist",
          "_imageHash": "of vector      ",
          "_name": "of vector"
        }
      },
      "safeTransferFrom(address,address,uint256)": {
        "details": "See {IERC721-safeTransferFrom}."
      },
      "safeTransferFrom(address,address,uint256,bytes)": {
        "details": "See {IERC721-safeTransferFrom}."
      },
      "setApprovalForAll(address,bool)": {
        "details": "See {IERC721-setApprovalForAll}."
      },
      "setDAOAddress(address)": {
        "details": "see _setDaoAddress"
      },
      "symbol()": {
        "details": "See {IERC721Metadata-symbol}."
      },
      "tokenByIndex(uint256)": {
        "details": "See {IERC721Enumerable-tokenByIndex}."
      },
      "tokenOfOwnerByIndex(address,uint256)": {
        "details": "See {IERC721Enumerable-tokenOfOwnerByIndex}."
      },
      "totalSupply()": {
        "details": "See {IERC721Enumerable-totalSupply}."
      },
      "transferFrom(address,address,uint256)": {
        "details": "See {IERC721-transferFrom}."
      }
    },
    "version": 1
  },
  "userdoc": {
    "events": {
      "DaoAddressChanged(address)": {
        "notice": "maps category to list of tokens that belong to it"
      }
    },
    "kind": "user",
    "methods": {},
    "version": 1
  }
}