{
  "contractName": "IkonDAOGovernor",
  "abi": [
    {
      "inputs": [
        {
          "internalType": "contract ERC20Votes",
          "name": "_token",
          "type": "address"
        },
        {
          "internalType": "contract TimelockController",
          "name": "_timelock",
          "type": "address"
        },
        {
          "internalType": "string",
          "name": "_govName",
          "type": "string"
        },
        {
          "internalType": "uint256",
          "name": "_delay",
          "type": "uint256"
        },
        {
          "internalType": "uint256",
          "name": "_period",
          "type": "uint256"
        }
      ],
      "stateMutability": "nonpayable",
      "type": "constructor"
    },
    {
      "anonymous": false,
      "inputs": [
        {
          "indexed": true,
          "internalType": "address",
          "name": "previousOwner",
          "type": "address"
        },
        {
          "indexed": true,
          "internalType": "address",
          "name": "newOwner",
          "type": "address"
        }
      ],
      "name": "OwnershipTransferred",
      "type": "event"
    },
    {
      "anonymous": false,
      "inputs": [
        {
          "indexed": false,
          "internalType": "uint256",
          "name": "proposalId",
          "type": "uint256"
        }
      ],
      "name": "ProposalCanceled",
      "type": "event"
    },
    {
      "anonymous": false,
      "inputs": [
        {
          "indexed": false,
          "internalType": "uint256",
          "name": "proposalId",
          "type": "uint256"
        },
        {
          "indexed": false,
          "internalType": "address",
          "name": "proposer",
          "type": "address"
        },
        {
          "indexed": false,
          "internalType": "address[]",
          "name": "targets",
          "type": "address[]"
        },
        {
          "indexed": false,
          "internalType": "uint256[]",
          "name": "values",
          "type": "uint256[]"
        },
        {
          "indexed": false,
          "internalType": "string[]",
          "name": "signatures",
          "type": "string[]"
        },
        {
          "indexed": false,
          "internalType": "bytes[]",
          "name": "calldatas",
          "type": "bytes[]"
        },
        {
          "indexed": false,
          "internalType": "uint256",
          "name": "startBlock",
          "type": "uint256"
        },
        {
          "indexed": false,
          "internalType": "uint256",
          "name": "endBlock",
          "type": "uint256"
        },
        {
          "indexed": false,
          "internalType": "string",
          "name": "description",
          "type": "string"
        }
      ],
      "name": "ProposalCreated",
      "type": "event"
    },
    {
      "anonymous": false,
      "inputs": [
        {
          "indexed": false,
          "internalType": "uint256",
          "name": "proposalId",
          "type": "uint256"
        }
      ],
      "name": "ProposalExecuted",
      "type": "event"
    },
    {
      "anonymous": false,
      "inputs": [
        {
          "indexed": false,
          "internalType": "uint256",
          "name": "proposalId",
          "type": "uint256"
        },
        {
          "indexed": false,
          "internalType": "uint256",
          "name": "eta",
          "type": "uint256"
        }
      ],
      "name": "ProposalQueued",
      "type": "event"
    },
    {
      "anonymous": false,
      "inputs": [
        {
          "indexed": false,
          "internalType": "uint256",
          "name": "oldQuorumNumerator",
          "type": "uint256"
        },
        {
          "indexed": false,
          "internalType": "uint256",
          "name": "newQuorumNumerator",
          "type": "uint256"
        }
      ],
      "name": "QuorumNumeratorUpdated",
      "type": "event"
    },
    {
      "anonymous": false,
      "inputs": [
        {
          "indexed": false,
          "internalType": "address",
          "name": "oldTimelock",
          "type": "address"
        },
        {
          "indexed": false,
          "internalType": "address",
          "name": "newTimelock",
          "type": "address"
        }
      ],
      "name": "TimelockChange",
      "type": "event"
    },
    {
      "anonymous": false,
      "inputs": [
        {
          "indexed": true,
          "internalType": "address",
          "name": "voter",
          "type": "address"
        },
        {
          "indexed": false,
          "internalType": "uint256",
          "name": "proposalId",
          "type": "uint256"
        },
        {
          "indexed": false,
          "internalType": "uint8",
          "name": "support",
          "type": "uint8"
        },
        {
          "indexed": false,
          "internalType": "uint256",
          "name": "weight",
          "type": "uint256"
        },
        {
          "indexed": false,
          "internalType": "string",
          "name": "reason",
          "type": "string"
        }
      ],
      "name": "VoteCast",
      "type": "event"
    },
    {
      "inputs": [],
      "name": "BALLOT_TYPEHASH",
      "outputs": [
        {
          "internalType": "bytes32",
          "name": "",
          "type": "bytes32"
        }
      ],
      "stateMutability": "view",
      "type": "function"
    },
    {
      "inputs": [],
      "name": "COUNTING_MODE",
      "outputs": [
        {
          "internalType": "string",
          "name": "",
          "type": "string"
        }
      ],
      "stateMutability": "pure",
      "type": "function"
    },
    {
      "inputs": [],
      "name": "_version",
      "outputs": [
        {
          "internalType": "string",
          "name": "",
          "type": "string"
        }
      ],
      "stateMutability": "view",
      "type": "function"
    },
    {
      "inputs": [
        {
          "internalType": "uint256",
          "name": "proposalId",
          "type": "uint256"
        },
        {
          "internalType": "uint8",
          "name": "support",
          "type": "uint8"
        }
      ],
      "name": "castVote",
      "outputs": [
        {
          "internalType": "uint256",
          "name": "",
          "type": "uint256"
        }
      ],
      "stateMutability": "nonpayable",
      "type": "function"
    },
    {
      "inputs": [
        {
          "internalType": "uint256",
          "name": "proposalId",
          "type": "uint256"
        },
        {
          "internalType": "uint8",
          "name": "support",
          "type": "uint8"
        },
        {
          "internalType": "uint8",
          "name": "v",
          "type": "uint8"
        },
        {
          "internalType": "bytes32",
          "name": "r",
          "type": "bytes32"
        },
        {
          "internalType": "bytes32",
          "name": "s",
          "type": "bytes32"
        }
      ],
      "name": "castVoteBySig",
      "outputs": [
        {
          "internalType": "uint256",
          "name": "",
          "type": "uint256"
        }
      ],
      "stateMutability": "nonpayable",
      "type": "function"
    },
    {
      "inputs": [
        {
          "internalType": "uint256",
          "name": "proposalId",
          "type": "uint256"
        },
        {
          "internalType": "uint8",
          "name": "support",
          "type": "uint8"
        },
        {
          "internalType": "string",
          "name": "reason",
          "type": "string"
        }
      ],
      "name": "castVoteWithReason",
      "outputs": [
        {
          "internalType": "uint256",
          "name": "",
          "type": "uint256"
        }
      ],
      "stateMutability": "nonpayable",
      "type": "function"
    },
    {
      "inputs": [
        {
          "internalType": "address[]",
          "name": "targets",
          "type": "address[]"
        },
        {
          "internalType": "uint256[]",
          "name": "values",
          "type": "uint256[]"
        },
        {
          "internalType": "bytes[]",
          "name": "calldatas",
          "type": "bytes[]"
        },
        {
          "internalType": "bytes32",
          "name": "descriptionHash",
          "type": "bytes32"
        }
      ],
      "name": "execute",
      "outputs": [
        {
          "internalType": "uint256",
          "name": "",
          "type": "uint256"
        }
      ],
      "stateMutability": "payable",
      "type": "function"
    },
    {
      "inputs": [
        {
          "internalType": "uint256",
          "name": "proposalId",
          "type": "uint256"
        },
        {
          "internalType": "address",
          "name": "account",
          "type": "address"
        }
      ],
      "name": "hasVoted",
      "outputs": [
        {
          "internalType": "bool",
          "name": "",
          "type": "bool"
        }
      ],
      "stateMutability": "view",
      "type": "function"
    },
    {
      "inputs": [
        {
          "internalType": "address[]",
          "name": "targets",
          "type": "address[]"
        },
        {
          "internalType": "uint256[]",
          "name": "values",
          "type": "uint256[]"
        },
        {
          "internalType": "bytes[]",
          "name": "calldatas",
          "type": "bytes[]"
        },
        {
          "internalType": "bytes32",
          "name": "descriptionHash",
          "type": "bytes32"
        }
      ],
      "name": "hashProposal",
      "outputs": [
        {
          "internalType": "uint256",
          "name": "",
          "type": "uint256"
        }
      ],
      "stateMutability": "pure",
      "type": "function"
    },
    {
      "inputs": [],
      "name": "name",
      "outputs": [
        {
          "internalType": "string",
          "name": "",
          "type": "string"
        }
      ],
      "stateMutability": "view",
      "type": "function"
    },
    {
      "inputs": [],
      "name": "owner",
      "outputs": [
        {
          "internalType": "address",
          "name": "",
          "type": "address"
        }
      ],
      "stateMutability": "view",
      "type": "function"
    },
    {
      "inputs": [
        {
          "internalType": "uint256",
          "name": "proposalId",
          "type": "uint256"
        }
      ],
      "name": "proposalDeadline",
      "outputs": [
        {
          "internalType": "uint256",
          "name": "",
          "type": "uint256"
        }
      ],
      "stateMutability": "view",
      "type": "function"
    },
    {
      "inputs": [
        {
          "internalType": "uint256",
          "name": "proposalId",
          "type": "uint256"
        }
      ],
      "name": "proposalEta",
      "outputs": [
        {
          "internalType": "uint256",
          "name": "",
          "type": "uint256"
        }
      ],
      "stateMutability": "view",
      "type": "function"
    },
    {
      "inputs": [
        {
          "internalType": "uint256",
          "name": "proposalId",
          "type": "uint256"
        }
      ],
      "name": "proposalSnapshot",
      "outputs": [
        {
          "internalType": "uint256",
          "name": "",
          "type": "uint256"
        }
      ],
      "stateMutability": "view",
      "type": "function"
    },
    {
      "inputs": [
        {
          "internalType": "uint256",
          "name": "proposalId",
          "type": "uint256"
        }
      ],
      "name": "proposalVotes",
      "outputs": [
        {
          "internalType": "uint256",
          "name": "againstVotes",
          "type": "uint256"
        },
        {
          "internalType": "uint256",
          "name": "forVotes",
          "type": "uint256"
        },
        {
          "internalType": "uint256",
          "name": "abstainVotes",
          "type": "uint256"
        }
      ],
      "stateMutability": "view",
      "type": "function"
    },
    {
      "inputs": [
        {
          "internalType": "address[]",
          "name": "targets",
          "type": "address[]"
        },
        {
          "internalType": "uint256[]",
          "name": "values",
          "type": "uint256[]"
        },
        {
          "internalType": "bytes[]",
          "name": "calldatas",
          "type": "bytes[]"
        },
        {
          "internalType": "bytes32",
          "name": "descriptionHash",
          "type": "bytes32"
        }
      ],
      "name": "queue",
      "outputs": [
        {
          "internalType": "uint256",
          "name": "",
          "type": "uint256"
        }
      ],
      "stateMutability": "nonpayable",
      "type": "function"
    },
    {
      "inputs": [],
      "name": "quorumDenominator",
      "outputs": [
        {
          "internalType": "uint256",
          "name": "",
          "type": "uint256"
        }
      ],
      "stateMutability": "view",
      "type": "function"
    },
    {
      "inputs": [],
      "name": "quorumNumerator",
      "outputs": [
        {
          "internalType": "uint256",
          "name": "",
          "type": "uint256"
        }
      ],
      "stateMutability": "view",
      "type": "function"
    },
    {
      "inputs": [],
      "name": "renounceOwnership",
      "outputs": [],
      "stateMutability": "nonpayable",
      "type": "function"
    },
    {
      "inputs": [],
      "name": "timelock",
      "outputs": [
        {
          "internalType": "address",
          "name": "",
          "type": "address"
        }
      ],
      "stateMutability": "view",
      "type": "function"
    },
    {
      "inputs": [],
      "name": "token",
      "outputs": [
        {
          "internalType": "contract ERC20Votes",
          "name": "",
          "type": "address"
        }
      ],
      "stateMutability": "view",
      "type": "function"
    },
    {
      "inputs": [
        {
          "internalType": "address",
          "name": "newOwner",
          "type": "address"
        }
      ],
      "name": "transferOwnership",
      "outputs": [],
      "stateMutability": "nonpayable",
      "type": "function"
    },
    {
      "inputs": [
        {
          "internalType": "uint256",
          "name": "newQuorumNumerator",
          "type": "uint256"
        }
      ],
      "name": "updateQuorumNumerator",
      "outputs": [],
      "stateMutability": "nonpayable",
      "type": "function"
    },
    {
      "inputs": [
        {
          "internalType": "contract TimelockController",
          "name": "newTimelock",
          "type": "address"
        }
      ],
      "name": "updateTimelock",
      "outputs": [],
      "stateMutability": "nonpayable",
      "type": "function"
    },
    {
      "inputs": [],
      "name": "version",
      "outputs": [
        {
          "internalType": "string",
          "name": "",
          "type": "string"
        }
      ],
      "stateMutability": "view",
      "type": "function"
    },
    {
      "inputs": [],
      "name": "votingDelay",
      "outputs": [
        {
          "internalType": "uint256",
          "name": "",
          "type": "uint256"
        }
      ],
      "stateMutability": "view",
      "type": "function"
    },
    {
      "inputs": [],
      "name": "votingPeriod",
      "outputs": [
        {
          "internalType": "uint256",
          "name": "",
          "type": "uint256"
        }
      ],
      "stateMutability": "view",
      "type": "function"
    },
    {
      "inputs": [
        {
          "internalType": "uint256",
          "name": "_period",
          "type": "uint256"
        }
      ],
      "name": "setVotingPeriod",
      "outputs": [],
      "stateMutability": "nonpayable",
      "type": "function"
    },
    {
      "inputs": [
        {
          "internalType": "uint256",
          "name": "_delay",
          "type": "uint256"
        }
      ],
      "name": "setVotingDelay",
      "outputs": [],
      "stateMutability": "nonpayable",
      "type": "function"
    },
    {
      "inputs": [
        {
          "internalType": "uint256",
          "name": "blockNumber",
          "type": "uint256"
        }
      ],
      "name": "quorum",
      "outputs": [
        {
          "internalType": "uint256",
          "name": "",
          "type": "uint256"
        }
      ],
      "stateMutability": "view",
      "type": "function"
    },
    {
      "inputs": [
        {
          "internalType": "address",
          "name": "account",
          "type": "address"
        },
        {
          "internalType": "uint256",
          "name": "blockNumber",
          "type": "uint256"
        }
      ],
      "name": "getVotes",
      "outputs": [
        {
          "internalType": "uint256",
          "name": "",
          "type": "uint256"
        }
      ],
      "stateMutability": "view",
      "type": "function"
    },
    {
      "inputs": [
        {
          "internalType": "uint256",
          "name": "proposalId",
          "type": "uint256"
        }
      ],
      "name": "state",
      "outputs": [
        {
          "internalType": "enum IGovernor.ProposalState",
          "name": "",
          "type": "uint8"
        }
      ],
      "stateMutability": "view",
      "type": "function"
    },
    {
      "inputs": [
        {
          "internalType": "address[]",
          "name": "targets",
          "type": "address[]"
        },
        {
          "internalType": "uint256[]",
          "name": "values",
          "type": "uint256[]"
        },
        {
          "internalType": "bytes[]",
          "name": "calldatas",
          "type": "bytes[]"
        },
        {
          "internalType": "string",
          "name": "description",
          "type": "string"
        }
      ],
      "name": "propose",
      "outputs": [
        {
          "internalType": "uint256",
          "name": "",
          "type": "uint256"
        }
      ],
      "stateMutability": "nonpayable",
      "type": "function"
    },
    {
      "inputs": [
        {
          "internalType": "bytes4",
          "name": "interfaceId",
          "type": "bytes4"
        }
      ],
      "name": "supportsInterface",
      "outputs": [
        {
          "internalType": "bool",
          "name": "",
          "type": "bool"
        }
      ],
      "stateMutability": "view",
      "type": "function"
    }
  ],
  "bytecode": "0x6101406040523480156200001257600080fd5b50604051620057b8380380620057b88339818101604052810190620000389190620007b3565b8360048685806200004e620001c660201b60201c565b60008280519060200120905060008280519060200120905060007f8b73c3c69bb8fe3d512ecc4cf759cc79239f7b179b0ffacaa9a75d522b39400f90508260c081815250508160e081815250504660a08181525050620000b68184846200020360201b60201c565b6080818152505080610100818152505050505050508060009080519060200190620000e392919062000459565b505062000105620000f96200023f60201b60201c565b6200024760201b60201c565b8073ffffffffffffffffffffffffffffffffffffffff166101208173ffffffffffffffffffffffffffffffffffffffff1681525050506200014c816200030d60201b60201c565b506200015e81620003af60201b60201c565b508160098190555080600a819055506040518060400160405280600581526020017f312e302e3000000000000000000000000000000000000000000000000000000081525060089080519060200190620001ba92919062000459565b50505050505062000a82565b60606040518060400160405280600181526020017f3100000000000000000000000000000000000000000000000000000000000000815250905090565b600083838346306040516020016200022095949392919062000897565b6040516020818303038152906040528051906020012090509392505050565b600033905090565b6000600260009054906101000a900473ffffffffffffffffffffffffffffffffffffffff16905081600260006101000a81548173ffffffffffffffffffffffffffffffffffffffff021916908373ffffffffffffffffffffffffffffffffffffffff1602179055508173ffffffffffffffffffffffffffffffffffffffff168173ffffffffffffffffffffffffffffffffffffffff167f8be0079c531659141344cd1fd0a4f28419497f9722a3daafe3b4186f6b6457e060405160405180910390a35050565b6200031d6200045060201b60201c565b81111562000362576040517f08c379a00000000000000000000000000000000000000000000000000000000081526004016200035990620009a1565b60405180910390fd5b60006004549050816004819055507f0553476bf02ef2726e8ce5ced78d63e26e602e4a2257b1f559418e24b46339978183604051620003a3929190620009c3565b60405180910390a15050565b7f08f74ea46ef7894f65eabfb5e6e695de773a000b47c529ab559178069b226401600560009054906101000a900473ffffffffffffffffffffffffffffffffffffffff168260405162000404929190620009f0565b60405180910390a180600560006101000a81548173ffffffffffffffffffffffffffffffffffffffff021916908373ffffffffffffffffffffffffffffffffffffffff16021790555050565b60006064905090565b828054620004679062000a4c565b90600052602060002090601f0160209004810192826200048b5760008555620004d7565b82601f10620004a657805160ff1916838001178555620004d7565b82800160010185558215620004d7579182015b82811115620004d6578251825591602001919060010190620004b9565b5b509050620004e69190620004ea565b5090565b5b8082111562000505576000816000905550600101620004eb565b5090565b6000604051905090565b600080fd5b600080fd5b600073ffffffffffffffffffffffffffffffffffffffff82169050919050565b60006200054a826200051d565b9050919050565b60006200055e826200053d565b9050919050565b620005708162000551565b81146200057c57600080fd5b50565b600081519050620005908162000565565b92915050565b6000620005a3826200051d565b9050919050565b6000620005b78262000596565b9050919050565b620005c981620005aa565b8114620005d557600080fd5b50565b600081519050620005e981620005be565b92915050565b600080fd5b600080fd5b6000601f19601f8301169050919050565b7f4e487b7100000000000000000000000000000000000000000000000000000000600052604160045260246000fd5b6200064482620005f9565b810181811067ffffffffffffffff821117156200066657620006656200060a565b5b80604052505050565b60006200067b62000509565b905062000689828262000639565b919050565b600067ffffffffffffffff821115620006ac57620006ab6200060a565b5b620006b782620005f9565b9050602081019050919050565b60005b83811015620006e4578082015181840152602081019050620006c7565b83811115620006f4576000848401525b50505050565b6000620007116200070b846200068e565b6200066f565b90508281526020810184848401111562000730576200072f620005f4565b5b6200073d848285620006c4565b509392505050565b600082601f8301126200075d576200075c620005ef565b5b81516200076f848260208601620006fa565b91505092915050565b6000819050919050565b6200078d8162000778565b81146200079957600080fd5b50565b600081519050620007ad8162000782565b92915050565b600080600080600060a08688031215620007d257620007d162000513565b5b6000620007e2888289016200057f565b9550506020620007f588828901620005d8565b945050604086015167ffffffffffffffff81111562000819576200081862000518565b5b620008278882890162000745565b93505060606200083a888289016200079c565b92505060806200084d888289016200079c565b9150509295509295909350565b6000819050919050565b6200086f816200085a565b82525050565b620008808162000778565b82525050565b62000891816200053d565b82525050565b600060a082019050620008ae600083018862000864565b620008bd602083018762000864565b620008cc604083018662000864565b620008db606083018562000875565b620008ea608083018462000886565b9695505050505050565b600082825260208201905092915050565b7f476f7665726e6f72566f74657351756f72756d4672616374696f6e3a2071756f60008201527f72756d4e756d657261746f72206f7665722071756f72756d44656e6f6d696e6160208201527f746f720000000000000000000000000000000000000000000000000000000000604082015250565b600062000989604383620008f4565b9150620009968262000905565b606082019050919050565b60006020820190508181036000830152620009bc816200097a565b9050919050565b6000604082019050620009da600083018562000875565b620009e9602083018462000875565b9392505050565b600060408201905062000a07600083018562000886565b62000a16602083018462000886565b9392505050565b7f4e487b7100000000000000000000000000000000000000000000000000000000600052602260045260246000fd5b6000600282049050600182168062000a6557607f821691505b6020821081141562000a7c5762000a7b62000a1d565b5b50919050565b60805160a05160c05160e0516101005161012051614cd862000ae0600039600081816116ad01528181611f040152611fc9015260006122240152600061226601526000612245015260006121d1015260006121f90152614cd86000f3fe6080604052600436106101f95760003560e01c80637b3c71d31161010d578063c59057e4116100a0578063ea0217cf1161006f578063ea0217cf146107b4578063eb9019d4146107dd578063f2fde38b1461081a578063f8ce560a14610843578063fc0c546a14610880576101f9565b8063c59057e4146106f6578063d33219b414610733578063dd4e2ba51461075e578063deaaa7cc14610789576101f9565b8063a7713a70116100dc578063a7713a7014610628578063a890c91014610653578063ab58fb8e1461067c578063c01f9e37146106b9576101f9565b80637b3c71d3146105585780637d5e81e2146105955780638da5cb5b146105d257806397c3d334146105fd576101f9565b80633bccf4fd11610190578063544ffc9c1161015f578063544ffc9c1461047157806354fd4d50146104b057806356781388146104db57806370b0f66014610518578063715018a614610541576101f9565b80633bccf4fd1461038f5780633e118dbe146103cc5780633e4f49e6146103f75780634385963214610434576101f9565b8063160cbed7116101cc578063160cbed7146102ba5780632656227d146102f75780632d63f693146103275780633932abb114610364576101f9565b806301ffc9a7146101fe57806302a251a31461023b57806306f3f9e61461026657806306fdde031461028f575b600080fd5b34801561020a57600080fd5b5061022560048036038101906102209190612bf4565b6108ab565b6040516102329190612c3c565b60405180910390f35b34801561024757600080fd5b506102506108bd565b60405161025d9190612c70565b60405180910390f35b34801561027257600080fd5b5061028d60048036038101906102889190612cb7565b6108c7565b005b34801561029b57600080fd5b506102a461094f565b6040516102b19190612d7d565b60405180910390f35b3480156102c657600080fd5b506102e160048036038101906102dc91906131d4565b6109e1565b6040516102ee9190612c70565b60405180910390f35b610311600480360381019061030c91906131d4565b610cb9565b60405161031e9190612c70565b60405180910390f35b34801561033357600080fd5b5061034e60048036038101906103499190612cb7565b610dec565b60405161035b9190612c70565b60405180910390f35b34801561037057600080fd5b50610379610e5a565b6040516103869190612c70565b60405180910390f35b34801561039b57600080fd5b506103b660048036038101906103b191906132c8565b610e64565b6040516103c39190612c70565b60405180910390f35b3480156103d857600080fd5b506103e1610eee565b6040516103ee9190612d7d565b60405180910390f35b34801561040357600080fd5b5061041e60048036038101906104199190612cb7565b610f7c565b60405161042b91906133ba565b60405180910390f35b34801561044057600080fd5b5061045b600480360381019061045691906133d5565b610f8e565b6040516104689190612c3c565b60405180910390f35b34801561047d57600080fd5b5061049860048036038101906104939190612cb7565b610ff9565b6040516104a793929190613415565b60405180910390f35b3480156104bc57600080fd5b506104c5611031565b6040516104d29190612d7d565b60405180910390f35b3480156104e757600080fd5b5061050260048036038101906104fd919061344c565b61106e565b60405161050f9190612c70565b60405180910390f35b34801561052457600080fd5b5061053f600480360381019061053a9190612cb7565b61109f565b005b34801561054d57600080fd5b50610556611127565b005b34801561056457600080fd5b5061057f600480360381019061057a91906134e7565b6111af565b60405161058c9190612c70565b60405180910390f35b3480156105a157600080fd5b506105bc60048036038101906105b791906135fc565b611217565b6040516105c99190612c70565b60405180910390f35b3480156105de57600080fd5b506105e761122f565b6040516105f491906136e2565b60405180910390f35b34801561060957600080fd5b50610612611259565b60405161061f9190612c70565b60405180910390f35b34801561063457600080fd5b5061063d611262565b60405161064a9190612c70565b60405180910390f35b34801561065f57600080fd5b5061067a6004803603810190610675919061374d565b61126c565b005b34801561068857600080fd5b506106a3600480360381019061069e9190612cb7565b6112f4565b6040516106b09190612c70565b60405180910390f35b3480156106c557600080fd5b506106e060048036038101906106db9190612cb7565b6113d0565b6040516106ed9190612c70565b60405180910390f35b34801561070257600080fd5b5061071d600480360381019061071891906131d4565b61143e565b60405161072a9190612c70565b60405180910390f35b34801561073f57600080fd5b5061074861147a565b60405161075591906136e2565b60405180910390f35b34801561076a57600080fd5b506107736114a4565b6040516107809190612d7d565b60405180910390f35b34801561079557600080fd5b5061079e6114e1565b6040516107ab9190613789565b60405180910390f35b3480156107c057600080fd5b506107db60048036038101906107d69190612cb7565b611505565b005b3480156107e957600080fd5b5061080460048036038101906107ff91906137a4565b61158d565b6040516108119190612c70565b60405180910390f35b34801561082657600080fd5b50610841600480360381019061083c91906137e4565b6115a1565b005b34801561084f57600080fd5b5061086a60048036038101906108659190612cb7565b611699565b6040516108779190612c70565b60405180910390f35b34801561088c57600080fd5b506108956116ab565b6040516108a29190613870565b60405180910390f35b60006108b6826116cf565b9050919050565b6000600a54905090565b6108cf611749565b73ffffffffffffffffffffffffffffffffffffffff166108ed611758565b73ffffffffffffffffffffffffffffffffffffffff1614610943576040517f08c379a000000000000000000000000000000000000000000000000000000000815260040161093a906138d7565b60405180910390fd5b61094c81611760565b50565b60606000805461095e90613926565b80601f016020809104026020016040519081016040528092919081815260200182805461098a90613926565b80156109d75780601f106109ac576101008083540402835291602001916109d7565b820191906000526020600020905b8154815290600101906020018083116109ba57829003601f168201915b5050505050905090565b6000806109f08686868661143e565b905060046007811115610a0657610a05613343565b5b610a0f82610f7c565b6007811115610a2157610a20613343565b5b14610a61576040517f08c379a0000000000000000000000000000000000000000000000000000000008152600401610a58906139ca565b60405180910390fd5b6000600560009054906101000a900473ffffffffffffffffffffffffffffffffffffffff1673ffffffffffffffffffffffffffffffffffffffff1663f27a0c926040518163ffffffff1660e01b815260040160206040518083038186803b158015610acb57600080fd5b505afa158015610adf573d6000803e3d6000fd5b505050506040513d601f19601f82011682018060405250810190610b0391906139ff565b9050600560009054906101000a900473ffffffffffffffffffffffffffffffffffffffff1673ffffffffffffffffffffffffffffffffffffffff1663b1c5f4278888886000896040518663ffffffff1660e01b8152600401610b69959493929190613d07565b60206040518083038186803b158015610b8157600080fd5b505afa158015610b95573d6000803e3d6000fd5b505050506040513d601f19601f82011682018060405250810190610bb99190613d84565b6006600084815260200190815260200160002081905550600560009054906101000a900473ffffffffffffffffffffffffffffffffffffffff1673ffffffffffffffffffffffffffffffffffffffff16638f2a0bb0888888600089876040518763ffffffff1660e01b8152600401610c3696959493929190613db1565b600060405180830381600087803b158015610c5057600080fd5b505af1158015610c64573d6000803e3d6000fd5b505050507f9a2e42fd6722813d69113e7d0079d3d940171428df7373df9c7f7617cfda2892828242610c969190613e56565b604051610ca4929190613eac565b60405180910390a18192505050949350505050565b600080610cc88686868661143e565b90506000610cd582610f7c565b905060046007811115610ceb57610cea613343565b5b816007811115610cfe57610cfd613343565b5b1480610d2e575060056007811115610d1957610d18613343565b5b816007811115610d2c57610d2b613343565b5b145b610d6d576040517f08c379a0000000000000000000000000000000000000000000000000000000008152600401610d64906139ca565b60405180910390fd5b600180600084815260200190815260200160002060020160006101000a81548160ff0219169083151502179055507f712ae1383f79ac853f8d882153778e0260ef8f03b504e2866e0593e04d2b291f82604051610dca9190612c70565b60405180910390a1610ddf82888888886117f5565b8192505050949350505050565b6000610e49600160008481526020019081526020016000206000016040518060200160405290816000820160009054906101000a900467ffffffffffffffff1667ffffffffffffffff1667ffffffffffffffff1681525050611809565b67ffffffffffffffff169050919050565b6000600954905090565b600080610ec5610ebd7f150214d74d59b7d1e90c73fc22ef3d991dd0a76b046543d4d80ab92d2a50328f8989604051602001610ea293929190613ee4565b60405160208183030381529060405280519060200120611817565b868686611831565b9050610ee28782886040518060200160405280600081525061185c565b91505095945050505050565b60088054610efb90613926565b80601f0160208091040260200160405190810160405280929190818152602001828054610f2790613926565b8015610f745780601f10610f4957610100808354040283529160200191610f74565b820191906000526020600020905b815481529060010190602001808311610f5757829003601f168201915b505050505081565b6000610f87826119b0565b9050919050565b60006003600084815260200190815260200160002060030160008373ffffffffffffffffffffffffffffffffffffffff1673ffffffffffffffffffffffffffffffffffffffff16815260200190815260200160002060009054906101000a900460ff16905092915050565b600080600080600360008681526020019081526020016000209050806000015481600101548260020154935093509350509193909250565b60606040518060400160405280600181526020017f3100000000000000000000000000000000000000000000000000000000000000815250905090565b600080611079611758565b90506110968482856040518060200160405280600081525061185c565b91505092915050565b6110a7611758565b73ffffffffffffffffffffffffffffffffffffffff166110c561122f565b73ffffffffffffffffffffffffffffffffffffffff161461111b576040517f08c379a000000000000000000000000000000000000000000000000000000000815260040161111290613f67565b60405180910390fd5b61112481611ae7565b50565b61112f611758565b73ffffffffffffffffffffffffffffffffffffffff1661114d61122f565b73ffffffffffffffffffffffffffffffffffffffff16146111a3576040517f08c379a000000000000000000000000000000000000000000000000000000000815260040161119a90613f67565b60405180910390fd5b6111ad6000611af1565b565b6000806111ba611758565b905061120c86828787878080601f016020809104026020016040519081016040528093929190818152602001838380828437600081840152601f19601f8201169050808301925050505050505061185c565b915050949350505050565b600061122585858585611bb7565b9050949350505050565b6000600260009054906101000a900473ffffffffffffffffffffffffffffffffffffffff16905090565b60006064905090565b6000600454905090565b611274611749565b73ffffffffffffffffffffffffffffffffffffffff16611292611758565b73ffffffffffffffffffffffffffffffffffffffff16146112e8576040517f08c379a00000000000000000000000000000000000000000000000000000000081526004016112df906138d7565b60405180910390fd5b6112f181611e57565b50565b600080600560009054906101000a900473ffffffffffffffffffffffffffffffffffffffff1673ffffffffffffffffffffffffffffffffffffffff1663d45c443560066000868152602001908152602001600020546040518263ffffffff1660e01b81526004016113659190613789565b60206040518083038186803b15801561137d57600080fd5b505afa158015611391573d6000803e3d6000fd5b505050506040513d601f19601f820116820180604052508101906113b591906139ff565b9050600181146113c557806113c8565b60005b915050919050565b600061142d600160008481526020019081526020016000206001016040518060200160405290816000820160009054906101000a900467ffffffffffffffff1667ffffffffffffffff1667ffffffffffffffff1681525050611809565b67ffffffffffffffff169050919050565b6000848484846040516020016114579493929190613f87565b6040516020818303038152906040528051906020012060001c9050949350505050565b6000600560009054906101000a900473ffffffffffffffffffffffffffffffffffffffff16905090565b60606040518060400160405280602081526020017f737570706f72743d627261766f2671756f72756d3d666f722c6162737461696e815250905090565b7f150214d74d59b7d1e90c73fc22ef3d991dd0a76b046543d4d80ab92d2a50328f81565b61150d611758565b73ffffffffffffffffffffffffffffffffffffffff1661152b61122f565b73ffffffffffffffffffffffffffffffffffffffff1614611581576040517f08c379a000000000000000000000000000000000000000000000000000000000815260040161157890613f67565b60405180910390fd5b61158a81611ef6565b50565b60006115998383611f00565b905092915050565b6115a9611758565b73ffffffffffffffffffffffffffffffffffffffff166115c761122f565b73ffffffffffffffffffffffffffffffffffffffff161461161d576040517f08c379a000000000000000000000000000000000000000000000000000000000815260040161161490613f67565b60405180910390fd5b600073ffffffffffffffffffffffffffffffffffffffff168173ffffffffffffffffffffffffffffffffffffffff16141561168d576040517f08c379a000000000000000000000000000000000000000000000000000000000815260040161168490614053565b60405180910390fd5b61169681611af1565b50565b60006116a482611fb5565b9050919050565b7f000000000000000000000000000000000000000000000000000000000000000081565b60007f6e665ced000000000000000000000000000000000000000000000000000000007bffffffffffffffffffffffffffffffffffffffffffffffffffffffff1916827bffffffffffffffffffffffffffffffffffffffffffffffffffffffff1916148061174257506117418261208b565b5b9050919050565b6000611753612105565b905090565b600033905090565b611768611259565b8111156117aa576040517f08c379a00000000000000000000000000000000000000000000000000000000081526004016117a19061410b565b60405180910390fd5b60006004549050816004819055507f0553476bf02ef2726e8ce5ced78d63e26e602e4a2257b1f559418e24b463399781836040516117e9929190613eac565b60405180910390a15050565b611802858585858561212f565b5050505050565b600081600001519050919050565b600061182a6118246121cd565b83612290565b9050919050565b6000806000611842878787876122c3565b9150915061184f816123d0565b8192505050949350505050565b6000806001600087815260200190815260200160002090506001600781111561188857611887613343565b5b61189187610f7c565b60078111156118a3576118a2613343565b5b146118e3576040517f08c379a00000000000000000000000000000000000000000000000000000000081526004016118da9061419d565b60405180910390fd5b600061194186611932846000016040518060200160405290816000820160009054906101000a900467ffffffffffffffff1667ffffffffffffffff1667ffffffffffffffff1681525050611809565b67ffffffffffffffff1661158d565b905061194f878787846125a5565b8573ffffffffffffffffffffffffffffffffffffffff167fb8e138887d0aa13bab447e82de9d5c1777041ecd21ca36ba824ff1e6c07ddda48887848860405161199b94939291906141bd565b60405180910390a28092505050949350505050565b6000806119bc836127ab565b9050600460078111156119d2576119d1613343565b5b8160078111156119e5576119e4613343565b5b146119f35780915050611ae2565b6000600660008581526020019081526020016000205490506000801b811415611a20578192505050611ae2565b600560009054906101000a900473ffffffffffffffffffffffffffffffffffffffff1673ffffffffffffffffffffffffffffffffffffffff16632ab0f529826040518263ffffffff1660e01b8152600401611a7b9190613789565b60206040518083038186803b158015611a9357600080fd5b505afa158015611aa7573d6000803e3d6000fd5b505050506040513d601f19601f82011682018060405250810190611acb9190614235565b15611adb57600792505050611ae2565b6005925050505b919050565b8060098190555050565b6000600260009054906101000a900473ffffffffffffffffffffffffffffffffffffffff16905081600260006101000a81548173ffffffffffffffffffffffffffffffffffffffff021916908373ffffffffffffffffffffffffffffffffffffffff1602179055508173ffffffffffffffffffffffffffffffffffffffff168173ffffffffffffffffffffffffffffffffffffffff167f8be0079c531659141344cd1fd0a4f28419497f9722a3daafe3b4186f6b6457e060405160405180910390a35050565b600080611bcd868686868051906020012061143e565b90508451865114611c13576040517f08c379a0000000000000000000000000000000000000000000000000000000008152600401611c0a906142d4565b60405180910390fd5b8351865114611c57576040517f08c379a0000000000000000000000000000000000000000000000000000000008152600401611c4e906142d4565b60405180910390fd5b6000865111611c9b576040517f08c379a0000000000000000000000000000000000000000000000000000000008152600401611c9290614340565b60405180910390fd5b6000600160008381526020019081526020016000209050611cfb816000016040518060200160405290816000820160009054906101000a900467ffffffffffffffff1667ffffffffffffffff1667ffffffffffffffff1681525050612972565b611d3a576040517f08c379a0000000000000000000000000000000000000000000000000000000008152600401611d31906143d2565b60405180910390fd5b6000611d4c611d47610e5a565b61298c565b611d554361298c565b611d5f9190614406565b90506000611d73611d6e6108bd565b61298c565b82611d7e9190614406565b9050611d9682846000016129e390919063ffffffff16565b611dac81846001016129e390919063ffffffff16565b7f7d84a6263ae0d98d3329bd7b46bb4e8d6f98cd35a7adb45c274c8b7fd5ebd5e084611dd6611758565b8b8b8d5167ffffffffffffffff811115611df357611df2612da4565b5b604051908082528060200260200182016040528015611e2657816020015b6060815260200190600190039081611e115790505b508c88888e604051611e4099989796959493929190614581565b60405180910390a183945050505050949350505050565b7f08f74ea46ef7894f65eabfb5e6e695de773a000b47c529ab559178069b226401600560009054906101000a900473ffffffffffffffffffffffffffffffffffffffff1682604051611eaa929190614631565b60405180910390a180600560006101000a81548173ffffffffffffffffffffffffffffffffffffffff021916908373ffffffffffffffffffffffffffffffffffffffff16021790555050565b80600a8190555050565b60007f000000000000000000000000000000000000000000000000000000000000000073ffffffffffffffffffffffffffffffffffffffff16633a46b1a884846040518363ffffffff1660e01b8152600401611f5d92919061465a565b60206040518083038186803b158015611f7557600080fd5b505afa158015611f89573d6000803e3d6000fd5b505050506040513d601f19601f82011682018060405250810190611fad91906139ff565b905092915050565b6000611fbf611259565b611fc7611262565b7f000000000000000000000000000000000000000000000000000000000000000073ffffffffffffffffffffffffffffffffffffffff16638e539e8c856040518263ffffffff1660e01b81526004016120209190612c70565b60206040518083038186803b15801561203857600080fd5b505afa15801561204c573d6000803e3d6000fd5b505050506040513d601f19601f8201168201806040525081019061207091906139ff565b61207a9190614683565b612084919061470c565b9050919050565b60007fbf26d897000000000000000000000000000000000000000000000000000000007bffffffffffffffffffffffffffffffffffffffffffffffffffffffff1916827bffffffffffffffffffffffffffffffffffffffffffffffffffffffff191614806120fe57506120fd82612a12565b5b9050919050565b6000600560009054906101000a900473ffffffffffffffffffffffffffffffffffffffff16905090565b600560009054906101000a900473ffffffffffffffffffffffffffffffffffffffff1673ffffffffffffffffffffffffffffffffffffffff1663e38335e5348686866000876040518763ffffffff1660e01b8152600401612194959493929190613d07565b6000604051808303818588803b1580156121ad57600080fd5b505af11580156121c1573d6000803e3d6000fd5b50505050505050505050565b60007f000000000000000000000000000000000000000000000000000000000000000046141561221f577f0000000000000000000000000000000000000000000000000000000000000000905061228d565b61228a7f00000000000000000000000000000000000000000000000000000000000000007f00000000000000000000000000000000000000000000000000000000000000007f0000000000000000000000000000000000000000000000000000000000000000612a7c565b90505b90565b600082826040516020016122a59291906147b5565b60405160208183030381529060405280519060200120905092915050565b6000807f7fffffffffffffffffffffffffffffff5d576e7357a4501ddfe92f46681b20a08360001c11156122fe5760006003915091506123c7565b601b8560ff16141580156123165750601c8560ff1614155b156123285760006004915091506123c7565b60006001878787876040516000815260200160405260405161234d94939291906147ec565b6020604051602081039080840390855afa15801561236f573d6000803e3d6000fd5b505050602060405103519050600073ffffffffffffffffffffffffffffffffffffffff168173ffffffffffffffffffffffffffffffffffffffff1614156123be576000600192509250506123c7565b80600092509250505b94509492505050565b600060048111156123e4576123e3613343565b5b8160048111156123f7576123f6613343565b5b1415612402576125a2565b6001600481111561241657612415613343565b5b81600481111561242957612428613343565b5b141561246a576040517f08c379a00000000000000000000000000000000000000000000000000000000081526004016124619061487d565b60405180910390fd5b6002600481111561247e5761247d613343565b5b81600481111561249157612490613343565b5b14156124d2576040517f08c379a00000000000000000000000000000000000000000000000000000000081526004016124c9906148e9565b60405180910390fd5b600360048111156124e6576124e5613343565b5b8160048111156124f9576124f8613343565b5b141561253a576040517f08c379a00000000000000000000000000000000000000000000000000000000081526004016125319061497b565b60405180910390fd5b60048081111561254d5761254c613343565b5b8160048111156125605761255f613343565b5b14156125a1576040517f08c379a000000000000000000000000000000000000000000000000000000000815260040161259890614a0d565b60405180910390fd5b5b50565b60006003600086815260200190815260200160002090508060030160008573ffffffffffffffffffffffffffffffffffffffff1673ffffffffffffffffffffffffffffffffffffffff16815260200190815260200160002060009054906101000a900460ff161561264b576040517f08c379a000000000000000000000000000000000000000000000000000000000815260040161264290614a9f565b60405180910390fd5b60018160030160008673ffffffffffffffffffffffffffffffffffffffff1673ffffffffffffffffffffffffffffffffffffffff16815260200190815260200160002060006101000a81548160ff021916908315150217905550600060028111156126b9576126b8613343565b5b60ff168360ff1614156126e657818160000160008282546126da9190613e56565b925050819055506127a4565b600160028111156126fa576126f9613343565b5b60ff168360ff161415612727578181600101600082825461271b9190613e56565b925050819055506127a3565b60028081111561273a57612739613343565b5b60ff168360ff161415612767578181600201600082825461275b9190613e56565b925050819055506127a2565b6040517f08c379a000000000000000000000000000000000000000000000000000000000815260040161279990614b31565b60405180910390fd5b5b5b5050505050565b60008060016000848152602001908152602001600020604051806080016040529081600082016040518060200160405290816000820160009054906101000a900467ffffffffffffffff1667ffffffffffffffff1667ffffffffffffffff16815250508152602001600182016040518060200160405290816000820160009054906101000a900467ffffffffffffffff1667ffffffffffffffff1667ffffffffffffffff168152505081526020016002820160009054906101000a900460ff161515151581526020016002820160019054906101000a900460ff16151515158152505090508060400151156128a457600791505061296d565b8060600151156128b857600291505061296d565b6128c58160000151612ab6565b156128d457600091505061296d565b6128e18160200151612ab6565b156128f057600191505061296d565b6128fd8160200151612ad0565b156129325761290b83612afc565b801561291c575061291b83612b43565b5b61292757600361292a565b60045b91505061296d565b6040517f08c379a000000000000000000000000000000000000000000000000000000000815260040161296490614b9d565b60405180910390fd5b919050565b600080826000015167ffffffffffffffff16149050919050565b600067ffffffffffffffff80168211156129db576040517f08c379a00000000000000000000000000000000000000000000000000000000081526004016129d290614c2f565b60405180910390fd5b819050919050565b808260000160006101000a81548167ffffffffffffffff021916908367ffffffffffffffff1602179055505050565b60007f01ffc9a7000000000000000000000000000000000000000000000000000000007bffffffffffffffffffffffffffffffffffffffffffffffffffffffff1916827bffffffffffffffffffffffffffffffffffffffffffffffffffffffff1916149050919050565b60008383834630604051602001612a97959493929190614c4f565b6040516020818303038152906040528051906020012090509392505050565b600043826000015167ffffffffffffffff16119050919050565b6000612adb82612b6e565b8015612af5575043826000015167ffffffffffffffff1611155b9050919050565b60008060036000848152602001908152602001600020905080600201548160010154612b289190613e56565b612b39612b3485610dec565b611699565b1115915050919050565b6000806003600084815260200190815260200160002090508060000154816001015411915050919050565b600080826000015167ffffffffffffffff16119050919050565b6000604051905090565b600080fd5b600080fd5b60007fffffffff0000000000000000000000000000000000000000000000000000000082169050919050565b612bd181612b9c565b8114612bdc57600080fd5b50565b600081359050612bee81612bc8565b92915050565b600060208284031215612c0a57612c09612b92565b5b6000612c1884828501612bdf565b91505092915050565b60008115159050919050565b612c3681612c21565b82525050565b6000602082019050612c516000830184612c2d565b92915050565b6000819050919050565b612c6a81612c57565b82525050565b6000602082019050612c856000830184612c61565b92915050565b612c9481612c57565b8114612c9f57600080fd5b50565b600081359050612cb181612c8b565b92915050565b600060208284031215612ccd57612ccc612b92565b5b6000612cdb84828501612ca2565b91505092915050565b600081519050919050565b600082825260208201905092915050565b60005b83811015612d1e578082015181840152602081019050612d03565b83811115612d2d576000848401525b50505050565b6000601f19601f8301169050919050565b6000612d4f82612ce4565b612d598185612cef565b9350612d69818560208601612d00565b612d7281612d33565b840191505092915050565b60006020820190508181036000830152612d978184612d44565b905092915050565b600080fd5b7f4e487b7100000000000000000000000000000000000000000000000000000000600052604160045260246000fd5b612ddc82612d33565b810181811067ffffffffffffffff82111715612dfb57612dfa612da4565b5b80604052505050565b6000612e0e612b88565b9050612e1a8282612dd3565b919050565b600067ffffffffffffffff821115612e3a57612e39612da4565b5b602082029050602081019050919050565b600080fd5b600073ffffffffffffffffffffffffffffffffffffffff82169050919050565b6000612e7b82612e50565b9050919050565b612e8b81612e70565b8114612e9657600080fd5b50565b600081359050612ea881612e82565b92915050565b6000612ec1612ebc84612e1f565b612e04565b90508083825260208201905060208402830185811115612ee457612ee3612e4b565b5b835b81811015612f0d5780612ef98882612e99565b845260208401935050602081019050612ee6565b5050509392505050565b600082601f830112612f2c57612f2b612d9f565b5b8135612f3c848260208601612eae565b91505092915050565b600067ffffffffffffffff821115612f6057612f5f612da4565b5b602082029050602081019050919050565b6000612f84612f7f84612f45565b612e04565b90508083825260208201905060208402830185811115612fa757612fa6612e4b565b5b835b81811015612fd05780612fbc8882612ca2565b845260208401935050602081019050612fa9565b5050509392505050565b600082601f830112612fef57612fee612d9f565b5b8135612fff848260208601612f71565b91505092915050565b600067ffffffffffffffff82111561302357613022612da4565b5b602082029050602081019050919050565b600080fd5b600067ffffffffffffffff82111561305457613053612da4565b5b61305d82612d33565b9050602081019050919050565b82818337600083830152505050565b600061308c61308784613039565b612e04565b9050828152602081018484840111156130a8576130a7613034565b5b6130b384828561306a565b509392505050565b600082601f8301126130d0576130cf612d9f565b5b81356130e0848260208601613079565b91505092915050565b60006130fc6130f784613008565b612e04565b9050808382526020820190506020840283018581111561311f5761311e612e4b565b5b835b8181101561316657803567ffffffffffffffff81111561314457613143612d9f565b5b80860161315189826130bb565b85526020850194505050602081019050613121565b5050509392505050565b600082601f83011261318557613184612d9f565b5b81356131958482602086016130e9565b91505092915050565b6000819050919050565b6131b18161319e565b81146131bc57600080fd5b50565b6000813590506131ce816131a8565b92915050565b600080600080608085870312156131ee576131ed612b92565b5b600085013567ffffffffffffffff81111561320c5761320b612b97565b5b61321887828801612f17565b945050602085013567ffffffffffffffff81111561323957613238612b97565b5b61324587828801612fda565b935050604085013567ffffffffffffffff81111561326657613265612b97565b5b61327287828801613170565b9250506060613283878288016131bf565b91505092959194509250565b600060ff82169050919050565b6132a58161328f565b81146132b057600080fd5b50565b6000813590506132c28161329c565b92915050565b600080600080600060a086880312156132e4576132e3612b92565b5b60006132f288828901612ca2565b9550506020613303888289016132b3565b9450506040613314888289016132b3565b9350506060613325888289016131bf565b9250506080613336888289016131bf565b9150509295509295909350565b7f4e487b7100000000000000000000000000000000000000000000000000000000600052602160045260246000fd5b6008811061338357613382613343565b5b50565b600081905061339482613372565b919050565b60006133a482613386565b9050919050565b6133b481613399565b82525050565b60006020820190506133cf60008301846133ab565b92915050565b600080604083850312156133ec576133eb612b92565b5b60006133fa85828601612ca2565b925050602061340b85828601612e99565b9150509250929050565b600060608201905061342a6000830186612c61565b6134376020830185612c61565b6134446040830184612c61565b949350505050565b6000806040838503121561346357613462612b92565b5b600061347185828601612ca2565b9250506020613482858286016132b3565b9150509250929050565b600080fd5b60008083601f8401126134a7576134a6612d9f565b5b8235905067ffffffffffffffff8111156134c4576134c361348c565b5b6020830191508360018202830111156134e0576134df612e4b565b5b9250929050565b6000806000806060858703121561350157613500612b92565b5b600061350f87828801612ca2565b9450506020613520878288016132b3565b935050604085013567ffffffffffffffff81111561354157613540612b97565b5b61354d87828801613491565b925092505092959194509250565b600067ffffffffffffffff82111561357657613575612da4565b5b61357f82612d33565b9050602081019050919050565b600061359f61359a8461355b565b612e04565b9050828152602081018484840111156135bb576135ba613034565b5b6135c684828561306a565b509392505050565b600082601f8301126135e3576135e2612d9f565b5b81356135f384826020860161358c565b91505092915050565b6000806000806080858703121561361657613615612b92565b5b600085013567ffffffffffffffff81111561363457613633612b97565b5b61364087828801612f17565b945050602085013567ffffffffffffffff81111561366157613660612b97565b5b61366d87828801612fda565b935050604085013567ffffffffffffffff81111561368e5761368d612b97565b5b61369a87828801613170565b925050606085013567ffffffffffffffff8111156136bb576136ba612b97565b5b6136c7878288016135ce565b91505092959194509250565b6136dc81612e70565b82525050565b60006020820190506136f760008301846136d3565b92915050565b600061370882612e50565b9050919050565b600061371a826136fd565b9050919050565b61372a8161370f565b811461373557600080fd5b50565b60008135905061374781613721565b92915050565b60006020828403121561376357613762612b92565b5b600061377184828501613738565b91505092915050565b6137838161319e565b82525050565b600060208201905061379e600083018461377a565b92915050565b600080604083850312156137bb576137ba612b92565b5b60006137c985828601612e99565b92505060206137da85828601612ca2565b9150509250929050565b6000602082840312156137fa576137f9612b92565b5b600061380884828501612e99565b91505092915050565b6000819050919050565b600061383661383161382c84612e50565b613811565b612e50565b9050919050565b60006138488261381b565b9050919050565b600061385a8261383d565b9050919050565b61386a8161384f565b82525050565b60006020820190506138856000830184613861565b92915050565b7f476f7665726e6f723a206f6e6c79476f7665726e616e63650000000000000000600082015250565b60006138c1601883612cef565b91506138cc8261388b565b602082019050919050565b600060208201905081810360008301526138f0816138b4565b9050919050565b7f4e487b7100000000000000000000000000000000000000000000000000000000600052602260045260246000fd5b6000600282049050600182168061393e57607f821691505b60208210811415613952576139516138f7565b5b50919050565b7f476f7665726e6f723a2070726f706f73616c206e6f742073756363657373667560008201527f6c00000000000000000000000000000000000000000000000000000000000000602082015250565b60006139b4602183612cef565b91506139bf82613958565b604082019050919050565b600060208201905081810360008301526139e3816139a7565b9050919050565b6000815190506139f981612c8b565b92915050565b600060208284031215613a1557613a14612b92565b5b6000613a23848285016139ea565b91505092915050565b600081519050919050565b600082825260208201905092915050565b6000819050602082019050919050565b613a6181612e70565b82525050565b6000613a738383613a58565b60208301905092915050565b6000602082019050919050565b6000613a9782613a2c565b613aa18185613a37565b9350613aac83613a48565b8060005b83811015613add578151613ac48882613a67565b9750613acf83613a7f565b925050600181019050613ab0565b5085935050505092915050565b600081519050919050565b600082825260208201905092915050565b6000819050602082019050919050565b613b1f81612c57565b82525050565b6000613b318383613b16565b60208301905092915050565b6000602082019050919050565b6000613b5582613aea565b613b5f8185613af5565b9350613b6a83613b06565b8060005b83811015613b9b578151613b828882613b25565b9750613b8d83613b3d565b925050600181019050613b6e565b5085935050505092915050565b600081519050919050565b600082825260208201905092915050565b6000819050602082019050919050565b600081519050919050565b600082825260208201905092915050565b6000613bfb82613bd4565b613c058185613bdf565b9350613c15818560208601612d00565b613c1e81612d33565b840191505092915050565b6000613c358383613bf0565b905092915050565b6000602082019050919050565b6000613c5582613ba8565b613c5f8185613bb3565b935083602082028501613c7185613bc4565b8060005b85811015613cad5784840389528151613c8e8582613c29565b9450613c9983613c3d565b925060208a01995050600181019050613c75565b50829750879550505050505092915050565b6000819050919050565b60008160001b9050919050565b6000613cf1613cec613ce784613cbf565b613cc9565b61319e565b9050919050565b613d0181613cd6565b82525050565b600060a0820190508181036000830152613d218188613a8c565b90508181036020830152613d358187613b4a565b90508181036040830152613d498186613c4a565b9050613d586060830185613cf8565b613d65608083018461377a565b9695505050505050565b600081519050613d7e816131a8565b92915050565b600060208284031215613d9a57613d99612b92565b5b6000613da884828501613d6f565b91505092915050565b600060c0820190508181036000830152613dcb8189613a8c565b90508181036020830152613ddf8188613b4a565b90508181036040830152613df38187613c4a565b9050613e026060830186613cf8565b613e0f608083018561377a565b613e1c60a0830184612c61565b979650505050505050565b7f4e487b7100000000000000000000000000000000000000000000000000000000600052601160045260246000fd5b6000613e6182612c57565b9150613e6c83612c57565b9250827fffffffffffffffffffffffffffffffffffffffffffffffffffffffffffffffff03821115613ea157613ea0613e27565b5b828201905092915050565b6000604082019050613ec16000830185612c61565b613ece6020830184612c61565b9392505050565b613ede8161328f565b82525050565b6000606082019050613ef9600083018661377a565b613f066020830185612c61565b613f136040830184613ed5565b949350505050565b7f4f776e61626c653a2063616c6c6572206973206e6f7420746865206f776e6572600082015250565b6000613f51602083612cef565b9150613f5c82613f1b565b602082019050919050565b60006020820190508181036000830152613f8081613f44565b9050919050565b60006080820190508181036000830152613fa18187613a8c565b90508181036020830152613fb58186613b4a565b90508181036040830152613fc98185613c4a565b9050613fd8606083018461377a565b95945050505050565b7f4f776e61626c653a206e6577206f776e657220697320746865207a65726f206160008201527f6464726573730000000000000000000000000000000000000000000000000000602082015250565b600061403d602683612cef565b915061404882613fe1565b604082019050919050565b6000602082019050818103600083015261406c81614030565b9050919050565b7f476f7665726e6f72566f74657351756f72756d4672616374696f6e3a2071756f60008201527f72756d4e756d657261746f72206f7665722071756f72756d44656e6f6d696e6160208201527f746f720000000000000000000000000000000000000000000000000000000000604082015250565b60006140f5604383612cef565b915061410082614073565b606082019050919050565b60006020820190508181036000830152614124816140e8565b9050919050565b7f476f7665726e6f723a20766f7465206e6f742063757272656e746c792061637460008201527f6976650000000000000000000000000000000000000000000000000000000000602082015250565b6000614187602383612cef565b91506141928261412b565b604082019050919050565b600060208201905081810360008301526141b68161417a565b9050919050565b60006080820190506141d26000830187612c61565b6141df6020830186613ed5565b6141ec6040830185612c61565b81810360608301526141fe8184612d44565b905095945050505050565b61421281612c21565b811461421d57600080fd5b50565b60008151905061422f81614209565b92915050565b60006020828403121561424b5761424a612b92565b5b600061425984828501614220565b91505092915050565b7f476f7665726e6f723a20696e76616c69642070726f706f73616c206c656e677460008201527f6800000000000000000000000000000000000000000000000000000000000000602082015250565b60006142be602183612cef565b91506142c982614262565b604082019050919050565b600060208201905081810360008301526142ed816142b1565b9050919050565b7f476f7665726e6f723a20656d7074792070726f706f73616c0000000000000000600082015250565b600061432a601883612cef565b9150614335826142f4565b602082019050919050565b600060208201905081810360008301526143598161431d565b9050919050565b7f476f7665726e6f723a2070726f706f73616c20616c726561647920657869737460008201527f7300000000000000000000000000000000000000000000000000000000000000602082015250565b60006143bc602183612cef565b91506143c782614360565b604082019050919050565b600060208201905081810360008301526143eb816143af565b9050919050565b600067ffffffffffffffff82169050919050565b6000614411826143f2565b915061441c836143f2565b92508267ffffffffffffffff0382111561443957614438613e27565b5b828201905092915050565b600081519050919050565b600082825260208201905092915050565b6000819050602082019050919050565b600082825260208201905092915050565b600061448c82612ce4565b6144968185614470565b93506144a6818560208601612d00565b6144af81612d33565b840191505092915050565b60006144c68383614481565b905092915050565b6000602082019050919050565b60006144e682614444565b6144f0818561444f565b93508360208202850161450285614460565b8060005b8581101561453e578484038952815161451f85826144ba565b945061452a836144ce565b925060208a01995050600181019050614506565b50829750879550505050505092915050565b600061456b614566614561846143f2565b613811565b612c57565b9050919050565b61457b81614550565b82525050565b600061012082019050614597600083018c612c61565b6145a4602083018b6136d3565b81810360408301526145b6818a613a8c565b905081810360608301526145ca8189613b4a565b905081810360808301526145de81886144db565b905081810360a08301526145f28187613c4a565b905061460160c0830186614572565b61460e60e0830185614572565b8181036101008301526146218184612d44565b90509a9950505050505050505050565b600060408201905061464660008301856136d3565b61465360208301846136d3565b9392505050565b600060408201905061466f60008301856136d3565b61467c6020830184612c61565b9392505050565b600061468e82612c57565b915061469983612c57565b9250817fffffffffffffffffffffffffffffffffffffffffffffffffffffffffffffffff04831182151516156146d2576146d1613e27565b5b828202905092915050565b7f4e487b7100000000000000000000000000000000000000000000000000000000600052601260045260246000fd5b600061471782612c57565b915061472283612c57565b925082614732576147316146dd565b5b828204905092915050565b600081905092915050565b7f1901000000000000000000000000000000000000000000000000000000000000600082015250565b600061477e60028361473d565b915061478982614748565b600282019050919050565b6000819050919050565b6147af6147aa8261319e565b614794565b82525050565b60006147c082614771565b91506147cc828561479e565b6020820191506147dc828461479e565b6020820191508190509392505050565b6000608082019050614801600083018761377a565b61480e6020830186613ed5565b61481b604083018561377a565b614828606083018461377a565b95945050505050565b7f45434453413a20696e76616c6964207369676e61747572650000000000000000600082015250565b6000614867601883612cef565b915061487282614831565b602082019050919050565b600060208201905081810360008301526148968161485a565b9050919050565b7f45434453413a20696e76616c6964207369676e6174757265206c656e67746800600082015250565b60006148d3601f83612cef565b91506148de8261489d565b602082019050919050565b60006020820190508181036000830152614902816148c6565b9050919050565b7f45434453413a20696e76616c6964207369676e6174757265202773272076616c60008201527f7565000000000000000000000000000000000000000000000000000000000000602082015250565b6000614965602283612cef565b915061497082614909565b604082019050919050565b6000602082019050818103600083015261499481614958565b9050919050565b7f45434453413a20696e76616c6964207369676e6174757265202776272076616c60008201527f7565000000000000000000000000000000000000000000000000000000000000602082015250565b60006149f7602283612cef565b9150614a028261499b565b604082019050919050565b60006020820190508181036000830152614a26816149ea565b9050919050565b7f476f7665726e6f72566f74696e6753696d706c653a20766f746520616c72656160008201527f6479206361737400000000000000000000000000000000000000000000000000602082015250565b6000614a89602783612cef565b9150614a9482614a2d565b604082019050919050565b60006020820190508181036000830152614ab881614a7c565b9050919050565b7f476f7665726e6f72566f74696e6753696d706c653a20696e76616c696420766160008201527f6c756520666f7220656e756d20566f7465547970650000000000000000000000602082015250565b6000614b1b603583612cef565b9150614b2682614abf565b604082019050919050565b60006020820190508181036000830152614b4a81614b0e565b9050919050565b7f476f7665726e6f723a20756e6b6e6f776e2070726f706f73616c206964000000600082015250565b6000614b87601d83612cef565b9150614b9282614b51565b602082019050919050565b60006020820190508181036000830152614bb681614b7a565b9050919050565b7f53616665436173743a2076616c756520646f65736e27742066697420696e203660008201527f3420626974730000000000000000000000000000000000000000000000000000602082015250565b6000614c19602683612cef565b9150614c2482614bbd565b604082019050919050565b60006020820190508181036000830152614c4881614c0c565b9050919050565b600060a082019050614c64600083018861377a565b614c71602083018761377a565b614c7e604083018661377a565b614c8b6060830185612c61565b614c9860808301846136d3565b969550505050505056fea26469706673582212203ea721e9b8211f6cd150f91228bfcefb15c2e4a57b1372f32c22ca8d96f430ee64736f6c63430008090033",
  "immutableReferences": {
    "3767": [
      {
        "length": 32,
        "start": 5805
      },
      {
        "length": 32,
        "start": 7940
      },
      {
        "length": 32,
        "start": 8137
      }
    ],
    "7694": [
      {
        "length": 32,
        "start": 8697
      }
    ],
    "7696": [
      {
        "length": 32,
        "start": 8657
      }
    ],
    "7698": [
      {
        "length": 32,
        "start": 8773
      }
    ],
    "7700": [
      {
        "length": 32,
        "start": 8806
      }
    ],
    "7702": [
      {
        "length": 32,
        "start": 8740
      }
    ]
  },
  "source": "// SPDX-License-Identifier: MIT\npragma solidity ^0.8.2;\n\nimport \"@openzeppelin/contracts/governance/Governor.sol\";\nimport \"@openzeppelin/contracts/governance/extensions/GovernorCountingSimple.sol\";\nimport \"@openzeppelin/contracts/governance/extensions/GovernorVotes.sol\";\nimport \"@openzeppelin/contracts/governance/extensions/GovernorVotesQuorumFraction.sol\";\nimport \"@openzeppelin/contracts/governance/extensions/GovernorTimelockControl.sol\";\nimport \"@openzeppelin/contracts/access/Ownable.sol\";\n\nimport \"./Constants.sol\"; \n\n/// @title Governor module for the IkonDAO\n/// @author Fernando M. Trouw\n/// @notice this contract experimental \n/// @notice this contract is an experimental contract and should not be used to initiate project that will hold real value\n\n/// @custom:security-contact ftrouw@protonmail.com\ncontract IkonDAOGovernor is Governor, Ownable, GovernorCountingSimple, GovernorVotes, GovernorVotesQuorumFraction, GovernorTimelockControl, Constants {\n    string private _name; \n    string public _version;\n    uint256 private _votingDelay; \n    uint256 private _votingPeriod;\n    uint256 private _owner;  \n\n    constructor(ERC20Votes _token, TimelockController _timelock, string memory _govName, uint256 _delay, uint256 _period)\n        Governor(_govName)\n        GovernorVotes(_token)\n        GovernorVotesQuorumFraction(4)\n        GovernorTimelockControl(_timelock) \n    {\n        _votingDelay = _delay;\n        _votingPeriod = _period;\n        _version = \"1.0.0\";\n    }\n    \n    function votingDelay() public view override returns (uint256) {\n        return _votingDelay; // 1 block\n    }\n\n    function votingPeriod() public view override returns (uint256) {\n        return _votingPeriod; // 1 minutes \n    }\n\n    function setVotingPeriod(uint256 _period) external onlyOwner {\n        _setVotingPeriod(_period);\n    }\n\n    function _setVotingPeriod(uint256 _period) private {\n        _votingPeriod = _period; \n    }\n\n    function setVotingDelay(uint256 _delay) public onlyOwner {\n        _setVotingDelay(_delay); \n        \n    } \n\n    function _setVotingDelay(uint256 _delay) private {\n        _votingDelay = _delay;\n    } \n\n    // The following functions are overrides required by Solidity.\n    function quorum(uint256 blockNumber)\n        public\n        view\n        override(IGovernor, GovernorVotesQuorumFraction)\n        returns (uint256)\n    {\n        return super.quorum(blockNumber);\n    }\n\n    function getVotes(address account, uint256 blockNumber)\n        public\n        view\n        override(IGovernor, GovernorVotes)\n        returns (uint256)\n    {\n        return super.getVotes(account, blockNumber);\n    }\n\n    function state(uint256 proposalId)\n        public\n        view\n        override(Governor, GovernorTimelockControl)\n        returns (ProposalState)\n    {\n        return super.state(proposalId);\n    }\n\n    function propose(address[] memory targets, uint256[] memory values, bytes[] memory calldatas, string memory description)\n        public\n        override(Governor, IGovernor)\n        returns (uint256)\n    {\n        return super.propose(targets, values, calldatas, description);\n    }\n\n    function _execute(uint256 proposalId, address[] memory targets, uint256[] memory values, bytes[] memory calldatas, bytes32 descriptionHash)\n        internal\n        override(Governor, GovernorTimelockControl)\n    {\n        super._execute(proposalId, targets, values, calldatas, descriptionHash);\n    }\n\n    function _cancel(address[] memory targets, uint256[] memory values, bytes[] memory calldatas, bytes32 descriptionHash)\n        internal\n        override(Governor, GovernorTimelockControl)\n        returns (uint256)\n    {\n        return super._cancel(targets, values, calldatas, descriptionHash);\n    }\n\n    function _executor()\n        internal\n        view\n        override(Governor, GovernorTimelockControl)\n        returns (address)\n    {\n        return super._executor();\n    }\n\n    function supportsInterface(bytes4 interfaceId)\n        public\n        view\n        override(Governor, GovernorTimelockControl)\n        returns (bool)\n    {\n        return super.supportsInterface(interfaceId);\n    }\n}\n",
  "sourcePath": "/run/media/rasguy92/SDD (windows)/projectIdeas/iconify/contracts/IkonDAOGovernor.sol",
  "compiler": {
    "name": "solc",
    "version": "0.8.9+commit.e5eed63a.Emscripten.clang"
  },
  "schemaVersion": "3.4.3",
  "updatedAt": "2021-10-26T02:27:18.860Z",
  "devdoc": {
    "custom:security-contact": "ftrouw@protonmail.com",
    "kind": "dev",
    "methods": {
      "COUNTING_MODE()": {
        "details": "See {IGovernor-COUNTING_MODE}."
      },
      "castVote(uint256,uint8)": {
        "details": "See {IGovernor-castVote}."
      },
      "castVoteBySig(uint256,uint8,uint8,bytes32,bytes32)": {
        "details": "See {IGovernor-castVoteBySig}."
      },
      "castVoteWithReason(uint256,uint8,string)": {
        "details": "See {IGovernor-castVoteWithReason}."
      },
      "execute(address[],uint256[],bytes[],bytes32)": {
        "details": "See {IGovernor-execute}."
      },
      "hasVoted(uint256,address)": {
        "details": "See {IGovernor-hasVoted}."
      },
      "hashProposal(address[],uint256[],bytes[],bytes32)": {
        "details": "See {IGovernor-hashProposal}. The proposal id is produced by hashing the RLC encoded `targets` array, the `values` array, the `calldatas` array and the descriptionHash (bytes32 which itself is the keccak256 hash of the description string). This proposal id can be produced from the proposal data which is part of the {ProposalCreated} event. It can even be computed in advance, before the proposal is submitted. Note that the chainId and the governor address are not part of the proposal id computation. Consequently, the same proposal (with same operation and same description) will have the same id if submitted on multiple governors accross multiple networks. This also means that in order to execute the same operation twice (on the same governor) the proposer will have to change the description in order to avoid proposal id conflicts."
      },
      "name()": {
        "details": "See {IGovernor-name}."
      },
      "owner()": {
        "details": "Returns the address of the current owner."
      },
      "proposalDeadline(uint256)": {
        "details": "See {IGovernor-proposalDeadline}."
      },
      "proposalEta(uint256)": {
        "details": "Public accessor to check the eta of a queued proposal"
      },
      "proposalSnapshot(uint256)": {
        "details": "See {IGovernor-proposalSnapshot}."
      },
      "proposalVotes(uint256)": {
        "details": "Accessor to the internal vote counts."
      },
      "queue(address[],uint256[],bytes[],bytes32)": {
        "details": "Function to queue a proposal to the timelock."
      },
      "renounceOwnership()": {
        "details": "Leaves the contract without owner. It will not be possible to call `onlyOwner` functions anymore. Can only be called by the current owner. NOTE: Renouncing ownership will leave the contract without an owner, thereby removing any functionality that is only available to the owner."
      },
      "timelock()": {
        "details": "Public accessor to check the address of the timelock"
      },
      "transferOwnership(address)": {
        "details": "Transfers ownership of the contract to a new account (`newOwner`). Can only be called by the current owner."
      },
      "updateTimelock(address)": {
        "details": "Public endpoint to update the underlying timelock instance. Restricted to the timelock itself, so updates must be proposed, scheduled and executed using the {Governor} workflow."
      },
      "version()": {
        "details": "See {IGovernor-version}."
      },
      "votingDelay()": {
        "details": "delay, in number of block, between the proposal is created and the vote starts. This can be increassed to leave time for users to buy voting power, of delegate it, before the voting of a proposal starts."
      },
      "votingPeriod()": {
        "details": "delay, in number of blocks, between the vote start and vote ends. Note: the {votingDelay} can delay the start of the vote. This must be considered when setting the voting duration compared to the voting delay."
      }
    },
    "version": 1
  },
  "userdoc": {
    "kind": "user",
    "methods": {
      "votingDelay()": {
        "notice": "module:user-config"
      },
      "votingPeriod()": {
        "notice": "module:user-config"
      }
    },
    "version": 1
  }
}