{
  "contractName": "IkonDAOTimelockController",
  "abi": [
    {
      "inputs": [
        {
          "internalType": "uint256",
          "name": "minDelay",
          "type": "uint256"
        },
        {
          "internalType": "address[]",
          "name": "proposers",
          "type": "address[]"
        },
        {
          "internalType": "address[]",
          "name": "executors",
          "type": "address[]"
        }
      ],
      "stateMutability": "nonpayable",
      "type": "constructor"
    },
    {
      "anonymous": false,
      "inputs": [
        {
          "indexed": true,
          "internalType": "bytes32",
          "name": "id",
          "type": "bytes32"
        },
        {
          "indexed": true,
          "internalType": "uint256",
          "name": "index",
          "type": "uint256"
        },
        {
          "indexed": false,
          "internalType": "address",
          "name": "target",
          "type": "address"
        },
        {
          "indexed": false,
          "internalType": "uint256",
          "name": "value",
          "type": "uint256"
        },
        {
          "indexed": false,
          "internalType": "bytes",
          "name": "data",
          "type": "bytes"
        }
      ],
      "name": "CallExecuted",
      "type": "event"
    },
    {
      "anonymous": false,
      "inputs": [
        {
          "indexed": true,
          "internalType": "bytes32",
          "name": "id",
          "type": "bytes32"
        },
        {
          "indexed": true,
          "internalType": "uint256",
          "name": "index",
          "type": "uint256"
        },
        {
          "indexed": false,
          "internalType": "address",
          "name": "target",
          "type": "address"
        },
        {
          "indexed": false,
          "internalType": "uint256",
          "name": "value",
          "type": "uint256"
        },
        {
          "indexed": false,
          "internalType": "bytes",
          "name": "data",
          "type": "bytes"
        },
        {
          "indexed": false,
          "internalType": "bytes32",
          "name": "predecessor",
          "type": "bytes32"
        },
        {
          "indexed": false,
          "internalType": "uint256",
          "name": "delay",
          "type": "uint256"
        }
      ],
      "name": "CallScheduled",
      "type": "event"
    },
    {
      "anonymous": false,
      "inputs": [
        {
          "indexed": true,
          "internalType": "bytes32",
          "name": "id",
          "type": "bytes32"
        }
      ],
      "name": "Cancelled",
      "type": "event"
    },
    {
      "anonymous": false,
      "inputs": [
        {
          "indexed": false,
          "internalType": "uint256",
          "name": "oldDuration",
          "type": "uint256"
        },
        {
          "indexed": false,
          "internalType": "uint256",
          "name": "newDuration",
          "type": "uint256"
        }
      ],
      "name": "MinDelayChange",
      "type": "event"
    },
    {
      "anonymous": false,
      "inputs": [
        {
          "indexed": true,
          "internalType": "address",
          "name": "previousOwner",
          "type": "address"
        },
        {
          "indexed": true,
          "internalType": "address",
          "name": "newOwner",
          "type": "address"
        }
      ],
      "name": "OwnershipTransferred",
      "type": "event"
    },
    {
      "anonymous": false,
      "inputs": [
        {
          "indexed": true,
          "internalType": "bytes32",
          "name": "role",
          "type": "bytes32"
        },
        {
          "indexed": true,
          "internalType": "bytes32",
          "name": "previousAdminRole",
          "type": "bytes32"
        },
        {
          "indexed": true,
          "internalType": "bytes32",
          "name": "newAdminRole",
          "type": "bytes32"
        }
      ],
      "name": "RoleAdminChanged",
      "type": "event"
    },
    {
      "anonymous": false,
      "inputs": [
        {
          "indexed": true,
          "internalType": "bytes32",
          "name": "role",
          "type": "bytes32"
        },
        {
          "indexed": true,
          "internalType": "address",
          "name": "account",
          "type": "address"
        },
        {
          "indexed": true,
          "internalType": "address",
          "name": "sender",
          "type": "address"
        }
      ],
      "name": "RoleGranted",
      "type": "event"
    },
    {
      "anonymous": false,
      "inputs": [
        {
          "indexed": true,
          "internalType": "bytes32",
          "name": "role",
          "type": "bytes32"
        },
        {
          "indexed": true,
          "internalType": "address",
          "name": "account",
          "type": "address"
        },
        {
          "indexed": true,
          "internalType": "address",
          "name": "sender",
          "type": "address"
        }
      ],
      "name": "RoleRevoked",
      "type": "event"
    },
    {
      "inputs": [],
      "name": "DEFAULT_ADMIN_ROLE",
      "outputs": [
        {
          "internalType": "bytes32",
          "name": "",
          "type": "bytes32"
        }
      ],
      "stateMutability": "view",
      "type": "function"
    },
    {
      "inputs": [],
      "name": "EXECUTOR_ROLE",
      "outputs": [
        {
          "internalType": "bytes32",
          "name": "",
          "type": "bytes32"
        }
      ],
      "stateMutability": "view",
      "type": "function"
    },
    {
      "inputs": [],
      "name": "PROPOSER_ROLE",
      "outputs": [
        {
          "internalType": "bytes32",
          "name": "",
          "type": "bytes32"
        }
      ],
      "stateMutability": "view",
      "type": "function"
    },
    {
      "inputs": [],
      "name": "TIMELOCK_ADMIN_ROLE",
      "outputs": [
        {
          "internalType": "bytes32",
          "name": "",
          "type": "bytes32"
        }
      ],
      "stateMutability": "view",
      "type": "function"
    },
    {
      "inputs": [
        {
          "internalType": "bytes32",
          "name": "id",
          "type": "bytes32"
        }
      ],
      "name": "cancel",
      "outputs": [],
      "stateMutability": "nonpayable",
      "type": "function"
    },
    {
      "inputs": [
        {
          "internalType": "address",
          "name": "target",
          "type": "address"
        },
        {
          "internalType": "uint256",
          "name": "value",
          "type": "uint256"
        },
        {
          "internalType": "bytes",
          "name": "data",
          "type": "bytes"
        },
        {
          "internalType": "bytes32",
          "name": "predecessor",
          "type": "bytes32"
        },
        {
          "internalType": "bytes32",
          "name": "salt",
          "type": "bytes32"
        }
      ],
      "name": "execute",
      "outputs": [],
      "stateMutability": "payable",
      "type": "function"
    },
    {
      "inputs": [
        {
          "internalType": "address[]",
          "name": "targets",
          "type": "address[]"
        },
        {
          "internalType": "uint256[]",
          "name": "values",
          "type": "uint256[]"
        },
        {
          "internalType": "bytes[]",
          "name": "datas",
          "type": "bytes[]"
        },
        {
          "internalType": "bytes32",
          "name": "predecessor",
          "type": "bytes32"
        },
        {
          "internalType": "bytes32",
          "name": "salt",
          "type": "bytes32"
        }
      ],
      "name": "executeBatch",
      "outputs": [],
      "stateMutability": "payable",
      "type": "function"
    },
    {
      "inputs": [],
      "name": "getMinDelay",
      "outputs": [
        {
          "internalType": "uint256",
          "name": "duration",
          "type": "uint256"
        }
      ],
      "stateMutability": "view",
      "type": "function"
    },
    {
      "inputs": [
        {
          "internalType": "bytes32",
          "name": "role",
          "type": "bytes32"
        }
      ],
      "name": "getRoleAdmin",
      "outputs": [
        {
          "internalType": "bytes32",
          "name": "",
          "type": "bytes32"
        }
      ],
      "stateMutability": "view",
      "type": "function"
    },
    {
      "inputs": [
        {
          "internalType": "bytes32",
          "name": "id",
          "type": "bytes32"
        }
      ],
      "name": "getTimestamp",
      "outputs": [
        {
          "internalType": "uint256",
          "name": "timestamp",
          "type": "uint256"
        }
      ],
      "stateMutability": "view",
      "type": "function"
    },
    {
      "inputs": [
        {
          "internalType": "bytes32",
          "name": "role",
          "type": "bytes32"
        },
        {
          "internalType": "address",
          "name": "account",
          "type": "address"
        }
      ],
      "name": "grantRole",
      "outputs": [],
      "stateMutability": "nonpayable",
      "type": "function"
    },
    {
      "inputs": [
        {
          "internalType": "bytes32",
          "name": "role",
          "type": "bytes32"
        },
        {
          "internalType": "address",
          "name": "account",
          "type": "address"
        }
      ],
      "name": "hasRole",
      "outputs": [
        {
          "internalType": "bool",
          "name": "",
          "type": "bool"
        }
      ],
      "stateMutability": "view",
      "type": "function"
    },
    {
      "inputs": [
        {
          "internalType": "address",
          "name": "target",
          "type": "address"
        },
        {
          "internalType": "uint256",
          "name": "value",
          "type": "uint256"
        },
        {
          "internalType": "bytes",
          "name": "data",
          "type": "bytes"
        },
        {
          "internalType": "bytes32",
          "name": "predecessor",
          "type": "bytes32"
        },
        {
          "internalType": "bytes32",
          "name": "salt",
          "type": "bytes32"
        }
      ],
      "name": "hashOperation",
      "outputs": [
        {
          "internalType": "bytes32",
          "name": "hash",
          "type": "bytes32"
        }
      ],
      "stateMutability": "pure",
      "type": "function"
    },
    {
      "inputs": [
        {
          "internalType": "address[]",
          "name": "targets",
          "type": "address[]"
        },
        {
          "internalType": "uint256[]",
          "name": "values",
          "type": "uint256[]"
        },
        {
          "internalType": "bytes[]",
          "name": "datas",
          "type": "bytes[]"
        },
        {
          "internalType": "bytes32",
          "name": "predecessor",
          "type": "bytes32"
        },
        {
          "internalType": "bytes32",
          "name": "salt",
          "type": "bytes32"
        }
      ],
      "name": "hashOperationBatch",
      "outputs": [
        {
          "internalType": "bytes32",
          "name": "hash",
          "type": "bytes32"
        }
      ],
      "stateMutability": "pure",
      "type": "function"
    },
    {
      "inputs": [
        {
          "internalType": "bytes32",
          "name": "id",
          "type": "bytes32"
        }
      ],
      "name": "isOperation",
      "outputs": [
        {
          "internalType": "bool",
          "name": "pending",
          "type": "bool"
        }
      ],
      "stateMutability": "view",
      "type": "function"
    },
    {
      "inputs": [
        {
          "internalType": "bytes32",
          "name": "id",
          "type": "bytes32"
        }
      ],
      "name": "isOperationDone",
      "outputs": [
        {
          "internalType": "bool",
          "name": "done",
          "type": "bool"
        }
      ],
      "stateMutability": "view",
      "type": "function"
    },
    {
      "inputs": [
        {
          "internalType": "bytes32",
          "name": "id",
          "type": "bytes32"
        }
      ],
      "name": "isOperationPending",
      "outputs": [
        {
          "internalType": "bool",
          "name": "pending",
          "type": "bool"
        }
      ],
      "stateMutability": "view",
      "type": "function"
    },
    {
      "inputs": [
        {
          "internalType": "bytes32",
          "name": "id",
          "type": "bytes32"
        }
      ],
      "name": "isOperationReady",
      "outputs": [
        {
          "internalType": "bool",
          "name": "ready",
          "type": "bool"
        }
      ],
      "stateMutability": "view",
      "type": "function"
    },
    {
      "inputs": [],
      "name": "owner",
      "outputs": [
        {
          "internalType": "address",
          "name": "",
          "type": "address"
        }
      ],
      "stateMutability": "view",
      "type": "function"
    },
    {
      "inputs": [],
      "name": "renounceOwnership",
      "outputs": [],
      "stateMutability": "nonpayable",
      "type": "function"
    },
    {
      "inputs": [
        {
          "internalType": "bytes32",
          "name": "role",
          "type": "bytes32"
        },
        {
          "internalType": "address",
          "name": "account",
          "type": "address"
        }
      ],
      "name": "renounceRole",
      "outputs": [],
      "stateMutability": "nonpayable",
      "type": "function"
    },
    {
      "inputs": [
        {
          "internalType": "bytes32",
          "name": "role",
          "type": "bytes32"
        },
        {
          "internalType": "address",
          "name": "account",
          "type": "address"
        }
      ],
      "name": "revokeRole",
      "outputs": [],
      "stateMutability": "nonpayable",
      "type": "function"
    },
    {
      "inputs": [
        {
          "internalType": "address",
          "name": "target",
          "type": "address"
        },
        {
          "internalType": "uint256",
          "name": "value",
          "type": "uint256"
        },
        {
          "internalType": "bytes",
          "name": "data",
          "type": "bytes"
        },
        {
          "internalType": "bytes32",
          "name": "predecessor",
          "type": "bytes32"
        },
        {
          "internalType": "bytes32",
          "name": "salt",
          "type": "bytes32"
        },
        {
          "internalType": "uint256",
          "name": "delay",
          "type": "uint256"
        }
      ],
      "name": "schedule",
      "outputs": [],
      "stateMutability": "nonpayable",
      "type": "function"
    },
    {
      "inputs": [
        {
          "internalType": "address[]",
          "name": "targets",
          "type": "address[]"
        },
        {
          "internalType": "uint256[]",
          "name": "values",
          "type": "uint256[]"
        },
        {
          "internalType": "bytes[]",
          "name": "datas",
          "type": "bytes[]"
        },
        {
          "internalType": "bytes32",
          "name": "predecessor",
          "type": "bytes32"
        },
        {
          "internalType": "bytes32",
          "name": "salt",
          "type": "bytes32"
        },
        {
          "internalType": "uint256",
          "name": "delay",
          "type": "uint256"
        }
      ],
      "name": "scheduleBatch",
      "outputs": [],
      "stateMutability": "nonpayable",
      "type": "function"
    },
    {
      "inputs": [
        {
          "internalType": "bytes4",
          "name": "interfaceId",
          "type": "bytes4"
        }
      ],
      "name": "supportsInterface",
      "outputs": [
        {
          "internalType": "bool",
          "name": "",
          "type": "bool"
        }
      ],
      "stateMutability": "view",
      "type": "function"
    },
    {
      "inputs": [
        {
          "internalType": "address",
          "name": "newOwner",
          "type": "address"
        }
      ],
      "name": "transferOwnership",
      "outputs": [],
      "stateMutability": "nonpayable",
      "type": "function"
    },
    {
      "inputs": [
        {
          "internalType": "uint256",
          "name": "newDelay",
          "type": "uint256"
        }
      ],
      "name": "updateDelay",
      "outputs": [],
      "stateMutability": "nonpayable",
      "type": "function"
    },
    {
      "stateMutability": "payable",
      "type": "receive"
    }
  ],
  "bytecode": "0x60806040523480156200001157600080fd5b5060405162003a6938038062003a698339818101604052810190620000379190620007bf565b8282826200005a6200004e620002d460201b60201c565b620002dc60201b60201c565b6200008c7f5f58e3a2316349923ce3780f8d587db2d72378aed66a8261c916544fa6846ca580620003a060201b60201c565b620000de7fb09aa5aeb3702cfd50b6b62bc4532604938f21248a27a1d5ca736082b6819cc17f5f58e3a2316349923ce3780f8d587db2d72378aed66a8261c916544fa6846ca5620003a060201b60201c565b620001307fd8aa0f3194971a2a116679f7c2090f6939c8d4e01a2a8d7e41d55e5351469e637f5f58e3a2316349923ce3780f8d587db2d72378aed66a8261c916544fa6846ca5620003a060201b60201c565b620001717f5f58e3a2316349923ce3780f8d587db2d72378aed66a8261c916544fa6846ca562000165620002d460201b60201c565b6200040460201b60201c565b620001a37f5f58e3a2316349923ce3780f8d587db2d72378aed66a8261c916544fa6846ca5306200040460201b60201c565b60005b82518110156200021357620001ff7fb09aa5aeb3702cfd50b6b62bc4532604938f21248a27a1d5ca736082b6819cc1848381518110620001eb57620001ea62000859565b5b60200260200101516200040460201b60201c565b806200020b90620008b7565b9050620001a6565b5060005b81518110156200028457620002707fd8aa0f3194971a2a116679f7c2090f6939c8d4e01a2a8d7e41d55e5351469e638383815181106200025c576200025b62000859565b5b60200260200101516200040460201b60201c565b806200027c90620008b7565b905062000217565b50826003819055507f11c24f4ead16507c69ac467fbd5e4eed5fb5c699626d2cc6d66421df253886d5600084604051620002c092919062000963565b60405180910390a150505050505062000990565b600033905090565b60008060009054906101000a900473ffffffffffffffffffffffffffffffffffffffff169050816000806101000a81548173ffffffffffffffffffffffffffffffffffffffff021916908373ffffffffffffffffffffffffffffffffffffffff1602179055508173ffffffffffffffffffffffffffffffffffffffff168173ffffffffffffffffffffffffffffffffffffffff167f8be0079c531659141344cd1fd0a4f28419497f9722a3daafe3b4186f6b6457e060405160405180910390a35050565b6000620003b3836200041a60201b60201c565b90508160016000858152602001908152602001600020600101819055508181847fbd79b86ffe0ab8e8776151514217cd7cacd52c909f66475c3af44e129f0b00ff60405160405180910390a4505050565b6200041682826200043a60201b60201c565b5050565b600060016000838152602001908152602001600020600101549050919050565b6200044c82826200052b60201b60201c565b6200052757600180600084815260200190815260200160002060000160008373ffffffffffffffffffffffffffffffffffffffff1673ffffffffffffffffffffffffffffffffffffffff16815260200190815260200160002060006101000a81548160ff021916908315150217905550620004cc620002d460201b60201c565b73ffffffffffffffffffffffffffffffffffffffff168173ffffffffffffffffffffffffffffffffffffffff16837f2f8788117e7eff1d82e926ec794901d17c78024a50270940304540a733656f0d60405160405180910390a45b5050565b60006001600084815260200190815260200160002060000160008373ffffffffffffffffffffffffffffffffffffffff1673ffffffffffffffffffffffffffffffffffffffff16815260200190815260200160002060009054906101000a900460ff16905092915050565b6000604051905090565b600080fd5b600080fd5b6000819050919050565b620005bf81620005aa565b8114620005cb57600080fd5b50565b600081519050620005df81620005b4565b92915050565b600080fd5b6000601f19601f8301169050919050565b7f4e487b7100000000000000000000000000000000000000000000000000000000600052604160045260246000fd5b6200063582620005ea565b810181811067ffffffffffffffff82111715620006575762000656620005fb565b5b80604052505050565b60006200066c62000596565b90506200067a82826200062a565b919050565b600067ffffffffffffffff8211156200069d576200069c620005fb565b5b602082029050602081019050919050565b600080fd5b600073ffffffffffffffffffffffffffffffffffffffff82169050919050565b6000620006e082620006b3565b9050919050565b620006f281620006d3565b8114620006fe57600080fd5b50565b6000815190506200071281620006e7565b92915050565b60006200072f62000729846200067f565b62000660565b90508083825260208201905060208402830185811115620007555762000754620006ae565b5b835b818110156200078257806200076d888262000701565b84526020840193505060208101905062000757565b5050509392505050565b600082601f830112620007a457620007a3620005e5565b5b8151620007b684826020860162000718565b91505092915050565b600080600060608486031215620007db57620007da620005a0565b5b6000620007eb86828701620005ce565b935050602084015167ffffffffffffffff8111156200080f576200080e620005a5565b5b6200081d868287016200078c565b925050604084015167ffffffffffffffff811115620008415762000840620005a5565b5b6200084f868287016200078c565b9150509250925092565b7f4e487b7100000000000000000000000000000000000000000000000000000000600052603260045260246000fd5b7f4e487b7100000000000000000000000000000000000000000000000000000000600052601160045260246000fd5b6000620008c482620005aa565b91507fffffffffffffffffffffffffffffffffffffffffffffffffffffffffffffffff821415620008fa57620008f962000888565b5b600182019050919050565b6000819050919050565b6000819050919050565b60006200093a620009346200092e8462000905565b6200090f565b620005aa565b9050919050565b6200094c8162000919565b82525050565b6200095d81620005aa565b82525050565b60006040820190506200097a600083018562000941565b62000989602083018462000952565b9392505050565b6130c980620009a06000396000f3fe6080604052600436106101a05760003560e01c8063715018a6116100ec578063b1c5f4271161008a578063d547741f11610064578063d547741f1461060e578063e38335e514610637578063f27a0c9214610653578063f2fde38b1461067e576101a7565b8063b1c5f4271461056b578063c4d252f5146105a8578063d45c4435146105d1576101a7565b80638f2a0bb0116100c65780638f2a0bb0146104af5780638f61f4f5146104d857806391d1485414610503578063a217fddf14610540576101a7565b8063715018a6146104305780638065657f146104475780638da5cb5b14610484576101a7565b8063248a9ca31161015957806331d507501161013357806331d507501461036457806336568abe146103a1578063584b153e146103ca57806364d6235314610407576101a7565b8063248a9ca3146102c15780632ab0f529146102fe5780632f2ff15d1461033b576101a7565b806301d5062a146101ac57806301ffc9a7146101d557806307bd0265146102125780630d3cf6fc1461023d578063134008d31461026857806313bc9f2014610284576101a7565b366101a757005b600080fd5b3480156101b857600080fd5b506101d360048036038101906101ce9190611b48565b6106a7565b005b3480156101e157600080fd5b506101fc60048036038101906101f79190611c4f565b610744565b6040516102099190611c97565b60405180910390f35b34801561021e57600080fd5b506102276107be565b6040516102349190611cc1565b60405180910390f35b34801561024957600080fd5b506102526107e2565b60405161025f9190611cc1565b60405180910390f35b610282600480360381019061027d9190611cdc565b610806565b005b34801561029057600080fd5b506102ab60048036038101906102a69190611d76565b610886565b6040516102b89190611c97565b60405180910390f35b3480156102cd57600080fd5b506102e860048036038101906102e39190611d76565b6108ac565b6040516102f59190611cc1565b60405180910390f35b34801561030a57600080fd5b5061032560048036038101906103209190611d76565b6108cc565b6040516103329190611c97565b60405180910390f35b34801561034757600080fd5b50610362600480360381019061035d9190611da3565b6108e1565b005b34801561037057600080fd5b5061038b60048036038101906103869190611d76565b61090a565b6040516103989190611c97565b60405180910390f35b3480156103ad57600080fd5b506103c860048036038101906103c39190611da3565b61091e565b005b3480156103d657600080fd5b506103f160048036038101906103ec9190611d76565b6109a1565b6040516103fe9190611c97565b60405180910390f35b34801561041357600080fd5b5061042e60048036038101906104299190611de3565b6109b6565b005b34801561043c57600080fd5b50610445610a69565b005b34801561045357600080fd5b5061046e60048036038101906104699190611cdc565b610af1565b60405161047b9190611cc1565b60405180910390f35b34801561049057600080fd5b50610499610b30565b6040516104a69190611e1f565b60405180910390f35b3480156104bb57600080fd5b506104d660048036038101906104d19190611f3c565b610b59565b005b3480156104e457600080fd5b506104ed610d0c565b6040516104fa9190611cc1565b60405180910390f35b34801561050f57600080fd5b5061052a60048036038101906105259190611da3565b610d30565b6040516105379190611c97565b60405180910390f35b34801561054c57600080fd5b50610555610d9b565b6040516105629190611cc1565b60405180910390f35b34801561057757600080fd5b50610592600480360381019061058d919061202b565b610da2565b60405161059f9190611cc1565b60405180910390f35b3480156105b457600080fd5b506105cf60048036038101906105ca9190611d76565b610de7565b005b3480156105dd57600080fd5b506105f860048036038101906105f39190611d76565b610ea9565b6040516106059190612116565b60405180910390f35b34801561061a57600080fd5b5061063560048036038101906106309190611da3565b610ec6565b005b610651600480360381019061064c919061202b565b610eef565b005b34801561065f57600080fd5b50610668611085565b6040516106759190612116565b60405180910390f35b34801561068a57600080fd5b506106a560048036038101906106a09190612131565b61108f565b005b7fb09aa5aeb3702cfd50b6b62bc4532604938f21248a27a1d5ca736082b6819cc16106d9816106d4611187565b61118f565b60006106e9898989898989610af1565b90506106f5818461122c565b6000817f4cf4410cc57040e44862ef0f45f3dd5a5e02db8eb8add648d4b0e236f1d07dca8b8b8b8b8b8a604051610731969594939291906121bc565b60405180910390a3505050505050505050565b60007f7965db0b000000000000000000000000000000000000000000000000000000007bffffffffffffffffffffffffffffffffffffffffffffffffffffffff1916827bffffffffffffffffffffffffffffffffffffffffffffffffffffffff191614806107b757506107b6826112e6565b5b9050919050565b7fd8aa0f3194971a2a116679f7c2090f6939c8d4e01a2a8d7e41d55e5351469e6381565b7f5f58e3a2316349923ce3780f8d587db2d72378aed66a8261c916544fa6846ca581565b7fd8aa0f3194971a2a116679f7c2090f6939c8d4e01a2a8d7e41d55e5351469e63610832816000610d30565b6108485761084781610842611187565b61118f565b5b6000610858888888888888610af1565b90506108648185611350565b6108738160008a8a8a8a6113f1565b61087c816114e9565b5050505050505050565b60008061089283610ea9565b90506001811180156108a45750428111155b915050919050565b600060016000838152602001908152602001600020600101549050919050565b600060016108d983610ea9565b149050919050565b6108ea826108ac565b6108fb816108f6611187565b61118f565b610905838361154d565b505050565b60008061091683610ea9565b119050919050565b610926611187565b73ffffffffffffffffffffffffffffffffffffffff168173ffffffffffffffffffffffffffffffffffffffff1614610993576040517f08c379a000000000000000000000000000000000000000000000000000000000815260040161098a9061229b565b60405180910390fd5b61099d828261162d565b5050565b600060016109ae83610ea9565b119050919050565b3073ffffffffffffffffffffffffffffffffffffffff163373ffffffffffffffffffffffffffffffffffffffff1614610a24576040517f08c379a0000000000000000000000000000000000000000000000000000000008152600401610a1b9061232d565b60405180910390fd5b7f11c24f4ead16507c69ac467fbd5e4eed5fb5c699626d2cc6d66421df253886d560035482604051610a5792919061234d565b60405180910390a18060038190555050565b610a71611187565b73ffffffffffffffffffffffffffffffffffffffff16610a8f610b30565b73ffffffffffffffffffffffffffffffffffffffff1614610ae5576040517f08c379a0000000000000000000000000000000000000000000000000000000008152600401610adc906123c2565b60405180910390fd5b610aef600061170f565b565b6000868686868686604051602001610b0e969594939291906123e2565b6040516020818303038152906040528051906020012090509695505050505050565b60008060009054906101000a900473ffffffffffffffffffffffffffffffffffffffff16905090565b7fb09aa5aeb3702cfd50b6b62bc4532604938f21248a27a1d5ca736082b6819cc1610b8b81610b86611187565b61118f565b878790508a8a905014610bd3576040517f08c379a0000000000000000000000000000000000000000000000000000000008152600401610bca906124b0565b60405180910390fd5b858590508a8a905014610c1b576040517f08c379a0000000000000000000000000000000000000000000000000000000008152600401610c12906124b0565b60405180910390fd5b6000610c2d8b8b8b8b8b8b8b8b610da2565b9050610c39818461122c565b60005b8b8b9050811015610cfe5780827f4cf4410cc57040e44862ef0f45f3dd5a5e02db8eb8add648d4b0e236f1d07dca8e8e85818110610c7d57610c7c6124d0565b5b9050602002016020810190610c929190612131565b8d8d86818110610ca557610ca46124d0565b5b905060200201358c8c87818110610cbf57610cbe6124d0565b5b9050602002810190610cd1919061250e565b8c8b604051610ce5969594939291906121bc565b60405180910390a380610cf7906125a0565b9050610c3c565b505050505050505050505050565b7fb09aa5aeb3702cfd50b6b62bc4532604938f21248a27a1d5ca736082b6819cc181565b60006001600084815260200190815260200160002060000160008373ffffffffffffffffffffffffffffffffffffffff1673ffffffffffffffffffffffffffffffffffffffff16815260200190815260200160002060009054906101000a900460ff16905092915050565b6000801b81565b60008888888888888888604051602001610dc3989796959493929190612882565b60405160208183030381529060405280519060200120905098975050505050505050565b7fb09aa5aeb3702cfd50b6b62bc4532604938f21248a27a1d5ca736082b6819cc1610e1981610e14611187565b61118f565b610e22826109a1565b610e61576040517f08c379a0000000000000000000000000000000000000000000000000000000008152600401610e5890612962565b60405180910390fd5b6002600083815260200190815260200160002060009055817fbaa1eb22f2a492ba1a5fea61b8df4d27c6c8b5f3971e63bb58fa14ff72eedb7060405160405180910390a25050565b600060026000838152602001908152602001600020549050919050565b610ecf826108ac565b610ee081610edb611187565b61118f565b610eea838361162d565b505050565b7fd8aa0f3194971a2a116679f7c2090f6939c8d4e01a2a8d7e41d55e5351469e63610f1b816000610d30565b610f3157610f3081610f2b611187565b61118f565b5b868690508989905014610f79576040517f08c379a0000000000000000000000000000000000000000000000000000000008152600401610f70906124b0565b60405180910390fd5b848490508989905014610fc1576040517f08c379a0000000000000000000000000000000000000000000000000000000008152600401610fb8906124b0565b60405180910390fd5b6000610fd38a8a8a8a8a8a8a8a610da2565b9050610fdf8185611350565b60005b8a8a905081101561106f5761105e82828d8d85818110611005576110046124d0565b5b905060200201602081019061101a9190612131565b8c8c8681811061102d5761102c6124d0565b5b905060200201358b8b87818110611047576110466124d0565b5b9050602002810190611059919061250e565b6113f1565b80611068906125a0565b9050610fe2565b50611079816114e9565b50505050505050505050565b6000600354905090565b611097611187565b73ffffffffffffffffffffffffffffffffffffffff166110b5610b30565b73ffffffffffffffffffffffffffffffffffffffff161461110b576040517f08c379a0000000000000000000000000000000000000000000000000000000008152600401611102906123c2565b60405180910390fd5b600073ffffffffffffffffffffffffffffffffffffffff168173ffffffffffffffffffffffffffffffffffffffff16141561117b576040517f08c379a0000000000000000000000000000000000000000000000000000000008152600401611172906129f4565b60405180910390fd5b6111848161170f565b50565b600033905090565b6111998282610d30565b611228576111be8173ffffffffffffffffffffffffffffffffffffffff1660146117d3565b6111cc8360001c60206117d3565b6040516020016111dd929190612b26565b6040516020818303038152906040526040517f08c379a000000000000000000000000000000000000000000000000000000000815260040161121f9190612b99565b60405180910390fd5b5050565b6112358261090a565b15611275576040517f08c379a000000000000000000000000000000000000000000000000000000000815260040161126c90612c2d565b60405180910390fd5b61127d611085565b8110156112bf576040517f08c379a00000000000000000000000000000000000000000000000000000000081526004016112b690612cbf565b60405180910390fd5b80426112cb9190612cdf565b60026000848152602001908152602001600020819055505050565b60007f01ffc9a7000000000000000000000000000000000000000000000000000000007bffffffffffffffffffffffffffffffffffffffffffffffffffffffff1916827bffffffffffffffffffffffffffffffffffffffffffffffffffffffff1916149050919050565b61135982610886565b611398576040517f08c379a000000000000000000000000000000000000000000000000000000000815260040161138f90612da7565b60405180910390fd5b6000801b8114806113ae57506113ad816108cc565b5b6113ed576040517f08c379a00000000000000000000000000000000000000000000000000000000081526004016113e490612e39565b60405180910390fd5b5050565b60008473ffffffffffffffffffffffffffffffffffffffff1684848460405161141b929190612e89565b60006040518083038185875af1925050503d8060008114611458576040519150601f19603f3d011682016040523d82523d6000602084013e61145d565b606091505b50509050806114a1576040517f08c379a000000000000000000000000000000000000000000000000000000000815260040161149890612f14565b60405180910390fd5b85877fc2617efa69bab66782fa219543714338489c4e9e178271560a91b82c3f612b58878787876040516114d89493929190612f34565b60405180910390a350505050505050565b6114f281610886565b611531576040517f08c379a000000000000000000000000000000000000000000000000000000000815260040161152890612da7565b60405180910390fd5b6001600260008381526020019081526020016000208190555050565b6115578282610d30565b61162957600180600084815260200190815260200160002060000160008373ffffffffffffffffffffffffffffffffffffffff1673ffffffffffffffffffffffffffffffffffffffff16815260200190815260200160002060006101000a81548160ff0219169083151502179055506115ce611187565b73ffffffffffffffffffffffffffffffffffffffff168173ffffffffffffffffffffffffffffffffffffffff16837f2f8788117e7eff1d82e926ec794901d17c78024a50270940304540a733656f0d60405160405180910390a45b5050565b6116378282610d30565b1561170b5760006001600084815260200190815260200160002060000160008373ffffffffffffffffffffffffffffffffffffffff1673ffffffffffffffffffffffffffffffffffffffff16815260200190815260200160002060006101000a81548160ff0219169083151502179055506116b0611187565b73ffffffffffffffffffffffffffffffffffffffff168173ffffffffffffffffffffffffffffffffffffffff16837ff6391f5c32d9c69d2a47ea670b442974b53935d1edc7fd64eb21e047a839171b60405160405180910390a45b5050565b60008060009054906101000a900473ffffffffffffffffffffffffffffffffffffffff169050816000806101000a81548173ffffffffffffffffffffffffffffffffffffffff021916908373ffffffffffffffffffffffffffffffffffffffff1602179055508173ffffffffffffffffffffffffffffffffffffffff168173ffffffffffffffffffffffffffffffffffffffff167f8be0079c531659141344cd1fd0a4f28419497f9722a3daafe3b4186f6b6457e060405160405180910390a35050565b6060600060028360026117e69190612f74565b6117f09190612cdf565b67ffffffffffffffff81111561180957611808612fce565b5b6040519080825280601f01601f19166020018201604052801561183b5781602001600182028036833780820191505090505b5090507f300000000000000000000000000000000000000000000000000000000000000081600081518110611873576118726124d0565b5b60200101907effffffffffffffffffffffffffffffffffffffffffffffffffffffffffffff1916908160001a9053507f7800000000000000000000000000000000000000000000000000000000000000816001815181106118d7576118d66124d0565b5b60200101907effffffffffffffffffffffffffffffffffffffffffffffffffffffffffffff1916908160001a905350600060018460026119179190612f74565b6119219190612cdf565b90505b60018111156119c1577f3031323334353637383961626364656600000000000000000000000000000000600f861660108110611963576119626124d0565b5b1a60f81b82828151811061197a576119796124d0565b5b60200101907effffffffffffffffffffffffffffffffffffffffffffffffffffffffffffff1916908160001a905350600485901c9450806119ba90612ffd565b9050611924565b5060008414611a05576040517f08c379a00000000000000000000000000000000000000000000000000000000081526004016119fc90613073565b60405180910390fd5b8091505092915050565b600080fd5b600080fd5b600073ffffffffffffffffffffffffffffffffffffffff82169050919050565b6000611a4482611a19565b9050919050565b611a5481611a39565b8114611a5f57600080fd5b50565b600081359050611a7181611a4b565b92915050565b6000819050919050565b611a8a81611a77565b8114611a9557600080fd5b50565b600081359050611aa781611a81565b92915050565b600080fd5b600080fd5b600080fd5b60008083601f840112611ad257611ad1611aad565b5b8235905067ffffffffffffffff811115611aef57611aee611ab2565b5b602083019150836001820283011115611b0b57611b0a611ab7565b5b9250929050565b6000819050919050565b611b2581611b12565b8114611b3057600080fd5b50565b600081359050611b4281611b1c565b92915050565b600080600080600080600060c0888a031215611b6757611b66611a0f565b5b6000611b758a828b01611a62565b9750506020611b868a828b01611a98565b965050604088013567ffffffffffffffff811115611ba757611ba6611a14565b5b611bb38a828b01611abc565b95509550506060611bc68a828b01611b33565b9350506080611bd78a828b01611b33565b92505060a0611be88a828b01611a98565b91505092959891949750929550565b60007fffffffff0000000000000000000000000000000000000000000000000000000082169050919050565b611c2c81611bf7565b8114611c3757600080fd5b50565b600081359050611c4981611c23565b92915050565b600060208284031215611c6557611c64611a0f565b5b6000611c7384828501611c3a565b91505092915050565b60008115159050919050565b611c9181611c7c565b82525050565b6000602082019050611cac6000830184611c88565b92915050565b611cbb81611b12565b82525050565b6000602082019050611cd66000830184611cb2565b92915050565b60008060008060008060a08789031215611cf957611cf8611a0f565b5b6000611d0789828a01611a62565b9650506020611d1889828a01611a98565b955050604087013567ffffffffffffffff811115611d3957611d38611a14565b5b611d4589828a01611abc565b94509450506060611d5889828a01611b33565b9250506080611d6989828a01611b33565b9150509295509295509295565b600060208284031215611d8c57611d8b611a0f565b5b6000611d9a84828501611b33565b91505092915050565b60008060408385031215611dba57611db9611a0f565b5b6000611dc885828601611b33565b9250506020611dd985828601611a62565b9150509250929050565b600060208284031215611df957611df8611a0f565b5b6000611e0784828501611a98565b91505092915050565b611e1981611a39565b82525050565b6000602082019050611e346000830184611e10565b92915050565b60008083601f840112611e5057611e4f611aad565b5b8235905067ffffffffffffffff811115611e6d57611e6c611ab2565b5b602083019150836020820283011115611e8957611e88611ab7565b5b9250929050565b60008083601f840112611ea657611ea5611aad565b5b8235905067ffffffffffffffff811115611ec357611ec2611ab2565b5b602083019150836020820283011115611edf57611ede611ab7565b5b9250929050565b60008083601f840112611efc57611efb611aad565b5b8235905067ffffffffffffffff811115611f1957611f18611ab2565b5b602083019150836020820283011115611f3557611f34611ab7565b5b9250929050565b600080600080600080600080600060c08a8c031215611f5e57611f5d611a0f565b5b60008a013567ffffffffffffffff811115611f7c57611f7b611a14565b5b611f888c828d01611e3a565b995099505060208a013567ffffffffffffffff811115611fab57611faa611a14565b5b611fb78c828d01611e90565b975097505060408a013567ffffffffffffffff811115611fda57611fd9611a14565b5b611fe68c828d01611ee6565b95509550506060611ff98c828d01611b33565b935050608061200a8c828d01611b33565b92505060a061201b8c828d01611a98565b9150509295985092959850929598565b60008060008060008060008060a0898b03121561204b5761204a611a0f565b5b600089013567ffffffffffffffff81111561206957612068611a14565b5b6120758b828c01611e3a565b9850985050602089013567ffffffffffffffff81111561209857612097611a14565b5b6120a48b828c01611e90565b9650965050604089013567ffffffffffffffff8111156120c7576120c6611a14565b5b6120d38b828c01611ee6565b945094505060606120e68b828c01611b33565b92505060806120f78b828c01611b33565b9150509295985092959890939650565b61211081611a77565b82525050565b600060208201905061212b6000830184612107565b92915050565b60006020828403121561214757612146611a0f565b5b600061215584828501611a62565b91505092915050565b600082825260208201905092915050565b82818337600083830152505050565b6000601f19601f8301169050919050565b600061219b838561215e565b93506121a883858461216f565b6121b18361217e565b840190509392505050565b600060a0820190506121d16000830189611e10565b6121de6020830188612107565b81810360408301526121f181868861218f565b90506122006060830185611cb2565b61220d6080830184612107565b979650505050505050565b600082825260208201905092915050565b7f416363657373436f6e74726f6c3a2063616e206f6e6c792072656e6f756e636560008201527f20726f6c657320666f722073656c660000000000000000000000000000000000602082015250565b6000612285602f83612218565b915061229082612229565b604082019050919050565b600060208201905081810360008301526122b481612278565b9050919050565b7f54696d656c6f636b436f6e74726f6c6c65723a2063616c6c6572206d7573742060008201527f62652074696d656c6f636b000000000000000000000000000000000000000000602082015250565b6000612317602b83612218565b9150612322826122bb565b604082019050919050565b600060208201905081810360008301526123468161230a565b9050919050565b60006040820190506123626000830185612107565b61236f6020830184612107565b9392505050565b7f4f776e61626c653a2063616c6c6572206973206e6f7420746865206f776e6572600082015250565b60006123ac602083612218565b91506123b782612376565b602082019050919050565b600060208201905081810360008301526123db8161239f565b9050919050565b600060a0820190506123f76000830189611e10565b6124046020830188612107565b818103604083015261241781868861218f565b90506124266060830185611cb2565b6124336080830184611cb2565b979650505050505050565b7f54696d656c6f636b436f6e74726f6c6c65723a206c656e677468206d69736d6160008201527f7463680000000000000000000000000000000000000000000000000000000000602082015250565b600061249a602383612218565b91506124a58261243e565b604082019050919050565b600060208201905081810360008301526124c98161248d565b9050919050565b7f4e487b7100000000000000000000000000000000000000000000000000000000600052603260045260246000fd5b600080fd5b600080fd5b600080fd5b6000808335600160200384360303811261252b5761252a6124ff565b5b80840192508235915067ffffffffffffffff82111561254d5761254c612504565b5b60208301925060018202360383131561256957612568612509565b5b509250929050565b7f4e487b7100000000000000000000000000000000000000000000000000000000600052601160045260246000fd5b60006125ab82611a77565b91507fffffffffffffffffffffffffffffffffffffffffffffffffffffffffffffffff8214156125de576125dd612571565b5b600182019050919050565b600082825260208201905092915050565b6000819050919050565b61260d81611a39565b82525050565b600061261f8383612604565b60208301905092915050565b600061263a6020840184611a62565b905092915050565b6000602082019050919050565b600061265b83856125e9565b9350612666826125fa565b8060005b8581101561269f5761267c828461262b565b6126868882612613565b975061269183612642565b92505060018101905061266a565b5085925050509392505050565b600082825260208201905092915050565b600080fd5b60006126ce83856126ac565b93507f07ffffffffffffffffffffffffffffffffffffffffffffffffffffffffffffff831115612701576127006126bd565b5b60208302925061271283858461216f565b82840190509392505050565b600082825260208201905092915050565b6000819050919050565b600082825260208201905092915050565b60006127568385612739565b935061276383858461216f565b61276c8361217e565b840190509392505050565b600061278484848461274a565b90509392505050565b600080fd5b600080fd5b600080fd5b600080833560016020038436030381126127b9576127b8612797565b5b83810192508235915060208301925067ffffffffffffffff8211156127e1576127e061278d565b5b6001820236038413156127f7576127f6612792565b5b509250929050565b6000602082019050919050565b6000612818838561271e565b93508360208402850161282a8461272f565b8060005b87811015612870578484038952612845828461279c565b612850868284612777565b955061285b846127ff565b935060208b019a50505060018101905061282e565b50829750879450505050509392505050565b600060a082019050818103600083015261289d818a8c61264f565b905081810360208301526128b281888a6126c2565b905081810360408301526128c781868861280c565b90506128d66060830185611cb2565b6128e36080830184611cb2565b9998505050505050505050565b7f54696d656c6f636b436f6e74726f6c6c65723a206f7065726174696f6e20636160008201527f6e6e6f742062652063616e63656c6c6564000000000000000000000000000000602082015250565b600061294c603183612218565b9150612957826128f0565b604082019050919050565b6000602082019050818103600083015261297b8161293f565b9050919050565b7f4f776e61626c653a206e6577206f776e657220697320746865207a65726f206160008201527f6464726573730000000000000000000000000000000000000000000000000000602082015250565b60006129de602683612218565b91506129e982612982565b604082019050919050565b60006020820190508181036000830152612a0d816129d1565b9050919050565b600081905092915050565b7f416363657373436f6e74726f6c3a206163636f756e7420000000000000000000600082015250565b6000612a55601783612a14565b9150612a6082612a1f565b601782019050919050565b600081519050919050565b60005b83811015612a94578082015181840152602081019050612a79565b83811115612aa3576000848401525b50505050565b6000612ab482612a6b565b612abe8185612a14565b9350612ace818560208601612a76565b80840191505092915050565b7f206973206d697373696e6720726f6c6520000000000000000000000000000000600082015250565b6000612b10601183612a14565b9150612b1b82612ada565b601182019050919050565b6000612b3182612a48565b9150612b3d8285612aa9565b9150612b4882612b03565b9150612b548284612aa9565b91508190509392505050565b6000612b6b82612a6b565b612b758185612218565b9350612b85818560208601612a76565b612b8e8161217e565b840191505092915050565b60006020820190508181036000830152612bb38184612b60565b905092915050565b7f54696d656c6f636b436f6e74726f6c6c65723a206f7065726174696f6e20616c60008201527f7265616479207363686564756c65640000000000000000000000000000000000602082015250565b6000612c17602f83612218565b9150612c2282612bbb565b604082019050919050565b60006020820190508181036000830152612c4681612c0a565b9050919050565b7f54696d656c6f636b436f6e74726f6c6c65723a20696e73756666696369656e7460008201527f2064656c61790000000000000000000000000000000000000000000000000000602082015250565b6000612ca9602683612218565b9150612cb482612c4d565b604082019050919050565b60006020820190508181036000830152612cd881612c9c565b9050919050565b6000612cea82611a77565b9150612cf583611a77565b9250827fffffffffffffffffffffffffffffffffffffffffffffffffffffffffffffffff03821115612d2a57612d29612571565b5b828201905092915050565b7f54696d656c6f636b436f6e74726f6c6c65723a206f7065726174696f6e20697360008201527f206e6f7420726561647900000000000000000000000000000000000000000000602082015250565b6000612d91602a83612218565b9150612d9c82612d35565b604082019050919050565b60006020820190508181036000830152612dc081612d84565b9050919050565b7f54696d656c6f636b436f6e74726f6c6c65723a206d697373696e67206465706560008201527f6e64656e63790000000000000000000000000000000000000000000000000000602082015250565b6000612e23602683612218565b9150612e2e82612dc7565b604082019050919050565b60006020820190508181036000830152612e5281612e16565b9050919050565b600081905092915050565b6000612e708385612e59565b9350612e7d83858461216f565b82840190509392505050565b6000612e96828486612e64565b91508190509392505050565b7f54696d656c6f636b436f6e74726f6c6c65723a20756e6465726c79696e67207460008201527f72616e73616374696f6e20726576657274656400000000000000000000000000602082015250565b6000612efe603383612218565b9150612f0982612ea2565b604082019050919050565b60006020820190508181036000830152612f2d81612ef1565b9050919050565b6000606082019050612f496000830187611e10565b612f566020830186612107565b8181036040830152612f6981848661218f565b905095945050505050565b6000612f7f82611a77565b9150612f8a83611a77565b9250817fffffffffffffffffffffffffffffffffffffffffffffffffffffffffffffffff0483118215151615612fc357612fc2612571565b5b828202905092915050565b7f4e487b7100000000000000000000000000000000000000000000000000000000600052604160045260246000fd5b600061300882611a77565b9150600082141561301c5761301b612571565b5b600182039050919050565b7f537472696e67733a20686578206c656e67746820696e73756666696369656e74600082015250565b600061305d602083612218565b915061306882613027565b602082019050919050565b6000602082019050818103600083015261308c81613050565b905091905056fea2646970667358221220c7dcdf945274bb029712a474a466e5fa548b0a3fe5f46e154f476a34626473c664736f6c63430008090033",
  "immutableReferences": {},
  "source": "// SPDX-License-Identifier: MIT\npragma solidity ^0.8.2;\n\n/// @title Ikon DAO TimelockController  \n/// @author Fernando M. Trouw\n/// @notice wraps around the IkonDAO to implement delays between proposals \n/// @notice this contract should be used for basic simulation purposes only \n/// @notice this contract is an experimental contract and should not be used to initiate project that will hold real value\n/// @dev functions currently implemented (other then imported library) functions could contain side-effects\n\nimport \"@openzeppelin/contracts/governance/TimelockController.sol\";\nimport \"@openzeppelin/contracts/access/Ownable.sol\";\n\ncontract IkonDAOTimelockController is Ownable, TimelockController {\n\n    constructor(uint256 minDelay, address[] memory proposers, address[] memory executors) \n    TimelockController(minDelay, proposers, executors) {}\n    \n}",
  "sourcePath": "/run/media/rasguy92/SDD (windows)/projectIdeas/iconify/contracts/IkonDAOTimelockController.sol",
  "compiler": {
    "name": "solc",
    "version": "0.8.9+commit.e5eed63a.Emscripten.clang"
  },
  "schemaVersion": "3.4.3",
  "updatedAt": "2021-10-26T02:02:30.826Z",
  "devdoc": {
    "kind": "dev",
    "methods": {
      "cancel(bytes32)": {
        "details": "Cancel an operation. Requirements: - the caller must have the 'proposer' role."
      },
      "execute(address,uint256,bytes,bytes32,bytes32)": {
        "details": "Execute an (ready) operation containing a single transaction. Emits a {CallExecuted} event. Requirements: - the caller must have the 'executor' role."
      },
      "executeBatch(address[],uint256[],bytes[],bytes32,bytes32)": {
        "details": "Execute an (ready) operation containing a batch of transactions. Emits one {CallExecuted} event per transaction in the batch. Requirements: - the caller must have the 'executor' role."
      },
      "getMinDelay()": {
        "details": "Returns the minimum delay for an operation to become valid. This value can be changed by executing an operation that calls `updateDelay`."
      },
      "getRoleAdmin(bytes32)": {
        "details": "Returns the admin role that controls `role`. See {grantRole} and {revokeRole}. To change a role's admin, use {_setRoleAdmin}."
      },
      "getTimestamp(bytes32)": {
        "details": "Returns the timestamp at with an operation becomes ready (0 for unset operations, 1 for done operations)."
      },
      "grantRole(bytes32,address)": {
        "details": "Grants `role` to `account`. If `account` had not been already granted `role`, emits a {RoleGranted} event. Requirements: - the caller must have ``role``'s admin role."
      },
      "hasRole(bytes32,address)": {
        "details": "Returns `true` if `account` has been granted `role`."
      },
      "hashOperation(address,uint256,bytes,bytes32,bytes32)": {
        "details": "Returns the identifier of an operation containing a single transaction."
      },
      "hashOperationBatch(address[],uint256[],bytes[],bytes32,bytes32)": {
        "details": "Returns the identifier of an operation containing a batch of transactions."
      },
      "isOperation(bytes32)": {
        "details": "Returns whether an id correspond to a registered operation. This includes both Pending, Ready and Done operations."
      },
      "isOperationDone(bytes32)": {
        "details": "Returns whether an operation is done or not."
      },
      "isOperationPending(bytes32)": {
        "details": "Returns whether an operation is pending or not."
      },
      "isOperationReady(bytes32)": {
        "details": "Returns whether an operation is ready or not."
      },
      "owner()": {
        "details": "Returns the address of the current owner."
      },
      "renounceOwnership()": {
        "details": "Leaves the contract without owner. It will not be possible to call `onlyOwner` functions anymore. Can only be called by the current owner. NOTE: Renouncing ownership will leave the contract without an owner, thereby removing any functionality that is only available to the owner."
      },
      "renounceRole(bytes32,address)": {
        "details": "Revokes `role` from the calling account. Roles are often managed via {grantRole} and {revokeRole}: this function's purpose is to provide a mechanism for accounts to lose their privileges if they are compromised (such as when a trusted device is misplaced). If the calling account had been granted `role`, emits a {RoleRevoked} event. Requirements: - the caller must be `account`."
      },
      "revokeRole(bytes32,address)": {
        "details": "Revokes `role` from `account`. If `account` had been granted `role`, emits a {RoleRevoked} event. Requirements: - the caller must have ``role``'s admin role."
      },
      "schedule(address,uint256,bytes,bytes32,bytes32,uint256)": {
        "details": "Schedule an operation containing a single transaction. Emits a {CallScheduled} event. Requirements: - the caller must have the 'proposer' role."
      },
      "scheduleBatch(address[],uint256[],bytes[],bytes32,bytes32,uint256)": {
        "details": "Schedule an operation containing a batch of transactions. Emits one {CallScheduled} event per transaction in the batch. Requirements: - the caller must have the 'proposer' role."
      },
      "supportsInterface(bytes4)": {
        "details": "See {IERC165-supportsInterface}."
      },
      "transferOwnership(address)": {
        "details": "Transfers ownership of the contract to a new account (`newOwner`). Can only be called by the current owner."
      },
      "updateDelay(uint256)": {
        "details": "Changes the minimum timelock duration for future operations. Emits a {MinDelayChange} event. Requirements: - the caller must be the timelock itself. This can only be achieved by scheduling and later executing an operation where the timelock is the target and the data is the ABI-encoded call to this function."
      }
    },
    "version": 1
  },
  "userdoc": {
    "kind": "user",
    "methods": {},
    "version": 1
  }
}