{
  "contractName": "IkonDAO",
  "abi": [
    {
      "anonymous": false,
      "inputs": [
        {
          "indexed": false,
          "internalType": "address",
          "name": "previousAdmin",
          "type": "address"
        },
        {
          "indexed": false,
          "internalType": "address",
          "name": "newAdmin",
          "type": "address"
        }
      ],
      "name": "AdminChanged",
      "type": "event"
    },
    {
      "anonymous": false,
      "inputs": [
        {
          "indexed": true,
          "internalType": "address",
          "name": "beacon",
          "type": "address"
        }
      ],
      "name": "BeaconUpgraded",
      "type": "event"
    },
    {
      "anonymous": false,
      "inputs": [
        {
          "indexed": true,
          "internalType": "address",
          "name": "previousOwner",
          "type": "address"
        },
        {
          "indexed": true,
          "internalType": "address",
          "name": "newOwner",
          "type": "address"
        }
      ],
      "name": "OwnershipTransferred",
      "type": "event"
    },
    {
      "anonymous": false,
      "inputs": [
        {
          "indexed": true,
          "internalType": "address",
          "name": "implementation",
          "type": "address"
        }
      ],
      "name": "Upgraded",
      "type": "event"
    },
    {
      "inputs": [],
      "name": "owner",
      "outputs": [
        {
          "internalType": "address",
          "name": "",
          "type": "address"
        }
      ],
      "stateMutability": "view",
      "type": "function"
    },
    {
      "inputs": [],
      "name": "renounceOwnership",
      "outputs": [],
      "stateMutability": "nonpayable",
      "type": "function"
    },
    {
      "inputs": [
        {
          "internalType": "address",
          "name": "newOwner",
          "type": "address"
        }
      ],
      "name": "transferOwnership",
      "outputs": [],
      "stateMutability": "nonpayable",
      "type": "function"
    },
    {
      "inputs": [
        {
          "internalType": "address",
          "name": "newImplementation",
          "type": "address"
        }
      ],
      "name": "upgradeTo",
      "outputs": [],
      "stateMutability": "nonpayable",
      "type": "function"
    },
    {
      "inputs": [
        {
          "internalType": "address",
          "name": "newImplementation",
          "type": "address"
        },
        {
          "internalType": "bytes",
          "name": "data",
          "type": "bytes"
        }
      ],
      "name": "upgradeToAndCall",
      "outputs": [],
      "stateMutability": "payable",
      "type": "function"
    },
    {
      "inputs": [
        {
          "internalType": "address",
          "name": "_govTokenAddress",
          "type": "address"
        },
        {
          "internalType": "address",
          "name": "_daoGovernor",
          "type": "address"
        },
        {
          "internalType": "address",
          "name": "_daoTimelockAddress",
          "type": "address"
        }
      ],
      "name": "__IkonDAO_init",
      "outputs": [],
      "stateMutability": "nonpayable",
      "type": "function"
    }
  ],
  "bytecode": "0x60a06040523073ffffffffffffffffffffffffffffffffffffffff1660809073ffffffffffffffffffffffffffffffffffffffff1681525034801561004357600080fd5b506080516115d4610074600039600081816102d4015281816103630152818161045d01526104ec01526115d46000f3fe6080604052600436106100555760003560e01c80630b236f6a1461005a5780633659cfe6146100835780634f1ef286146100ac578063715018a6146100c85780638da5cb5b146100df578063f2fde38b1461010a575b600080fd5b34801561006657600080fd5b50610081600480360381019061007c9190610db9565b610133565b005b34801561008f57600080fd5b506100aa60048036038101906100a59190610e0c565b6102d2565b005b6100c660048036038101906100c19190610f7f565b61045b565b005b3480156100d457600080fd5b506100dd610598565b005b3480156100eb57600080fd5b506100f4610620565b6040516101019190610fea565b60405180910390f35b34801561011657600080fd5b50610131600480360381019061012c9190610e0c565b61064a565b005b600060019054906101000a900460ff1680610159575060008054906101000a900460ff16155b610198576040517f08c379a000000000000000000000000000000000000000000000000000000000815260040161018f90611088565b60405180910390fd5b60008060019054906101000a900460ff1615905080156101e8576001600060016101000a81548160ff02191690831515021790555060016000806101000a81548160ff0219169083151502179055505b83606660006101000a81548173ffffffffffffffffffffffffffffffffffffffff021916908373ffffffffffffffffffffffffffffffffffffffff16021790555081606760006101000a81548173ffffffffffffffffffffffffffffffffffffffff021916908373ffffffffffffffffffffffffffffffffffffffff16021790555082606560006101000a81548173ffffffffffffffffffffffffffffffffffffffff021916908373ffffffffffffffffffffffffffffffffffffffff16021790555080156102cc5760008060016101000a81548160ff0219169083151502179055505b50505050565b7f000000000000000000000000000000000000000000000000000000000000000073ffffffffffffffffffffffffffffffffffffffff163073ffffffffffffffffffffffffffffffffffffffff161415610361576040517f08c379a00000000000000000000000000000000000000000000000000000000081526004016103589061111a565b60405180910390fd5b7f000000000000000000000000000000000000000000000000000000000000000073ffffffffffffffffffffffffffffffffffffffff166103a0610742565b73ffffffffffffffffffffffffffffffffffffffff16146103f6576040517f08c379a00000000000000000000000000000000000000000000000000000000081526004016103ed906111ac565b60405180910390fd5b6103ff81610799565b61045881600067ffffffffffffffff81111561041e5761041d610e54565b5b6040519080825280601f01601f1916602001820160405280156104505781602001600182028036833780820191505090505b506000610818565b50565b7f000000000000000000000000000000000000000000000000000000000000000073ffffffffffffffffffffffffffffffffffffffff163073ffffffffffffffffffffffffffffffffffffffff1614156104ea576040517f08c379a00000000000000000000000000000000000000000000000000000000081526004016104e19061111a565b60405180910390fd5b7f000000000000000000000000000000000000000000000000000000000000000073ffffffffffffffffffffffffffffffffffffffff16610529610742565b73ffffffffffffffffffffffffffffffffffffffff161461057f576040517f08c379a0000000000000000000000000000000000000000000000000000000008152600401610576906111ac565b60405180910390fd5b61058882610799565b61059482826001610818565b5050565b6105a06109e9565b73ffffffffffffffffffffffffffffffffffffffff166105be610620565b73ffffffffffffffffffffffffffffffffffffffff1614610614576040517f08c379a000000000000000000000000000000000000000000000000000000000815260040161060b90611218565b60405180910390fd5b61061e60006109f1565b565b6000603360009054906101000a900473ffffffffffffffffffffffffffffffffffffffff16905090565b6106526109e9565b73ffffffffffffffffffffffffffffffffffffffff16610670610620565b73ffffffffffffffffffffffffffffffffffffffff16146106c6576040517f08c379a00000000000000000000000000000000000000000000000000000000081526004016106bd90611218565b60405180910390fd5b600073ffffffffffffffffffffffffffffffffffffffff168173ffffffffffffffffffffffffffffffffffffffff161415610736576040517f08c379a000000000000000000000000000000000000000000000000000000000815260040161072d906112aa565b60405180910390fd5b61073f816109f1565b50565b60006107707f360894a13ba1a3210667c828492db98dca3e2076cc3735a920a3ca505d382bbc60001b610ab7565b60000160009054906101000a900473ffffffffffffffffffffffffffffffffffffffff16905090565b6107a16109e9565b73ffffffffffffffffffffffffffffffffffffffff166107bf610620565b73ffffffffffffffffffffffffffffffffffffffff1614610815576040517f08c379a000000000000000000000000000000000000000000000000000000000815260040161080c90611218565b60405180910390fd5b50565b6000610822610742565b905061082d84610ac1565b60008351118061083a5750815b1561084b576108498484610b7a565b505b60006108797f4910fdfa16fed3260ed0e7147f7cc6da11a60208b5b9406d12a635614ffd914360001b610ba7565b90508060000160009054906101000a900460ff166109e25760018160000160006101000a81548160ff02191690831515021790555061094585836040516024016108c39190610fea565b6040516020818303038152906040527f3659cfe6000000000000000000000000000000000000000000000000000000007bffffffffffffffffffffffffffffffffffffffffffffffffffffffff19166020820180517bffffffffffffffffffffffffffffffffffffffffffffffffffffffff8381831617835250505050610b7a565b5060008160000160006101000a81548160ff02191690831515021790555061096b610742565b73ffffffffffffffffffffffffffffffffffffffff168273ffffffffffffffffffffffffffffffffffffffff16146109d8576040517f08c379a00000000000000000000000000000000000000000000000000000000081526004016109cf9061133c565b60405180910390fd5b6109e185610bb1565b5b5050505050565b600033905090565b6000603360009054906101000a900473ffffffffffffffffffffffffffffffffffffffff16905081603360006101000a81548173ffffffffffffffffffffffffffffffffffffffff021916908373ffffffffffffffffffffffffffffffffffffffff1602179055508173ffffffffffffffffffffffffffffffffffffffff168173ffffffffffffffffffffffffffffffffffffffff167f8be0079c531659141344cd1fd0a4f28419497f9722a3daafe3b4186f6b6457e060405160405180910390a35050565b6000819050919050565b610aca81610c00565b610b09576040517f08c379a0000000000000000000000000000000000000000000000000000000008152600401610b00906113ce565b60405180910390fd5b80610b367f360894a13ba1a3210667c828492db98dca3e2076cc3735a920a3ca505d382bbc60001b610ab7565b60000160006101000a81548173ffffffffffffffffffffffffffffffffffffffff021916908373ffffffffffffffffffffffffffffffffffffffff16021790555050565b6060610b9f838360405180606001604052806027815260200161157860279139610c13565b905092915050565b6000819050919050565b610bba81610ac1565b8073ffffffffffffffffffffffffffffffffffffffff167fbc7cd75a20ee27fd9adebab32041f755214dbc6bffa90cc0225b39da2e5c2d3b60405160405180910390a250565b600080823b905060008111915050919050565b6060610c1e84610c00565b610c5d576040517f08c379a0000000000000000000000000000000000000000000000000000000008152600401610c5490611460565b60405180910390fd5b6000808573ffffffffffffffffffffffffffffffffffffffff1685604051610c8591906114fa565b600060405180830381855af49150503d8060008114610cc0576040519150601f19603f3d011682016040523d82523d6000602084013e610cc5565b606091505b5091509150610cd5828286610ce0565b925050509392505050565b60608315610cf057829050610d40565b600083511115610d035782518084602001fd5b816040517f08c379a0000000000000000000000000000000000000000000000000000000008152600401610d379190611555565b60405180910390fd5b9392505050565b6000604051905090565b600080fd5b600080fd5b600073ffffffffffffffffffffffffffffffffffffffff82169050919050565b6000610d8682610d5b565b9050919050565b610d9681610d7b565b8114610da157600080fd5b50565b600081359050610db381610d8d565b92915050565b600080600060608486031215610dd257610dd1610d51565b5b6000610de086828701610da4565b9350506020610df186828701610da4565b9250506040610e0286828701610da4565b9150509250925092565b600060208284031215610e2257610e21610d51565b5b6000610e3084828501610da4565b91505092915050565b600080fd5b600080fd5b6000601f19601f8301169050919050565b7f4e487b7100000000000000000000000000000000000000000000000000000000600052604160045260246000fd5b610e8c82610e43565b810181811067ffffffffffffffff82111715610eab57610eaa610e54565b5b80604052505050565b6000610ebe610d47565b9050610eca8282610e83565b919050565b600067ffffffffffffffff821115610eea57610ee9610e54565b5b610ef382610e43565b9050602081019050919050565b82818337600083830152505050565b6000610f22610f1d84610ecf565b610eb4565b905082815260208101848484011115610f3e57610f3d610e3e565b5b610f49848285610f00565b509392505050565b600082601f830112610f6657610f65610e39565b5b8135610f76848260208601610f0f565b91505092915050565b60008060408385031215610f9657610f95610d51565b5b6000610fa485828601610da4565b925050602083013567ffffffffffffffff811115610fc557610fc4610d56565b5b610fd185828601610f51565b9150509250929050565b610fe481610d7b565b82525050565b6000602082019050610fff6000830184610fdb565b92915050565b600082825260208201905092915050565b7f496e697469616c697a61626c653a20636f6e747261637420697320616c72656160008201527f647920696e697469616c697a6564000000000000000000000000000000000000602082015250565b6000611072602e83611005565b915061107d82611016565b604082019050919050565b600060208201905081810360008301526110a181611065565b9050919050565b7f46756e6374696f6e206d7573742062652063616c6c6564207468726f7567682060008201527f64656c656761746563616c6c0000000000000000000000000000000000000000602082015250565b6000611104602c83611005565b915061110f826110a8565b604082019050919050565b60006020820190508181036000830152611133816110f7565b9050919050565b7f46756e6374696f6e206d7573742062652063616c6c6564207468726f7567682060008201527f6163746976652070726f78790000000000000000000000000000000000000000602082015250565b6000611196602c83611005565b91506111a18261113a565b604082019050919050565b600060208201905081810360008301526111c581611189565b9050919050565b7f4f776e61626c653a2063616c6c6572206973206e6f7420746865206f776e6572600082015250565b6000611202602083611005565b915061120d826111cc565b602082019050919050565b60006020820190508181036000830152611231816111f5565b9050919050565b7f4f776e61626c653a206e6577206f776e657220697320746865207a65726f206160008201527f6464726573730000000000000000000000000000000000000000000000000000602082015250565b6000611294602683611005565b915061129f82611238565b604082019050919050565b600060208201905081810360008301526112c381611287565b9050919050565b7f45524331393637557067726164653a207570677261646520627265616b73206660008201527f7572746865722075706772616465730000000000000000000000000000000000602082015250565b6000611326602f83611005565b9150611331826112ca565b604082019050919050565b6000602082019050818103600083015261135581611319565b9050919050565b7f455243313936373a206e657720696d706c656d656e746174696f6e206973206e60008201527f6f74206120636f6e747261637400000000000000000000000000000000000000602082015250565b60006113b8602d83611005565b91506113c38261135c565b604082019050919050565b600060208201905081810360008301526113e7816113ab565b9050919050565b7f416464726573733a2064656c65676174652063616c6c20746f206e6f6e2d636f60008201527f6e74726163740000000000000000000000000000000000000000000000000000602082015250565b600061144a602683611005565b9150611455826113ee565b604082019050919050565b600060208201905081810360008301526114798161143d565b9050919050565b600081519050919050565b600081905092915050565b60005b838110156114b4578082015181840152602081019050611499565b838111156114c3576000848401525b50505050565b60006114d482611480565b6114de818561148b565b93506114ee818560208601611496565b80840191505092915050565b600061150682846114c9565b915081905092915050565b600081519050919050565b600061152782611511565b6115318185611005565b9350611541818560208601611496565b61154a81610e43565b840191505092915050565b6000602082019050818103600083015261156f818461151c565b90509291505056fe416464726573733a206c6f772d6c6576656c2064656c65676174652063616c6c206661696c6564a264697066735822122062c3684822547c38d86f2639f6e9dc594013a9142c64916185c5af6af7d2e52964736f6c63430008090033",
  "immutableReferences": {
    "3642": [
      {
        "length": 32,
        "start": 724
      },
      {
        "length": 32,
        "start": 867
      },
      {
        "length": 32,
        "start": 1117
      },
      {
        "length": 32,
        "start": 1260
      }
    ]
  },
  "source": "// SPDX-License-Identifier: MIT\npragma solidity ^0.8.2;\n\n/// @title The IKONDAO - a distributed collective for icon, vector graphics, animated svg's creators and creative artists\n/// @author Fernando M. Trouw\n/// @notice this contract experimental \n/// @notice this contract is an experimental contract and should not be used to initiate project that will hold real value\n\nimport \"@openzeppelin/contracts-upgradeable/access/OwnableUpgradeable.sol\";\nimport \"@openzeppelin/contracts/proxy/utils/UUPSUpgradeable.sol\";\nimport \"@openzeppelin/contracts/governance/TimelockController.sol\";\n\nimport \"./IkonDAOGovernor.sol\";\nimport \"./IkonDAOGovernanceToken.sol\";\nimport \"./Constants.sol\";\n\ncontract IkonDAO is OwnableUpgradeable, UUPSUpgradeable {\n    IkonDAOGovernor private _governor;\n    IkonDAOGovernanceToken private _govToken;\n    TimelockController private _daoTimelock;\n    \n    /// @notice initializes ikonDAO\n    function __IkonDAO_init(address _govTokenAddress, address _daoGovernor, address _daoTimelockAddress) external initializer(){\n        _govToken = IkonDAOGovernanceToken(_govTokenAddress);\n        _daoTimelock = TimelockController(payable(_daoTimelockAddress));\n        _governor = IkonDAOGovernor(_daoGovernor);\n    }\n    \n    function _authorizeUpgrade(address newImplementation) internal onlyOwner override{}\n}",
  "sourcePath": "/run/media/rasguy92/SDD (windows)/projectIdeas/iconify/contracts/IkonDAO.sol",
  "compiler": {
    "name": "solc",
    "version": "0.8.9+commit.e5eed63a.Emscripten.clang"
  },
  "schemaVersion": "3.4.3",
  "updatedAt": "2021-10-25T10:34:19.380Z",
  "devdoc": {
    "kind": "dev",
    "methods": {
      "owner()": {
        "details": "Returns the address of the current owner."
      },
      "renounceOwnership()": {
        "details": "Leaves the contract without owner. It will not be possible to call `onlyOwner` functions anymore. Can only be called by the current owner. NOTE: Renouncing ownership will leave the contract without an owner, thereby removing any functionality that is only available to the owner."
      },
      "transferOwnership(address)": {
        "details": "Transfers ownership of the contract to a new account (`newOwner`). Can only be called by the current owner."
      },
      "upgradeTo(address)": {
        "details": "Upgrade the implementation of the proxy to `newImplementation`. Calls {_authorizeUpgrade}. Emits an {Upgraded} event."
      },
      "upgradeToAndCall(address,bytes)": {
        "details": "Upgrade the implementation of the proxy to `newImplementation`, and subsequently execute the function call encoded in `data`. Calls {_authorizeUpgrade}. Emits an {Upgraded} event."
      }
    },
    "version": 1
  },
  "userdoc": {
    "kind": "user",
    "methods": {
      "__IkonDAO_init(address,address,address)": {
        "notice": "initializes ikonDAO"
      }
    },
    "version": 1
  }
}