{
  "contractName": "IkonDAOVectorCollectible",
  "abi": [
    {
      "inputs": [
        {
          "internalType": "address",
          "name": "DAO",
          "type": "address"
        }
      ],
      "stateMutability": "nonpayable",
      "type": "constructor"
    },
    {
      "anonymous": false,
      "inputs": [
        {
          "indexed": true,
          "internalType": "address",
          "name": "owner",
          "type": "address"
        },
        {
          "indexed": true,
          "internalType": "address",
          "name": "approved",
          "type": "address"
        },
        {
          "indexed": true,
          "internalType": "uint256",
          "name": "tokenId",
          "type": "uint256"
        }
      ],
      "name": "Approval",
      "type": "event"
    },
    {
      "anonymous": false,
      "inputs": [
        {
          "indexed": true,
          "internalType": "address",
          "name": "owner",
          "type": "address"
        },
        {
          "indexed": true,
          "internalType": "address",
          "name": "operator",
          "type": "address"
        },
        {
          "indexed": false,
          "internalType": "bool",
          "name": "approved",
          "type": "bool"
        }
      ],
      "name": "ApprovalForAll",
      "type": "event"
    },
    {
      "anonymous": false,
      "inputs": [
        {
          "indexed": false,
          "internalType": "address",
          "name": "newAddress",
          "type": "address"
        }
      ],
      "name": "DaoAddressChanged",
      "type": "event"
    },
    {
      "anonymous": false,
      "inputs": [
        {
          "indexed": false,
          "internalType": "address",
          "name": "account",
          "type": "address"
        }
      ],
      "name": "Paused",
      "type": "event"
    },
    {
      "anonymous": false,
      "inputs": [
        {
          "indexed": true,
          "internalType": "bytes32",
          "name": "role",
          "type": "bytes32"
        },
        {
          "indexed": true,
          "internalType": "bytes32",
          "name": "previousAdminRole",
          "type": "bytes32"
        },
        {
          "indexed": true,
          "internalType": "bytes32",
          "name": "newAdminRole",
          "type": "bytes32"
        }
      ],
      "name": "RoleAdminChanged",
      "type": "event"
    },
    {
      "anonymous": false,
      "inputs": [
        {
          "indexed": true,
          "internalType": "bytes32",
          "name": "role",
          "type": "bytes32"
        },
        {
          "indexed": true,
          "internalType": "address",
          "name": "account",
          "type": "address"
        },
        {
          "indexed": true,
          "internalType": "address",
          "name": "sender",
          "type": "address"
        }
      ],
      "name": "RoleGranted",
      "type": "event"
    },
    {
      "anonymous": false,
      "inputs": [
        {
          "indexed": true,
          "internalType": "bytes32",
          "name": "role",
          "type": "bytes32"
        },
        {
          "indexed": true,
          "internalType": "address",
          "name": "account",
          "type": "address"
        },
        {
          "indexed": true,
          "internalType": "address",
          "name": "sender",
          "type": "address"
        }
      ],
      "name": "RoleRevoked",
      "type": "event"
    },
    {
      "anonymous": false,
      "inputs": [
        {
          "indexed": true,
          "internalType": "address",
          "name": "from",
          "type": "address"
        },
        {
          "indexed": true,
          "internalType": "address",
          "name": "to",
          "type": "address"
        },
        {
          "indexed": true,
          "internalType": "uint256",
          "name": "tokenId",
          "type": "uint256"
        }
      ],
      "name": "Transfer",
      "type": "event"
    },
    {
      "anonymous": false,
      "inputs": [
        {
          "indexed": false,
          "internalType": "address",
          "name": "account",
          "type": "address"
        }
      ],
      "name": "Unpaused",
      "type": "event"
    },
    {
      "anonymous": false,
      "inputs": [
        {
          "indexed": false,
          "internalType": "uint256",
          "name": "tokenId",
          "type": "uint256"
        },
        {
          "indexed": false,
          "internalType": "address",
          "name": "receiver",
          "type": "address"
        }
      ],
      "name": "VectorMinted",
      "type": "event"
    },
    {
      "inputs": [],
      "name": "DEFAULT_ADMIN_ROLE",
      "outputs": [
        {
          "internalType": "bytes32",
          "name": "",
          "type": "bytes32"
        }
      ],
      "stateMutability": "view",
      "type": "function",
      "constant": true
    },
    {
      "inputs": [
        {
          "internalType": "address",
          "name": "to",
          "type": "address"
        },
        {
          "internalType": "uint256",
          "name": "tokenId",
          "type": "uint256"
        }
      ],
      "name": "approve",
      "outputs": [],
      "stateMutability": "nonpayable",
      "type": "function"
    },
    {
      "inputs": [
        {
          "internalType": "address",
          "name": "owner",
          "type": "address"
        }
      ],
      "name": "balanceOf",
      "outputs": [
        {
          "internalType": "uint256",
          "name": "",
          "type": "uint256"
        }
      ],
      "stateMutability": "view",
      "type": "function",
      "constant": true
    },
    {
      "inputs": [
        {
          "internalType": "uint256",
          "name": "tokenId",
          "type": "uint256"
        }
      ],
      "name": "getApproved",
      "outputs": [
        {
          "internalType": "address",
          "name": "",
          "type": "address"
        }
      ],
      "stateMutability": "view",
      "type": "function",
      "constant": true
    },
    {
      "inputs": [
        {
          "internalType": "bytes32",
          "name": "role",
          "type": "bytes32"
        }
      ],
      "name": "getRoleAdmin",
      "outputs": [
        {
          "internalType": "bytes32",
          "name": "",
          "type": "bytes32"
        }
      ],
      "stateMutability": "view",
      "type": "function",
      "constant": true
    },
    {
      "inputs": [
        {
          "internalType": "bytes32",
          "name": "role",
          "type": "bytes32"
        },
        {
          "internalType": "address",
          "name": "account",
          "type": "address"
        }
      ],
      "name": "grantRole",
      "outputs": [],
      "stateMutability": "nonpayable",
      "type": "function"
    },
    {
      "inputs": [
        {
          "internalType": "bytes32",
          "name": "role",
          "type": "bytes32"
        },
        {
          "internalType": "address",
          "name": "account",
          "type": "address"
        }
      ],
      "name": "hasRole",
      "outputs": [
        {
          "internalType": "bool",
          "name": "",
          "type": "bool"
        }
      ],
      "stateMutability": "view",
      "type": "function",
      "constant": true
    },
    {
      "inputs": [
        {
          "internalType": "address",
          "name": "owner",
          "type": "address"
        },
        {
          "internalType": "address",
          "name": "operator",
          "type": "address"
        }
      ],
      "name": "isApprovedForAll",
      "outputs": [
        {
          "internalType": "bool",
          "name": "",
          "type": "bool"
        }
      ],
      "stateMutability": "view",
      "type": "function",
      "constant": true
    },
    {
      "inputs": [],
      "name": "name",
      "outputs": [
        {
          "internalType": "string",
          "name": "",
          "type": "string"
        }
      ],
      "stateMutability": "view",
      "type": "function",
      "constant": true
    },
    {
      "inputs": [
        {
          "internalType": "uint256",
          "name": "tokenId",
          "type": "uint256"
        }
      ],
      "name": "ownerOf",
      "outputs": [
        {
          "internalType": "address",
          "name": "",
          "type": "address"
        }
      ],
      "stateMutability": "view",
      "type": "function",
      "constant": true
    },
    {
      "inputs": [],
      "name": "paused",
      "outputs": [
        {
          "internalType": "bool",
          "name": "",
          "type": "bool"
        }
      ],
      "stateMutability": "view",
      "type": "function",
      "constant": true
    },
    {
      "inputs": [
        {
          "internalType": "bytes32",
          "name": "role",
          "type": "bytes32"
        },
        {
          "internalType": "address",
          "name": "account",
          "type": "address"
        }
      ],
      "name": "renounceRole",
      "outputs": [],
      "stateMutability": "nonpayable",
      "type": "function"
    },
    {
      "inputs": [
        {
          "internalType": "bytes32",
          "name": "role",
          "type": "bytes32"
        },
        {
          "internalType": "address",
          "name": "account",
          "type": "address"
        }
      ],
      "name": "revokeRole",
      "outputs": [],
      "stateMutability": "nonpayable",
      "type": "function"
    },
    {
      "inputs": [
        {
          "internalType": "address",
          "name": "from",
          "type": "address"
        },
        {
          "internalType": "address",
          "name": "to",
          "type": "address"
        },
        {
          "internalType": "uint256",
          "name": "tokenId",
          "type": "uint256"
        }
      ],
      "name": "safeTransferFrom",
      "outputs": [],
      "stateMutability": "nonpayable",
      "type": "function"
    },
    {
      "inputs": [
        {
          "internalType": "address",
          "name": "from",
          "type": "address"
        },
        {
          "internalType": "address",
          "name": "to",
          "type": "address"
        },
        {
          "internalType": "uint256",
          "name": "tokenId",
          "type": "uint256"
        },
        {
          "internalType": "bytes",
          "name": "_data",
          "type": "bytes"
        }
      ],
      "name": "safeTransferFrom",
      "outputs": [],
      "stateMutability": "nonpayable",
      "type": "function"
    },
    {
      "inputs": [
        {
          "internalType": "address",
          "name": "operator",
          "type": "address"
        },
        {
          "internalType": "bool",
          "name": "approved",
          "type": "bool"
        }
      ],
      "name": "setApprovalForAll",
      "outputs": [],
      "stateMutability": "nonpayable",
      "type": "function"
    },
    {
      "inputs": [],
      "name": "symbol",
      "outputs": [
        {
          "internalType": "string",
          "name": "",
          "type": "string"
        }
      ],
      "stateMutability": "view",
      "type": "function",
      "constant": true
    },
    {
      "inputs": [
        {
          "internalType": "uint256",
          "name": "index",
          "type": "uint256"
        }
      ],
      "name": "tokenByIndex",
      "outputs": [
        {
          "internalType": "uint256",
          "name": "",
          "type": "uint256"
        }
      ],
      "stateMutability": "view",
      "type": "function",
      "constant": true
    },
    {
      "inputs": [
        {
          "internalType": "address",
          "name": "owner",
          "type": "address"
        },
        {
          "internalType": "uint256",
          "name": "index",
          "type": "uint256"
        }
      ],
      "name": "tokenOfOwnerByIndex",
      "outputs": [
        {
          "internalType": "uint256",
          "name": "",
          "type": "uint256"
        }
      ],
      "stateMutability": "view",
      "type": "function",
      "constant": true
    },
    {
      "inputs": [],
      "name": "totalSupply",
      "outputs": [
        {
          "internalType": "uint256",
          "name": "",
          "type": "uint256"
        }
      ],
      "stateMutability": "view",
      "type": "function",
      "constant": true
    },
    {
      "inputs": [
        {
          "internalType": "address",
          "name": "from",
          "type": "address"
        },
        {
          "internalType": "address",
          "name": "to",
          "type": "address"
        },
        {
          "internalType": "uint256",
          "name": "tokenId",
          "type": "uint256"
        }
      ],
      "name": "transferFrom",
      "outputs": [],
      "stateMutability": "nonpayable",
      "type": "function"
    },
    {
      "inputs": [],
      "name": "pause",
      "outputs": [],
      "stateMutability": "nonpayable",
      "type": "function"
    },
    {
      "inputs": [],
      "name": "unpause",
      "outputs": [],
      "stateMutability": "nonpayable",
      "type": "function"
    },
    {
      "inputs": [
        {
          "internalType": "bytes32",
          "name": "_shaImagehash",
          "type": "bytes32"
        }
      ],
      "name": "retrieveByHash",
      "outputs": [
        {
          "internalType": "uint256",
          "name": "",
          "type": "uint256"
        }
      ],
      "stateMutability": "view",
      "type": "function",
      "constant": true
    },
    {
      "inputs": [
        {
          "internalType": "string",
          "name": "_imageHash",
          "type": "string"
        },
        {
          "internalType": "bytes32",
          "name": "_category",
          "type": "bytes32"
        }
      ],
      "name": "safeMintVector",
      "outputs": [],
      "stateMutability": "nonpayable",
      "type": "function"
    },
    {
      "inputs": [],
      "name": "getCategories",
      "outputs": [
        {
          "components": [
            {
              "internalType": "bytes32",
              "name": "name",
              "type": "bytes32"
            }
          ],
          "internalType": "struct IkonDAOVectorCollectible.Category[]",
          "name": "",
          "type": "tuple[]"
        }
      ],
      "stateMutability": "view",
      "type": "function",
      "constant": true
    },
    {
      "inputs": [
        {
          "internalType": "uint256",
          "name": "tokenId",
          "type": "uint256"
        }
      ],
      "name": "getMetadata",
      "outputs": [
        {
          "components": [
            {
              "internalType": "string",
              "name": "image",
              "type": "string"
            },
            {
              "internalType": "bytes32",
              "name": "category",
              "type": "bytes32"
            }
          ],
          "internalType": "struct IkonDAOVectorCollectible.Metadata",
          "name": "",
          "type": "tuple"
        }
      ],
      "stateMutability": "view",
      "type": "function",
      "constant": true
    },
    {
      "inputs": [],
      "name": "getDAOAddress",
      "outputs": [
        {
          "internalType": "address",
          "name": "",
          "type": "address"
        }
      ],
      "stateMutability": "view",
      "type": "function",
      "constant": true
    },
    {
      "inputs": [
        {
          "internalType": "address",
          "name": "newAddress",
          "type": "address"
        }
      ],
      "name": "setDAOAddress",
      "outputs": [],
      "stateMutability": "nonpayable",
      "type": "function"
    },
    {
      "inputs": [
        {
          "internalType": "uint256",
          "name": "tokenId",
          "type": "uint256"
        }
      ],
      "name": "tokenURI",
      "outputs": [
        {
          "internalType": "string",
          "name": "",
          "type": "string"
        }
      ],
      "stateMutability": "view",
      "type": "function",
      "constant": true
    },
    {
      "inputs": [
        {
          "internalType": "bytes4",
          "name": "interfaceId",
          "type": "bytes4"
        }
      ],
      "name": "supportsInterface",
      "outputs": [
        {
          "internalType": "bool",
          "name": "",
          "type": "bool"
        }
      ],
      "stateMutability": "view",
      "type": "function",
      "constant": true
    }
  ],
  "bytecode": "0x60806040523480156200001157600080fd5b50604051620051f1380380620051f18339818101604052810190620000379190620005ec565b6040518060400160405280601a81526020017f496b6f6e44414f20566563746f7220436f6c6c65637469626c650000000000008152506040518060400160405280600581526020017f494b4456430000000000000000000000000000000000000000000000000000008152508160009080519060200190620000bb929190620004d2565b508060019080519060200190620000d4929190620004d2565b5050506000600b60006101000a81548160ff021916908315150217905550620001337f0454d691b20de09c741657b57037379cb9a924a8d5d937a8aedf7cda4a99940762000127620002d360201b60201c565b620002db60201b60201c565b620001657f0454d691b20de09c741657b57037379cb9a924a8d5d937a8aedf7cda4a99940780620002f160201b60201c565b620001a67f0364e1a0005f808428edcb763dbcd8f619cf7b20bb2b17f051a9708d326d9d7b6200019a620002d360201b60201c565b620002db60201b60201c565b620001f87f0364e1a0005f808428edcb763dbcd8f619cf7b20bb2b17f051a9708d326d9d7b7f0454d691b20de09c741657b57037379cb9a924a8d5d937a8aedf7cda4a999407620002f160201b60201c565b620002397fd797ca08f626d4faf17808f01eb5aa9d1375776546369e264714a5daf31ea9ae6200022d620002d360201b60201c565b620002db60201b60201c565b6200028b7fd797ca08f626d4faf17808f01eb5aa9d1375776546369e264714a5daf31ea9ae7f0454d691b20de09c741657b57037379cb9a924a8d5d937a8aedf7cda4a999407620002f160201b60201c565b80601260006101000a81548173ffffffffffffffffffffffffffffffffffffffff021916908373ffffffffffffffffffffffffffffffffffffffff1602179055505062000683565b600033905090565b620002ed82826200035560201b60201c565b5050565b600062000304836200044760201b60201c565b905081600c6000858152602001908152602001600020600101819055508181847fbd79b86ffe0ab8e8776151514217cd7cacd52c909f66475c3af44e129f0b00ff60405160405180910390a4505050565b6200036782826200046760201b60201c565b62000443576001600c600084815260200190815260200160002060000160008373ffffffffffffffffffffffffffffffffffffffff1673ffffffffffffffffffffffffffffffffffffffff16815260200190815260200160002060006101000a81548160ff021916908315150217905550620003e8620002d360201b60201c565b73ffffffffffffffffffffffffffffffffffffffff168173ffffffffffffffffffffffffffffffffffffffff16837f2f8788117e7eff1d82e926ec794901d17c78024a50270940304540a733656f0d60405160405180910390a45b5050565b6000600c6000838152602001908152602001600020600101549050919050565b6000600c600084815260200190815260200160002060000160008373ffffffffffffffffffffffffffffffffffffffff1673ffffffffffffffffffffffffffffffffffffffff16815260200190815260200160002060009054906101000a900460ff16905092915050565b828054620004e0906200064d565b90600052602060002090601f01602090048101928262000504576000855562000550565b82601f106200051f57805160ff191683800117855562000550565b8280016001018555821562000550579182015b828111156200054f57825182559160200191906001019062000532565b5b5090506200055f919062000563565b5090565b5b808211156200057e57600081600090555060010162000564565b5090565b600080fd5b600073ffffffffffffffffffffffffffffffffffffffff82169050919050565b6000620005b48262000587565b9050919050565b620005c681620005a7565b8114620005d257600080fd5b50565b600081519050620005e681620005bb565b92915050565b60006020828403121562000605576200060462000582565b5b60006200061584828501620005d5565b91505092915050565b7f4e487b7100000000000000000000000000000000000000000000000000000000600052602260045260246000fd5b600060028204905060018216806200066657607f821691505b602082108114156200067d576200067c6200061e565b5b50919050565b614b5e80620006936000396000f3fe608060405234801561001057600080fd5b50600436106101e55760003560e01c80635c975abb1161010f578063a217fddf116100a2578063b88d4fde11610071578063b88d4fde14610590578063c87b56dd146105ac578063d547741f146105dc578063e985e9c5146105f8576101e5565b8063a217fddf14610508578063a22cb46514610526578063a574cea414610542578063ad9b44cd14610572576101e5565b80638f1aae0e116100de5780638f1aae0e1461046e57806391d148541461049e57806395d89b41146104ce578063965afa89146104ec576101e5565b80635c975abb146103e65780636352211e1461040457806370a08231146104345780638456cb5914610464576101e5565b80632f2ff15d116101875780634186ab20116101565780634186ab201461036057806342842e0e1461037c5780634db0412c146103985780634f6ccce7146103b6576101e5565b80632f2ff15d146102ee5780632f745c591461030a57806336568abe1461033a5780633f4ba83a14610356576101e5565b8063095ea7b3116101c3578063095ea7b31461026857806318160ddd1461028457806323b872dd146102a2578063248a9ca3146102be576101e5565b806301ffc9a7146101ea57806306fdde031461021a578063081812fc14610238575b600080fd5b61020460048036038101906101ff919061315d565b610628565b60405161021191906131a5565b60405180910390f35b61022261063a565b60405161022f9190613259565b60405180910390f35b610252600480360381019061024d91906132b1565b6106cc565b60405161025f919061331f565b60405180910390f35b610282600480360381019061027d9190613366565b610751565b005b61028c610869565b60405161029991906133b5565b60405180910390f35b6102bc60048036038101906102b791906133d0565b610876565b005b6102d860048036038101906102d39190613459565b6108d6565b6040516102e59190613495565b60405180910390f35b610308600480360381019061030391906134b0565b6108f6565b005b610324600480360381019061031f9190613366565b61091f565b60405161033191906133b5565b60405180910390f35b610354600480360381019061034f91906134b0565b6109c4565b005b61035e610a47565b005b61037a60048036038101906103759190613555565b610a84565b005b610396600480360381019061039191906133d0565b610dfe565b005b6103a0610e1e565b6040516103ad919061368f565b60405180910390f35b6103d060048036038101906103cb91906132b1565b610e83565b6040516103dd91906133b5565b60405180910390f35b6103ee610ef4565b6040516103fb91906131a5565b60405180910390f35b61041e600480360381019061041991906132b1565b610f0b565b60405161042b919061331f565b60405180910390f35b61044e600480360381019061044991906136b1565b610fbd565b60405161045b91906133b5565b60405180910390f35b61046c611075565b005b61048860048036038101906104839190613459565b6110b2565b60405161049591906133b5565b60405180910390f35b6104b860048036038101906104b391906134b0565b6110cf565b6040516104c591906131a5565b60405180910390f35b6104d661113a565b6040516104e39190613259565b60405180910390f35b610506600480360381019061050191906136b1565b6111cc565b005b61051061128a565b60405161051d9190613495565b60405180910390f35b610540600480360381019061053b919061370a565b611291565b005b61055c600480360381019061055791906132b1565b611412565b60405161056991906137d1565b60405180910390f35b61057a6114db565b604051610587919061331f565b60405180910390f35b6105aa60048036038101906105a59190613923565b611505565b005b6105c660048036038101906105c191906132b1565b611567565b6040516105d39190613259565b60405180910390f35b6105f660048036038101906105f191906134b0565b611579565b005b610612600480360381019061060d91906139a6565b6115a2565b60405161061f91906131a5565b60405180910390f35b600061063382611636565b9050919050565b60606000805461064990613a15565b80601f016020809104026020016040519081016040528092919081815260200182805461067590613a15565b80156106c25780601f10610697576101008083540402835291602001916106c2565b820191906000526020600020905b8154815290600101906020018083116106a557829003601f168201915b5050505050905090565b60006106d7826116b0565b610716576040517f08c379a000000000000000000000000000000000000000000000000000000000815260040161070d90613ab9565b60405180910390fd5b6004600083815260200190815260200160002060009054906101000a900473ffffffffffffffffffffffffffffffffffffffff169050919050565b600061075c82610f0b565b90508073ffffffffffffffffffffffffffffffffffffffff168373ffffffffffffffffffffffffffffffffffffffff1614156107cd576040517f08c379a00000000000000000000000000000000000000000000000000000000081526004016107c490613b4b565b60405180910390fd5b8073ffffffffffffffffffffffffffffffffffffffff166107ec61171c565b73ffffffffffffffffffffffffffffffffffffffff16148061081b575061081a8161081561171c565b6115a2565b5b61085a576040517f08c379a000000000000000000000000000000000000000000000000000000000815260040161085190613bdd565b60405180910390fd5b6108648383611724565b505050565b6000600880549050905090565b61088761088161171c565b826117dd565b6108c6576040517f08c379a00000000000000000000000000000000000000000000000000000000081526004016108bd90613c6f565b60405180910390fd5b6108d18383836118bb565b505050565b6000600c6000838152602001908152602001600020600101549050919050565b6108ff826108d6565b6109108161090b61171c565b611b17565b61091a8383611bb4565b505050565b600061092a83610fbd565b821061096b576040517f08c379a000000000000000000000000000000000000000000000000000000000815260040161096290613d01565b60405180910390fd5b600660008473ffffffffffffffffffffffffffffffffffffffff1673ffffffffffffffffffffffffffffffffffffffff168152602001908152602001600020600083815260200190815260200160002054905092915050565b6109cc61171c565b73ffffffffffffffffffffffffffffffffffffffff168173ffffffffffffffffffffffffffffffffffffffff1614610a39576040517f08c379a0000000000000000000000000000000000000000000000000000000008152600401610a3090613d93565b60405180910390fd5b610a438282611c95565b5050565b7f0364e1a0005f808428edcb763dbcd8f619cf7b20bb2b17f051a9708d326d9d7b610a7981610a7461171c565b611b17565b610a81611d77565b50565b7fd797ca08f626d4faf17808f01eb5aa9d1375776546369e264714a5daf31ea9ae610ab681610ab161171c565b611b17565b610abe610ef4565b15610afe576040517f08c379a0000000000000000000000000000000000000000000000000000000008152600401610af590613dff565b60405180910390fd5b6000610b0a600d611e19565b905060008114610b7b57610b1e8585611e27565b156040518060600160405280602f8152602001614afa602f913990610b79576040517f08c379a0000000000000000000000000000000000000000000000000000000008152600401610b709190613259565b60405180910390fd5b505b6000604051806040016040528087878080601f016020809104026020016040519081016040528093929190818152602001838380828437600081840152601f19601f8201169050808301925050505050505081526020018581525090506010600085815260200190815260200160002060009054906101000a900460ff16610d0857610c51601260009054906101000a900473ffffffffffffffffffffffffffffffffffffffff168787604051602001610c36929190613e4f565b60405160208183030381529060405280519060200120611eca565b60006040518060200160405280868152509050600f819080600181540180825580915050600190039060005260206000200160009091909190915060008201518160000155505060016010600087815260200190815260200160002060006101000a81548160ff02191690831515021790555081600e60008581526020019081526020016000206000820151816000019080519060200190610cf4929190613031565b506020820151816001015590505050610d9b565b610d5c601260009054906101000a900473ffffffffffffffffffffffffffffffffffffffff168787604051602001610d41929190613e4f565b60405160208183030381529060405280519060200120611eca565b80600e60008481526020019081526020016000206000820151816000019080519060200190610d8c929190613031565b50602082015181600101559050505b7fd51219ac3628fd973eadcbfcacb3c009725c77bc038c6e57eb99bfdb8da8d41882601260009054906101000a900473ffffffffffffffffffffffffffffffffffffffff16604051610dee929190613e68565b60405180910390a1505050505050565b610e1983838360405180602001604052806000815250611505565b505050565b6060600f805480602002602001604051908101604052809291908181526020016000905b82821015610e7a5783829060005260206000200160405180602001604052908160008201548152505081526020019060010190610e42565b50505050905090565b6000610e8d610869565b8210610ece576040517f08c379a0000000000000000000000000000000000000000000000000000000008152600401610ec590613f03565b60405180910390fd5b60088281548110610ee257610ee1613f23565b5b90600052602060002001549050919050565b6000600b60009054906101000a900460ff16905090565b6000806002600084815260200190815260200160002060009054906101000a900473ffffffffffffffffffffffffffffffffffffffff169050600073ffffffffffffffffffffffffffffffffffffffff168173ffffffffffffffffffffffffffffffffffffffff161415610fb4576040517f08c379a0000000000000000000000000000000000000000000000000000000008152600401610fab90613fc4565b60405180910390fd5b80915050919050565b60008073ffffffffffffffffffffffffffffffffffffffff168273ffffffffffffffffffffffffffffffffffffffff16141561102e576040517f08c379a000000000000000000000000000000000000000000000000000000000815260040161102590614056565b60405180910390fd5b600360008373ffffffffffffffffffffffffffffffffffffffff1673ffffffffffffffffffffffffffffffffffffffff168152602001908152602001600020549050919050565b7f0364e1a0005f808428edcb763dbcd8f619cf7b20bb2b17f051a9708d326d9d7b6110a7816110a261171c565b611b17565b6110af611f0c565b50565b600060116000838152602001908152602001600020549050919050565b6000600c600084815260200190815260200160002060000160008373ffffffffffffffffffffffffffffffffffffffff1673ffffffffffffffffffffffffffffffffffffffff16815260200190815260200160002060009054906101000a900460ff16905092915050565b60606001805461114990613a15565b80601f016020809104026020016040519081016040528092919081815260200182805461117590613a15565b80156111c25780601f10611197576101008083540402835291602001916111c2565b820191906000526020600020905b8154815290600101906020018083116111a557829003601f168201915b5050505050905090565b7f0454d691b20de09c741657b57037379cb9a924a8d5d937a8aedf7cda4a9994076111fe816111f961171c565b611b17565b611206610ef4565b15611246576040517f08c379a000000000000000000000000000000000000000000000000000000000815260040161123d90613dff565b60405180910390fd5b61124f82611faf565b7fb5f93c8ed7df84870256f07ba228e09a30a9b6385a7737fe93d8cbb87e7dc7708260405161127e919061331f565b60405180910390a15050565b6000801b81565b61129961171c565b73ffffffffffffffffffffffffffffffffffffffff168273ffffffffffffffffffffffffffffffffffffffff161415611307576040517f08c379a00000000000000000000000000000000000000000000000000000000081526004016112fe906140c2565b60405180910390fd5b806005600061131461171c565b73ffffffffffffffffffffffffffffffffffffffff1673ffffffffffffffffffffffffffffffffffffffff16815260200190815260200160002060008473ffffffffffffffffffffffffffffffffffffffff1673ffffffffffffffffffffffffffffffffffffffff16815260200190815260200160002060006101000a81548160ff0219169083151502179055508173ffffffffffffffffffffffffffffffffffffffff166113c161171c565b73ffffffffffffffffffffffffffffffffffffffff167f17307eab39ab6107e8899845ad3d59bd9653f200f220920489ca2b5937696c318360405161140691906131a5565b60405180910390a35050565b61141a6130b7565b600e600083815260200190815260200160002060405180604001604052908160008201805461144890613a15565b80601f016020809104026020016040519081016040528092919081815260200182805461147490613a15565b80156114c15780601f10611496576101008083540402835291602001916114c1565b820191906000526020600020905b8154815290600101906020018083116114a457829003601f168201915b505050505081526020016001820154815250509050919050565b6000601260009054906101000a900473ffffffffffffffffffffffffffffffffffffffff16905090565b61151661151061171c565b836117dd565b611555576040517f08c379a000000000000000000000000000000000000000000000000000000000815260040161154c90613c6f565b60405180910390fd5b61156184848484611ff3565b50505050565b60606115728261204f565b9050919050565b611582826108d6565b6115938161158e61171c565b611b17565b61159d8383611c95565b505050565b6000600560008473ffffffffffffffffffffffffffffffffffffffff1673ffffffffffffffffffffffffffffffffffffffff16815260200190815260200160002060008373ffffffffffffffffffffffffffffffffffffffff1673ffffffffffffffffffffffffffffffffffffffff16815260200190815260200160002060009054906101000a900460ff16905092915050565b60007f7965db0b000000000000000000000000000000000000000000000000000000007bffffffffffffffffffffffffffffffffffffffffffffffffffffffff1916827bffffffffffffffffffffffffffffffffffffffffffffffffffffffff191614806116a957506116a8826121a1565b5b9050919050565b60008073ffffffffffffffffffffffffffffffffffffffff166002600084815260200190815260200160002060009054906101000a900473ffffffffffffffffffffffffffffffffffffffff1673ffffffffffffffffffffffffffffffffffffffff1614159050919050565b600033905090565b816004600083815260200190815260200160002060006101000a81548173ffffffffffffffffffffffffffffffffffffffff021916908373ffffffffffffffffffffffffffffffffffffffff160217905550808273ffffffffffffffffffffffffffffffffffffffff1661179783610f0b565b73ffffffffffffffffffffffffffffffffffffffff167f8c5be1e5ebec7d5bd14f71427d1e84f3dd0314c0f7b2291e5b200ac8c7c3b92560405160405180910390a45050565b60006117e8826116b0565b611827576040517f08c379a000000000000000000000000000000000000000000000000000000000815260040161181e90614154565b60405180910390fd5b600061183283610f0b565b90508073ffffffffffffffffffffffffffffffffffffffff168473ffffffffffffffffffffffffffffffffffffffff1614806118a157508373ffffffffffffffffffffffffffffffffffffffff16611889846106cc565b73ffffffffffffffffffffffffffffffffffffffff16145b806118b257506118b181856115a2565b5b91505092915050565b8273ffffffffffffffffffffffffffffffffffffffff166118db82610f0b565b73ffffffffffffffffffffffffffffffffffffffff1614611931576040517f08c379a0000000000000000000000000000000000000000000000000000000008152600401611928906141e6565b60405180910390fd5b600073ffffffffffffffffffffffffffffffffffffffff168273ffffffffffffffffffffffffffffffffffffffff1614156119a1576040517f08c379a000000000000000000000000000000000000000000000000000000000815260040161199890614278565b60405180910390fd5b6119ac83838361221b565b6119b7600082611724565b6001600360008573ffffffffffffffffffffffffffffffffffffffff1673ffffffffffffffffffffffffffffffffffffffff1681526020019081526020016000206000828254611a0791906142c7565b925050819055506001600360008473ffffffffffffffffffffffffffffffffffffffff1673ffffffffffffffffffffffffffffffffffffffff1681526020019081526020016000206000828254611a5e91906142fb565b92505081905550816002600083815260200190815260200160002060006101000a81548173ffffffffffffffffffffffffffffffffffffffff021916908373ffffffffffffffffffffffffffffffffffffffff160217905550808273ffffffffffffffffffffffffffffffffffffffff168473ffffffffffffffffffffffffffffffffffffffff167fddf252ad1be2c89b69c2b068fc378daa952ba7f163c4a11628f55a4df523b3ef60405160405180910390a4505050565b611b2182826110cf565b611bb057611b468173ffffffffffffffffffffffffffffffffffffffff166014612273565b611b548360001c6020612273565b604051602001611b6592919061441a565b6040516020818303038152906040526040517f08c379a0000000000000000000000000000000000000000000000000000000008152600401611ba79190613259565b60405180910390fd5b5050565b611bbe82826110cf565b611c91576001600c600084815260200190815260200160002060000160008373ffffffffffffffffffffffffffffffffffffffff1673ffffffffffffffffffffffffffffffffffffffff16815260200190815260200160002060006101000a81548160ff021916908315150217905550611c3661171c565b73ffffffffffffffffffffffffffffffffffffffff168173ffffffffffffffffffffffffffffffffffffffff16837f2f8788117e7eff1d82e926ec794901d17c78024a50270940304540a733656f0d60405160405180910390a45b5050565b611c9f82826110cf565b15611d73576000600c600084815260200190815260200160002060000160008373ffffffffffffffffffffffffffffffffffffffff1673ffffffffffffffffffffffffffffffffffffffff16815260200190815260200160002060006101000a81548160ff021916908315150217905550611d1861171c565b73ffffffffffffffffffffffffffffffffffffffff168173ffffffffffffffffffffffffffffffffffffffff16837ff6391f5c32d9c69d2a47ea670b442974b53935d1edc7fd64eb21e047a839171b60405160405180910390a45b5050565b611d7f610ef4565b611dbe576040517f08c379a0000000000000000000000000000000000000000000000000000000008152600401611db5906144a0565b60405180910390fd5b6000600b60006101000a81548160ff0219169083151502179055507f5db9ee0a495bf2e6ff9c91a7834c1ba4fdd244a5e8aa4e537bd38aeae4b073aa611e0261171c565b604051611e0f919061331f565b60405180910390a1565b600081600001549050919050565b600080600090505b611e39600d611e19565b811015611ec3578383604051602001611e53929190613e4f565b60405160208183030381529060405280519060200120600e6000838152602001908152602001600020600001604051602001611e8f9190614554565b604051602081830303815290604052805190602001201415611eb057600191505b8080611ebb9061456b565b915050611e2f565b5092915050565b611edd82611ed8600d611e19565b6124af565b611ee7600d611e19565b6011600083815260200190815260200160002081905550611f08600d6124cd565b5050565b611f14610ef4565b15611f54576040517f08c379a0000000000000000000000000000000000000000000000000000000008152600401611f4b90613dff565b60405180910390fd5b6001600b60006101000a81548160ff0219169083151502179055507f62e78cea01bee320cd4e420270b5ea74000d11b0c9f74754ebdbfc544b05a258611f9861171c565b604051611fa5919061331f565b60405180910390a1565b80601260006101000a81548173ffffffffffffffffffffffffffffffffffffffff021916908373ffffffffffffffffffffffffffffffffffffffff16021790555050565b611ffe8484846118bb565b61200a848484846124e3565b612049576040517f08c379a000000000000000000000000000000000000000000000000000000000815260040161204090614626565b60405180910390fd5b50505050565b606061205a826116b0565b612099576040517f08c379a0000000000000000000000000000000000000000000000000000000008152600401612090906146b8565b60405180910390fd5b6000600a600084815260200190815260200160002080546120b990613a15565b80601f01602080910402602001604051908101604052809291908181526020018280546120e590613a15565b80156121325780601f1061210757610100808354040283529160200191612132565b820191906000526020600020905b81548152906001019060200180831161211557829003601f168201915b50505050509050600061214361266b565b905060008151141561215957819250505061219c565b60008251111561218e5780826040516020016121769291906146d8565b6040516020818303038152906040529250505061219c565b61219784612682565b925050505b919050565b60007f780e9d63000000000000000000000000000000000000000000000000000000007bffffffffffffffffffffffffffffffffffffffffffffffffffffffff1916827bffffffffffffffffffffffffffffffffffffffffffffffffffffffff19161480612214575061221382612729565b5b9050919050565b612223610ef4565b15612263576040517f08c379a000000000000000000000000000000000000000000000000000000000815260040161225a90613dff565b60405180910390fd5b61226e83838361280b565b505050565b60606000600283600261228691906146fc565b61229091906142fb565b67ffffffffffffffff8111156122a9576122a86137f8565b5b6040519080825280601f01601f1916602001820160405280156122db5781602001600182028036833780820191505090505b5090507f30000000000000000000000000000000000000000000000000000000000000008160008151811061231357612312613f23565b5b60200101907effffffffffffffffffffffffffffffffffffffffffffffffffffffffffffff1916908160001a9053507f78000000000000000000000000000000000000000000000000000000000000008160018151811061237757612376613f23565b5b60200101907effffffffffffffffffffffffffffffffffffffffffffffffffffffffffffff1916908160001a905350600060018460026123b791906146fc565b6123c191906142fb565b90505b6001811115612461577f3031323334353637383961626364656600000000000000000000000000000000600f86166010811061240357612402613f23565b5b1a60f81b82828151811061241a57612419613f23565b5b60200101907effffffffffffffffffffffffffffffffffffffffffffffffffffffffffffff1916908160001a905350600485901c94508061245a90614756565b90506123c4565b50600084146124a5576040517f08c379a000000000000000000000000000000000000000000000000000000000815260040161249c906147cc565b60405180910390fd5b8091505092915050565b6124c982826040518060200160405280600081525061291f565b5050565b6001816000016000828254019250508190555050565b60006125048473ffffffffffffffffffffffffffffffffffffffff1661297a565b1561265e578373ffffffffffffffffffffffffffffffffffffffff1663150b7a0261252d61171c565b8786866040518563ffffffff1660e01b815260040161254f9493929190614841565b6020604051808303816000875af192505050801561258b57506040513d601f19601f8201168201806040525081019061258891906148a2565b60015b61260e573d80600081146125bb576040519150601f19603f3d011682016040523d82523d6000602084013e6125c0565b606091505b50600081511415612606576040517f08c379a00000000000000000000000000000000000000000000000000000000081526004016125fd90614626565b60405180910390fd5b805181602001fd5b63150b7a0260e01b7bffffffffffffffffffffffffffffffffffffffffffffffffffffffff1916817bffffffffffffffffffffffffffffffffffffffffffffffffffffffff191614915050612663565b600190505b949350505050565b606060405180602001604052806000815250905090565b606061268d826116b0565b6126cc576040517f08c379a00000000000000000000000000000000000000000000000000000000081526004016126c390614941565b60405180910390fd5b60006126d661266b565b905060008151116126f65760405180602001604052806000815250612721565b806127008461298d565b6040516020016127119291906146d8565b6040516020818303038152906040525b915050919050565b60007f80ac58cd000000000000000000000000000000000000000000000000000000007bffffffffffffffffffffffffffffffffffffffffffffffffffffffff1916827bffffffffffffffffffffffffffffffffffffffffffffffffffffffff191614806127f457507f5b5e139f000000000000000000000000000000000000000000000000000000007bffffffffffffffffffffffffffffffffffffffffffffffffffffffff1916827bffffffffffffffffffffffffffffffffffffffffffffffffffffffff1916145b80612804575061280382612aee565b5b9050919050565b612816838383612b58565b600073ffffffffffffffffffffffffffffffffffffffff168373ffffffffffffffffffffffffffffffffffffffff1614156128595761285481612b5d565b612898565b8173ffffffffffffffffffffffffffffffffffffffff168373ffffffffffffffffffffffffffffffffffffffff1614612897576128968382612ba6565b5b5b600073ffffffffffffffffffffffffffffffffffffffff168273ffffffffffffffffffffffffffffffffffffffff1614156128db576128d681612d13565b61291a565b8273ffffffffffffffffffffffffffffffffffffffff168273ffffffffffffffffffffffffffffffffffffffff1614612919576129188282612de4565b5b5b505050565b6129298383612e63565b61293660008484846124e3565b612975576040517f08c379a000000000000000000000000000000000000000000000000000000000815260040161296c90614626565b60405180910390fd5b505050565b600080823b905060008111915050919050565b606060008214156129d5576040518060400160405280600181526020017f30000000000000000000000000000000000000000000000000000000000000008152509050612ae9565b600082905060005b60008214612a075780806129f09061456b565b915050600a82612a009190614990565b91506129dd565b60008167ffffffffffffffff811115612a2357612a226137f8565b5b6040519080825280601f01601f191660200182016040528015612a555781602001600182028036833780820191505090505b5090505b60008514612ae257600182612a6e91906142c7565b9150600a85612a7d91906149c1565b6030612a8991906142fb565b60f81b818381518110612a9f57612a9e613f23565b5b60200101907effffffffffffffffffffffffffffffffffffffffffffffffffffffffffffff1916908160001a905350600a85612adb9190614990565b9450612a59565b8093505050505b919050565b60007f01ffc9a7000000000000000000000000000000000000000000000000000000007bffffffffffffffffffffffffffffffffffffffffffffffffffffffff1916827bffffffffffffffffffffffffffffffffffffffffffffffffffffffff1916149050919050565b505050565b6008805490506009600083815260200190815260200160002081905550600881908060018154018082558091505060019003906000526020600020016000909190919091505550565b60006001612bb384610fbd565b612bbd91906142c7565b9050600060076000848152602001908152602001600020549050818114612ca2576000600660008673ffffffffffffffffffffffffffffffffffffffff1673ffffffffffffffffffffffffffffffffffffffff168152602001908152602001600020600084815260200190815260200160002054905080600660008773ffffffffffffffffffffffffffffffffffffffff1673ffffffffffffffffffffffffffffffffffffffff168152602001908152602001600020600084815260200190815260200160002081905550816007600083815260200190815260200160002081905550505b6007600084815260200190815260200160002060009055600660008573ffffffffffffffffffffffffffffffffffffffff1673ffffffffffffffffffffffffffffffffffffffff16815260200190815260200160002060008381526020019081526020016000206000905550505050565b60006001600880549050612d2791906142c7565b9050600060096000848152602001908152602001600020549050600060088381548110612d5757612d56613f23565b5b906000526020600020015490508060088381548110612d7957612d78613f23565b5b906000526020600020018190555081600960008381526020019081526020016000208190555060096000858152602001908152602001600020600090556008805480612dc857612dc76149f2565b5b6001900381819060005260206000200160009055905550505050565b6000612def83610fbd565b905081600660008573ffffffffffffffffffffffffffffffffffffffff1673ffffffffffffffffffffffffffffffffffffffff168152602001908152602001600020600083815260200190815260200160002081905550806007600084815260200190815260200160002081905550505050565b600073ffffffffffffffffffffffffffffffffffffffff168273ffffffffffffffffffffffffffffffffffffffff161415612ed3576040517f08c379a0000000000000000000000000000000000000000000000000000000008152600401612eca90614a6d565b60405180910390fd5b612edc816116b0565b15612f1c576040517f08c379a0000000000000000000000000000000000000000000000000000000008152600401612f1390614ad9565b60405180910390fd5b612f286000838361221b565b6001600360008473ffffffffffffffffffffffffffffffffffffffff1673ffffffffffffffffffffffffffffffffffffffff1681526020019081526020016000206000828254612f7891906142fb565b92505081905550816002600083815260200190815260200160002060006101000a81548173ffffffffffffffffffffffffffffffffffffffff021916908373ffffffffffffffffffffffffffffffffffffffff160217905550808273ffffffffffffffffffffffffffffffffffffffff16600073ffffffffffffffffffffffffffffffffffffffff167fddf252ad1be2c89b69c2b068fc378daa952ba7f163c4a11628f55a4df523b3ef60405160405180910390a45050565b82805461303d90613a15565b90600052602060002090601f01602090048101928261305f57600085556130a6565b82601f1061307857805160ff19168380011785556130a6565b828001600101855582156130a6579182015b828111156130a557825182559160200191906001019061308a565b5b5090506130b391906130d4565b5090565b604051806040016040528060608152602001600080191681525090565b5b808211156130ed5760008160009055506001016130d5565b5090565b6000604051905090565b600080fd5b600080fd5b60007fffffffff0000000000000000000000000000000000000000000000000000000082169050919050565b61313a81613105565b811461314557600080fd5b50565b60008135905061315781613131565b92915050565b600060208284031215613173576131726130fb565b5b600061318184828501613148565b91505092915050565b60008115159050919050565b61319f8161318a565b82525050565b60006020820190506131ba6000830184613196565b92915050565b600081519050919050565b600082825260208201905092915050565b60005b838110156131fa5780820151818401526020810190506131df565b83811115613209576000848401525b50505050565b6000601f19601f8301169050919050565b600061322b826131c0565b61323581856131cb565b93506132458185602086016131dc565b61324e8161320f565b840191505092915050565b600060208201905081810360008301526132738184613220565b905092915050565b6000819050919050565b61328e8161327b565b811461329957600080fd5b50565b6000813590506132ab81613285565b92915050565b6000602082840312156132c7576132c66130fb565b5b60006132d58482850161329c565b91505092915050565b600073ffffffffffffffffffffffffffffffffffffffff82169050919050565b6000613309826132de565b9050919050565b613319816132fe565b82525050565b60006020820190506133346000830184613310565b92915050565b613343816132fe565b811461334e57600080fd5b50565b6000813590506133608161333a565b92915050565b6000806040838503121561337d5761337c6130fb565b5b600061338b85828601613351565b925050602061339c8582860161329c565b9150509250929050565b6133af8161327b565b82525050565b60006020820190506133ca60008301846133a6565b92915050565b6000806000606084860312156133e9576133e86130fb565b5b60006133f786828701613351565b935050602061340886828701613351565b92505060406134198682870161329c565b9150509250925092565b6000819050919050565b61343681613423565b811461344157600080fd5b50565b6000813590506134538161342d565b92915050565b60006020828403121561346f5761346e6130fb565b5b600061347d84828501613444565b91505092915050565b61348f81613423565b82525050565b60006020820190506134aa6000830184613486565b92915050565b600080604083850312156134c7576134c66130fb565b5b60006134d585828601613444565b92505060206134e685828601613351565b9150509250929050565b600080fd5b600080fd5b600080fd5b60008083601f840112613515576135146134f0565b5b8235905067ffffffffffffffff811115613532576135316134f5565b5b60208301915083600182028301111561354e5761354d6134fa565b5b9250929050565b60008060006040848603121561356e5761356d6130fb565b5b600084013567ffffffffffffffff81111561358c5761358b613100565b5b613598868287016134ff565b935093505060206135ab86828701613444565b9150509250925092565b600081519050919050565b600082825260208201905092915050565b6000819050602082019050919050565b6135ea81613423565b82525050565b60208201600082015161360660008501826135e1565b50505050565b600061361883836135f0565b60208301905092915050565b6000602082019050919050565b600061363c826135b5565b61364681856135c0565b9350613651836135d1565b8060005b83811015613682578151613669888261360c565b975061367483613624565b925050600181019050613655565b5085935050505092915050565b600060208201905081810360008301526136a98184613631565b905092915050565b6000602082840312156136c7576136c66130fb565b5b60006136d584828501613351565b91505092915050565b6136e78161318a565b81146136f257600080fd5b50565b600081359050613704816136de565b92915050565b60008060408385031215613721576137206130fb565b5b600061372f85828601613351565b9250506020613740858286016136f5565b9150509250929050565b600082825260208201905092915050565b6000613766826131c0565b613770818561374a565b93506137808185602086016131dc565b6137898161320f565b840191505092915050565b600060408301600083015184820360008601526137b1828261375b565b91505060208301516137c660208601826135e1565b508091505092915050565b600060208201905081810360008301526137eb8184613794565b905092915050565b600080fd5b7f4e487b7100000000000000000000000000000000000000000000000000000000600052604160045260246000fd5b6138308261320f565b810181811067ffffffffffffffff8211171561384f5761384e6137f8565b5b80604052505050565b60006138626130f1565b905061386e8282613827565b919050565b600067ffffffffffffffff82111561388e5761388d6137f8565b5b6138978261320f565b9050602081019050919050565b82818337600083830152505050565b60006138c66138c184613873565b613858565b9050828152602081018484840111156138e2576138e16137f3565b5b6138ed8482856138a4565b509392505050565b600082601f83011261390a576139096134f0565b5b813561391a8482602086016138b3565b91505092915050565b6000806000806080858703121561393d5761393c6130fb565b5b600061394b87828801613351565b945050602061395c87828801613351565b935050604061396d8782880161329c565b925050606085013567ffffffffffffffff81111561398e5761398d613100565b5b61399a878288016138f5565b91505092959194509250565b600080604083850312156139bd576139bc6130fb565b5b60006139cb85828601613351565b92505060206139dc85828601613351565b9150509250929050565b7f4e487b7100000000000000000000000000000000000000000000000000000000600052602260045260246000fd5b60006002820490506001821680613a2d57607f821691505b60208210811415613a4157613a406139e6565b5b50919050565b7f4552433732313a20617070726f76656420717565727920666f72206e6f6e657860008201527f697374656e7420746f6b656e0000000000000000000000000000000000000000602082015250565b6000613aa3602c836131cb565b9150613aae82613a47565b604082019050919050565b60006020820190508181036000830152613ad281613a96565b9050919050565b7f4552433732313a20617070726f76616c20746f2063757272656e74206f776e6560008201527f7200000000000000000000000000000000000000000000000000000000000000602082015250565b6000613b356021836131cb565b9150613b4082613ad9565b604082019050919050565b60006020820190508181036000830152613b6481613b28565b9050919050565b7f4552433732313a20617070726f76652063616c6c6572206973206e6f74206f7760008201527f6e6572206e6f7220617070726f76656420666f7220616c6c0000000000000000602082015250565b6000613bc76038836131cb565b9150613bd282613b6b565b604082019050919050565b60006020820190508181036000830152613bf681613bba565b9050919050565b7f4552433732313a207472616e736665722063616c6c6572206973206e6f74206f60008201527f776e6572206e6f7220617070726f766564000000000000000000000000000000602082015250565b6000613c596031836131cb565b9150613c6482613bfd565b604082019050919050565b60006020820190508181036000830152613c8881613c4c565b9050919050565b7f455243373231456e756d657261626c653a206f776e657220696e646578206f7560008201527f74206f6620626f756e6473000000000000000000000000000000000000000000602082015250565b6000613ceb602b836131cb565b9150613cf682613c8f565b604082019050919050565b60006020820190508181036000830152613d1a81613cde565b9050919050565b7f416363657373436f6e74726f6c3a2063616e206f6e6c792072656e6f756e636560008201527f20726f6c657320666f722073656c660000000000000000000000000000000000602082015250565b6000613d7d602f836131cb565b9150613d8882613d21565b604082019050919050565b60006020820190508181036000830152613dac81613d70565b9050919050565b7f5061757361626c653a2070617573656400000000000000000000000000000000600082015250565b6000613de96010836131cb565b9150613df482613db3565b602082019050919050565b60006020820190508181036000830152613e1881613ddc565b9050919050565b600081905092915050565b6000613e368385613e1f565b9350613e438385846138a4565b82840190509392505050565b6000613e5c828486613e2a565b91508190509392505050565b6000604082019050613e7d60008301856133a6565b613e8a6020830184613310565b9392505050565b7f455243373231456e756d657261626c653a20676c6f62616c20696e646578206f60008201527f7574206f6620626f756e64730000000000000000000000000000000000000000602082015250565b6000613eed602c836131cb565b9150613ef882613e91565b604082019050919050565b60006020820190508181036000830152613f1c81613ee0565b9050919050565b7f4e487b7100000000000000000000000000000000000000000000000000000000600052603260045260246000fd5b7f4552433732313a206f776e657220717565727920666f72206e6f6e657869737460008201527f656e7420746f6b656e0000000000000000000000000000000000000000000000602082015250565b6000613fae6029836131cb565b9150613fb982613f52565b604082019050919050565b60006020820190508181036000830152613fdd81613fa1565b9050919050565b7f4552433732313a2062616c616e636520717565727920666f7220746865207a6560008201527f726f206164647265737300000000000000000000000000000000000000000000602082015250565b6000614040602a836131cb565b915061404b82613fe4565b604082019050919050565b6000602082019050818103600083015261406f81614033565b9050919050565b7f4552433732313a20617070726f766520746f2063616c6c657200000000000000600082015250565b60006140ac6019836131cb565b91506140b782614076565b602082019050919050565b600060208201905081810360008301526140db8161409f565b9050919050565b7f4552433732313a206f70657261746f7220717565727920666f72206e6f6e657860008201527f697374656e7420746f6b656e0000000000000000000000000000000000000000602082015250565b600061413e602c836131cb565b9150614149826140e2565b604082019050919050565b6000602082019050818103600083015261416d81614131565b9050919050565b7f4552433732313a207472616e73666572206f6620746f6b656e2074686174206960008201527f73206e6f74206f776e0000000000000000000000000000000000000000000000602082015250565b60006141d06029836131cb565b91506141db82614174565b604082019050919050565b600060208201905081810360008301526141ff816141c3565b9050919050565b7f4552433732313a207472616e7366657220746f20746865207a65726f2061646460008201527f7265737300000000000000000000000000000000000000000000000000000000602082015250565b60006142626024836131cb565b915061426d82614206565b604082019050919050565b6000602082019050818103600083015261429181614255565b9050919050565b7f4e487b7100000000000000000000000000000000000000000000000000000000600052601160045260246000fd5b60006142d28261327b565b91506142dd8361327b565b9250828210156142f0576142ef614298565b5b828203905092915050565b60006143068261327b565b91506143118361327b565b9250827fffffffffffffffffffffffffffffffffffffffffffffffffffffffffffffffff0382111561434657614345614298565b5b828201905092915050565b7f416363657373436f6e74726f6c3a206163636f756e7420000000000000000000600082015250565b6000614387601783613e1f565b915061439282614351565b601782019050919050565b60006143a8826131c0565b6143b28185613e1f565b93506143c28185602086016131dc565b80840191505092915050565b7f206973206d697373696e6720726f6c6520000000000000000000000000000000600082015250565b6000614404601183613e1f565b915061440f826143ce565b601182019050919050565b60006144258261437a565b9150614431828561439d565b915061443c826143f7565b9150614448828461439d565b91508190509392505050565b7f5061757361626c653a206e6f7420706175736564000000000000000000000000600082015250565b600061448a6014836131cb565b915061449582614454565b602082019050919050565b600060208201905081810360008301526144b98161447d565b9050919050565b60008190508160005260206000209050919050565b600081546144e281613a15565b6144ec8186613e1f565b9450600182166000811461450757600181146145185761454b565b60ff1983168652818601935061454b565b614521856144c0565b60005b8381101561454357815481890152600182019150602081019050614524565b838801955050505b50505092915050565b600061456082846144d5565b915081905092915050565b60006145768261327b565b91507fffffffffffffffffffffffffffffffffffffffffffffffffffffffffffffffff8214156145a9576145a8614298565b5b600182019050919050565b7f4552433732313a207472616e7366657220746f206e6f6e20455243373231526560008201527f63656976657220696d706c656d656e7465720000000000000000000000000000602082015250565b60006146106032836131cb565b915061461b826145b4565b604082019050919050565b6000602082019050818103600083015261463f81614603565b9050919050565b7f45524337323155524953746f726167653a2055524920717565727920666f722060008201527f6e6f6e6578697374656e7420746f6b656e000000000000000000000000000000602082015250565b60006146a26031836131cb565b91506146ad82614646565b604082019050919050565b600060208201905081810360008301526146d181614695565b9050919050565b60006146e4828561439d565b91506146f0828461439d565b91508190509392505050565b60006147078261327b565b91506147128361327b565b9250817fffffffffffffffffffffffffffffffffffffffffffffffffffffffffffffffff048311821515161561474b5761474a614298565b5b828202905092915050565b60006147618261327b565b9150600082141561477557614774614298565b5b600182039050919050565b7f537472696e67733a20686578206c656e67746820696e73756666696369656e74600082015250565b60006147b66020836131cb565b91506147c182614780565b602082019050919050565b600060208201905081810360008301526147e5816147a9565b9050919050565b600081519050919050565b600082825260208201905092915050565b6000614813826147ec565b61481d81856147f7565b935061482d8185602086016131dc565b6148368161320f565b840191505092915050565b60006080820190506148566000830187613310565b6148636020830186613310565b61487060408301856133a6565b81810360608301526148828184614808565b905095945050505050565b60008151905061489c81613131565b92915050565b6000602082840312156148b8576148b76130fb565b5b60006148c68482850161488d565b91505092915050565b7f4552433732314d657461646174613a2055524920717565727920666f72206e6f60008201527f6e6578697374656e7420746f6b656e0000000000000000000000000000000000602082015250565b600061492b602f836131cb565b9150614936826148cf565b604082019050919050565b6000602082019050818103600083015261495a8161491e565b9050919050565b7f4e487b7100000000000000000000000000000000000000000000000000000000600052601260045260246000fd5b600061499b8261327b565b91506149a68361327b565b9250826149b6576149b5614961565b5b828204905092915050565b60006149cc8261327b565b91506149d78361327b565b9250826149e7576149e6614961565b5b828206905092915050565b7f4e487b7100000000000000000000000000000000000000000000000000000000600052603160045260246000fd5b7f4552433732313a206d696e7420746f20746865207a65726f2061646472657373600082015250565b6000614a576020836131cb565b9150614a6282614a21565b602082019050919050565b60006020820190508181036000830152614a8681614a4a565b9050919050565b7f4552433732313a20746f6b656e20616c7265616479206d696e74656400000000600082015250565b6000614ac3601c836131cb565b9150614ace82614a8d565b602082019050919050565b60006020820190508181036000830152614af281614ab6565b905091905056fe496b6f6e44414f20436f6c6c65637469626c653a20636f6c6c65637469626c65206d75737420626520756e69717565a2646970667358221220451afd67e0d96692755ba7be11837ec24ab2bba8098c829998fa089c2b7d30f564736f6c634300080a0033",
  "immutableReferences": {},
  "source": "// SPDX-License-Identifier: MIT\npragma solidity ^0.8.2;\n\n/// @title The IkonDAO Vectore Collectible - fungible vector art produced by dao members \n/// @author Fernando M. Trouw\n/// @notice this contract should be used for basic simulation purposes only \n/// @notice this contract is an experimental contract and should not be used to initiate project that will hold real value\n/// @dev functions currently implemented (other then imported library) functions could contain side-effects\n\n\nimport \"@openzeppelin/contracts/token/ERC721/ERC721.sol\";\nimport \"@openzeppelin/contracts/token/ERC721/extensions/ERC721Enumerable.sol\";\nimport \"@openzeppelin/contracts/token/ERC721/extensions/ERC721URIStorage.sol\";\nimport \"@openzeppelin/contracts/security/Pausable.sol\";\nimport \"@openzeppelin/contracts/access/AccessControl.sol\";\nimport \"@openzeppelin/contracts/utils/Counters.sol\";\nimport \"./Constants.sol\";\n\n/// @custom:security-contact ftrouw@protonmail.com\ncontract IkonDAOVectorCollectible is ERC721, ERC721Enumerable, ERC721URIStorage, Pausable, AccessControl, Constants {\n    using Counters for Counters.Counter;\n    Counters.Counter private _tokenIdCounter;\n\n    struct Metadata {\n        string image; \n        bytes32 category;\n    }\n\n    struct Category {\n        bytes32 name;\n    }\n\n    mapping(uint256 => Metadata) private tokenMetadata;\n    Category[] private categoryList;\n    mapping(bytes32 => bool) private isCategory; \n    mapping(bytes32 => uint256) private nftsByHash;\n\n    address _DAO;  /// maps category to list of tokens that belong to it\n\n    event DaoAddressChanged(address newAddress);\n    event VectorMinted(uint256 tokenId, address receiver);\n\n    constructor(address DAO) ERC721(\"IkonDAO Vector Collectible\", \"IKDVC\") {\n        _setupRole(ADMIN_ROLE, _msgSender());\n        _setRoleAdmin(ADMIN_ROLE, ADMIN_ROLE);\n        _setupRole(PAUSER_ROLE, _msgSender());\n        _setRoleAdmin(PAUSER_ROLE, ADMIN_ROLE);\n        _setupRole(MINTER_ROLE, _msgSender());\n        _setRoleAdmin(MINTER_ROLE, ADMIN_ROLE);\n        _DAO = DAO;\n    }\n\n    function _baseURI() internal pure override returns (string memory) {\n        return \"\";\n    }\n\n    function pause() public onlyRole(PAUSER_ROLE) {\n        _pause();\n    }\n\n    function unpause() public onlyRole(PAUSER_ROLE) {\n        _unpause();\n    }\n\n    /// @dev retrieves nft's by sha of imageHash\\\n    /// @param _shaImagehash hash to which token is mapped \n    function retrieveByHash(bytes32 _shaImagehash) public view returns(uint256){\n        return nftsByHash[_shaImagehash];\n    }  \n\n    /// @dev mints nft to a receiver\n    /// @param _to nft receiver\n    /// @param _shaImageHash sha3 of image hash\n    function safeMint(address _to, bytes32 _shaImageHash) private {\n        _safeMint(_to, _tokenIdCounter.current());\n        nftsByHash[_shaImageHash] = _tokenIdCounter.current();\n        _tokenIdCounter.increment();\n    }\n\n    /// @dev mints vector token for the icon dao\n    /// @param _imageHash of vector      \n    /// @param _category category under which the vector falls\n    function safeMintVector(\n        string calldata _imageHash,\n        bytes32 _category\n        ) external onlyRole(MINTER_ROLE) whenNotPaused {\n        \n        uint256 tokenId = _tokenIdCounter.current();\n        if (tokenId != 0){ // only check after minting of the first token\n            require(!isImageTaken(_imageHash), NFT_ALREADY_EXISTS); \n        } \n        \n        /// metadata\n        Metadata memory metadata = Metadata({\n            category: _category,\n            image: _imageHash\n        });\n\n        if (!isCategory[_category]){ \n            \n            safeMint(_DAO, keccak256(abi.encodePacked(_imageHash))); // mint new nft \n            Category memory category = Category({\n                name: _category\n            }); // create new category \n\n            categoryList.push(category);\n            isCategory[_category] = true; // validate category\n            tokenMetadata[tokenId] = metadata; // adds metadata to tokenid\n\n        }  else {\n\n            safeMint(_DAO, keccak256(abi.encodePacked(_imageHash)));\n            tokenMetadata[tokenId] = metadata;\n\n        }\n\n        emit VectorMinted(tokenId, _DAO);\n    }\n\n    /// @dev returns true image hash of a to-be-minted nft already exists\n    /// @param imageHash ipfs hash of the image in in bytes32 format\n    /// @notice this functions acts as an extra check to make sure that only unique vectors (i.e. they must have a unique image hash) can \n    function isImageTaken(string calldata imageHash) private view returns (bool exists) {\n        for (uint i = 0; i < _tokenIdCounter.current(); i++){\n            if (keccak256(abi.encodePacked(tokenMetadata[i].image)) == keccak256(abi.encodePacked(imageHash))){\n                exists = true;\n            }\n        }\n    }\n\n    function getCategories() external view returns (Category[] memory) {\n        return(categoryList);\n    }\n\n    function getMetadata(uint256 tokenId) public view returns (Metadata memory){\n        return (tokenMetadata[tokenId]);\n    }\n    \n    /// @dev returns dao address \n    function getDAOAddress() public view returns (address){\n        return _DAO;\n    }\n\n    /// @dev see _setDaoAddress\n    function setDAOAddress(address newAddress) external onlyRole(ADMIN_ROLE) whenNotPaused {\n        _setDaoAddress(newAddress);\n        emit DaoAddressChanged(newAddress);\n    }\n\n    /// @dev sets new dao address (address to which vectors will belong)\n    /// @param _new is the new address that will own the vectors\n    function _setDaoAddress(address _new) private {\n        _DAO = _new;\n    }\n    \n    function _beforeTokenTransfer(address from, address to, uint256 tokenId)\n        internal\n        whenNotPaused\n        override(ERC721, ERC721Enumerable)\n    {\n        super._beforeTokenTransfer(from, to, tokenId);\n    }\n\n    // The following functions are overrides required by Solidity.\n    function _burn(uint256 tokenId) internal override(ERC721, ERC721URIStorage) onlyRole(ADMIN_ROLE) whenNotPaused {\n        super._burn(tokenId);\n    }\n\n    function tokenURI(uint256 tokenId)\n        public\n        view\n        override(ERC721, ERC721URIStorage)\n        returns (string memory)\n    {\n        return super.tokenURI(tokenId);\n    }\n\n    function supportsInterface(bytes4 interfaceId)\n        public\n        view\n        override(ERC721, ERC721Enumerable, AccessControl)\n        returns (bool)\n    {\n        return super.supportsInterface(interfaceId);\n    }\n}\n",
  "sourcePath": "/home/rasguy92/Documents/blockchain-developer-bootcamp-final-project/contracts/IkonDAOVectorCollectible.sol",
  "compiler": {
    "name": "solc",
    "version": "0.8.10+commit.fc410830.Emscripten.clang"
  },
  "schemaVersion": "3.4.3",
  "updatedAt": "2021-11-29T11:19:32.054Z",
  "networkType": "ethereum",
  "devdoc": {
    "custom:security-contact": "ftrouw@protonmail.com",
    "kind": "dev",
    "methods": {
      "approve(address,uint256)": {
        "details": "See {IERC721-approve}."
      },
      "balanceOf(address)": {
        "details": "See {IERC721-balanceOf}."
      },
      "getApproved(uint256)": {
        "details": "See {IERC721-getApproved}."
      },
      "getDAOAddress()": {
        "details": "returns dao address "
      },
      "getRoleAdmin(bytes32)": {
        "details": "Returns the admin role that controls `role`. See {grantRole} and {revokeRole}. To change a role's admin, use {_setRoleAdmin}."
      },
      "grantRole(bytes32,address)": {
        "details": "Grants `role` to `account`. If `account` had not been already granted `role`, emits a {RoleGranted} event. Requirements: - the caller must have ``role``'s admin role."
      },
      "hasRole(bytes32,address)": {
        "details": "Returns `true` if `account` has been granted `role`."
      },
      "isApprovedForAll(address,address)": {
        "details": "See {IERC721-isApprovedForAll}."
      },
      "name()": {
        "details": "See {IERC721Metadata-name}."
      },
      "ownerOf(uint256)": {
        "details": "See {IERC721-ownerOf}."
      },
      "paused()": {
        "details": "Returns true if the contract is paused, and false otherwise."
      },
      "renounceRole(bytes32,address)": {
        "details": "Revokes `role` from the calling account. Roles are often managed via {grantRole} and {revokeRole}: this function's purpose is to provide a mechanism for accounts to lose their privileges if they are compromised (such as when a trusted device is misplaced). If the calling account had been granted `role`, emits a {RoleRevoked} event. Requirements: - the caller must be `account`."
      },
      "retrieveByHash(bytes32)": {
        "details": "retrieves nft's by sha of imageHash\\",
        "params": {
          "_shaImagehash": "hash to which token is mapped "
        }
      },
      "revokeRole(bytes32,address)": {
        "details": "Revokes `role` from `account`. If `account` had been granted `role`, emits a {RoleRevoked} event. Requirements: - the caller must have ``role``'s admin role."
      },
      "safeMintVector(string,bytes32)": {
        "details": "mints vector token for the icon dao",
        "params": {
          "_category": "category under which the vector falls",
          "_imageHash": "of vector      "
        }
      },
      "safeTransferFrom(address,address,uint256)": {
        "details": "See {IERC721-safeTransferFrom}."
      },
      "safeTransferFrom(address,address,uint256,bytes)": {
        "details": "See {IERC721-safeTransferFrom}."
      },
      "setApprovalForAll(address,bool)": {
        "details": "See {IERC721-setApprovalForAll}."
      },
      "setDAOAddress(address)": {
        "details": "see _setDaoAddress"
      },
      "symbol()": {
        "details": "See {IERC721Metadata-symbol}."
      },
      "tokenByIndex(uint256)": {
        "details": "See {IERC721Enumerable-tokenByIndex}."
      },
      "tokenOfOwnerByIndex(address,uint256)": {
        "details": "See {IERC721Enumerable-tokenOfOwnerByIndex}."
      },
      "totalSupply()": {
        "details": "See {IERC721Enumerable-totalSupply}."
      },
      "transferFrom(address,address,uint256)": {
        "details": "See {IERC721-transferFrom}."
      }
    },
    "version": 1
  },
  "userdoc": {
    "events": {
      "DaoAddressChanged(address)": {
        "notice": "maps category to list of tokens that belong to it"
      }
    },
    "kind": "user",
    "methods": {},
    "version": 1
  }
}