{
  "contractName": "IkonDAOGovernance",
  "abi": [
    {
      "inputs": [],
      "stateMutability": "nonpayable",
      "type": "constructor"
    },
    {
      "anonymous": false,
      "inputs": [
        {
          "indexed": true,
          "internalType": "address",
          "name": "owner",
          "type": "address"
        },
        {
          "indexed": true,
          "internalType": "address",
          "name": "spender",
          "type": "address"
        },
        {
          "indexed": false,
          "internalType": "uint256",
          "name": "value",
          "type": "uint256"
        }
      ],
      "name": "Approval",
      "type": "event"
    },
    {
      "anonymous": false,
      "inputs": [
        {
          "indexed": true,
          "internalType": "address",
          "name": "delegator",
          "type": "address"
        },
        {
          "indexed": true,
          "internalType": "address",
          "name": "fromDelegate",
          "type": "address"
        },
        {
          "indexed": true,
          "internalType": "address",
          "name": "toDelegate",
          "type": "address"
        }
      ],
      "name": "DelegateChanged",
      "type": "event"
    },
    {
      "anonymous": false,
      "inputs": [
        {
          "indexed": true,
          "internalType": "address",
          "name": "delegate",
          "type": "address"
        },
        {
          "indexed": false,
          "internalType": "uint256",
          "name": "previousBalance",
          "type": "uint256"
        },
        {
          "indexed": false,
          "internalType": "uint256",
          "name": "newBalance",
          "type": "uint256"
        }
      ],
      "name": "DelegateVotesChanged",
      "type": "event"
    },
    {
      "anonymous": false,
      "inputs": [
        {
          "indexed": true,
          "internalType": "address",
          "name": "previousOwner",
          "type": "address"
        },
        {
          "indexed": true,
          "internalType": "address",
          "name": "newOwner",
          "type": "address"
        }
      ],
      "name": "OwnershipTransferred",
      "type": "event"
    },
    {
      "anonymous": false,
      "inputs": [
        {
          "indexed": false,
          "internalType": "address",
          "name": "account",
          "type": "address"
        }
      ],
      "name": "Paused",
      "type": "event"
    },
    {
      "anonymous": false,
      "inputs": [
        {
          "indexed": false,
          "internalType": "uint256",
          "name": "id",
          "type": "uint256"
        }
      ],
      "name": "Snapshot",
      "type": "event"
    },
    {
      "anonymous": false,
      "inputs": [
        {
          "indexed": true,
          "internalType": "address",
          "name": "from",
          "type": "address"
        },
        {
          "indexed": true,
          "internalType": "address",
          "name": "to",
          "type": "address"
        },
        {
          "indexed": false,
          "internalType": "uint256",
          "name": "value",
          "type": "uint256"
        }
      ],
      "name": "Transfer",
      "type": "event"
    },
    {
      "anonymous": false,
      "inputs": [
        {
          "indexed": false,
          "internalType": "address",
          "name": "account",
          "type": "address"
        }
      ],
      "name": "Unpaused",
      "type": "event"
    },
    {
      "inputs": [],
      "name": "DOMAIN_SEPARATOR",
      "outputs": [
        {
          "internalType": "bytes32",
          "name": "",
          "type": "bytes32"
        }
      ],
      "stateMutability": "view",
      "type": "function"
    },
    {
      "inputs": [
        {
          "internalType": "address",
          "name": "owner",
          "type": "address"
        },
        {
          "internalType": "address",
          "name": "spender",
          "type": "address"
        }
      ],
      "name": "allowance",
      "outputs": [
        {
          "internalType": "uint256",
          "name": "",
          "type": "uint256"
        }
      ],
      "stateMutability": "view",
      "type": "function"
    },
    {
      "inputs": [
        {
          "internalType": "address",
          "name": "spender",
          "type": "address"
        },
        {
          "internalType": "uint256",
          "name": "amount",
          "type": "uint256"
        }
      ],
      "name": "approve",
      "outputs": [
        {
          "internalType": "bool",
          "name": "",
          "type": "bool"
        }
      ],
      "stateMutability": "nonpayable",
      "type": "function"
    },
    {
      "inputs": [
        {
          "internalType": "address",
          "name": "account",
          "type": "address"
        }
      ],
      "name": "balanceOf",
      "outputs": [
        {
          "internalType": "uint256",
          "name": "",
          "type": "uint256"
        }
      ],
      "stateMutability": "view",
      "type": "function"
    },
    {
      "inputs": [
        {
          "internalType": "address",
          "name": "account",
          "type": "address"
        },
        {
          "internalType": "uint256",
          "name": "snapshotId",
          "type": "uint256"
        }
      ],
      "name": "balanceOfAt",
      "outputs": [
        {
          "internalType": "uint256",
          "name": "",
          "type": "uint256"
        }
      ],
      "stateMutability": "view",
      "type": "function"
    },
    {
      "inputs": [
        {
          "internalType": "address",
          "name": "account",
          "type": "address"
        },
        {
          "internalType": "uint32",
          "name": "pos",
          "type": "uint32"
        }
      ],
      "name": "checkpoints",
      "outputs": [
        {
          "components": [
            {
              "internalType": "uint32",
              "name": "fromBlock",
              "type": "uint32"
            },
            {
              "internalType": "uint224",
              "name": "votes",
              "type": "uint224"
            }
          ],
          "internalType": "struct ERC20Votes.Checkpoint",
          "name": "",
          "type": "tuple"
        }
      ],
      "stateMutability": "view",
      "type": "function"
    },
    {
      "inputs": [],
      "name": "decimals",
      "outputs": [
        {
          "internalType": "uint8",
          "name": "",
          "type": "uint8"
        }
      ],
      "stateMutability": "view",
      "type": "function"
    },
    {
      "inputs": [
        {
          "internalType": "address",
          "name": "spender",
          "type": "address"
        },
        {
          "internalType": "uint256",
          "name": "subtractedValue",
          "type": "uint256"
        }
      ],
      "name": "decreaseAllowance",
      "outputs": [
        {
          "internalType": "bool",
          "name": "",
          "type": "bool"
        }
      ],
      "stateMutability": "nonpayable",
      "type": "function"
    },
    {
      "inputs": [
        {
          "internalType": "address",
          "name": "delegatee",
          "type": "address"
        }
      ],
      "name": "delegate",
      "outputs": [],
      "stateMutability": "nonpayable",
      "type": "function"
    },
    {
      "inputs": [
        {
          "internalType": "address",
          "name": "delegatee",
          "type": "address"
        },
        {
          "internalType": "uint256",
          "name": "nonce",
          "type": "uint256"
        },
        {
          "internalType": "uint256",
          "name": "expiry",
          "type": "uint256"
        },
        {
          "internalType": "uint8",
          "name": "v",
          "type": "uint8"
        },
        {
          "internalType": "bytes32",
          "name": "r",
          "type": "bytes32"
        },
        {
          "internalType": "bytes32",
          "name": "s",
          "type": "bytes32"
        }
      ],
      "name": "delegateBySig",
      "outputs": [],
      "stateMutability": "nonpayable",
      "type": "function"
    },
    {
      "inputs": [
        {
          "internalType": "address",
          "name": "account",
          "type": "address"
        }
      ],
      "name": "delegates",
      "outputs": [
        {
          "internalType": "address",
          "name": "",
          "type": "address"
        }
      ],
      "stateMutability": "view",
      "type": "function"
    },
    {
      "inputs": [
        {
          "internalType": "uint256",
          "name": "blockNumber",
          "type": "uint256"
        }
      ],
      "name": "getPastTotalSupply",
      "outputs": [
        {
          "internalType": "uint256",
          "name": "",
          "type": "uint256"
        }
      ],
      "stateMutability": "view",
      "type": "function"
    },
    {
      "inputs": [
        {
          "internalType": "address",
          "name": "account",
          "type": "address"
        },
        {
          "internalType": "uint256",
          "name": "blockNumber",
          "type": "uint256"
        }
      ],
      "name": "getPastVotes",
      "outputs": [
        {
          "internalType": "uint256",
          "name": "",
          "type": "uint256"
        }
      ],
      "stateMutability": "view",
      "type": "function"
    },
    {
      "inputs": [
        {
          "internalType": "address",
          "name": "account",
          "type": "address"
        }
      ],
      "name": "getVotes",
      "outputs": [
        {
          "internalType": "uint256",
          "name": "",
          "type": "uint256"
        }
      ],
      "stateMutability": "view",
      "type": "function"
    },
    {
      "inputs": [
        {
          "internalType": "address",
          "name": "spender",
          "type": "address"
        },
        {
          "internalType": "uint256",
          "name": "addedValue",
          "type": "uint256"
        }
      ],
      "name": "increaseAllowance",
      "outputs": [
        {
          "internalType": "bool",
          "name": "",
          "type": "bool"
        }
      ],
      "stateMutability": "nonpayable",
      "type": "function"
    },
    {
      "inputs": [],
      "name": "name",
      "outputs": [
        {
          "internalType": "string",
          "name": "",
          "type": "string"
        }
      ],
      "stateMutability": "view",
      "type": "function"
    },
    {
      "inputs": [
        {
          "internalType": "address",
          "name": "owner",
          "type": "address"
        }
      ],
      "name": "nonces",
      "outputs": [
        {
          "internalType": "uint256",
          "name": "",
          "type": "uint256"
        }
      ],
      "stateMutability": "view",
      "type": "function"
    },
    {
      "inputs": [
        {
          "internalType": "address",
          "name": "account",
          "type": "address"
        }
      ],
      "name": "numCheckpoints",
      "outputs": [
        {
          "internalType": "uint32",
          "name": "",
          "type": "uint32"
        }
      ],
      "stateMutability": "view",
      "type": "function"
    },
    {
      "inputs": [],
      "name": "owner",
      "outputs": [
        {
          "internalType": "address",
          "name": "",
          "type": "address"
        }
      ],
      "stateMutability": "view",
      "type": "function"
    },
    {
      "inputs": [],
      "name": "paused",
      "outputs": [
        {
          "internalType": "bool",
          "name": "",
          "type": "bool"
        }
      ],
      "stateMutability": "view",
      "type": "function"
    },
    {
      "inputs": [
        {
          "internalType": "address",
          "name": "owner",
          "type": "address"
        },
        {
          "internalType": "address",
          "name": "spender",
          "type": "address"
        },
        {
          "internalType": "uint256",
          "name": "value",
          "type": "uint256"
        },
        {
          "internalType": "uint256",
          "name": "deadline",
          "type": "uint256"
        },
        {
          "internalType": "uint8",
          "name": "v",
          "type": "uint8"
        },
        {
          "internalType": "bytes32",
          "name": "r",
          "type": "bytes32"
        },
        {
          "internalType": "bytes32",
          "name": "s",
          "type": "bytes32"
        }
      ],
      "name": "permit",
      "outputs": [],
      "stateMutability": "nonpayable",
      "type": "function"
    },
    {
      "inputs": [],
      "name": "renounceOwnership",
      "outputs": [],
      "stateMutability": "nonpayable",
      "type": "function"
    },
    {
      "inputs": [],
      "name": "symbol",
      "outputs": [
        {
          "internalType": "string",
          "name": "",
          "type": "string"
        }
      ],
      "stateMutability": "view",
      "type": "function"
    },
    {
      "inputs": [],
      "name": "totalSupply",
      "outputs": [
        {
          "internalType": "uint256",
          "name": "",
          "type": "uint256"
        }
      ],
      "stateMutability": "view",
      "type": "function"
    },
    {
      "inputs": [
        {
          "internalType": "uint256",
          "name": "snapshotId",
          "type": "uint256"
        }
      ],
      "name": "totalSupplyAt",
      "outputs": [
        {
          "internalType": "uint256",
          "name": "",
          "type": "uint256"
        }
      ],
      "stateMutability": "view",
      "type": "function"
    },
    {
      "inputs": [
        {
          "internalType": "address",
          "name": "recipient",
          "type": "address"
        },
        {
          "internalType": "uint256",
          "name": "amount",
          "type": "uint256"
        }
      ],
      "name": "transfer",
      "outputs": [
        {
          "internalType": "bool",
          "name": "",
          "type": "bool"
        }
      ],
      "stateMutability": "nonpayable",
      "type": "function"
    },
    {
      "inputs": [
        {
          "internalType": "address",
          "name": "sender",
          "type": "address"
        },
        {
          "internalType": "address",
          "name": "recipient",
          "type": "address"
        },
        {
          "internalType": "uint256",
          "name": "amount",
          "type": "uint256"
        }
      ],
      "name": "transferFrom",
      "outputs": [
        {
          "internalType": "bool",
          "name": "",
          "type": "bool"
        }
      ],
      "stateMutability": "nonpayable",
      "type": "function"
    },
    {
      "inputs": [
        {
          "internalType": "address",
          "name": "newOwner",
          "type": "address"
        }
      ],
      "name": "transferOwnership",
      "outputs": [],
      "stateMutability": "nonpayable",
      "type": "function"
    },
    {
      "inputs": [],
      "name": "snapshot",
      "outputs": [],
      "stateMutability": "nonpayable",
      "type": "function"
    },
    {
      "inputs": [],
      "name": "pause",
      "outputs": [],
      "stateMutability": "nonpayable",
      "type": "function"
    },
    {
      "inputs": [],
      "name": "unpause",
      "outputs": [],
      "stateMutability": "nonpayable",
      "type": "function"
    },
    {
      "inputs": [
        {
          "internalType": "address",
          "name": "to",
          "type": "address"
        },
        {
          "internalType": "uint256",
          "name": "amount",
          "type": "uint256"
        }
      ],
      "name": "mint",
      "outputs": [],
      "stateMutability": "nonpayable",
      "type": "function"
    }
  ],
  "bytecode": "0x6101406040527f6e71edae12b1b97f4d1f60370fef10105fa2faae0126114a169c64845d6126c9610120908152503480156200003a57600080fd5b506040518060400160405280601181526020017f496b6f6e44414f476f7665726e616e6365000000000000000000000000000000815250806040518060400160405280600181526020017f31000000000000000000000000000000000000000000000000000000000000008152506040518060400160405280601181526020017f496b6f6e44414f476f7665726e616e63650000000000000000000000000000008152506040518060400160405280600381526020017f494b44000000000000000000000000000000000000000000000000000000000081525081600390805190602001906200012c92919062000fde565b5080600490805190602001906200014592919062000fde565b505050620001686200015c6200024660201b60201c565b6200024e60201b60201c565b6000600960146101000a81548160ff02191690831515021790555060008280519060200120905060008280519060200120905060007f8b73c3c69bb8fe3d512ecc4cf759cc79239f7b179b0ffacaa9a75d522b39400f90508260c081815250508160e081815250504660a08181525050620001eb8184846200031460201b60201c565b608081815250508061010081815250505050505050506200024033620002166200035060201b60201c565b600a62000224919062001228565b620f424062000234919062001279565b6200035960201b60201c565b620017db565b600033905090565b6000600960009054906101000a900473ffffffffffffffffffffffffffffffffffffffff16905081600960006101000a81548173ffffffffffffffffffffffffffffffffffffffff021916908373ffffffffffffffffffffffffffffffffffffffff1602179055508173ffffffffffffffffffffffffffffffffffffffff168173ffffffffffffffffffffffffffffffffffffffff167f8be0079c531659141344cd1fd0a4f28419497f9722a3daafe3b4186f6b6457e060405160405180910390a35050565b60008383834630604051602001620003319594939291906200134b565b6040516020818303038152906040528051906020012090509392505050565b60006012905090565b6200037082826200037460201b6200164c1760201c565b5050565b6200038b82826200043260201b620016d91760201c565b6200039b620005ab60201b60201c565b7bffffffffffffffffffffffffffffffffffffffffffffffffffffffff16620003c9620005cf60201b60201c565b11156200040d576040517f08c379a000000000000000000000000000000000000000000000000000000000815260040162000404906200142f565b60405180910390fd5b6200042c600d620005d960201b620018391783620005f160201b60201c565b50505050565b600073ffffffffffffffffffffffffffffffffffffffff168273ffffffffffffffffffffffffffffffffffffffff161415620004a5576040517f08c379a00000000000000000000000000000000000000000000000000000000081526004016200049c90620014a1565b60405180910390fd5b620004b960008383620008a260201b60201c565b8060026000828254620004cd9190620014c3565b92505081905550806000808473ffffffffffffffffffffffffffffffffffffffff1673ffffffffffffffffffffffffffffffffffffffff1681526020019081526020016000206000828254620005249190620014c3565b925050819055508173ffffffffffffffffffffffffffffffffffffffff16600073ffffffffffffffffffffffffffffffffffffffff167fddf252ad1be2c89b69c2b068fc378daa952ba7f163c4a11628f55a4df523b3ef836040516200058b919062001520565b60405180910390a3620005a7600083836200091260201b60201c565b5050565b60007bffffffffffffffffffffffffffffffffffffffffffffffffffffffff905090565b6000600254905090565b60008183620005e99190620014c3565b905092915050565b600080600085805490509050600081146200066657856001826200061691906200153d565b815481106200062a576200062962001578565b5b9060005260206000200160000160049054906101000a90047bffffffffffffffffffffffffffffffffffffffffffffffffffffffff1662000669565b60005b7bffffffffffffffffffffffffffffffffffffffffffffffffffffffff1692506200069583858760201c565b9150600081118015620006ee57504386600183620006b491906200153d565b81548110620006c857620006c762001578565b5b9060005260206000200160000160009054906101000a900463ffffffff1663ffffffff16145b156200078f576200070a826200092f60201b6200184f1760201c565b866001836200071a91906200153d565b815481106200072e576200072d62001578565b5b9060005260206000200160000160046101000a8154817bffffffffffffffffffffffffffffffffffffffffffffffffffffffff02191690837bffffffffffffffffffffffffffffffffffffffffffffffffffffffff16021790555062000899565b856040518060400160405280620007b1436200099d60201b620018ba1760201c565b63ffffffff168152602001620007d2856200092f60201b6200184f1760201c565b7bffffffffffffffffffffffffffffffffffffffffffffffffffffffff168152509080600181540180825580915050600190039060005260206000200160009091909190915060008201518160000160006101000a81548163ffffffff021916908363ffffffff16021790555060208201518160000160046101000a8154817bffffffffffffffffffffffffffffffffffffffffffffffffffffffff02191690837bffffffffffffffffffffffffffffffffffffffffffffffffffffffff16021790555050505b50935093915050565b620008b2620009f360201b60201c565b15620008f5576040517f08c379a0000000000000000000000000000000000000000000000000000000008152600401620008ec90620015f7565b60405180910390fd5b6200090d83838362000a0a60201b6200190d1760201c565b505050565b6200092a83838362000b0560201b620019c71760201c565b505050565b60007bffffffffffffffffffffffffffffffffffffffffffffffffffffffff801682111562000995576040517f08c379a00000000000000000000000000000000000000000000000000000000081526004016200098c906200168f565b60405180910390fd5b819050919050565b600063ffffffff8016821115620009eb576040517f08c379a0000000000000000000000000000000000000000000000000000000008152600401620009e29062001727565b60405180910390fd5b819050919050565b6000600960149054906101000a900460ff16905090565b62000a2283838362000b5560201b620019f21760201c565b600073ffffffffffffffffffffffffffffffffffffffff168373ffffffffffffffffffffffffffffffffffffffff16141562000a7f5762000a698262000b5a60201b60201c565b62000a7962000bbd60201b60201c565b62000b00565b600073ffffffffffffffffffffffffffffffffffffffff168273ffffffffffffffffffffffffffffffffffffffff16141562000adc5762000ac68362000b5a60201b60201c565b62000ad662000bbd60201b60201c565b62000aff565b62000aed8362000b5a60201b60201c565b62000afe8262000b5a60201b60201c565b5b5b505050565b62000b1d83838362000be160201b620019f71760201c565b62000b5062000b328462000be660201b60201c565b62000b438462000be660201b60201c565b8362000c4f60201b60201c565b505050565b505050565b62000bba600560008373ffffffffffffffffffffffffffffffffffffffff1673ffffffffffffffffffffffffffffffffffffffff16815260200190815260200160002062000bae8362000e7260201b60201c565b62000eba60201b60201c565b50565b62000bdf600662000bd3620005cf60201b60201c565b62000eba60201b60201c565b565b505050565b6000600b60008373ffffffffffffffffffffffffffffffffffffffff1673ffffffffffffffffffffffffffffffffffffffff16815260200190815260200160002060009054906101000a900473ffffffffffffffffffffffffffffffffffffffff169050919050565b8173ffffffffffffffffffffffffffffffffffffffff168373ffffffffffffffffffffffffffffffffffffffff161415801562000c8c5750600081115b1562000e6d57600073ffffffffffffffffffffffffffffffffffffffff168373ffffffffffffffffffffffffffffffffffffffff161462000d7f5760008062000d26600c60008773ffffffffffffffffffffffffffffffffffffffff1673ffffffffffffffffffffffffffffffffffffffff16815260200190815260200160002062000f4660201b620019fc1785620005f160201b60201c565b915091508473ffffffffffffffffffffffffffffffffffffffff167fdec2bacdd2f05b59de34da9b523dff8be42e5e38e818c82fdb0bae774387a724838360405162000d7492919062001749565b60405180910390a250505b600073ffffffffffffffffffffffffffffffffffffffff168273ffffffffffffffffffffffffffffffffffffffff161462000e6c5760008062000e13600c60008673ffffffffffffffffffffffffffffffffffffffff1673ffffffffffffffffffffffffffffffffffffffff168152602001908152602001600020620005d960201b620018391785620005f160201b60201c565b915091508373ffffffffffffffffffffffffffffffffffffffff167fdec2bacdd2f05b59de34da9b523dff8be42e5e38e818c82fdb0bae774387a724838360405162000e6192919062001749565b60405180910390a250505b5b505050565b60008060008373ffffffffffffffffffffffffffffffffffffffff1673ffffffffffffffffffffffffffffffffffffffff168152602001908152602001600020549050919050565b600062000ecc62000f5e60201b60201c565b90508062000ee38460000162000f7c60201b60201c565b101562000f415782600001819080600181540180825580915050600190039060005260206000200160009091909190915055826001018290806001815401808255809150506001900390600052602060002001600090919091909150555b505050565b6000818362000f5691906200153d565b905092915050565b600062000f77600862000fd060201b62001a121760201c565b905090565b6000808280549050141562000f95576000905062000fcb565b816001838054905062000fa991906200153d565b8154811062000fbd5762000fbc62001578565b5b906000526020600020015490505b919050565b600081600001549050919050565b82805462000fec90620017a5565b90600052602060002090601f0160209004810192826200101057600085556200105c565b82601f106200102b57805160ff19168380011785556200105c565b828001600101855582156200105c579182015b828111156200105b5782518255916020019190600101906200103e565b5b5090506200106b91906200106f565b5090565b5b808211156200108a57600081600090555060010162001070565b5090565b7f4e487b7100000000000000000000000000000000000000000000000000000000600052601160045260246000fd5b60008160011c9050919050565b6000808291508390505b60018511156200111c57808604811115620010f457620010f36200108e565b5b6001851615620011045780820291505b80810290506200111485620010bd565b9450620010d4565b94509492505050565b6000826200113757600190506200120a565b816200114757600090506200120a565b81600181146200116057600281146200116b57620011a1565b60019150506200120a565b60ff84111562001180576200117f6200108e565b5b8360020a9150848211156200119a57620011996200108e565b5b506200120a565b5060208310610133831016604e8410600b8410161715620011db5782820a905083811115620011d557620011d46200108e565b5b6200120a565b620011ea8484846001620010ca565b925090508184048111156200120457620012036200108e565b5b81810290505b9392505050565b6000819050919050565b600060ff82169050919050565b6000620012358262001211565b915062001242836200121b565b9250620012717fffffffffffffffffffffffffffffffffffffffffffffffffffffffffffffffff848462001125565b905092915050565b6000620012868262001211565b9150620012938362001211565b9250817fffffffffffffffffffffffffffffffffffffffffffffffffffffffffffffffff0483118215151615620012cf57620012ce6200108e565b5b828202905092915050565b6000819050919050565b620012ef81620012da565b82525050565b620013008162001211565b82525050565b600073ffffffffffffffffffffffffffffffffffffffff82169050919050565b6000620013338262001306565b9050919050565b620013458162001326565b82525050565b600060a082019050620013626000830188620012e4565b620013716020830187620012e4565b620013806040830186620012e4565b6200138f6060830185620012f5565b6200139e60808301846200133a565b9695505050505050565b600082825260208201905092915050565b7f4552433230566f7465733a20746f74616c20737570706c79207269736b73206f60008201527f766572666c6f77696e6720766f74657300000000000000000000000000000000602082015250565b600062001417603083620013a8565b91506200142482620013b9565b604082019050919050565b600060208201905081810360008301526200144a8162001408565b9050919050565b7f45524332303a206d696e7420746f20746865207a65726f206164647265737300600082015250565b600062001489601f83620013a8565b9150620014968262001451565b602082019050919050565b60006020820190508181036000830152620014bc816200147a565b9050919050565b6000620014d08262001211565b9150620014dd8362001211565b9250827fffffffffffffffffffffffffffffffffffffffffffffffffffffffffffffffff038211156200151557620015146200108e565b5b828201905092915050565b6000602082019050620015376000830184620012f5565b92915050565b60006200154a8262001211565b9150620015578362001211565b9250828210156200156d576200156c6200108e565b5b828203905092915050565b7f4e487b7100000000000000000000000000000000000000000000000000000000600052603260045260246000fd5b7f5061757361626c653a2070617573656400000000000000000000000000000000600082015250565b6000620015df601083620013a8565b9150620015ec82620015a7565b602082019050919050565b600060208201905081810360008301526200161281620015d0565b9050919050565b7f53616665436173743a2076616c756520646f65736e27742066697420696e203260008201527f3234206269747300000000000000000000000000000000000000000000000000602082015250565b600062001677602783620013a8565b9150620016848262001619565b604082019050919050565b60006020820190508181036000830152620016aa8162001668565b9050919050565b7f53616665436173743a2076616c756520646f65736e27742066697420696e203360008201527f3220626974730000000000000000000000000000000000000000000000000000602082015250565b60006200170f602683620013a8565b91506200171c82620016b1565b604082019050919050565b60006020820190508181036000830152620017428162001700565b9050919050565b6000604082019050620017606000830185620012f5565b6200176f6020830184620012f5565b9392505050565b7f4e487b7100000000000000000000000000000000000000000000000000000000600052602260045260246000fd5b60006002820490506001821680620017be57607f821691505b60208210811415620017d557620017d462001776565b5b50919050565b60805160a05160c05160e05161010051610120516147826200182b60003960006112c201526000611ecb01526000611f0d01526000611eec01526000611e7801526000611ea001526147826000f3fe608060405234801561001057600080fd5b50600436106101f05760003560e01c8063715018a61161010f5780639ab24eb0116100a2578063d505accf11610071578063d505accf146105e3578063dd62ed3e146105ff578063f1127ed81461062f578063f2fde38b1461065f576101f0565b80639ab24eb014610537578063a457c2d714610567578063a9059cbb14610597578063c3cda520146105c7576101f0565b80638e539e8c116100de5780638e539e8c146104af57806395d89b41146104df5780639711715a146104fd578063981b24d014610507576101f0565b8063715018a61461044d5780637ecebe00146104575780638456cb59146104875780638da5cb5b14610491576101f0565b80633f4ba83a116101875780635c19a95c116101565780635c19a95c146103b35780635c975abb146103cf5780636fcfff45146103ed57806370a082311461041d576101f0565b80633f4ba83a1461032d57806340c10f19146103375780634ee2cd7e14610353578063587cde1e14610383576101f0565b8063313ce567116101c3578063313ce567146102915780633644e515146102af57806339509351146102cd5780633a46b1a8146102fd576101f0565b806306fdde03146101f5578063095ea7b31461021357806318160ddd1461024357806323b872dd14610261575b600080fd5b6101fd61067b565b60405161020a91906130de565b60405180910390f35b61022d60048036038101906102289190613199565b61070d565b60405161023a91906131f4565b60405180910390f35b61024b61072b565b604051610258919061321e565b60405180910390f35b61027b60048036038101906102769190613239565b610735565b60405161028891906131f4565b60405180910390f35b61029961082d565b6040516102a691906132a8565b60405180910390f35b6102b7610836565b6040516102c491906132dc565b60405180910390f35b6102e760048036038101906102e29190613199565b610845565b6040516102f491906131f4565b60405180910390f35b61031760048036038101906103129190613199565b6108f1565b604051610324919061321e565b60405180910390f35b610335610985565b005b610351600480360381019061034c9190613199565b610a0b565b005b61036d60048036038101906103689190613199565b610a95565b60405161037a919061321e565b60405180910390f35b61039d600480360381019061039891906132f7565b610b05565b6040516103aa9190613333565b60405180910390f35b6103cd60048036038101906103c891906132f7565b610b6e565b005b6103d7610b82565b6040516103e491906131f4565b60405180910390f35b610407600480360381019061040291906132f7565b610b99565b604051610414919061336d565b60405180910390f35b610437600480360381019061043291906132f7565b610bed565b604051610444919061321e565b60405180910390f35b610455610c35565b005b610471600480360381019061046c91906132f7565b610cbd565b60405161047e919061321e565b60405180910390f35b61048f610d0d565b005b610499610d93565b6040516104a69190613333565b60405180910390f35b6104c960048036038101906104c49190613388565b610dbd565b6040516104d6919061321e565b60405180910390f35b6104e7610e13565b6040516104f491906130de565b60405180910390f35b610505610ea5565b005b610521600480360381019061051c9190613388565b610f2c565b60405161052e919061321e565b60405180910390f35b610551600480360381019061054c91906132f7565b610f5d565b60405161055e919061321e565b60405180910390f35b610581600480360381019061057c9190613199565b61106e565b60405161058e91906131f4565b60405180910390f35b6105b160048036038101906105ac9190613199565b611159565b6040516105be91906131f4565b60405180910390f35b6105e160048036038101906105dc919061340d565b611177565b005b6105fd60048036038101906105f8919061349a565b61127b565b005b6106196004803603810190610614919061353c565b6113bd565b604051610626919061321e565b60405180910390f35b610649600480360381019061064491906135a8565b611444565b604051610656919061365d565b60405180910390f35b610679600480360381019061067491906132f7565b611554565b005b60606003805461068a906136a7565b80601f01602080910402602001604051908101604052809291908181526020018280546106b6906136a7565b80156107035780601f106106d857610100808354040283529160200191610703565b820191906000526020600020905b8154815290600101906020018083116106e657829003601f168201915b5050505050905090565b600061072161071a611a20565b8484611a28565b6001905092915050565b6000600254905090565b6000610742848484611bf3565b6000600160008673ffffffffffffffffffffffffffffffffffffffff1673ffffffffffffffffffffffffffffffffffffffff168152602001908152602001600020600061078d611a20565b73ffffffffffffffffffffffffffffffffffffffff1673ffffffffffffffffffffffffffffffffffffffff1681526020019081526020016000205490508281101561080d576040517f08c379a00000000000000000000000000000000000000000000000000000000081526004016108049061374b565b60405180910390fd5b61082185610819611a20565b858403611a28565b60019150509392505050565b60006012905090565b6000610840611e74565b905090565b60006108e7610852611a20565b848460016000610860611a20565b73ffffffffffffffffffffffffffffffffffffffff1673ffffffffffffffffffffffffffffffffffffffff16815260200190815260200160002060008873ffffffffffffffffffffffffffffffffffffffff1673ffffffffffffffffffffffffffffffffffffffff168152602001908152602001600020546108e2919061379a565b611a28565b6001905092915050565b6000438210610935576040517f08c379a000000000000000000000000000000000000000000000000000000000815260040161092c9061383c565b60405180910390fd5b61097d600c60008573ffffffffffffffffffffffffffffffffffffffff1673ffffffffffffffffffffffffffffffffffffffff16815260200190815260200160002083611f37565b905092915050565b61098d611a20565b73ffffffffffffffffffffffffffffffffffffffff166109ab610d93565b73ffffffffffffffffffffffffffffffffffffffff1614610a01576040517f08c379a00000000000000000000000000000000000000000000000000000000081526004016109f8906138a8565b60405180910390fd5b610a09612043565b565b610a13611a20565b73ffffffffffffffffffffffffffffffffffffffff16610a31610d93565b73ffffffffffffffffffffffffffffffffffffffff1614610a87576040517f08c379a0000000000000000000000000000000000000000000000000000000008152600401610a7e906138a8565b60405180910390fd5b610a9182826120e5565b5050565b6000806000610ae284600560008873ffffffffffffffffffffffffffffffffffffffff1673ffffffffffffffffffffffffffffffffffffffff1681526020019081526020016000206120f3565b9150915081610af957610af485610bed565b610afb565b805b9250505092915050565b6000600b60008373ffffffffffffffffffffffffffffffffffffffff1673ffffffffffffffffffffffffffffffffffffffff16815260200190815260200160002060009054906101000a900473ffffffffffffffffffffffffffffffffffffffff169050919050565b610b7f610b79611a20565b826121e9565b50565b6000600960149054906101000a900460ff16905090565b6000610be6600c60008473ffffffffffffffffffffffffffffffffffffffff1673ffffffffffffffffffffffffffffffffffffffff168152602001908152602001600020805490506118ba565b9050919050565b60008060008373ffffffffffffffffffffffffffffffffffffffff1673ffffffffffffffffffffffffffffffffffffffff168152602001908152602001600020549050919050565b610c3d611a20565b73ffffffffffffffffffffffffffffffffffffffff16610c5b610d93565b73ffffffffffffffffffffffffffffffffffffffff1614610cb1576040517f08c379a0000000000000000000000000000000000000000000000000000000008152600401610ca8906138a8565b60405180910390fd5b610cbb6000612303565b565b6000610d06600a60008473ffffffffffffffffffffffffffffffffffffffff1673ffffffffffffffffffffffffffffffffffffffff168152602001908152602001600020611a12565b9050919050565b610d15611a20565b73ffffffffffffffffffffffffffffffffffffffff16610d33610d93565b73ffffffffffffffffffffffffffffffffffffffff1614610d89576040517f08c379a0000000000000000000000000000000000000000000000000000000008152600401610d80906138a8565b60405180910390fd5b610d916123c9565b565b6000600960009054906101000a900473ffffffffffffffffffffffffffffffffffffffff16905090565b6000438210610e01576040517f08c379a0000000000000000000000000000000000000000000000000000000008152600401610df89061383c565b60405180910390fd5b610e0c600d83611f37565b9050919050565b606060048054610e22906136a7565b80601f0160208091040260200160405190810160405280929190818152602001828054610e4e906136a7565b8015610e9b5780601f10610e7057610100808354040283529160200191610e9b565b820191906000526020600020905b815481529060010190602001808311610e7e57829003601f168201915b5050505050905090565b610ead611a20565b73ffffffffffffffffffffffffffffffffffffffff16610ecb610d93565b73ffffffffffffffffffffffffffffffffffffffff1614610f21576040517f08c379a0000000000000000000000000000000000000000000000000000000008152600401610f18906138a8565b60405180910390fd5b610f2961246c565b50565b6000806000610f3c8460066120f3565b9150915081610f5257610f4d61072b565b610f54565b805b92505050919050565b600080600c60008473ffffffffffffffffffffffffffffffffffffffff1673ffffffffffffffffffffffffffffffffffffffff1681526020019081526020016000208054905090506000811461104557600c60008473ffffffffffffffffffffffffffffffffffffffff1673ffffffffffffffffffffffffffffffffffffffff168152602001908152602001600020600182610ff991906138c8565b8154811061100a576110096138fc565b5b9060005260206000200160000160049054906101000a90047bffffffffffffffffffffffffffffffffffffffffffffffffffffffff16611048565b60005b7bffffffffffffffffffffffffffffffffffffffffffffffffffffffff16915050919050565b6000806001600061107d611a20565b73ffffffffffffffffffffffffffffffffffffffff1673ffffffffffffffffffffffffffffffffffffffff16815260200190815260200160002060008573ffffffffffffffffffffffffffffffffffffffff1673ffffffffffffffffffffffffffffffffffffffff1681526020019081526020016000205490508281101561113a576040517f08c379a00000000000000000000000000000000000000000000000000000000081526004016111319061399d565b60405180910390fd5b61114e611145611a20565b85858403611a28565b600191505092915050565b600061116d611166611a20565b8484611bf3565b6001905092915050565b834211156111ba576040517f08c379a00000000000000000000000000000000000000000000000000000000081526004016111b190613a09565b60405180910390fd5b600061121c6112147fe48329057bfd03d55e49b547132e39cffd9c1820ad7b9d4c5307691425d15adf8989896040516020016111f99493929190613a29565b604051602081830303815290604052805190602001206124c2565b8585856124dc565b905061122781612507565b8614611268576040517f08c379a000000000000000000000000000000000000000000000000000000000815260040161125f90613aba565b60405180910390fd5b61127281886121e9565b50505050505050565b834211156112be576040517f08c379a00000000000000000000000000000000000000000000000000000000081526004016112b590613b26565b60405180910390fd5b60007f00000000000000000000000000000000000000000000000000000000000000008888886112ed8c612507565b8960405160200161130396959493929190613b46565b6040516020818303038152906040528051906020012090506000611326826124c2565b90506000611336828787876124dc565b90508973ffffffffffffffffffffffffffffffffffffffff168173ffffffffffffffffffffffffffffffffffffffff16146113a6576040517f08c379a000000000000000000000000000000000000000000000000000000000815260040161139d90613bf3565b60405180910390fd5b6113b18a8a8a611a28565b50505050505050505050565b6000600160008473ffffffffffffffffffffffffffffffffffffffff1673ffffffffffffffffffffffffffffffffffffffff16815260200190815260200160002060008373ffffffffffffffffffffffffffffffffffffffff1673ffffffffffffffffffffffffffffffffffffffff16815260200190815260200160002054905092915050565b61144c613007565b600c60008473ffffffffffffffffffffffffffffffffffffffff1673ffffffffffffffffffffffffffffffffffffffff1681526020019081526020016000208263ffffffff16815481106114a3576114a26138fc565b5b906000526020600020016040518060400160405290816000820160009054906101000a900463ffffffff1663ffffffff1663ffffffff1681526020016000820160049054906101000a90047bffffffffffffffffffffffffffffffffffffffffffffffffffffffff167bffffffffffffffffffffffffffffffffffffffffffffffffffffffff167bffffffffffffffffffffffffffffffffffffffffffffffffffffffff1681525050905092915050565b61155c611a20565b73ffffffffffffffffffffffffffffffffffffffff1661157a610d93565b73ffffffffffffffffffffffffffffffffffffffff16146115d0576040517f08c379a00000000000000000000000000000000000000000000000000000000081526004016115c7906138a8565b60405180910390fd5b600073ffffffffffffffffffffffffffffffffffffffff168173ffffffffffffffffffffffffffffffffffffffff161415611640576040517f08c379a000000000000000000000000000000000000000000000000000000000815260040161163790613c85565b60405180910390fd5b61164981612303565b50565b61165682826116d9565b61165e612565565b7bffffffffffffffffffffffffffffffffffffffffffffffffffffffff1661168461072b565b11156116c5576040517f08c379a00000000000000000000000000000000000000000000000000000000081526004016116bc90613d17565b60405180910390fd5b6116d3600d61183983612589565b50505050565b600073ffffffffffffffffffffffffffffffffffffffff168273ffffffffffffffffffffffffffffffffffffffff161415611749576040517f08c379a000000000000000000000000000000000000000000000000000000000815260040161174090613d83565b60405180910390fd5b61175560008383612801565b8060026000828254611767919061379a565b92505081905550806000808473ffffffffffffffffffffffffffffffffffffffff1673ffffffffffffffffffffffffffffffffffffffff16815260200190815260200160002060008282546117bc919061379a565b925050819055508173ffffffffffffffffffffffffffffffffffffffff16600073ffffffffffffffffffffffffffffffffffffffff167fddf252ad1be2c89b69c2b068fc378daa952ba7f163c4a11628f55a4df523b3ef83604051611821919061321e565b60405180910390a361183560008383612859565b5050565b60008183611847919061379a565b905092915050565b60007bffffffffffffffffffffffffffffffffffffffffffffffffffffffff80168211156118b2576040517f08c379a00000000000000000000000000000000000000000000000000000000081526004016118a990613e15565b60405180910390fd5b819050919050565b600063ffffffff8016821115611905576040517f08c379a00000000000000000000000000000000000000000000000000000000081526004016118fc90613ea7565b60405180910390fd5b819050919050565b6119188383836119f2565b600073ffffffffffffffffffffffffffffffffffffffff168373ffffffffffffffffffffffffffffffffffffffff1614156119635761195682612869565b61195e6128bc565b6119c2565b600073ffffffffffffffffffffffffffffffffffffffff168273ffffffffffffffffffffffffffffffffffffffff1614156119ae576119a183612869565b6119a96128bc565b6119c1565b6119b783612869565b6119c082612869565b5b5b505050565b6119d28383836119f7565b6119ed6119de84610b05565b6119e784610b05565b836128d0565b505050565b505050565b505050565b60008183611a0a91906138c8565b905092915050565b600081600001549050919050565b600033905090565b600073ffffffffffffffffffffffffffffffffffffffff168373ffffffffffffffffffffffffffffffffffffffff161415611a98576040517f08c379a0000000000000000000000000000000000000000000000000000000008152600401611a8f90613f39565b60405180910390fd5b600073ffffffffffffffffffffffffffffffffffffffff168273ffffffffffffffffffffffffffffffffffffffff161415611b08576040517f08c379a0000000000000000000000000000000000000000000000000000000008152600401611aff90613fcb565b60405180910390fd5b80600160008573ffffffffffffffffffffffffffffffffffffffff1673ffffffffffffffffffffffffffffffffffffffff16815260200190815260200160002060008473ffffffffffffffffffffffffffffffffffffffff1673ffffffffffffffffffffffffffffffffffffffff168152602001908152602001600020819055508173ffffffffffffffffffffffffffffffffffffffff168373ffffffffffffffffffffffffffffffffffffffff167f8c5be1e5ebec7d5bd14f71427d1e84f3dd0314c0f7b2291e5b200ac8c7c3b92583604051611be6919061321e565b60405180910390a3505050565b600073ffffffffffffffffffffffffffffffffffffffff168373ffffffffffffffffffffffffffffffffffffffff161415611c63576040517f08c379a0000000000000000000000000000000000000000000000000000000008152600401611c5a9061405d565b60405180910390fd5b600073ffffffffffffffffffffffffffffffffffffffff168273ffffffffffffffffffffffffffffffffffffffff161415611cd3576040517f08c379a0000000000000000000000000000000000000000000000000000000008152600401611cca906140ef565b60405180910390fd5b611cde838383612801565b60008060008573ffffffffffffffffffffffffffffffffffffffff1673ffffffffffffffffffffffffffffffffffffffff16815260200190815260200160002054905081811015611d64576040517f08c379a0000000000000000000000000000000000000000000000000000000008152600401611d5b90614181565b60405180910390fd5b8181036000808673ffffffffffffffffffffffffffffffffffffffff1673ffffffffffffffffffffffffffffffffffffffff16815260200190815260200160002081905550816000808573ffffffffffffffffffffffffffffffffffffffff1673ffffffffffffffffffffffffffffffffffffffff1681526020019081526020016000206000828254611df7919061379a565b925050819055508273ffffffffffffffffffffffffffffffffffffffff168473ffffffffffffffffffffffffffffffffffffffff167fddf252ad1be2c89b69c2b068fc378daa952ba7f163c4a11628f55a4df523b3ef84604051611e5b919061321e565b60405180910390a3611e6e848484612859565b50505050565b60007f0000000000000000000000000000000000000000000000000000000000000000461415611ec6577f00000000000000000000000000000000000000000000000000000000000000009050611f34565b611f317f00000000000000000000000000000000000000000000000000000000000000007f00000000000000000000000000000000000000000000000000000000000000007f0000000000000000000000000000000000000000000000000000000000000000612ac9565b90505b90565b6000808380549050905060005b81811015611fb6576000611f588284612b03565b905084868281548110611f6e57611f6d6138fc565b5b9060005260206000200160000160009054906101000a900463ffffffff1663ffffffff161115611fa057809250611fb0565b600181611fad919061379a565b91505b50611f44565b600082146120185784600183611fcc91906138c8565b81548110611fdd57611fdc6138fc565b5b9060005260206000200160000160049054906101000a90047bffffffffffffffffffffffffffffffffffffffffffffffffffffffff1661201b565b60005b7bffffffffffffffffffffffffffffffffffffffffffffffffffffffff169250505092915050565b61204b610b82565b61208a576040517f08c379a0000000000000000000000000000000000000000000000000000000008152600401612081906141ed565b60405180910390fd5b6000600960146101000a81548160ff0219169083151502179055507f5db9ee0a495bf2e6ff9c91a7834c1ba4fdd244a5e8aa4e537bd38aeae4b073aa6120ce611a20565b6040516120db9190613333565b60405180910390a1565b6120ef828261164c565b5050565b60008060008411612139576040517f08c379a000000000000000000000000000000000000000000000000000000000815260040161213090614259565b60405180910390fd5b612141612b29565b841115612183576040517f08c379a000000000000000000000000000000000000000000000000000000000815260040161217a906142c5565b60405180910390fd5b600061219b8585600001612b3a90919063ffffffff16565b905083600001805490508114156121b95760008092509250506121e2565b60018460010182815481106121d1576121d06138fc565b5b906000526020600020015492509250505b9250929050565b60006121f483610b05565b9050600061220184610bed565b905082600b60008673ffffffffffffffffffffffffffffffffffffffff1673ffffffffffffffffffffffffffffffffffffffff16815260200190815260200160002060006101000a81548173ffffffffffffffffffffffffffffffffffffffff021916908373ffffffffffffffffffffffffffffffffffffffff1602179055508273ffffffffffffffffffffffffffffffffffffffff168273ffffffffffffffffffffffffffffffffffffffff168573ffffffffffffffffffffffffffffffffffffffff167f3134e8a2e6d97e929a7e54011ea5485d7d196dd5f0ba4d4ef95803e8e3fc257f60405160405180910390a46122fd8284836128d0565b50505050565b6000600960009054906101000a900473ffffffffffffffffffffffffffffffffffffffff16905081600960006101000a81548173ffffffffffffffffffffffffffffffffffffffff021916908373ffffffffffffffffffffffffffffffffffffffff1602179055508173ffffffffffffffffffffffffffffffffffffffff168173ffffffffffffffffffffffffffffffffffffffff167f8be0079c531659141344cd1fd0a4f28419497f9722a3daafe3b4186f6b6457e060405160405180910390a35050565b6123d1610b82565b15612411576040517f08c379a000000000000000000000000000000000000000000000000000000000815260040161240890614331565b60405180910390fd5b6001600960146101000a81548160ff0219169083151502179055507f62e78cea01bee320cd4e420270b5ea74000d11b0c9f74754ebdbfc544b05a258612455611a20565b6040516124629190613333565b60405180910390a1565b60006124786008612c14565b6000612482612b29565b90507f8030e83b04d87bef53480e26263266d6ca66863aa8506aca6f2559d18aa1cb67816040516124b3919061321e565b60405180910390a18091505090565b60006124d56124cf611e74565b83612c2a565b9050919050565b60008060006124ed87878787612c5d565b915091506124fa81612d6a565b8192505050949350505050565b600080600a60008473ffffffffffffffffffffffffffffffffffffffff1673ffffffffffffffffffffffffffffffffffffffff168152602001908152602001600020905061255481611a12565b915061255f81612c14565b50919050565b60007bffffffffffffffffffffffffffffffffffffffffffffffffffffffff905090565b600080600085805490509050600081146125f757856001826125ab91906138c8565b815481106125bc576125bb6138fc565b5b9060005260206000200160000160049054906101000a90047bffffffffffffffffffffffffffffffffffffffffffffffffffffffff166125fa565b60005b7bffffffffffffffffffffffffffffffffffffffffffffffffffffffff16925061262883858763ffffffff16565b915060008111801561267b5750438660018361264491906138c8565b81548110612655576126546138fc565b5b9060005260206000200160000160009054906101000a900463ffffffff1663ffffffff16145b15612708576126898261184f565b8660018361269791906138c8565b815481106126a8576126a76138fc565b5b9060005260206000200160000160046101000a8154817bffffffffffffffffffffffffffffffffffffffffffffffffffffffff02191690837bffffffffffffffffffffffffffffffffffffffffffffffffffffffff1602179055506127f8565b85604051806040016040528061271d436118ba565b63ffffffff1681526020016127318561184f565b7bffffffffffffffffffffffffffffffffffffffffffffffffffffffff168152509080600181540180825580915050600190039060005260206000200160009091909190915060008201518160000160006101000a81548163ffffffff021916908363ffffffff16021790555060208201518160000160046101000a8154817bffffffffffffffffffffffffffffffffffffffffffffffffffffffff02191690837bffffffffffffffffffffffffffffffffffffffffffffffffffffffff16021790555050505b50935093915050565b612809610b82565b15612849576040517f08c379a000000000000000000000000000000000000000000000000000000000815260040161284090614331565b60405180910390fd5b61285483838361190d565b505050565b6128648383836119c7565b505050565b6128b9600560008373ffffffffffffffffffffffffffffffffffffffff1673ffffffffffffffffffffffffffffffffffffffff1681526020019081526020016000206128b483610bed565b612f3f565b50565b6128ce60066128c961072b565b612f3f565b565b8173ffffffffffffffffffffffffffffffffffffffff168373ffffffffffffffffffffffffffffffffffffffff161415801561290c5750600081115b15612ac457600073ffffffffffffffffffffffffffffffffffffffff168373ffffffffffffffffffffffffffffffffffffffff16146129ea57600080612993600c60008773ffffffffffffffffffffffffffffffffffffffff1673ffffffffffffffffffffffffffffffffffffffff1681526020019081526020016000206119fc85612589565b915091508473ffffffffffffffffffffffffffffffffffffffff167fdec2bacdd2f05b59de34da9b523dff8be42e5e38e818c82fdb0bae774387a72483836040516129df929190614351565b60405180910390a250505b600073ffffffffffffffffffffffffffffffffffffffff168273ffffffffffffffffffffffffffffffffffffffff1614612ac357600080612a6c600c60008673ffffffffffffffffffffffffffffffffffffffff1673ffffffffffffffffffffffffffffffffffffffff16815260200190815260200160002061183985612589565b915091508373ffffffffffffffffffffffffffffffffffffffff167fdec2bacdd2f05b59de34da9b523dff8be42e5e38e818c82fdb0bae774387a7248383604051612ab8929190614351565b60405180910390a250505b5b505050565b60008383834630604051602001612ae495949392919061437a565b6040516020818303038152906040528051906020012090509392505050565b60006002828418612b1491906143fc565b828416612b21919061379a565b905092915050565b6000612b356008611a12565b905090565b60008083805490501415612b515760009050612c0e565b600080848054905090505b80821015612bb5576000612b708383612b03565b905084868281548110612b8657612b856138fc565b5b90600052602060002001541115612b9f57809150612baf565b600181612bac919061379a565b92505b50612b5c565b600082118015612bed57508385600184612bcf91906138c8565b81548110612be057612bdf6138fc565b5b9060005260206000200154145b15612c0857600182612bff91906138c8565b92505050612c0e565b81925050505b92915050565b6001816000016000828254019250508190555050565b60008282604051602001612c3f9291906144a5565b60405160208183030381529060405280519060200120905092915050565b6000807f7fffffffffffffffffffffffffffffff5d576e7357a4501ddfe92f46681b20a08360001c1115612c98576000600391509150612d61565b601b8560ff1614158015612cb05750601c8560ff1614155b15612cc2576000600491509150612d61565b600060018787878760405160008152602001604052604051612ce794939291906144dc565b6020604051602081039080840390855afa158015612d09573d6000803e3d6000fd5b505050602060405103519050600073ffffffffffffffffffffffffffffffffffffffff168173ffffffffffffffffffffffffffffffffffffffff161415612d5857600060019250925050612d61565b80600092509250505b94509492505050565b60006004811115612d7e57612d7d614521565b5b816004811115612d9157612d90614521565b5b1415612d9c57612f3c565b60016004811115612db057612daf614521565b5b816004811115612dc357612dc2614521565b5b1415612e04576040517f08c379a0000000000000000000000000000000000000000000000000000000008152600401612dfb9061459c565b60405180910390fd5b60026004811115612e1857612e17614521565b5b816004811115612e2b57612e2a614521565b5b1415612e6c576040517f08c379a0000000000000000000000000000000000000000000000000000000008152600401612e6390614608565b60405180910390fd5b60036004811115612e8057612e7f614521565b5b816004811115612e9357612e92614521565b5b1415612ed4576040517f08c379a0000000000000000000000000000000000000000000000000000000008152600401612ecb9061469a565b60405180910390fd5b600480811115612ee757612ee6614521565b5b816004811115612efa57612ef9614521565b5b1415612f3b576040517f08c379a0000000000000000000000000000000000000000000000000000000008152600401612f329061472c565b60405180910390fd5b5b50565b6000612f49612b29565b905080612f5884600001612fba565b1015612fb55782600001819080600181540180825580915050600190039060005260206000200160009091909190915055826001018290806001815401808255809150506001900390600052602060002001600090919091909150555b505050565b60008082805490501415612fd15760009050613002565b8160018380549050612fe391906138c8565b81548110612ff457612ff36138fc565b5b906000526020600020015490505b919050565b6040518060400160405280600063ffffffff16815260200160007bffffffffffffffffffffffffffffffffffffffffffffffffffffffff1681525090565b600081519050919050565b600082825260208201905092915050565b60005b8381101561307f578082015181840152602081019050613064565b8381111561308e576000848401525b50505050565b6000601f19601f8301169050919050565b60006130b082613045565b6130ba8185613050565b93506130ca818560208601613061565b6130d381613094565b840191505092915050565b600060208201905081810360008301526130f881846130a5565b905092915050565b600080fd5b600073ffffffffffffffffffffffffffffffffffffffff82169050919050565b600061313082613105565b9050919050565b61314081613125565b811461314b57600080fd5b50565b60008135905061315d81613137565b92915050565b6000819050919050565b61317681613163565b811461318157600080fd5b50565b6000813590506131938161316d565b92915050565b600080604083850312156131b0576131af613100565b5b60006131be8582860161314e565b92505060206131cf85828601613184565b9150509250929050565b60008115159050919050565b6131ee816131d9565b82525050565b600060208201905061320960008301846131e5565b92915050565b61321881613163565b82525050565b6000602082019050613233600083018461320f565b92915050565b60008060006060848603121561325257613251613100565b5b60006132608682870161314e565b93505060206132718682870161314e565b925050604061328286828701613184565b9150509250925092565b600060ff82169050919050565b6132a28161328c565b82525050565b60006020820190506132bd6000830184613299565b92915050565b6000819050919050565b6132d6816132c3565b82525050565b60006020820190506132f160008301846132cd565b92915050565b60006020828403121561330d5761330c613100565b5b600061331b8482850161314e565b91505092915050565b61332d81613125565b82525050565b60006020820190506133486000830184613324565b92915050565b600063ffffffff82169050919050565b6133678161334e565b82525050565b6000602082019050613382600083018461335e565b92915050565b60006020828403121561339e5761339d613100565b5b60006133ac84828501613184565b91505092915050565b6133be8161328c565b81146133c957600080fd5b50565b6000813590506133db816133b5565b92915050565b6133ea816132c3565b81146133f557600080fd5b50565b600081359050613407816133e1565b92915050565b60008060008060008060c0878903121561342a57613429613100565b5b600061343889828a0161314e565b965050602061344989828a01613184565b955050604061345a89828a01613184565b945050606061346b89828a016133cc565b935050608061347c89828a016133f8565b92505060a061348d89828a016133f8565b9150509295509295509295565b600080600080600080600060e0888a0312156134b9576134b8613100565b5b60006134c78a828b0161314e565b97505060206134d88a828b0161314e565b96505060406134e98a828b01613184565b95505060606134fa8a828b01613184565b945050608061350b8a828b016133cc565b93505060a061351c8a828b016133f8565b92505060c061352d8a828b016133f8565b91505092959891949750929550565b6000806040838503121561355357613552613100565b5b60006135618582860161314e565b92505060206135728582860161314e565b9150509250929050565b6135858161334e565b811461359057600080fd5b50565b6000813590506135a28161357c565b92915050565b600080604083850312156135bf576135be613100565b5b60006135cd8582860161314e565b92505060206135de85828601613593565b9150509250929050565b6135f18161334e565b82525050565b60007bffffffffffffffffffffffffffffffffffffffffffffffffffffffff82169050919050565b613628816135f7565b82525050565b60408201600082015161364460008501826135e8565b506020820151613657602085018261361f565b50505050565b6000604082019050613672600083018461362e565b92915050565b7f4e487b7100000000000000000000000000000000000000000000000000000000600052602260045260246000fd5b600060028204905060018216806136bf57607f821691505b602082108114156136d3576136d2613678565b5b50919050565b7f45524332303a207472616e7366657220616d6f756e742065786365656473206160008201527f6c6c6f77616e6365000000000000000000000000000000000000000000000000602082015250565b6000613735602883613050565b9150613740826136d9565b604082019050919050565b6000602082019050818103600083015261376481613728565b9050919050565b7f4e487b7100000000000000000000000000000000000000000000000000000000600052601160045260246000fd5b60006137a582613163565b91506137b083613163565b9250827fffffffffffffffffffffffffffffffffffffffffffffffffffffffffffffffff038211156137e5576137e461376b565b5b828201905092915050565b7f4552433230566f7465733a20626c6f636b206e6f7420796574206d696e656400600082015250565b6000613826601f83613050565b9150613831826137f0565b602082019050919050565b6000602082019050818103600083015261385581613819565b9050919050565b7f4f776e61626c653a2063616c6c6572206973206e6f7420746865206f776e6572600082015250565b6000613892602083613050565b915061389d8261385c565b602082019050919050565b600060208201905081810360008301526138c181613885565b9050919050565b60006138d382613163565b91506138de83613163565b9250828210156138f1576138f061376b565b5b828203905092915050565b7f4e487b7100000000000000000000000000000000000000000000000000000000600052603260045260246000fd5b7f45524332303a2064656372656173656420616c6c6f77616e63652062656c6f7760008201527f207a65726f000000000000000000000000000000000000000000000000000000602082015250565b6000613987602583613050565b91506139928261392b565b604082019050919050565b600060208201905081810360008301526139b68161397a565b9050919050565b7f4552433230566f7465733a207369676e61747572652065787069726564000000600082015250565b60006139f3601d83613050565b91506139fe826139bd565b602082019050919050565b60006020820190508181036000830152613a22816139e6565b9050919050565b6000608082019050613a3e60008301876132cd565b613a4b6020830186613324565b613a58604083018561320f565b613a65606083018461320f565b95945050505050565b7f4552433230566f7465733a20696e76616c6964206e6f6e636500000000000000600082015250565b6000613aa4601983613050565b9150613aaf82613a6e565b602082019050919050565b60006020820190508181036000830152613ad381613a97565b9050919050565b7f45524332305065726d69743a206578706972656420646561646c696e65000000600082015250565b6000613b10601d83613050565b9150613b1b82613ada565b602082019050919050565b60006020820190508181036000830152613b3f81613b03565b9050919050565b600060c082019050613b5b60008301896132cd565b613b686020830188613324565b613b756040830187613324565b613b82606083018661320f565b613b8f608083018561320f565b613b9c60a083018461320f565b979650505050505050565b7f45524332305065726d69743a20696e76616c6964207369676e61747572650000600082015250565b6000613bdd601e83613050565b9150613be882613ba7565b602082019050919050565b60006020820190508181036000830152613c0c81613bd0565b9050919050565b7f4f776e61626c653a206e6577206f776e657220697320746865207a65726f206160008201527f6464726573730000000000000000000000000000000000000000000000000000602082015250565b6000613c6f602683613050565b9150613c7a82613c13565b604082019050919050565b60006020820190508181036000830152613c9e81613c62565b9050919050565b7f4552433230566f7465733a20746f74616c20737570706c79207269736b73206f60008201527f766572666c6f77696e6720766f74657300000000000000000000000000000000602082015250565b6000613d01603083613050565b9150613d0c82613ca5565b604082019050919050565b60006020820190508181036000830152613d3081613cf4565b9050919050565b7f45524332303a206d696e7420746f20746865207a65726f206164647265737300600082015250565b6000613d6d601f83613050565b9150613d7882613d37565b602082019050919050565b60006020820190508181036000830152613d9c81613d60565b9050919050565b7f53616665436173743a2076616c756520646f65736e27742066697420696e203260008201527f3234206269747300000000000000000000000000000000000000000000000000602082015250565b6000613dff602783613050565b9150613e0a82613da3565b604082019050919050565b60006020820190508181036000830152613e2e81613df2565b9050919050565b7f53616665436173743a2076616c756520646f65736e27742066697420696e203360008201527f3220626974730000000000000000000000000000000000000000000000000000602082015250565b6000613e91602683613050565b9150613e9c82613e35565b604082019050919050565b60006020820190508181036000830152613ec081613e84565b9050919050565b7f45524332303a20617070726f76652066726f6d20746865207a65726f2061646460008201527f7265737300000000000000000000000000000000000000000000000000000000602082015250565b6000613f23602483613050565b9150613f2e82613ec7565b604082019050919050565b60006020820190508181036000830152613f5281613f16565b9050919050565b7f45524332303a20617070726f766520746f20746865207a65726f20616464726560008201527f7373000000000000000000000000000000000000000000000000000000000000602082015250565b6000613fb5602283613050565b9150613fc082613f59565b604082019050919050565b60006020820190508181036000830152613fe481613fa8565b9050919050565b7f45524332303a207472616e736665722066726f6d20746865207a65726f20616460008201527f6472657373000000000000000000000000000000000000000000000000000000602082015250565b6000614047602583613050565b915061405282613feb565b604082019050919050565b600060208201905081810360008301526140768161403a565b9050919050565b7f45524332303a207472616e7366657220746f20746865207a65726f206164647260008201527f6573730000000000000000000000000000000000000000000000000000000000602082015250565b60006140d9602383613050565b91506140e48261407d565b604082019050919050565b60006020820190508181036000830152614108816140cc565b9050919050565b7f45524332303a207472616e7366657220616d6f756e742065786365656473206260008201527f616c616e63650000000000000000000000000000000000000000000000000000602082015250565b600061416b602683613050565b91506141768261410f565b604082019050919050565b6000602082019050818103600083015261419a8161415e565b9050919050565b7f5061757361626c653a206e6f7420706175736564000000000000000000000000600082015250565b60006141d7601483613050565b91506141e2826141a1565b602082019050919050565b60006020820190508181036000830152614206816141ca565b9050919050565b7f4552433230536e617073686f743a206964206973203000000000000000000000600082015250565b6000614243601683613050565b915061424e8261420d565b602082019050919050565b6000602082019050818103600083015261427281614236565b9050919050565b7f4552433230536e617073686f743a206e6f6e6578697374656e74206964000000600082015250565b60006142af601d83613050565b91506142ba82614279565b602082019050919050565b600060208201905081810360008301526142de816142a2565b9050919050565b7f5061757361626c653a2070617573656400000000000000000000000000000000600082015250565b600061431b601083613050565b9150614326826142e5565b602082019050919050565b6000602082019050818103600083015261434a8161430e565b9050919050565b6000604082019050614366600083018561320f565b614373602083018461320f565b9392505050565b600060a08201905061438f60008301886132cd565b61439c60208301876132cd565b6143a960408301866132cd565b6143b6606083018561320f565b6143c36080830184613324565b9695505050505050565b7f4e487b7100000000000000000000000000000000000000000000000000000000600052601260045260246000fd5b600061440782613163565b915061441283613163565b925082614422576144216143cd565b5b828204905092915050565b600081905092915050565b7f1901000000000000000000000000000000000000000000000000000000000000600082015250565b600061446e60028361442d565b915061447982614438565b600282019050919050565b6000819050919050565b61449f61449a826132c3565b614484565b82525050565b60006144b082614461565b91506144bc828561448e565b6020820191506144cc828461448e565b6020820191508190509392505050565b60006080820190506144f160008301876132cd565b6144fe6020830186613299565b61450b60408301856132cd565b61451860608301846132cd565b95945050505050565b7f4e487b7100000000000000000000000000000000000000000000000000000000600052602160045260246000fd5b7f45434453413a20696e76616c6964207369676e61747572650000000000000000600082015250565b6000614586601883613050565b915061459182614550565b602082019050919050565b600060208201905081810360008301526145b581614579565b9050919050565b7f45434453413a20696e76616c6964207369676e6174757265206c656e67746800600082015250565b60006145f2601f83613050565b91506145fd826145bc565b602082019050919050565b60006020820190508181036000830152614621816145e5565b9050919050565b7f45434453413a20696e76616c6964207369676e6174757265202773272076616c60008201527f7565000000000000000000000000000000000000000000000000000000000000602082015250565b6000614684602283613050565b915061468f82614628565b604082019050919050565b600060208201905081810360008301526146b381614677565b9050919050565b7f45434453413a20696e76616c6964207369676e6174757265202776272076616c60008201527f7565000000000000000000000000000000000000000000000000000000000000602082015250565b6000614716602283613050565b9150614721826146ba565b604082019050919050565b6000602082019050818103600083015261474581614709565b905091905056fea2646970667358221220a4cdae80911154983b427b902aa4d4d1d8cba4c053013ed533da97acea8d362f64736f6c63430008090033",
  "immutableReferences": {
    "10497": [
      {
        "length": 32,
        "start": 4802
      }
    ],
    "11431": [
      {
        "length": 32,
        "start": 7840
      }
    ],
    "11433": [
      {
        "length": 32,
        "start": 7800
      }
    ],
    "11435": [
      {
        "length": 32,
        "start": 7916
      }
    ],
    "11437": [
      {
        "length": 32,
        "start": 7949
      }
    ],
    "11439": [
      {
        "length": 32,
        "start": 7883
      }
    ]
  },
  "source": "// SPDX-License-Identifier: MIT\npragma solidity ^0.8.2;\n\n/// @title The IkonDAOGovernance Token - extension of the icond \n/// @author Fernando M. Trouw\n/// @notice this contract should be used for basic simulation purposes only \n/// @notice this contract is an experimental contract and should not be used to initiate project that will hold real value\n/// @dev functions currently implemented (other then imported library) functions could contain side-effects\n\nimport \"@openzeppelin/contracts/token/ERC20/ERC20.sol\";\nimport \"@openzeppelin/contracts/token/ERC20/extensions/ERC20Snapshot.sol\";\nimport \"@openzeppelin/contracts/access/Ownable.sol\";\nimport \"@openzeppelin/contracts/security/Pausable.sol\";\nimport \"@openzeppelin/contracts/token/ERC20/extensions/ERC20Votes.sol\";\n\n/// @custom:security-contact ftrouw@protonmail.com\ncontract IkonDAOGovernance is ERC20, ERC20Snapshot, Ownable, Pausable, ERC20Votes {\n    constructor()\n        ERC20(\"IkonDAOGovernance\", \"IKD\")\n        ERC20Permit(\"IkonDAOGovernance\")\n    {\n        _mint(msg.sender, 1000000 * 10 ** decimals());\n    }\n\n    function snapshot() public onlyOwner {\n        _snapshot();\n    }\n\n    function pause() public onlyOwner {\n        _pause();\n    }\n\n    function unpause() public onlyOwner {\n        _unpause();\n    }\n\n    function mint(address to, uint256 amount) public onlyOwner {\n        _mint(to, amount);\n    }\n\n    function _beforeTokenTransfer(address from, address to, uint256 amount)\n        internal\n        whenNotPaused\n        override(ERC20, ERC20Snapshot)\n    {\n        super._beforeTokenTransfer(from, to, amount);\n    }\n\n    // The following functions are overrides required by Solidity.\n\n    function _afterTokenTransfer(address from, address to, uint256 amount)\n        internal\n        override(ERC20, ERC20Votes)\n    {\n        super._afterTokenTransfer(from, to, amount);\n    }\n\n    function _mint(address to, uint256 amount)\n        internal\n        override(ERC20, ERC20Votes)\n    {\n        super._mint(to, amount);\n    }\n\n    function _burn(address account, uint256 amount)\n        internal\n        override(ERC20, ERC20Votes)\n    {\n        super._burn(account, amount);\n    }\n}\n",
  "sourcePath": "/run/media/rasguy92/SDD (windows)/projectIdeas/iconify/contracts/IkonDAOGovernance.sol",
  "compiler": {
    "name": "solc",
    "version": "0.8.9+commit.e5eed63a.Emscripten.clang"
  },
  "schemaVersion": "3.4.3",
  "updatedAt": "2021-10-23T06:44:59.991Z",
  "devdoc": {
    "custom:security-contact": "ftrouw@protonmail.com",
    "kind": "dev",
    "methods": {
      "DOMAIN_SEPARATOR()": {
        "details": "See {IERC20Permit-DOMAIN_SEPARATOR}."
      },
      "allowance(address,address)": {
        "details": "See {IERC20-allowance}."
      },
      "approve(address,uint256)": {
        "details": "See {IERC20-approve}. Requirements: - `spender` cannot be the zero address."
      },
      "balanceOf(address)": {
        "details": "See {IERC20-balanceOf}."
      },
      "balanceOfAt(address,uint256)": {
        "details": "Retrieves the balance of `account` at the time `snapshotId` was created."
      },
      "checkpoints(address,uint32)": {
        "details": "Get the `pos`-th checkpoint for `account`."
      },
      "decimals()": {
        "details": "Returns the number of decimals used to get its user representation. For example, if `decimals` equals `2`, a balance of `505` tokens should be displayed to a user as `5.05` (`505 / 10 ** 2`). Tokens usually opt for a value of 18, imitating the relationship between Ether and Wei. This is the value {ERC20} uses, unless this function is overridden; NOTE: This information is only used for _display_ purposes: it in no way affects any of the arithmetic of the contract, including {IERC20-balanceOf} and {IERC20-transfer}."
      },
      "decreaseAllowance(address,uint256)": {
        "details": "Atomically decreases the allowance granted to `spender` by the caller. This is an alternative to {approve} that can be used as a mitigation for problems described in {IERC20-approve}. Emits an {Approval} event indicating the updated allowance. Requirements: - `spender` cannot be the zero address. - `spender` must have allowance for the caller of at least `subtractedValue`."
      },
      "delegate(address)": {
        "details": "Delegate votes from the sender to `delegatee`."
      },
      "delegateBySig(address,uint256,uint256,uint8,bytes32,bytes32)": {
        "details": "Delegates votes from signer to `delegatee`"
      },
      "delegates(address)": {
        "details": "Get the address `account` is currently delegating to."
      },
      "getPastTotalSupply(uint256)": {
        "details": "Retrieve the `totalSupply` at the end of `blockNumber`. Note, this value is the sum of all balances. It is but NOT the sum of all the delegated votes! Requirements: - `blockNumber` must have been already mined"
      },
      "getPastVotes(address,uint256)": {
        "details": "Retrieve the number of votes for `account` at the end of `blockNumber`. Requirements: - `blockNumber` must have been already mined"
      },
      "getVotes(address)": {
        "details": "Gets the current votes balance for `account`"
      },
      "increaseAllowance(address,uint256)": {
        "details": "Atomically increases the allowance granted to `spender` by the caller. This is an alternative to {approve} that can be used as a mitigation for problems described in {IERC20-approve}. Emits an {Approval} event indicating the updated allowance. Requirements: - `spender` cannot be the zero address."
      },
      "name()": {
        "details": "Returns the name of the token."
      },
      "nonces(address)": {
        "details": "See {IERC20Permit-nonces}."
      },
      "numCheckpoints(address)": {
        "details": "Get number of checkpoints for `account`."
      },
      "owner()": {
        "details": "Returns the address of the current owner."
      },
      "paused()": {
        "details": "Returns true if the contract is paused, and false otherwise."
      },
      "permit(address,address,uint256,uint256,uint8,bytes32,bytes32)": {
        "details": "See {IERC20Permit-permit}."
      },
      "renounceOwnership()": {
        "details": "Leaves the contract without owner. It will not be possible to call `onlyOwner` functions anymore. Can only be called by the current owner. NOTE: Renouncing ownership will leave the contract without an owner, thereby removing any functionality that is only available to the owner."
      },
      "symbol()": {
        "details": "Returns the symbol of the token, usually a shorter version of the name."
      },
      "totalSupply()": {
        "details": "See {IERC20-totalSupply}."
      },
      "totalSupplyAt(uint256)": {
        "details": "Retrieves the total supply at the time `snapshotId` was created."
      },
      "transfer(address,uint256)": {
        "details": "See {IERC20-transfer}. Requirements: - `recipient` cannot be the zero address. - the caller must have a balance of at least `amount`."
      },
      "transferFrom(address,address,uint256)": {
        "details": "See {IERC20-transferFrom}. Emits an {Approval} event indicating the updated allowance. This is not required by the EIP. See the note at the beginning of {ERC20}. Requirements: - `sender` and `recipient` cannot be the zero address. - `sender` must have a balance of at least `amount`. - the caller must have allowance for ``sender``'s tokens of at least `amount`."
      },
      "transferOwnership(address)": {
        "details": "Transfers ownership of the contract to a new account (`newOwner`). Can only be called by the current owner."
      }
    },
    "version": 1
  },
  "userdoc": {
    "kind": "user",
    "methods": {},
    "version": 1
  }
}