{
  "contractName": "MyGovernor",
  "abi": [
    {
      "inputs": [],
      "stateMutability": "nonpayable",
      "type": "constructor"
    },
    {
      "anonymous": false,
      "inputs": [
        {
          "indexed": false,
          "internalType": "address",
          "name": "previousAdmin",
          "type": "address"
        },
        {
          "indexed": false,
          "internalType": "address",
          "name": "newAdmin",
          "type": "address"
        }
      ],
      "name": "AdminChanged",
      "type": "event"
    },
    {
      "anonymous": false,
      "inputs": [
        {
          "indexed": true,
          "internalType": "address",
          "name": "beacon",
          "type": "address"
        }
      ],
      "name": "BeaconUpgraded",
      "type": "event"
    },
    {
      "anonymous": false,
      "inputs": [
        {
          "indexed": true,
          "internalType": "address",
          "name": "previousOwner",
          "type": "address"
        },
        {
          "indexed": true,
          "internalType": "address",
          "name": "newOwner",
          "type": "address"
        }
      ],
      "name": "OwnershipTransferred",
      "type": "event"
    },
    {
      "anonymous": false,
      "inputs": [
        {
          "indexed": false,
          "internalType": "uint256",
          "name": "proposalId",
          "type": "uint256"
        }
      ],
      "name": "ProposalCanceled",
      "type": "event"
    },
    {
      "anonymous": false,
      "inputs": [
        {
          "indexed": false,
          "internalType": "uint256",
          "name": "proposalId",
          "type": "uint256"
        },
        {
          "indexed": false,
          "internalType": "address",
          "name": "proposer",
          "type": "address"
        },
        {
          "indexed": false,
          "internalType": "address[]",
          "name": "targets",
          "type": "address[]"
        },
        {
          "indexed": false,
          "internalType": "uint256[]",
          "name": "values",
          "type": "uint256[]"
        },
        {
          "indexed": false,
          "internalType": "string[]",
          "name": "signatures",
          "type": "string[]"
        },
        {
          "indexed": false,
          "internalType": "bytes[]",
          "name": "calldatas",
          "type": "bytes[]"
        },
        {
          "indexed": false,
          "internalType": "uint256",
          "name": "startBlock",
          "type": "uint256"
        },
        {
          "indexed": false,
          "internalType": "uint256",
          "name": "endBlock",
          "type": "uint256"
        },
        {
          "indexed": false,
          "internalType": "string",
          "name": "description",
          "type": "string"
        }
      ],
      "name": "ProposalCreated",
      "type": "event"
    },
    {
      "anonymous": false,
      "inputs": [
        {
          "indexed": false,
          "internalType": "uint256",
          "name": "proposalId",
          "type": "uint256"
        }
      ],
      "name": "ProposalExecuted",
      "type": "event"
    },
    {
      "anonymous": false,
      "inputs": [
        {
          "indexed": false,
          "internalType": "uint256",
          "name": "oldQuorumNumerator",
          "type": "uint256"
        },
        {
          "indexed": false,
          "internalType": "uint256",
          "name": "newQuorumNumerator",
          "type": "uint256"
        }
      ],
      "name": "QuorumNumeratorUpdated",
      "type": "event"
    },
    {
      "anonymous": false,
      "inputs": [
        {
          "indexed": true,
          "internalType": "address",
          "name": "implementation",
          "type": "address"
        }
      ],
      "name": "Upgraded",
      "type": "event"
    },
    {
      "anonymous": false,
      "inputs": [
        {
          "indexed": true,
          "internalType": "address",
          "name": "voter",
          "type": "address"
        },
        {
          "indexed": false,
          "internalType": "uint256",
          "name": "proposalId",
          "type": "uint256"
        },
        {
          "indexed": false,
          "internalType": "uint8",
          "name": "support",
          "type": "uint8"
        },
        {
          "indexed": false,
          "internalType": "uint256",
          "name": "weight",
          "type": "uint256"
        },
        {
          "indexed": false,
          "internalType": "string",
          "name": "reason",
          "type": "string"
        }
      ],
      "name": "VoteCast",
      "type": "event"
    },
    {
      "inputs": [],
      "name": "BALLOT_TYPEHASH",
      "outputs": [
        {
          "internalType": "bytes32",
          "name": "",
          "type": "bytes32"
        }
      ],
      "stateMutability": "view",
      "type": "function"
    },
    {
      "inputs": [],
      "name": "COUNTING_MODE",
      "outputs": [
        {
          "internalType": "string",
          "name": "",
          "type": "string"
        }
      ],
      "stateMutability": "pure",
      "type": "function"
    },
    {
      "inputs": [
        {
          "internalType": "uint256",
          "name": "proposalId",
          "type": "uint256"
        },
        {
          "internalType": "uint8",
          "name": "support",
          "type": "uint8"
        }
      ],
      "name": "castVote",
      "outputs": [
        {
          "internalType": "uint256",
          "name": "",
          "type": "uint256"
        }
      ],
      "stateMutability": "nonpayable",
      "type": "function"
    },
    {
      "inputs": [
        {
          "internalType": "uint256",
          "name": "proposalId",
          "type": "uint256"
        },
        {
          "internalType": "uint8",
          "name": "support",
          "type": "uint8"
        },
        {
          "internalType": "uint8",
          "name": "v",
          "type": "uint8"
        },
        {
          "internalType": "bytes32",
          "name": "r",
          "type": "bytes32"
        },
        {
          "internalType": "bytes32",
          "name": "s",
          "type": "bytes32"
        }
      ],
      "name": "castVoteBySig",
      "outputs": [
        {
          "internalType": "uint256",
          "name": "",
          "type": "uint256"
        }
      ],
      "stateMutability": "nonpayable",
      "type": "function"
    },
    {
      "inputs": [
        {
          "internalType": "uint256",
          "name": "proposalId",
          "type": "uint256"
        },
        {
          "internalType": "uint8",
          "name": "support",
          "type": "uint8"
        },
        {
          "internalType": "string",
          "name": "reason",
          "type": "string"
        }
      ],
      "name": "castVoteWithReason",
      "outputs": [
        {
          "internalType": "uint256",
          "name": "",
          "type": "uint256"
        }
      ],
      "stateMutability": "nonpayable",
      "type": "function"
    },
    {
      "inputs": [
        {
          "internalType": "address[]",
          "name": "targets",
          "type": "address[]"
        },
        {
          "internalType": "uint256[]",
          "name": "values",
          "type": "uint256[]"
        },
        {
          "internalType": "bytes[]",
          "name": "calldatas",
          "type": "bytes[]"
        },
        {
          "internalType": "bytes32",
          "name": "descriptionHash",
          "type": "bytes32"
        }
      ],
      "name": "execute",
      "outputs": [
        {
          "internalType": "uint256",
          "name": "",
          "type": "uint256"
        }
      ],
      "stateMutability": "payable",
      "type": "function"
    },
    {
      "inputs": [
        {
          "internalType": "uint256",
          "name": "proposalId",
          "type": "uint256"
        },
        {
          "internalType": "address",
          "name": "account",
          "type": "address"
        }
      ],
      "name": "hasVoted",
      "outputs": [
        {
          "internalType": "bool",
          "name": "",
          "type": "bool"
        }
      ],
      "stateMutability": "view",
      "type": "function"
    },
    {
      "inputs": [
        {
          "internalType": "address[]",
          "name": "targets",
          "type": "address[]"
        },
        {
          "internalType": "uint256[]",
          "name": "values",
          "type": "uint256[]"
        },
        {
          "internalType": "bytes[]",
          "name": "calldatas",
          "type": "bytes[]"
        },
        {
          "internalType": "bytes32",
          "name": "descriptionHash",
          "type": "bytes32"
        }
      ],
      "name": "hashProposal",
      "outputs": [
        {
          "internalType": "uint256",
          "name": "",
          "type": "uint256"
        }
      ],
      "stateMutability": "pure",
      "type": "function"
    },
    {
      "inputs": [],
      "name": "name",
      "outputs": [
        {
          "internalType": "string",
          "name": "",
          "type": "string"
        }
      ],
      "stateMutability": "view",
      "type": "function"
    },
    {
      "inputs": [],
      "name": "owner",
      "outputs": [
        {
          "internalType": "address",
          "name": "",
          "type": "address"
        }
      ],
      "stateMutability": "view",
      "type": "function"
    },
    {
      "inputs": [
        {
          "internalType": "uint256",
          "name": "proposalId",
          "type": "uint256"
        }
      ],
      "name": "proposalDeadline",
      "outputs": [
        {
          "internalType": "uint256",
          "name": "",
          "type": "uint256"
        }
      ],
      "stateMutability": "view",
      "type": "function"
    },
    {
      "inputs": [
        {
          "internalType": "uint256",
          "name": "proposalId",
          "type": "uint256"
        }
      ],
      "name": "proposalSnapshot",
      "outputs": [
        {
          "internalType": "uint256",
          "name": "",
          "type": "uint256"
        }
      ],
      "stateMutability": "view",
      "type": "function"
    },
    {
      "inputs": [
        {
          "internalType": "uint256",
          "name": "proposalId",
          "type": "uint256"
        }
      ],
      "name": "proposalVotes",
      "outputs": [
        {
          "internalType": "uint256",
          "name": "againstVotes",
          "type": "uint256"
        },
        {
          "internalType": "uint256",
          "name": "forVotes",
          "type": "uint256"
        },
        {
          "internalType": "uint256",
          "name": "abstainVotes",
          "type": "uint256"
        }
      ],
      "stateMutability": "view",
      "type": "function"
    },
    {
      "inputs": [
        {
          "internalType": "address[]",
          "name": "targets",
          "type": "address[]"
        },
        {
          "internalType": "uint256[]",
          "name": "values",
          "type": "uint256[]"
        },
        {
          "internalType": "bytes[]",
          "name": "calldatas",
          "type": "bytes[]"
        },
        {
          "internalType": "string",
          "name": "description",
          "type": "string"
        }
      ],
      "name": "propose",
      "outputs": [
        {
          "internalType": "uint256",
          "name": "",
          "type": "uint256"
        }
      ],
      "stateMutability": "nonpayable",
      "type": "function"
    },
    {
      "inputs": [],
      "name": "quorumDenominator",
      "outputs": [
        {
          "internalType": "uint256",
          "name": "",
          "type": "uint256"
        }
      ],
      "stateMutability": "view",
      "type": "function"
    },
    {
      "inputs": [],
      "name": "quorumNumerator",
      "outputs": [
        {
          "internalType": "uint256",
          "name": "",
          "type": "uint256"
        }
      ],
      "stateMutability": "view",
      "type": "function"
    },
    {
      "inputs": [],
      "name": "renounceOwnership",
      "outputs": [],
      "stateMutability": "nonpayable",
      "type": "function"
    },
    {
      "inputs": [
        {
          "internalType": "uint256",
          "name": "proposalId",
          "type": "uint256"
        }
      ],
      "name": "state",
      "outputs": [
        {
          "internalType": "enum IGovernorUpgradeable.ProposalState",
          "name": "",
          "type": "uint8"
        }
      ],
      "stateMutability": "view",
      "type": "function"
    },
    {
      "inputs": [
        {
          "internalType": "bytes4",
          "name": "interfaceId",
          "type": "bytes4"
        }
      ],
      "name": "supportsInterface",
      "outputs": [
        {
          "internalType": "bool",
          "name": "",
          "type": "bool"
        }
      ],
      "stateMutability": "view",
      "type": "function"
    },
    {
      "inputs": [],
      "name": "token",
      "outputs": [
        {
          "internalType": "contract ERC20VotesUpgradeable",
          "name": "",
          "type": "address"
        }
      ],
      "stateMutability": "view",
      "type": "function"
    },
    {
      "inputs": [
        {
          "internalType": "address",
          "name": "newOwner",
          "type": "address"
        }
      ],
      "name": "transferOwnership",
      "outputs": [],
      "stateMutability": "nonpayable",
      "type": "function"
    },
    {
      "inputs": [
        {
          "internalType": "uint256",
          "name": "newQuorumNumerator",
          "type": "uint256"
        }
      ],
      "name": "updateQuorumNumerator",
      "outputs": [],
      "stateMutability": "nonpayable",
      "type": "function"
    },
    {
      "inputs": [
        {
          "internalType": "address",
          "name": "newImplementation",
          "type": "address"
        }
      ],
      "name": "upgradeTo",
      "outputs": [],
      "stateMutability": "nonpayable",
      "type": "function"
    },
    {
      "inputs": [
        {
          "internalType": "address",
          "name": "newImplementation",
          "type": "address"
        },
        {
          "internalType": "bytes",
          "name": "data",
          "type": "bytes"
        }
      ],
      "name": "upgradeToAndCall",
      "outputs": [],
      "stateMutability": "payable",
      "type": "function"
    },
    {
      "inputs": [],
      "name": "version",
      "outputs": [
        {
          "internalType": "string",
          "name": "",
          "type": "string"
        }
      ],
      "stateMutability": "view",
      "type": "function"
    },
    {
      "inputs": [
        {
          "internalType": "contract ERC20VotesUpgradeable",
          "name": "_token",
          "type": "address"
        }
      ],
      "name": "initialize",
      "outputs": [],
      "stateMutability": "nonpayable",
      "type": "function"
    },
    {
      "inputs": [],
      "name": "votingDelay",
      "outputs": [
        {
          "internalType": "uint256",
          "name": "",
          "type": "uint256"
        }
      ],
      "stateMutability": "pure",
      "type": "function"
    },
    {
      "inputs": [],
      "name": "votingPeriod",
      "outputs": [
        {
          "internalType": "uint256",
          "name": "",
          "type": "uint256"
        }
      ],
      "stateMutability": "pure",
      "type": "function"
    },
    {
      "inputs": [
        {
          "internalType": "uint256",
          "name": "blockNumber",
          "type": "uint256"
        }
      ],
      "name": "quorum",
      "outputs": [
        {
          "internalType": "uint256",
          "name": "",
          "type": "uint256"
        }
      ],
      "stateMutability": "view",
      "type": "function"
    },
    {
      "inputs": [
        {
          "internalType": "address",
          "name": "account",
          "type": "address"
        },
        {
          "internalType": "uint256",
          "name": "blockNumber",
          "type": "uint256"
        }
      ],
      "name": "getVotes",
      "outputs": [
        {
          "internalType": "uint256",
          "name": "",
          "type": "uint256"
        }
      ],
      "stateMutability": "view",
      "type": "function"
    }
  ],
  "bytecode": "0x60a06040523073ffffffffffffffffffffffffffffffffffffffff1660809073ffffffffffffffffffffffffffffffffffffffff168152503480156200004457600080fd5b50600060019054906101000a900460ff16806200006c575060008054906101000a900460ff16155b620000ae576040517f08c379a0000000000000000000000000000000000000000000000000000000008152600401620000a590620001af565b60405180910390fd5b60008060019054906101000a900460ff161590508015620000ff576001600060016101000a81548160ff02191690831515021790555060016000806101000a81548160ff0219169083151502179055505b8015620001215760008060016101000a81548160ff0219169083151502179055505b50620001d1565b600082825260208201905092915050565b7f496e697469616c697a61626c653a20636f6e747261637420697320616c72656160008201527f647920696e697469616c697a6564000000000000000000000000000000000000602082015250565b600062000197602e8362000128565b9150620001a48262000139565b604082019050919050565b60006020820190508181036000830152620001ca8162000188565b9050919050565b608051615f686200020260003960008181610ae401528181610b7301528181610f320152610fc10152615f686000f3fe6080604052600436106101cd5760003560e01c8063715018a6116100f7578063c4d66de811610095578063eb9019d411610064578063eb9019d4146106d4578063f2fde38b14610711578063f8ce560a1461073a578063fc0c546a14610777576101cd565b8063c4d66de814610618578063c59057e414610641578063dd4e2ba51461067e578063deaaa7cc146106a9576101cd565b80638da5cb5b116100d15780638da5cb5b1461055a57806397c3d33414610585578063a7713a70146105b0578063c01f9e37146105db576101cd565b8063715018a6146104c95780637b3c71d3146104e05780637d5e81e21461051d576101cd565b80633932abb11161016f5780634f1ef2861161013e5780634f1ef28614610406578063544ffc9c1461042257806354fd4d5014610461578063567813881461048c576101cd565b80633932abb1146103245780633bccf4fd1461034f5780633e4f49e61461038c57806343859632146103c9576101cd565b806306fdde03116101ab57806306fdde03146102635780632656227d1461028e5780632d63f693146102be5780633659cfe6146102fb576101cd565b806301ffc9a7146101d257806302a251a31461020f57806306f3f9e61461023a575b600080fd5b3480156101de57600080fd5b506101f960048036038101906101f49190613b9f565b6107a2565b6040516102069190613be7565b60405180910390f35b34801561021b57600080fd5b5061022461081c565b6040516102319190613c1b565b60405180910390f35b34801561024657600080fd5b50610261600480360381019061025c9190613c62565b610826565b005b34801561026f57600080fd5b506102786108ae565b6040516102859190613d28565b60405180910390f35b6102a860048036038101906102a3919061417f565b610940565b6040516102b59190613c1b565b60405180910390f35b3480156102ca57600080fd5b506102e560048036038101906102e09190613c62565b610a74565b6040516102f29190613c1b565b60405180910390f35b34801561030757600080fd5b50610322600480360381019061031d919061423a565b610ae2565b005b34801561033057600080fd5b50610339610c6b565b6040516103469190613c1b565b60405180910390f35b34801561035b57600080fd5b50610376600480360381019061037191906142a0565b610c74565b6040516103839190613c1b565b60405180910390f35b34801561039857600080fd5b506103b360048036038101906103ae9190613c62565b610cfe565b6040516103c09190614392565b60405180910390f35b3480156103d557600080fd5b506103f060048036038101906103eb91906143ad565b610ec5565b6040516103fd9190613be7565b60405180910390f35b610420600480360381019061041b91906143ed565b610f30565b005b34801561042e57600080fd5b5061044960048036038101906104449190613c62565b61106d565b60405161045893929190614449565b60405180910390f35b34801561046d57600080fd5b506104766110a5565b6040516104839190613d28565b60405180910390f35b34801561049857600080fd5b506104b360048036038101906104ae9190614480565b6110e2565b6040516104c09190613c1b565b60405180910390f35b3480156104d557600080fd5b506104de611113565b005b3480156104ec57600080fd5b506105076004803603810190610502919061451b565b61119b565b6040516105149190613c1b565b60405180910390f35b34801561052957600080fd5b50610544600480360381019061053f9190614630565b611203565b6040516105519190613c1b565b60405180910390f35b34801561056657600080fd5b5061056f6114a3565b60405161057c9190614716565b60405180910390f35b34801561059157600080fd5b5061059a6114ce565b6040516105a79190613c1b565b60405180910390f35b3480156105bc57600080fd5b506105c56114d7565b6040516105d29190613c1b565b60405180910390f35b3480156105e757600080fd5b5061060260048036038101906105fd9190613c62565b6114e2565b60405161060f9190613c1b565b60405180910390f35b34801561062457600080fd5b5061063f600480360381019061063a919061476f565b611550565b005b34801561064d57600080fd5b506106686004803603810190610663919061417f565b611693565b6040516106759190613c1b565b60405180910390f35b34801561068a57600080fd5b506106936116cf565b6040516106a09190613d28565b60405180910390f35b3480156106b557600080fd5b506106be61170c565b6040516106cb91906147ab565b60405180910390f35b3480156106e057600080fd5b506106fb60048036038101906106f691906147c6565b611730565b6040516107089190613c1b565b60405180910390f35b34801561071d57600080fd5b506107386004803603810190610733919061423a565b611744565b005b34801561074657600080fd5b50610761600480360381019061075c9190613c62565b61183c565b60405161076e9190613c1b565b60405180910390f35b34801561078357600080fd5b5061078c61184e565b6040516107999190614865565b60405180910390f35b60007fbf26d897000000000000000000000000000000000000000000000000000000007bffffffffffffffffffffffffffffffffffffffffffffffffffffffff1916827bffffffffffffffffffffffffffffffffffffffffffffffffffffffff19161480610815575061081482611875565b5b9050919050565b600061b2fa905090565b61082e6118df565b73ffffffffffffffffffffffffffffffffffffffff1661084c6118e7565b73ffffffffffffffffffffffffffffffffffffffff16146108a2576040517f08c379a0000000000000000000000000000000000000000000000000000000008152600401610899906148cc565b60405180910390fd5b6108ab816118ef565b50565b606060cb80546108bd9061491b565b80601f01602080910402602001604051908101604052809291908181526020018280546108e99061491b565b80156109365780601f1061090b57610100808354040283529160200191610936565b820191906000526020600020905b81548152906001019060200180831161091957829003601f168201915b5050505050905090565b60008061094f86868686611693565b9050600061095c82610cfe565b9050600460078111156109725761097161431b565b5b8160078111156109855761098461431b565b5b14806109b55750600560078111156109a05761099f61431b565b5b8160078111156109b3576109b261431b565b5b145b6109f4576040517f08c379a00000000000000000000000000000000000000000000000000000000081526004016109eb906149bf565b60405180910390fd5b600160cc600084815260200190815260200160002060020160006101000a81548160ff0219169083151502179055507f712ae1383f79ac853f8d882153778e0260ef8f03b504e2866e0593e04d2b291f82604051610a529190613c1b565b60405180910390a1610a678288888888611986565b8192505050949350505050565b6000610ad160cc60008481526020019081526020016000206000016040518060200160405290816000820160009054906101000a900467ffffffffffffffff1667ffffffffffffffff1667ffffffffffffffff1681525050611a95565b67ffffffffffffffff169050919050565b7f000000000000000000000000000000000000000000000000000000000000000073ffffffffffffffffffffffffffffffffffffffff163073ffffffffffffffffffffffffffffffffffffffff161415610b71576040517f08c379a0000000000000000000000000000000000000000000000000000000008152600401610b6890614a51565b60405180910390fd5b7f000000000000000000000000000000000000000000000000000000000000000073ffffffffffffffffffffffffffffffffffffffff16610bb0611aa3565b73ffffffffffffffffffffffffffffffffffffffff1614610c06576040517f08c379a0000000000000000000000000000000000000000000000000000000008152600401610bfd90614ae3565b60405180910390fd5b610c0f81611afa565b610c6881600067ffffffffffffffff811115610c2e57610c2d613d4f565b5b6040519080825280601f01601f191660200182016040528015610c605781602001600182028036833780820191505090505b506000611b79565b50565b60006001905090565b600080610cd5610ccd7f150214d74d59b7d1e90c73fc22ef3d991dd0a76b046543d4d80ab92d2a50328f8989604051602001610cb293929190614b12565b60405160208183030381529060405280519060200120611d4a565b868686611d64565b9050610cf287828860405180602001604052806000815250611d8f565b91505095945050505050565b60008060cc6000848152602001908152602001600020604051806080016040529081600082016040518060200160405290816000820160009054906101000a900467ffffffffffffffff1667ffffffffffffffff1667ffffffffffffffff16815250508152602001600182016040518060200160405290816000820160009054906101000a900467ffffffffffffffff1667ffffffffffffffff1667ffffffffffffffff168152505081526020016002820160009054906101000a900460ff161515151581526020016002820160019054906101000a900460ff1615151515815250509050806040015115610df7576007915050610ec0565b806060015115610e0b576002915050610ec0565b610e188160000151611ee3565b15610e27576000915050610ec0565b610e348160200151611ee3565b15610e43576001915050610ec0565b610e508160200151611efd565b15610e8557610e5e83611f29565b8015610e6f5750610e6e83611f70565b5b610e7a576003610e7d565b60045b915050610ec0565b6040517f08c379a0000000000000000000000000000000000000000000000000000000008152600401610eb790614b95565b60405180910390fd5b919050565b600060fd600084815260200190815260200160002060030160008373ffffffffffffffffffffffffffffffffffffffff1673ffffffffffffffffffffffffffffffffffffffff16815260200190815260200160002060009054906101000a900460ff16905092915050565b7f000000000000000000000000000000000000000000000000000000000000000073ffffffffffffffffffffffffffffffffffffffff163073ffffffffffffffffffffffffffffffffffffffff161415610fbf576040517f08c379a0000000000000000000000000000000000000000000000000000000008152600401610fb690614a51565b60405180910390fd5b7f000000000000000000000000000000000000000000000000000000000000000073ffffffffffffffffffffffffffffffffffffffff16610ffe611aa3565b73ffffffffffffffffffffffffffffffffffffffff1614611054576040517f08c379a000000000000000000000000000000000000000000000000000000000815260040161104b90614ae3565b60405180910390fd5b61105d82611afa565b61106982826001611b79565b5050565b60008060008060fd60008681526020019081526020016000209050806000015481600101548260020154935093509350509193909250565b60606040518060400160405280600181526020017f3100000000000000000000000000000000000000000000000000000000000000815250905090565b6000806110ed6118e7565b905061110a84828560405180602001604052806000815250611d8f565b91505092915050565b61111b6118e7565b73ffffffffffffffffffffffffffffffffffffffff166111396114a3565b73ffffffffffffffffffffffffffffffffffffffff161461118f576040517f08c379a000000000000000000000000000000000000000000000000000000000815260040161118690614c01565b60405180910390fd5b6111996000611f9b565b565b6000806111a66118e7565b90506111f886828787878080601f016020809104026020016040519081016040528093929190818152602001838380828437600081840152601f19601f82011690508083019250505050505050611d8f565b915050949350505050565b6000806112198686868680519060200120611693565b9050845186511461125f576040517f08c379a000000000000000000000000000000000000000000000000000000000815260040161125690614c93565b60405180910390fd5b83518651146112a3576040517f08c379a000000000000000000000000000000000000000000000000000000000815260040161129a90614c93565b60405180910390fd5b60008651116112e7576040517f08c379a00000000000000000000000000000000000000000000000000000000081526004016112de90614cff565b60405180910390fd5b600060cc60008381526020019081526020016000209050611347816000016040518060200160405290816000820160009054906101000a900467ffffffffffffffff1667ffffffffffffffff1667ffffffffffffffff1681525050612063565b611386576040517f08c379a000000000000000000000000000000000000000000000000000000000815260040161137d90614d91565b60405180910390fd5b6000611398611393610c6b565b61207d565b6113a14361207d565b6113ab9190614df4565b905060006113bf6113ba61081c565b61207d565b826113ca9190614df4565b90506113e282846000016120d490919063ffffffff16565b6113f881846001016120d490919063ffffffff16565b7f7d84a6263ae0d98d3329bd7b46bb4e8d6f98cd35a7adb45c274c8b7fd5ebd5e0846114226118e7565b8b8b8d5167ffffffffffffffff81111561143f5761143e613d4f565b5b60405190808252806020026020018201604052801561147257816020015b606081526020019060019003908161145d5790505b508c88888e60405161148c99989796959493929190615202565b60405180910390a183945050505050949350505050565b600061019460009054906101000a900473ffffffffffffffffffffffffffffffffffffffff16905090565b60006064905090565b600061016254905090565b600061153f60cc60008481526020019081526020016000206001016040518060200160405290816000820160009054906101000a900467ffffffffffffffff1667ffffffffffffffff1667ffffffffffffffff1681525050611a95565b67ffffffffffffffff169050919050565b600060019054906101000a900460ff1680611576575060008054906101000a900460ff16155b6115b5576040517f08c379a00000000000000000000000000000000000000000000000000000000081526004016115ac90615324565b60405180910390fd5b60008060019054906101000a900460ff161590508015611605576001600060016101000a81548160ff02191690831515021790555060016000806101000a81548160ff0219169083151502179055505b6116436040518060400160405280600a81526020017f4d79476f7665726e6f7200000000000000000000000000000000000000000000815250612103565b61164b61220f565b61165482612308565b61165e6004612403565b6116666124fe565b61166e6125e7565b801561168f5760008060016101000a81548160ff0219169083151502179055505b5050565b6000848484846040516020016116ac9493929190615344565b6040516020818303038152906040528051906020012060001c9050949350505050565b60606040518060400160405280602081526020017f737570706f72743d627261766f2671756f72756d3d666f722c6162737461696e815250905090565b7f150214d74d59b7d1e90c73fc22ef3d991dd0a76b046543d4d80ab92d2a50328f81565b600061173c83836126d0565b905092915050565b61174c6118e7565b73ffffffffffffffffffffffffffffffffffffffff1661176a6114a3565b73ffffffffffffffffffffffffffffffffffffffff16146117c0576040517f08c379a00000000000000000000000000000000000000000000000000000000081526004016117b790614c01565b60405180910390fd5b600073ffffffffffffffffffffffffffffffffffffffff168173ffffffffffffffffffffffffffffffffffffffff161415611830576040517f08c379a000000000000000000000000000000000000000000000000000000000815260040161182790615410565b60405180910390fd5b61183981611f9b565b50565b600061184782612788565b9050919050565b61012f60009054906101000a900473ffffffffffffffffffffffffffffffffffffffff1681565b60007f01ffc9a7000000000000000000000000000000000000000000000000000000007bffffffffffffffffffffffffffffffffffffffffffffffffffffffff1916827bffffffffffffffffffffffffffffffffffffffffffffffffffffffff1916149050919050565b600030905090565b600033905090565b6118f76114ce565b811115611939576040517f08c379a0000000000000000000000000000000000000000000000000000000008152600401611930906154c8565b60405180910390fd5b600061016254905081610162819055507f0553476bf02ef2726e8ce5ced78d63e26e602e4a2257b1f559418e24b4633997818360405161197a9291906154e8565b60405180910390a15050565b6000604051806060016040528060278152602001615ee560279139905060005b8551811015611a8c576000808783815181106119c5576119c4615511565b5b602002602001015173ffffffffffffffffffffffffffffffffffffffff168784815181106119f6576119f5615511565b5b6020026020010151878581518110611a1157611a10615511565b5b6020026020010151604051611a26919061557c565b60006040518083038185875af1925050503d8060008114611a63576040519150601f19603f3d011682016040523d82523d6000602084013e611a68565b606091505b5091509150611a78828286612861565b50505080611a8590615593565b90506119a6565b50505050505050565b600081600001519050919050565b6000611ad17f360894a13ba1a3210667c828492db98dca3e2076cc3735a920a3ca505d382bbc60001b6128c8565b60000160009054906101000a900473ffffffffffffffffffffffffffffffffffffffff16905090565b611b026118e7565b73ffffffffffffffffffffffffffffffffffffffff16611b206114a3565b73ffffffffffffffffffffffffffffffffffffffff1614611b76576040517f08c379a0000000000000000000000000000000000000000000000000000000008152600401611b6d90614c01565b60405180910390fd5b50565b6000611b83611aa3565b9050611b8e846128d2565b600083511180611b9b5750815b15611bac57611baa848461298b565b505b6000611bda7f4910fdfa16fed3260ed0e7147f7cc6da11a60208b5b9406d12a635614ffd914360001b612a6f565b90508060000160009054906101000a900460ff16611d435760018160000160006101000a81548160ff021916908315150217905550611ca68583604051602401611c249190614716565b6040516020818303038152906040527f3659cfe6000000000000000000000000000000000000000000000000000000007bffffffffffffffffffffffffffffffffffffffffffffffffffffffff19166020820180517bffffffffffffffffffffffffffffffffffffffffffffffffffffffff838183161783525050505061298b565b5060008160000160006101000a81548160ff021916908315150217905550611ccc611aa3565b73ffffffffffffffffffffffffffffffffffffffff168273ffffffffffffffffffffffffffffffffffffffff1614611d39576040517f08c379a0000000000000000000000000000000000000000000000000000000008152600401611d309061564e565b60405180910390fd5b611d4285612a79565b5b5050505050565b6000611d5d611d57612ac8565b83612b08565b9050919050565b6000806000611d7587878787612b3b565b91509150611d8281612c48565b8192505050949350505050565b60008060cc6000878152602001908152602001600020905060016007811115611dbb57611dba61431b565b5b611dc487610cfe565b6007811115611dd657611dd561431b565b5b14611e16576040517f08c379a0000000000000000000000000000000000000000000000000000000008152600401611e0d906156e0565b60405180910390fd5b6000611e7486611e65846000016040518060200160405290816000820160009054906101000a900467ffffffffffffffff1667ffffffffffffffff1667ffffffffffffffff1681525050611a95565b67ffffffffffffffff16611730565b9050611e8287878784612e1d565b8573ffffffffffffffffffffffffffffffffffffffff167fb8e138887d0aa13bab447e82de9d5c1777041ecd21ca36ba824ff1e6c07ddda488878488604051611ece9493929190615700565b60405180910390a28092505050949350505050565b600043826000015167ffffffffffffffff16119050919050565b6000611f0882613023565b8015611f22575043826000015167ffffffffffffffff1611155b9050919050565b60008060fd6000848152602001908152602001600020905080600201548160010154611f55919061574c565b611f66611f6185610a74565b61183c565b1115915050919050565b60008060fd600084815260200190815260200160002090508060000154816001015411915050919050565b600061019460009054906101000a900473ffffffffffffffffffffffffffffffffffffffff1690508161019460006101000a81548173ffffffffffffffffffffffffffffffffffffffff021916908373ffffffffffffffffffffffffffffffffffffffff1602179055508173ffffffffffffffffffffffffffffffffffffffff168173ffffffffffffffffffffffffffffffffffffffff167f8be0079c531659141344cd1fd0a4f28419497f9722a3daafe3b4186f6b6457e060405160405180910390a35050565b600080826000015167ffffffffffffffff16149050919050565b600067ffffffffffffffff80168211156120cc576040517f08c379a00000000000000000000000000000000000000000000000000000000081526004016120c390615814565b60405180910390fd5b819050919050565b808260000160006101000a81548167ffffffffffffffff021916908367ffffffffffffffff1602179055505050565b600060019054906101000a900460ff1680612129575060008054906101000a900460ff16155b612168576040517f08c379a000000000000000000000000000000000000000000000000000000000815260040161215f90615324565b60405180910390fd5b60008060019054906101000a900460ff1615905080156121b8576001600060016101000a81548160ff02191690831515021790555060016000806101000a81548160ff0219169083151502179055505b6121c061303d565b6121c8613116565b6121d9826121d46110a5565b6131ef565b6121e16132f2565b6121ea826133cb565b801561220b5760008060016101000a81548160ff0219169083151502179055505b5050565b600060019054906101000a900460ff1680612235575060008054906101000a900460ff16155b612274576040517f08c379a000000000000000000000000000000000000000000000000000000000815260040161226b90615324565b60405180910390fd5b60008060019054906101000a900460ff1615905080156122c4576001600060016101000a81548160ff02191690831515021790555060016000806101000a81548160ff0219169083151502179055505b6122cc61303d565b6122d4613116565b6122dc6132f2565b6122e46134bc565b80156123055760008060016101000a81548160ff0219169083151502179055505b50565b600060019054906101000a900460ff168061232e575060008054906101000a900460ff16155b61236d576040517f08c379a000000000000000000000000000000000000000000000000000000000815260040161236490615324565b60405180910390fd5b60008060019054906101000a900460ff1615905080156123bd576001600060016101000a81548160ff02191690831515021790555060016000806101000a81548160ff0219169083151502179055505b6123c561303d565b6123cd613116565b6123d56132f2565b6123de82613595565b80156123ff5760008060016101000a81548160ff0219169083151502179055505b5050565b600060019054906101000a900460ff1680612429575060008054906101000a900460ff16155b612468576040517f08c379a000000000000000000000000000000000000000000000000000000000815260040161245f90615324565b60405180910390fd5b60008060019054906101000a900460ff1615905080156124b8576001600060016101000a81548160ff02191690831515021790555060016000806101000a81548160ff0219169083151502179055505b6124c061303d565b6124c8613116565b6124d06132f2565b6124d9826136b1565b80156124fa5760008060016101000a81548160ff0219169083151502179055505b5050565b600060019054906101000a900460ff1680612524575060008054906101000a900460ff16155b612563576040517f08c379a000000000000000000000000000000000000000000000000000000000815260040161255a90615324565b60405180910390fd5b60008060019054906101000a900460ff1615905080156125b3576001600060016101000a81548160ff02191690831515021790555060016000806101000a81548160ff0219169083151502179055505b6125bb61303d565b6125c3613794565b80156125e45760008060016101000a81548160ff0219169083151502179055505b50565b600060019054906101000a900460ff168061260d575060008054906101000a900460ff16155b61264c576040517f08c379a000000000000000000000000000000000000000000000000000000000815260040161264390615324565b60405180910390fd5b60008060019054906101000a900460ff16159050801561269c576001600060016101000a81548160ff02191690831515021790555060016000806101000a81548160ff0219169083151502179055505b6126a461387d565b6126ac613956565b80156126cd5760008060016101000a81548160ff0219169083151502179055505b50565b600061012f60009054906101000a900473ffffffffffffffffffffffffffffffffffffffff1673ffffffffffffffffffffffffffffffffffffffff16633a46b1a884846040518363ffffffff1660e01b8152600401612730929190615834565b60206040518083038186803b15801561274857600080fd5b505afa15801561275c573d6000803e3d6000fd5b505050506040513d601f19601f820116820180604052508101906127809190615872565b905092915050565b60006127926114ce565b61279a6114d7565b61012f60009054906101000a900473ffffffffffffffffffffffffffffffffffffffff1673ffffffffffffffffffffffffffffffffffffffff16638e539e8c856040518263ffffffff1660e01b81526004016127f69190613c1b565b60206040518083038186803b15801561280e57600080fd5b505afa158015612822573d6000803e3d6000fd5b505050506040513d601f19601f820116820180604052508101906128469190615872565b612850919061589f565b61285a9190615928565b9050919050565b60608315612871578290506128c1565b6000835111156128845782518084602001fd5b816040517f08c379a00000000000000000000000000000000000000000000000000000000081526004016128b89190613d28565b60405180910390fd5b9392505050565b6000819050919050565b6128db81613a2f565b61291a576040517f08c379a0000000000000000000000000000000000000000000000000000000008152600401612911906159cb565b60405180910390fd5b806129477f360894a13ba1a3210667c828492db98dca3e2076cc3735a920a3ca505d382bbc60001b6128c8565b60000160006101000a81548173ffffffffffffffffffffffffffffffffffffffff021916908373ffffffffffffffffffffffffffffffffffffffff16021790555050565b606061299683613a2f565b6129d5576040517f08c379a00000000000000000000000000000000000000000000000000000000081526004016129cc90615a5d565b60405180910390fd5b6000808473ffffffffffffffffffffffffffffffffffffffff16846040516129fd919061557c565b600060405180830381855af49150503d8060008114612a38576040519150601f19603f3d011682016040523d82523d6000602084013e612a3d565b606091505b5091509150612a658282604051806060016040528060278152602001615f0c60279139612861565b9250505092915050565b6000819050919050565b612a82816128d2565b8073ffffffffffffffffffffffffffffffffffffffff167fbc7cd75a20ee27fd9adebab32041f755214dbc6bffa90cc0225b39da2e5c2d3b60405160405180910390a250565b6000612b037f8b73c3c69bb8fe3d512ecc4cf759cc79239f7b179b0ffacaa9a75d522b39400f612af6613a42565b612afe613a4c565b613a56565b905090565b60008282604051602001612b1d929190615af5565b60405160208183030381529060405280519060200120905092915050565b6000807f7fffffffffffffffffffffffffffffff5d576e7357a4501ddfe92f46681b20a08360001c1115612b76576000600391509150612c3f565b601b8560ff1614158015612b8e5750601c8560ff1614155b15612ba0576000600491509150612c3f565b600060018787878760405160008152602001604052604051612bc59493929190615b2c565b6020604051602081039080840390855afa158015612be7573d6000803e3d6000fd5b505050602060405103519050600073ffffffffffffffffffffffffffffffffffffffff168173ffffffffffffffffffffffffffffffffffffffff161415612c3657600060019250925050612c3f565b80600092509250505b94509492505050565b60006004811115612c5c57612c5b61431b565b5b816004811115612c6f57612c6e61431b565b5b1415612c7a57612e1a565b60016004811115612c8e57612c8d61431b565b5b816004811115612ca157612ca061431b565b5b1415612ce2576040517f08c379a0000000000000000000000000000000000000000000000000000000008152600401612cd990615bbd565b60405180910390fd5b60026004811115612cf657612cf561431b565b5b816004811115612d0957612d0861431b565b5b1415612d4a576040517f08c379a0000000000000000000000000000000000000000000000000000000008152600401612d4190615c29565b60405180910390fd5b60036004811115612d5e57612d5d61431b565b5b816004811115612d7157612d7061431b565b5b1415612db2576040517f08c379a0000000000000000000000000000000000000000000000000000000008152600401612da990615cbb565b60405180910390fd5b600480811115612dc557612dc461431b565b5b816004811115612dd857612dd761431b565b5b1415612e19576040517f08c379a0000000000000000000000000000000000000000000000000000000008152600401612e1090615d4d565b60405180910390fd5b5b50565b600060fd600086815260200190815260200160002090508060030160008573ffffffffffffffffffffffffffffffffffffffff1673ffffffffffffffffffffffffffffffffffffffff16815260200190815260200160002060009054906101000a900460ff1615612ec3576040517f08c379a0000000000000000000000000000000000000000000000000000000008152600401612eba90615ddf565b60405180910390fd5b60018160030160008673ffffffffffffffffffffffffffffffffffffffff1673ffffffffffffffffffffffffffffffffffffffff16815260200190815260200160002060006101000a81548160ff02191690831515021790555060006002811115612f3157612f3061431b565b5b60ff168360ff161415612f5e5781816000016000828254612f52919061574c565b9250508190555061301c565b60016002811115612f7257612f7161431b565b5b60ff168360ff161415612f9f5781816001016000828254612f93919061574c565b9250508190555061301b565b600280811115612fb257612fb161431b565b5b60ff168360ff161415612fdf5781816002016000828254612fd3919061574c565b9250508190555061301a565b6040517f08c379a000000000000000000000000000000000000000000000000000000000815260040161301190615e71565b60405180910390fd5b5b5b5050505050565b600080826000015167ffffffffffffffff16119050919050565b600060019054906101000a900460ff1680613063575060008054906101000a900460ff16155b6130a2576040517f08c379a000000000000000000000000000000000000000000000000000000000815260040161309990615324565b60405180910390fd5b60008060019054906101000a900460ff1615905080156130f2576001600060016101000a81548160ff02191690831515021790555060016000806101000a81548160ff0219169083151502179055505b80156131135760008060016101000a81548160ff0219169083151502179055505b50565b600060019054906101000a900460ff168061313c575060008054906101000a900460ff16155b61317b576040517f08c379a000000000000000000000000000000000000000000000000000000000815260040161317290615324565b60405180910390fd5b60008060019054906101000a900460ff1615905080156131cb576001600060016101000a81548160ff02191690831515021790555060016000806101000a81548160ff0219169083151502179055505b80156131ec5760008060016101000a81548160ff0219169083151502179055505b50565b600060019054906101000a900460ff1680613215575060008054906101000a900460ff16155b613254576040517f08c379a000000000000000000000000000000000000000000000000000000000815260040161324b90615324565b60405180910390fd5b60008060019054906101000a900460ff1615905080156132a4576001600060016101000a81548160ff02191690831515021790555060016000806101000a81548160ff0219169083151502179055505b6000838051906020012090506000838051906020012090508160658190555080606681905550505080156132ed5760008060016101000a81548160ff0219169083151502179055505b505050565b600060019054906101000a900460ff1680613318575060008054906101000a900460ff16155b613357576040517f08c379a000000000000000000000000000000000000000000000000000000000815260040161334e90615324565b60405180910390fd5b60008060019054906101000a900460ff1615905080156133a7576001600060016101000a81548160ff02191690831515021790555060016000806101000a81548160ff0219169083151502179055505b80156133c85760008060016101000a81548160ff0219169083151502179055505b50565b600060019054906101000a900460ff16806133f1575060008054906101000a900460ff16155b613430576040517f08c379a000000000000000000000000000000000000000000000000000000000815260040161342790615324565b60405180910390fd5b60008060019054906101000a900460ff161590508015613480576001600060016101000a81548160ff02191690831515021790555060016000806101000a81548160ff0219169083151502179055505b8160cb9080519060200190613496929190613a90565b5080156134b85760008060016101000a81548160ff0219169083151502179055505b5050565b600060019054906101000a900460ff16806134e2575060008054906101000a900460ff16155b613521576040517f08c379a000000000000000000000000000000000000000000000000000000000815260040161351890615324565b60405180910390fd5b60008060019054906101000a900460ff161590508015613571576001600060016101000a81548160ff02191690831515021790555060016000806101000a81548160ff0219169083151502179055505b80156135925760008060016101000a81548160ff0219169083151502179055505b50565b600060019054906101000a900460ff16806135bb575060008054906101000a900460ff16155b6135fa576040517f08c379a00000000000000000000000000000000000000000000000000000000081526004016135f190615324565b60405180910390fd5b60008060019054906101000a900460ff16159050801561364a576001600060016101000a81548160ff02191690831515021790555060016000806101000a81548160ff0219169083151502179055505b8161012f60006101000a81548173ffffffffffffffffffffffffffffffffffffffff021916908373ffffffffffffffffffffffffffffffffffffffff16021790555080156136ad5760008060016101000a81548160ff0219169083151502179055505b5050565b600060019054906101000a900460ff16806136d7575060008054906101000a900460ff16155b613716576040517f08c379a000000000000000000000000000000000000000000000000000000000815260040161370d90615324565b60405180910390fd5b60008060019054906101000a900460ff161590508015613766576001600060016101000a81548160ff02191690831515021790555060016000806101000a81548160ff0219169083151502179055505b61376f826118ef565b80156137905760008060016101000a81548160ff0219169083151502179055505b5050565b600060019054906101000a900460ff16806137ba575060008054906101000a900460ff16155b6137f9576040517f08c379a00000000000000000000000000000000000000000000000000000000081526004016137f090615324565b60405180910390fd5b60008060019054906101000a900460ff161590508015613849576001600060016101000a81548160ff02191690831515021790555060016000806101000a81548160ff0219169083151502179055505b6138596138546118e7565b611f9b565b801561387a5760008060016101000a81548160ff0219169083151502179055505b50565b600060019054906101000a900460ff16806138a3575060008054906101000a900460ff16155b6138e2576040517f08c379a00000000000000000000000000000000000000000000000000000000081526004016138d990615324565b60405180910390fd5b60008060019054906101000a900460ff161590508015613932576001600060016101000a81548160ff02191690831515021790555060016000806101000a81548160ff0219169083151502179055505b80156139535760008060016101000a81548160ff0219169083151502179055505b50565b600060019054906101000a900460ff168061397c575060008054906101000a900460ff16155b6139bb576040517f08c379a00000000000000000000000000000000000000000000000000000000081526004016139b290615324565b60405180910390fd5b60008060019054906101000a900460ff161590508015613a0b576001600060016101000a81548160ff02191690831515021790555060016000806101000a81548160ff0219169083151502179055505b8015613a2c5760008060016101000a81548160ff0219169083151502179055505b50565b600080823b905060008111915050919050565b6000606554905090565b6000606654905090565b60008383834630604051602001613a71959493929190615e91565b6040516020818303038152906040528051906020012090509392505050565b828054613a9c9061491b565b90600052602060002090601f016020900481019282613abe5760008555613b05565b82601f10613ad757805160ff1916838001178555613b05565b82800160010185558215613b05579182015b82811115613b04578251825591602001919060010190613ae9565b5b509050613b129190613b16565b5090565b5b80821115613b2f576000816000905550600101613b17565b5090565b6000604051905090565b600080fd5b600080fd5b60007fffffffff0000000000000000000000000000000000000000000000000000000082169050919050565b613b7c81613b47565b8114613b8757600080fd5b50565b600081359050613b9981613b73565b92915050565b600060208284031215613bb557613bb4613b3d565b5b6000613bc384828501613b8a565b91505092915050565b60008115159050919050565b613be181613bcc565b82525050565b6000602082019050613bfc6000830184613bd8565b92915050565b6000819050919050565b613c1581613c02565b82525050565b6000602082019050613c306000830184613c0c565b92915050565b613c3f81613c02565b8114613c4a57600080fd5b50565b600081359050613c5c81613c36565b92915050565b600060208284031215613c7857613c77613b3d565b5b6000613c8684828501613c4d565b91505092915050565b600081519050919050565b600082825260208201905092915050565b60005b83811015613cc9578082015181840152602081019050613cae565b83811115613cd8576000848401525b50505050565b6000601f19601f8301169050919050565b6000613cfa82613c8f565b613d048185613c9a565b9350613d14818560208601613cab565b613d1d81613cde565b840191505092915050565b60006020820190508181036000830152613d428184613cef565b905092915050565b600080fd5b7f4e487b7100000000000000000000000000000000000000000000000000000000600052604160045260246000fd5b613d8782613cde565b810181811067ffffffffffffffff82111715613da657613da5613d4f565b5b80604052505050565b6000613db9613b33565b9050613dc58282613d7e565b919050565b600067ffffffffffffffff821115613de557613de4613d4f565b5b602082029050602081019050919050565b600080fd5b600073ffffffffffffffffffffffffffffffffffffffff82169050919050565b6000613e2682613dfb565b9050919050565b613e3681613e1b565b8114613e4157600080fd5b50565b600081359050613e5381613e2d565b92915050565b6000613e6c613e6784613dca565b613daf565b90508083825260208201905060208402830185811115613e8f57613e8e613df6565b5b835b81811015613eb85780613ea48882613e44565b845260208401935050602081019050613e91565b5050509392505050565b600082601f830112613ed757613ed6613d4a565b5b8135613ee7848260208601613e59565b91505092915050565b600067ffffffffffffffff821115613f0b57613f0a613d4f565b5b602082029050602081019050919050565b6000613f2f613f2a84613ef0565b613daf565b90508083825260208201905060208402830185811115613f5257613f51613df6565b5b835b81811015613f7b5780613f678882613c4d565b845260208401935050602081019050613f54565b5050509392505050565b600082601f830112613f9a57613f99613d4a565b5b8135613faa848260208601613f1c565b91505092915050565b600067ffffffffffffffff821115613fce57613fcd613d4f565b5b602082029050602081019050919050565b600080fd5b600067ffffffffffffffff821115613fff57613ffe613d4f565b5b61400882613cde565b9050602081019050919050565b82818337600083830152505050565b600061403761403284613fe4565b613daf565b90508281526020810184848401111561405357614052613fdf565b5b61405e848285614015565b509392505050565b600082601f83011261407b5761407a613d4a565b5b813561408b848260208601614024565b91505092915050565b60006140a76140a284613fb3565b613daf565b905080838252602082019050602084028301858111156140ca576140c9613df6565b5b835b8181101561411157803567ffffffffffffffff8111156140ef576140ee613d4a565b5b8086016140fc8982614066565b855260208501945050506020810190506140cc565b5050509392505050565b600082601f8301126141305761412f613d4a565b5b8135614140848260208601614094565b91505092915050565b6000819050919050565b61415c81614149565b811461416757600080fd5b50565b60008135905061417981614153565b92915050565b6000806000806080858703121561419957614198613b3d565b5b600085013567ffffffffffffffff8111156141b7576141b6613b42565b5b6141c387828801613ec2565b945050602085013567ffffffffffffffff8111156141e4576141e3613b42565b5b6141f087828801613f85565b935050604085013567ffffffffffffffff81111561421157614210613b42565b5b61421d8782880161411b565b925050606061422e8782880161416a565b91505092959194509250565b6000602082840312156142505761424f613b3d565b5b600061425e84828501613e44565b91505092915050565b600060ff82169050919050565b61427d81614267565b811461428857600080fd5b50565b60008135905061429a81614274565b92915050565b600080600080600060a086880312156142bc576142bb613b3d565b5b60006142ca88828901613c4d565b95505060206142db8882890161428b565b94505060406142ec8882890161428b565b93505060606142fd8882890161416a565b925050608061430e8882890161416a565b9150509295509295909350565b7f4e487b7100000000000000000000000000000000000000000000000000000000600052602160045260246000fd5b6008811061435b5761435a61431b565b5b50565b600081905061436c8261434a565b919050565b600061437c8261435e565b9050919050565b61438c81614371565b82525050565b60006020820190506143a76000830184614383565b92915050565b600080604083850312156143c4576143c3613b3d565b5b60006143d285828601613c4d565b92505060206143e385828601613e44565b9150509250929050565b6000806040838503121561440457614403613b3d565b5b600061441285828601613e44565b925050602083013567ffffffffffffffff81111561443357614432613b42565b5b61443f85828601614066565b9150509250929050565b600060608201905061445e6000830186613c0c565b61446b6020830185613c0c565b6144786040830184613c0c565b949350505050565b6000806040838503121561449757614496613b3d565b5b60006144a585828601613c4d565b92505060206144b68582860161428b565b9150509250929050565b600080fd5b60008083601f8401126144db576144da613d4a565b5b8235905067ffffffffffffffff8111156144f8576144f76144c0565b5b60208301915083600182028301111561451457614513613df6565b5b9250929050565b6000806000806060858703121561453557614534613b3d565b5b600061454387828801613c4d565b94505060206145548782880161428b565b935050604085013567ffffffffffffffff81111561457557614574613b42565b5b614581878288016144c5565b925092505092959194509250565b600067ffffffffffffffff8211156145aa576145a9613d4f565b5b6145b382613cde565b9050602081019050919050565b60006145d36145ce8461458f565b613daf565b9050828152602081018484840111156145ef576145ee613fdf565b5b6145fa848285614015565b509392505050565b600082601f83011261461757614616613d4a565b5b81356146278482602086016145c0565b91505092915050565b6000806000806080858703121561464a57614649613b3d565b5b600085013567ffffffffffffffff81111561466857614667613b42565b5b61467487828801613ec2565b945050602085013567ffffffffffffffff81111561469557614694613b42565b5b6146a187828801613f85565b935050604085013567ffffffffffffffff8111156146c2576146c1613b42565b5b6146ce8782880161411b565b925050606085013567ffffffffffffffff8111156146ef576146ee613b42565b5b6146fb87828801614602565b91505092959194509250565b61471081613e1b565b82525050565b600060208201905061472b6000830184614707565b92915050565b600061473c82613e1b565b9050919050565b61474c81614731565b811461475757600080fd5b50565b60008135905061476981614743565b92915050565b60006020828403121561478557614784613b3d565b5b60006147938482850161475a565b91505092915050565b6147a581614149565b82525050565b60006020820190506147c0600083018461479c565b92915050565b600080604083850312156147dd576147dc613b3d565b5b60006147eb85828601613e44565b92505060206147fc85828601613c4d565b9150509250929050565b6000819050919050565b600061482b61482661482184613dfb565b614806565b613dfb565b9050919050565b600061483d82614810565b9050919050565b600061484f82614832565b9050919050565b61485f81614844565b82525050565b600060208201905061487a6000830184614856565b92915050565b7f476f7665726e6f723a206f6e6c79476f7665726e616e63650000000000000000600082015250565b60006148b6601883613c9a565b91506148c182614880565b602082019050919050565b600060208201905081810360008301526148e5816148a9565b9050919050565b7f4e487b7100000000000000000000000000000000000000000000000000000000600052602260045260246000fd5b6000600282049050600182168061493357607f821691505b60208210811415614947576149466148ec565b5b50919050565b7f476f7665726e6f723a2070726f706f73616c206e6f742073756363657373667560008201527f6c00000000000000000000000000000000000000000000000000000000000000602082015250565b60006149a9602183613c9a565b91506149b48261494d565b604082019050919050565b600060208201905081810360008301526149d88161499c565b9050919050565b7f46756e6374696f6e206d7573742062652063616c6c6564207468726f7567682060008201527f64656c656761746563616c6c0000000000000000000000000000000000000000602082015250565b6000614a3b602c83613c9a565b9150614a46826149df565b604082019050919050565b60006020820190508181036000830152614a6a81614a2e565b9050919050565b7f46756e6374696f6e206d7573742062652063616c6c6564207468726f7567682060008201527f6163746976652070726f78790000000000000000000000000000000000000000602082015250565b6000614acd602c83613c9a565b9150614ad882614a71565b604082019050919050565b60006020820190508181036000830152614afc81614ac0565b9050919050565b614b0c81614267565b82525050565b6000606082019050614b27600083018661479c565b614b346020830185613c0c565b614b416040830184614b03565b949350505050565b7f476f7665726e6f723a20756e6b6e6f776e2070726f706f73616c206964000000600082015250565b6000614b7f601d83613c9a565b9150614b8a82614b49565b602082019050919050565b60006020820190508181036000830152614bae81614b72565b9050919050565b7f4f776e61626c653a2063616c6c6572206973206e6f7420746865206f776e6572600082015250565b6000614beb602083613c9a565b9150614bf682614bb5565b602082019050919050565b60006020820190508181036000830152614c1a81614bde565b9050919050565b7f476f7665726e6f723a20696e76616c69642070726f706f73616c206c656e677460008201527f6800000000000000000000000000000000000000000000000000000000000000602082015250565b6000614c7d602183613c9a565b9150614c8882614c21565b604082019050919050565b60006020820190508181036000830152614cac81614c70565b9050919050565b7f476f7665726e6f723a20656d7074792070726f706f73616c0000000000000000600082015250565b6000614ce9601883613c9a565b9150614cf482614cb3565b602082019050919050565b60006020820190508181036000830152614d1881614cdc565b9050919050565b7f476f7665726e6f723a2070726f706f73616c20616c726561647920657869737460008201527f7300000000000000000000000000000000000000000000000000000000000000602082015250565b6000614d7b602183613c9a565b9150614d8682614d1f565b604082019050919050565b60006020820190508181036000830152614daa81614d6e565b9050919050565b600067ffffffffffffffff82169050919050565b7f4e487b7100000000000000000000000000000000000000000000000000000000600052601160045260246000fd5b6000614dff82614db1565b9150614e0a83614db1565b92508267ffffffffffffffff03821115614e2757614e26614dc5565b5b828201905092915050565b600081519050919050565b600082825260208201905092915050565b6000819050602082019050919050565b614e6781613e1b565b82525050565b6000614e798383614e5e565b60208301905092915050565b6000602082019050919050565b6000614e9d82614e32565b614ea78185614e3d565b9350614eb283614e4e565b8060005b83811015614ee3578151614eca8882614e6d565b9750614ed583614e85565b925050600181019050614eb6565b5085935050505092915050565b600081519050919050565b600082825260208201905092915050565b6000819050602082019050919050565b614f2581613c02565b82525050565b6000614f378383614f1c565b60208301905092915050565b6000602082019050919050565b6000614f5b82614ef0565b614f658185614efb565b9350614f7083614f0c565b8060005b83811015614fa1578151614f888882614f2b565b9750614f9383614f43565b925050600181019050614f74565b5085935050505092915050565b600081519050919050565b600082825260208201905092915050565b6000819050602082019050919050565b600082825260208201905092915050565b6000614ff682613c8f565b6150008185614fda565b9350615010818560208601613cab565b61501981613cde565b840191505092915050565b60006150308383614feb565b905092915050565b6000602082019050919050565b600061505082614fae565b61505a8185614fb9565b93508360208202850161506c85614fca565b8060005b858110156150a857848403895281516150898582615024565b945061509483615038565b925060208a01995050600181019050615070565b50829750879550505050505092915050565b600081519050919050565b600082825260208201905092915050565b6000819050602082019050919050565b600081519050919050565b600082825260208201905092915050565b600061510d826150e6565b61511781856150f1565b9350615127818560208601613cab565b61513081613cde565b840191505092915050565b60006151478383615102565b905092915050565b6000602082019050919050565b6000615167826150ba565b61517181856150c5565b935083602082028501615183856150d6565b8060005b858110156151bf57848403895281516151a0858261513b565b94506151ab8361514f565b925060208a01995050600181019050615187565b50829750879550505050505092915050565b60006151ec6151e76151e284614db1565b614806565b613c02565b9050919050565b6151fc816151d1565b82525050565b600061012082019050615218600083018c613c0c565b615225602083018b614707565b8181036040830152615237818a614e92565b9050818103606083015261524b8189614f50565b9050818103608083015261525f8188615045565b905081810360a0830152615273818761515c565b905061528260c08301866151f3565b61528f60e08301856151f3565b8181036101008301526152a28184613cef565b90509a9950505050505050505050565b7f496e697469616c697a61626c653a20636f6e747261637420697320616c72656160008201527f647920696e697469616c697a6564000000000000000000000000000000000000602082015250565b600061530e602e83613c9a565b9150615319826152b2565b604082019050919050565b6000602082019050818103600083015261533d81615301565b9050919050565b6000608082019050818103600083015261535e8187614e92565b905081810360208301526153728186614f50565b90508181036040830152615386818561515c565b9050615395606083018461479c565b95945050505050565b7f4f776e61626c653a206e6577206f776e657220697320746865207a65726f206160008201527f6464726573730000000000000000000000000000000000000000000000000000602082015250565b60006153fa602683613c9a565b91506154058261539e565b604082019050919050565b60006020820190508181036000830152615429816153ed565b9050919050565b7f476f7665726e6f72566f74657351756f72756d4672616374696f6e3a2071756f60008201527f72756d4e756d657261746f72206f7665722071756f72756d44656e6f6d696e6160208201527f746f720000000000000000000000000000000000000000000000000000000000604082015250565b60006154b2604383613c9a565b91506154bd82615430565b606082019050919050565b600060208201905081810360008301526154e1816154a5565b9050919050565b60006040820190506154fd6000830185613c0c565b61550a6020830184613c0c565b9392505050565b7f4e487b7100000000000000000000000000000000000000000000000000000000600052603260045260246000fd5b600081905092915050565b6000615556826150e6565b6155608185615540565b9350615570818560208601613cab565b80840191505092915050565b6000615588828461554b565b915081905092915050565b600061559e82613c02565b91507fffffffffffffffffffffffffffffffffffffffffffffffffffffffffffffffff8214156155d1576155d0614dc5565b5b600182019050919050565b7f45524331393637557067726164653a207570677261646520627265616b73206660008201527f7572746865722075706772616465730000000000000000000000000000000000602082015250565b6000615638602f83613c9a565b9150615643826155dc565b604082019050919050565b600060208201905081810360008301526156678161562b565b9050919050565b7f476f7665726e6f723a20766f7465206e6f742063757272656e746c792061637460008201527f6976650000000000000000000000000000000000000000000000000000000000602082015250565b60006156ca602383613c9a565b91506156d58261566e565b604082019050919050565b600060208201905081810360008301526156f9816156bd565b9050919050565b60006080820190506157156000830187613c0c565b6157226020830186614b03565b61572f6040830185613c0c565b81810360608301526157418184613cef565b905095945050505050565b600061575782613c02565b915061576283613c02565b9250827fffffffffffffffffffffffffffffffffffffffffffffffffffffffffffffffff0382111561579757615796614dc5565b5b828201905092915050565b7f53616665436173743a2076616c756520646f65736e27742066697420696e203660008201527f3420626974730000000000000000000000000000000000000000000000000000602082015250565b60006157fe602683613c9a565b9150615809826157a2565b604082019050919050565b6000602082019050818103600083015261582d816157f1565b9050919050565b60006040820190506158496000830185614707565b6158566020830184613c0c565b9392505050565b60008151905061586c81613c36565b92915050565b60006020828403121561588857615887613b3d565b5b60006158968482850161585d565b91505092915050565b60006158aa82613c02565b91506158b583613c02565b9250817fffffffffffffffffffffffffffffffffffffffffffffffffffffffffffffffff04831182151516156158ee576158ed614dc5565b5b828202905092915050565b7f4e487b7100000000000000000000000000000000000000000000000000000000600052601260045260246000fd5b600061593382613c02565b915061593e83613c02565b92508261594e5761594d6158f9565b5b828204905092915050565b7f455243313936373a206e657720696d706c656d656e746174696f6e206973206e60008201527f6f74206120636f6e747261637400000000000000000000000000000000000000602082015250565b60006159b5602d83613c9a565b91506159c082615959565b604082019050919050565b600060208201905081810360008301526159e4816159a8565b9050919050565b7f416464726573733a2064656c65676174652063616c6c20746f206e6f6e2d636f60008201527f6e74726163740000000000000000000000000000000000000000000000000000602082015250565b6000615a47602683613c9a565b9150615a52826159eb565b604082019050919050565b60006020820190508181036000830152615a7681615a3a565b9050919050565b600081905092915050565b7f1901000000000000000000000000000000000000000000000000000000000000600082015250565b6000615abe600283615a7d565b9150615ac982615a88565b600282019050919050565b6000819050919050565b615aef615aea82614149565b615ad4565b82525050565b6000615b0082615ab1565b9150615b0c8285615ade565b602082019150615b1c8284615ade565b6020820191508190509392505050565b6000608082019050615b41600083018761479c565b615b4e6020830186614b03565b615b5b604083018561479c565b615b68606083018461479c565b95945050505050565b7f45434453413a20696e76616c6964207369676e61747572650000000000000000600082015250565b6000615ba7601883613c9a565b9150615bb282615b71565b602082019050919050565b60006020820190508181036000830152615bd681615b9a565b9050919050565b7f45434453413a20696e76616c6964207369676e6174757265206c656e67746800600082015250565b6000615c13601f83613c9a565b9150615c1e82615bdd565b602082019050919050565b60006020820190508181036000830152615c4281615c06565b9050919050565b7f45434453413a20696e76616c6964207369676e6174757265202773272076616c60008201527f7565000000000000000000000000000000000000000000000000000000000000602082015250565b6000615ca5602283613c9a565b9150615cb082615c49565b604082019050919050565b60006020820190508181036000830152615cd481615c98565b9050919050565b7f45434453413a20696e76616c6964207369676e6174757265202776272076616c60008201527f7565000000000000000000000000000000000000000000000000000000000000602082015250565b6000615d37602283613c9a565b9150615d4282615cdb565b604082019050919050565b60006020820190508181036000830152615d6681615d2a565b9050919050565b7f476f7665726e6f72566f74696e6753696d706c653a20766f746520616c72656160008201527f6479206361737400000000000000000000000000000000000000000000000000602082015250565b6000615dc9602783613c9a565b9150615dd482615d6d565b604082019050919050565b60006020820190508181036000830152615df881615dbc565b9050919050565b7f476f7665726e6f72566f74696e6753696d706c653a20696e76616c696420766160008201527f6c756520666f7220656e756d20566f7465547970650000000000000000000000602082015250565b6000615e5b603583613c9a565b9150615e6682615dff565b604082019050919050565b60006020820190508181036000830152615e8a81615e4e565b9050919050565b600060a082019050615ea6600083018861479c565b615eb3602083018761479c565b615ec0604083018661479c565b615ecd6060830185613c0c565b615eda6080830184614707565b969550505050505056fe476f7665726e6f723a2063616c6c20726576657274656420776974686f7574206d657373616765416464726573733a206c6f772d6c6576656c2064656c65676174652063616c6c206661696c6564a2646970667358221220a696d40ea7c1c1427f2a619bab237473977d4190f91f5e81776ce0dc9afa840964736f6c63430008090033",
  "immutableReferences": {
    "3834": [
      {
        "length": 32,
        "start": 2788
      },
      {
        "length": 32,
        "start": 2931
      },
      {
        "length": 32,
        "start": 3890
      },
      {
        "length": 32,
        "start": 4033
      }
    ]
  },
  "source": "// SPDX-License-Identifier: MIT\npragma solidity ^0.8.2;\n\nimport \"@openzeppelin/contracts-upgradeable/governance/GovernorUpgradeable.sol\";\nimport \"@openzeppelin/contracts-upgradeable/governance/extensions/GovernorCountingSimpleUpgradeable.sol\";\nimport \"@openzeppelin/contracts-upgradeable/governance/extensions/GovernorVotesUpgradeable.sol\";\nimport \"@openzeppelin/contracts-upgradeable/governance/extensions/GovernorVotesQuorumFractionUpgradeable.sol\";\nimport \"@openzeppelin/contracts-upgradeable/proxy/utils/Initializable.sol\";\nimport \"@openzeppelin/contracts-upgradeable/access/OwnableUpgradeable.sol\";\nimport \"@openzeppelin/contracts-upgradeable/proxy/utils/UUPSUpgradeable.sol\";\n\ncontract MyGovernor is Initializable, GovernorUpgradeable, GovernorCountingSimpleUpgradeable, GovernorVotesUpgradeable, GovernorVotesQuorumFractionUpgradeable, OwnableUpgradeable, UUPSUpgradeable {\n    /// @custom:oz-upgrades-unsafe-allow constructor\n    constructor() initializer {}\n\n    function initialize(ERC20VotesUpgradeable _token) initializer public {\n        __Governor_init(\"MyGovernor\");\n        __GovernorCountingSimple_init();\n        __GovernorVotes_init(_token);\n        __GovernorVotesQuorumFraction_init(4);\n        __Ownable_init();\n        __UUPSUpgradeable_init();\n    }\n\n    function votingDelay() public pure override returns (uint256) {\n        return 1; // 1 block\n    }\n\n    function votingPeriod() public pure override returns (uint256) {\n        return 45818; // 1 week\n    }\n\n    function _authorizeUpgrade(address newImplementation)\n        internal\n        onlyOwner\n        override\n    {}\n\n    // The following functions are overrides required by Solidity.\n\n    function quorum(uint256 blockNumber)\n        public\n        view\n        override(IGovernorUpgradeable, GovernorVotesQuorumFractionUpgradeable)\n        returns (uint256)\n    {\n        return super.quorum(blockNumber);\n    }\n\n    function getVotes(address account, uint256 blockNumber)\n        public\n        view\n        override(IGovernorUpgradeable, GovernorVotesUpgradeable)\n        returns (uint256)\n    {\n        return super.getVotes(account, blockNumber);\n    }\n}\n",
  "sourcePath": "/run/media/rasguy92/SDD (windows)/projectIdeas/iconify/contracts/emptycontract.sol",
  "compiler": {
    "name": "solc",
    "version": "0.8.9+commit.e5eed63a.Emscripten.clang"
  },
  "schemaVersion": "3.4.3",
  "updatedAt": "2021-10-23T07:24:33.731Z",
  "devdoc": {
    "kind": "dev",
    "methods": {
      "COUNTING_MODE()": {
        "details": "See {IGovernor-COUNTING_MODE}."
      },
      "castVote(uint256,uint8)": {
        "details": "See {IGovernor-castVote}."
      },
      "castVoteBySig(uint256,uint8,uint8,bytes32,bytes32)": {
        "details": "See {IGovernor-castVoteBySig}."
      },
      "castVoteWithReason(uint256,uint8,string)": {
        "details": "See {IGovernor-castVoteWithReason}."
      },
      "constructor": {
        "custom:oz-upgrades-unsafe-allow": "constructor"
      },
      "execute(address[],uint256[],bytes[],bytes32)": {
        "details": "See {IGovernor-execute}."
      },
      "hasVoted(uint256,address)": {
        "details": "See {IGovernor-hasVoted}."
      },
      "hashProposal(address[],uint256[],bytes[],bytes32)": {
        "details": "See {IGovernor-hashProposal}. The proposal id is produced by hashing the RLC encoded `targets` array, the `values` array, the `calldatas` array and the descriptionHash (bytes32 which itself is the keccak256 hash of the description string). This proposal id can be produced from the proposal data which is part of the {ProposalCreated} event. It can even be computed in advance, before the proposal is submitted. Note that the chainId and the governor address are not part of the proposal id computation. Consequently, the same proposal (with same operation and same description) will have the same id if submitted on multiple governors accross multiple networks. This also means that in order to execute the same operation twice (on the same governor) the proposer will have to change the description in order to avoid proposal id conflicts."
      },
      "name()": {
        "details": "See {IGovernor-name}."
      },
      "owner()": {
        "details": "Returns the address of the current owner."
      },
      "proposalDeadline(uint256)": {
        "details": "See {IGovernor-proposalDeadline}."
      },
      "proposalSnapshot(uint256)": {
        "details": "See {IGovernor-proposalSnapshot}."
      },
      "proposalVotes(uint256)": {
        "details": "Accessor to the internal vote counts."
      },
      "propose(address[],uint256[],bytes[],string)": {
        "details": "See {IGovernor-propose}."
      },
      "renounceOwnership()": {
        "details": "Leaves the contract without owner. It will not be possible to call `onlyOwner` functions anymore. Can only be called by the current owner. NOTE: Renouncing ownership will leave the contract without an owner, thereby removing any functionality that is only available to the owner."
      },
      "state(uint256)": {
        "details": "See {IGovernor-state}."
      },
      "supportsInterface(bytes4)": {
        "details": "See {IERC165-supportsInterface}."
      },
      "transferOwnership(address)": {
        "details": "Transfers ownership of the contract to a new account (`newOwner`). Can only be called by the current owner."
      },
      "upgradeTo(address)": {
        "details": "Upgrade the implementation of the proxy to `newImplementation`. Calls {_authorizeUpgrade}. Emits an {Upgraded} event."
      },
      "upgradeToAndCall(address,bytes)": {
        "details": "Upgrade the implementation of the proxy to `newImplementation`, and subsequently execute the function call encoded in `data`. Calls {_authorizeUpgrade}. Emits an {Upgraded} event."
      },
      "version()": {
        "details": "See {IGovernor-version}."
      },
      "votingDelay()": {
        "details": "delay, in number of block, between the proposal is created and the vote starts. This can be increassed to leave time for users to buy voting power, of delegate it, before the voting of a proposal starts."
      },
      "votingPeriod()": {
        "details": "delay, in number of blocks, between the vote start and vote ends. Note: the {votingDelay} can delay the start of the vote. This must be considered when setting the voting duration compared to the voting delay."
      }
    },
    "version": 1
  },
  "userdoc": {
    "kind": "user",
    "methods": {
      "votingDelay()": {
        "notice": "module:user-config"
      },
      "votingPeriod()": {
        "notice": "module:user-config"
      }
    },
    "version": 1
  }
}